{
  "_format": "hh-sol-artifact-1",
  "contractName": "MockCurveMetaPool",
  "sourceName": "contracts/z_mocks/shared/MockCurveMetaPool.sol",
  "abi": [
    {
      "inputs": [
        {
          "internalType": "address[]",
          "name": "_coins",
          "type": "address[]"
        },
        {
          "internalType": "address",
          "name": "_mUSD",
          "type": "address"
        }
      ],
      "stateMutability": "nonpayable",
      "type": "constructor"
    },
    {
      "inputs": [
        {
          "internalType": "uint256",
          "name": "",
          "type": "uint256"
        }
      ],
      "name": "coins",
      "outputs": [
        {
          "internalType": "address",
          "name": "",
          "type": "address"
        }
      ],
      "stateMutability": "view",
      "type": "function"
    },
    {
      "inputs": [
        {
          "internalType": "int128",
          "name": "i",
          "type": "int128"
        },
        {
          "internalType": "int128",
          "name": "j",
          "type": "int128"
        },
        {
          "internalType": "uint256",
          "name": "dx",
          "type": "uint256"
        },
        {
          "internalType": "uint256",
          "name": "min_dy",
          "type": "uint256"
        }
      ],
      "name": "exchange_underlying",
      "outputs": [
        {
          "internalType": "uint256",
          "name": "",
          "type": "uint256"
        }
      ],
      "stateMutability": "nonpayable",
      "type": "function"
    },
    {
      "inputs": [
        {
          "internalType": "int128",
          "name": "i",
          "type": "int128"
        },
        {
          "internalType": "int128",
          "name": "j",
          "type": "int128"
        },
        {
          "internalType": "uint256",
          "name": "dx",
          "type": "uint256"
        }
      ],
      "name": "get_dy",
      "outputs": [
        {
          "internalType": "uint256",
          "name": "",
          "type": "uint256"
        }
      ],
      "stateMutability": "view",
      "type": "function"
    },
    {
      "inputs": [
        {
          "internalType": "uint256",
          "name": "_newRatio",
          "type": "uint256"
        }
      ],
      "name": "setRatio",
      "outputs": [],
      "stateMutability": "nonpayable",
      "type": "function"
    }
  ],
  "bytecode": "0x6080604052670d99a8cec7e2000060025534801561001c57600080fd5b5060405162000a8938038062000a8983398101604081905261003d9161019a565b806001600160a01b03168260008151811061006857634e487b7160e01b600052603260045260246000fd5b60200260200101516001600160a01b0316146100ca5760405162461bcd60e51b815260206004820152601360248201527f436f696e2030206d757374206265206d55534400000000000000000000000000604482015260640160405180910390fd5b81516100dd906000906020850190610104565b50600180546001600160a01b0319166001600160a01b039290921691909117905550610287565b828054828255906000526020600020908101928215610159579160200282015b8281111561015957825182546001600160a01b0319166001600160a01b03909116178255602090920191600190910190610124565b50610165929150610169565b5090565b5b80821115610165576000815560010161016a565b80516001600160a01b038116811461019557600080fd5b919050565b600080604083850312156101ac578182fd5b82516001600160401b03808211156101c2578384fd5b818501915085601f8301126101d5578384fd5b81516020828211156101e9576101e9610271565b808202604051601f19603f8301168101818110868211171561020d5761020d610271565b604052838152828101945085830182870184018b101561022b578889fd5b8896505b84871015610254576102408161017e565b86526001969096019594830194830161022f565b509650610264905087820161017e565b9450505050509250929050565b634e487b7160e01b600052604160045260246000fd5b6107f280620002976000396000f3fe608060405234801561001057600080fd5b506004361061004c5760003560e01c80635e0d443f14610051578063a6417ed614610077578063b2237ba31461008a578063c66106571461009f575b600080fd5b61006461005f366004610587565b6100ca565b6040519081526020015b60405180910390f35b6100646100853660046105c2565b610222565b61009d610098366004610603565b600255565b005b6100b26100ad366004610603565b6104d1565b6040516001600160a01b03909116815260200161006e565b600082600f0b60001461011a5760405162461bcd60e51b815260206004820152601360248201527213dd5d1c1d5d081b5d5cdd081899481b5554d1606a1b60448201526064015b60405180910390fd5b60008061012986600f0b6104fb565b8154811061014757634e487b7160e01b600052603260045260246000fd5b60009182526020808320909101546040805163313ce56760e01b815290516001600160a01b039092169450849263313ce56792600480840193829003018186803b15801561019457600080fd5b505afa1580156101a8573d6000803e3d6000fd5b505050506040513d601f19601f820116820180604052508101906101cc919061061b565b60ff1690506000670de0b6b3a76400006002548360126101ec919061078f565b6101f790600a6106a2565b6102019088610770565b61020b9190610770565b610215919061063c565b93505050505b9392505050565b600083600f0b60001461026d5760405162461bcd60e51b815260206004820152601360248201527213dd5d1c1d5d081b5d5cdd081899481b5554d1606a1b6044820152606401610111565b60008061027c87600f0b6104fb565b8154811061029a57634e487b7160e01b600052603260045260246000fd5b60009182526020808320909101546040805163313ce56760e01b815290516001600160a01b039092169450849263313ce56792600480840193829003018186803b1580156102e757600080fd5b505afa1580156102fb573d6000803e3d6000fd5b505050506040513d601f19601f8201168201806040525081019061031f919061061b565b60ff1690506000670de0b6b3a764000060025483601261033f919061078f565b61034a90600a6106a2565b6103549089610770565b61035e9190610770565b610368919061063c565b9050848110156103ba5760405162461bcd60e51b815260206004820152601d60248201527f4352563a204f757470757420616d6f756e74206e6f7420656e6f7567680000006044820152606401610111565b6040516323b872dd60e01b8152336004820152306024820152604481018790526001600160a01b038416906323b872dd90606401602060405180830381600087803b15801561040857600080fd5b505af115801561041c573d6000803e3d6000fd5b505050506040513d601f19601f820116820180604052508101906104409190610567565b5060015460405163a9059cbb60e01b8152336004820152602481018390526001600160a01b039091169063a9059cbb90604401602060405180830381600087803b15801561048d57600080fd5b505af11580156104a1573d6000803e3d6000fd5b505050506040513d601f19601f820116820180604052508101906104c59190610567565b50979650505050505050565b600081815481106104e157600080fd5b6000918252602090912001546001600160a01b0316905081565b60008082121561054d5760405162461bcd60e51b815260206004820181905260248201527f53616665436173743a2076616c7565206d75737420626520706f7369746976656044820152606401610111565b50805b919050565b8035600f81900b811461055057600080fd5b600060208284031215610578578081fd5b8151801515811461021b578182fd5b60008060006060848603121561059b578182fd5b6105a484610555565b92506105b260208501610555565b9150604084013590509250925092565b600080600080608085870312156105d7578081fd5b6105e085610555565b93506105ee60208601610555565b93969395505050506040820135916060013590565b600060208284031215610614578081fd5b5035919050565b60006020828403121561062c578081fd5b815160ff8116811461021b578182fd5b60008261065757634e487b7160e01b81526012600452602481fd5b500490565b80825b600180861161066e5750610699565b818704821115610680576106806107a6565b8086161561068d57918102915b9490941c93800261065f565b94509492505050565b600061021b60001984846000826106bb5750600161021b565b816106c85750600061021b565b81600181146106de57600281146106e857610715565b600191505061021b565b60ff8411156106f9576106f96107a6565b6001841b91508482111561070f5761070f6107a6565b5061021b565b5060208310610133831016604e8410600b8410161715610748575081810a83811115610743576107436107a6565b61021b565b610755848484600161065c565b808604821115610767576107676107a6565b02949350505050565b600081600019048311821515161561078a5761078a6107a6565b500290565b6000828210156107a1576107a16107a6565b500390565b634e487b7160e01b600052601160045260246000fdfea26469706673582212205bc7f44c8763a7241e8aefe635e029adbad0dd44d050c1f8a211db0a4e8668c364736f6c63430008020033",
  "linkReferences": {},
  "deployedLinkReferences": {}
}