{
  "_format": "hh-sol-artifact-1",
  "contractName": "MockRewardToken",
  "sourceName": "contracts/z_mocks/masset/MockRewardToken.sol",
  "abi": [
    {
      "inputs": [
        {
          "internalType": "address",
          "name": "_nexus",
          "type": "address"
        }
      ],
      "stateMutability": "nonpayable",
      "type": "constructor"
    },
    {
      "anonymous": false,
      "inputs": [
        {
          "indexed": false,
          "internalType": "address",
          "name": "token",
          "type": "address"
        },
        {
          "indexed": false,
          "internalType": "address",
          "name": "spender",
          "type": "address"
        }
      ],
      "name": "RewardTokenApproved",
      "type": "event"
    },
    {
      "inputs": [],
      "name": "approveRewardToken",
      "outputs": [],
      "stateMutability": "nonpayable",
      "type": "function"
    },
    {
      "inputs": [],
      "name": "nexus",
      "outputs": [
        {
          "internalType": "contract INexus",
          "name": "",
          "type": "address"
        }
      ],
      "stateMutability": "view",
      "type": "function"
    },
    {
      "inputs": [
        {
          "internalType": "address",
          "name": "_token",
          "type": "address"
        }
      ],
      "name": "setRewardToken",
      "outputs": [],
      "stateMutability": "nonpayable",
      "type": "function"
    }
  ],
  "bytecode": "0x60a060405234801561001057600080fd5b5060405161083338038061083383398101604081905261002f916100a0565b806001600160a01b03811661008a5760405162461bcd60e51b815260206004820152601560248201527f4e657875732061646472657373206973207a65726f0000000000000000000000604482015260640160405180910390fd5b60601b6001600160601b031916608052506100ce565b6000602082840312156100b1578081fd5b81516001600160a01b03811681146100c7578182fd5b9392505050565b60805160601c6107426100f160003960008181607d015260f601526107426000f3fe608060405234801561001057600080fd5b50600436106100415760003560e01c80638aee812714610046578063a3f5c1d214610078578063e7296454146100bb575b600080fd5b610076610054366004610605565b600080546001600160a01b0319166001600160a01b0392909216919091179055565b005b61009f7f000000000000000000000000000000000000000000000000000000000000000081565b6040516001600160a01b03909116815260200160405180910390f35b6100766040516385acd64160e01b81527f1e9cb14d7560734a61fa5ff9273953e971ff3cd9283c03d8346e3264617933d460048201526000907f00000000000000000000000000000000000000000000000000000000000000006001600160a01b0316906385acd6419060240160206040518083038186803b15801561014057600080fd5b505afa158015610154573d6000803e3d6000fd5b505050506040513d601f19601f820116820180604052508101906101789190610621565b90506001600160a01b0381166101df5760405162461bcd60e51b815260206004820152602160248201527f4c697175696461746f7220616464726573732063616e6e6f74206265207a65726044820152606f60f81b60648201526084015b60405180910390fd5b6000546101f5906001600160a01b03168261023f565b600054604080516001600160a01b03928316815291831660208301527f71b4effce66e58c9e4ad29e468e7100f7e8b5d106381fd905a25eee3ea1b6a93910160405180910390a150565b6102546001600160a01b03831682600061026e565b61026a6001600160a01b0383168260001961026e565b5050565b8015806102f75750604051636eb1769f60e11b81523060048201526001600160a01b03838116602483015284169063dd62ed3e9060440160206040518083038186803b1580156102bd57600080fd5b505afa1580156102d1573d6000803e3d6000fd5b505050506040513d601f19601f820116820180604052508101906102f5919061065d565b155b6103625760405162461bcd60e51b815260206004820152603660248201527f5361666545524332303a20617070726f76652066726f6d206e6f6e2d7a65726f60448201527520746f206e6f6e2d7a65726f20616c6c6f77616e636560501b60648201526084016101d6565b604080516001600160a01b038416602482015260448082018490528251808303909101815260649091019091526020810180516001600160e01b031663095ea7b360e01b1790526103b49084906103b9565b505050565b600061040e826040518060400160405280602081526020017f5361666545524332303a206c6f772d6c6576656c2063616c6c206661696c6564815250856001600160a01b031661048b9092919063ffffffff16565b8051909150156103b4578080602001905181019061042c919061063d565b6103b45760405162461bcd60e51b815260206004820152602a60248201527f5361666545524332303a204552433230206f7065726174696f6e20646964206e6044820152691bdd081cdd58d8d9595960b21b60648201526084016101d6565b606061049a84846000856104a4565b90505b9392505050565b6060824710156105055760405162461bcd60e51b815260206004820152602660248201527f416464726573733a20696e73756666696369656e742062616c616e636520666f6044820152651c8818d85b1b60d21b60648201526084016101d6565b843b6105535760405162461bcd60e51b815260206004820152601d60248201527f416464726573733a2063616c6c20746f206e6f6e2d636f6e747261637400000060448201526064016101d6565b600080866001600160a01b0316858760405161056f9190610675565b60006040518083038185875af1925050503d80600081146105ac576040519150601f19603f3d011682016040523d82523d6000602084013e6105b1565b606091505b50915091506105c18282866105cc565b979650505050505050565b606083156105db57508161049d565b8251156105eb5782518084602001fd5b8160405162461bcd60e51b81526004016101d69190610691565b600060208284031215610616578081fd5b813561049d816106f4565b600060208284031215610632578081fd5b815161049d816106f4565b60006020828403121561064e578081fd5b8151801515811461049d578182fd5b60006020828403121561066e578081fd5b5051919050565b600082516106878184602087016106c4565b9190910192915050565b60006020825282518060208401526106b08160408501602087016106c4565b601f01601f19169190910160400192915050565b60005b838110156106df5781810151838201526020016106c7565b838111156106ee576000848401525b50505050565b6001600160a01b038116811461070957600080fd5b5056fea26469706673582212206c445757d504d2be5d80924a9db7794413eae703777487524277ed28eac6266064736f6c63430008020033",
  "linkReferences": {},
  "deployedLinkReferences": {}
}