{
  "_format": "hh-sol-artifact-1",
  "contractName": "BoostedSavingsVault",
  "sourceName": "contracts/savings/BoostedSavingsVault.sol",
  "abi": [
    {
      "inputs": [
        {
          "internalType": "address",
          "name": "_nexus",
          "type": "address"
        },
        {
          "internalType": "address",
          "name": "_stakingToken",
          "type": "address"
        },
        {
          "internalType": "address",
          "name": "_stakingContract",
          "type": "address"
        },
        {
          "internalType": "address",
          "name": "_rewardsToken",
          "type": "address"
        },
        {
          "internalType": "address",
          "name": "_rewardsDistributor",
          "type": "address"
        }
      ],
      "payable": false,
      "stateMutability": "nonpayable",
      "type": "constructor"
    },
    {
      "anonymous": false,
      "inputs": [
        {
          "indexed": true,
          "internalType": "address",
          "name": "user",
          "type": "address"
        }
      ],
      "name": "Poked",
      "type": "event"
    },
    {
      "anonymous": false,
      "inputs": [
        {
          "indexed": false,
          "internalType": "uint256",
          "name": "reward",
          "type": "uint256"
        }
      ],
      "name": "RewardAdded",
      "type": "event"
    },
    {
      "anonymous": false,
      "inputs": [
        {
          "indexed": true,
          "internalType": "address",
          "name": "user",
          "type": "address"
        },
        {
          "indexed": false,
          "internalType": "uint256",
          "name": "reward",
          "type": "uint256"
        }
      ],
      "name": "RewardPaid",
      "type": "event"
    },
    {
      "anonymous": false,
      "inputs": [
        {
          "indexed": true,
          "internalType": "address",
          "name": "user",
          "type": "address"
        },
        {
          "indexed": false,
          "internalType": "uint256",
          "name": "amount",
          "type": "uint256"
        },
        {
          "indexed": false,
          "internalType": "address",
          "name": "payer",
          "type": "address"
        }
      ],
      "name": "Staked",
      "type": "event"
    },
    {
      "anonymous": false,
      "inputs": [
        {
          "indexed": true,
          "internalType": "address",
          "name": "user",
          "type": "address"
        },
        {
          "indexed": false,
          "internalType": "uint256",
          "name": "amount",
          "type": "uint256"
        }
      ],
      "name": "Withdrawn",
      "type": "event"
    },
    {
      "constant": true,
      "inputs": [],
      "name": "DURATION",
      "outputs": [
        {
          "internalType": "uint64",
          "name": "",
          "type": "uint64"
        }
      ],
      "payable": false,
      "stateMutability": "view",
      "type": "function"
    },
    {
      "constant": true,
      "inputs": [],
      "name": "LOCKUP",
      "outputs": [
        {
          "internalType": "uint256",
          "name": "",
          "type": "uint256"
        }
      ],
      "payable": false,
      "stateMutability": "view",
      "type": "function"
    },
    {
      "constant": true,
      "inputs": [],
      "name": "UNLOCK",
      "outputs": [
        {
          "internalType": "uint64",
          "name": "",
          "type": "uint64"
        }
      ],
      "payable": false,
      "stateMutability": "view",
      "type": "function"
    },
    {
      "constant": true,
      "inputs": [
        {
          "internalType": "address",
          "name": "_account",
          "type": "address"
        }
      ],
      "name": "balanceOf",
      "outputs": [
        {
          "internalType": "uint256",
          "name": "",
          "type": "uint256"
        }
      ],
      "payable": false,
      "stateMutability": "view",
      "type": "function"
    },
    {
      "constant": false,
      "inputs": [],
      "name": "claimReward",
      "outputs": [],
      "payable": false,
      "stateMutability": "nonpayable",
      "type": "function"
    },
    {
      "constant": false,
      "inputs": [],
      "name": "claimRewards",
      "outputs": [],
      "payable": false,
      "stateMutability": "nonpayable",
      "type": "function"
    },
    {
      "constant": false,
      "inputs": [
        {
          "internalType": "uint256",
          "name": "_first",
          "type": "uint256"
        },
        {
          "internalType": "uint256",
          "name": "_last",
          "type": "uint256"
        }
      ],
      "name": "claimRewards",
      "outputs": [],
      "payable": false,
      "stateMutability": "nonpayable",
      "type": "function"
    },
    {
      "constant": true,
      "inputs": [
        {
          "internalType": "address",
          "name": "_account",
          "type": "address"
        }
      ],
      "name": "earned",
      "outputs": [
        {
          "internalType": "uint256",
          "name": "",
          "type": "uint256"
        }
      ],
      "payable": false,
      "stateMutability": "view",
      "type": "function"
    },
    {
      "constant": false,
      "inputs": [
        {
          "internalType": "uint256",
          "name": "_first",
          "type": "uint256"
        },
        {
          "internalType": "uint256",
          "name": "_last",
          "type": "uint256"
        }
      ],
      "name": "exit",
      "outputs": [],
      "payable": false,
      "stateMutability": "nonpayable",
      "type": "function"
    },
    {
      "constant": false,
      "inputs": [],
      "name": "exit",
      "outputs": [],
      "payable": false,
      "stateMutability": "nonpayable",
      "type": "function"
    },
    {
      "constant": true,
      "inputs": [
        {
          "internalType": "address",
          "name": "_account",
          "type": "address"
        }
      ],
      "name": "getBoost",
      "outputs": [
        {
          "internalType": "uint256",
          "name": "",
          "type": "uint256"
        }
      ],
      "payable": false,
      "stateMutability": "view",
      "type": "function"
    },
    {
      "constant": true,
      "inputs": [],
      "name": "getRewardToken",
      "outputs": [
        {
          "internalType": "contract IERC20",
          "name": "",
          "type": "address"
        }
      ],
      "payable": false,
      "stateMutability": "view",
      "type": "function"
    },
    {
      "constant": true,
      "inputs": [],
      "name": "lastTimeRewardApplicable",
      "outputs": [
        {
          "internalType": "uint256",
          "name": "",
          "type": "uint256"
        }
      ],
      "payable": false,
      "stateMutability": "view",
      "type": "function"
    },
    {
      "constant": true,
      "inputs": [],
      "name": "lastUpdateTime",
      "outputs": [
        {
          "internalType": "uint256",
          "name": "",
          "type": "uint256"
        }
      ],
      "payable": false,
      "stateMutability": "view",
      "type": "function"
    },
    {
      "constant": true,
      "inputs": [],
      "name": "nexus",
      "outputs": [
        {
          "internalType": "contract INexus",
          "name": "",
          "type": "address"
        }
      ],
      "payable": false,
      "stateMutability": "view",
      "type": "function"
    },
    {
      "constant": false,
      "inputs": [
        {
          "internalType": "uint256",
          "name": "_reward",
          "type": "uint256"
        }
      ],
      "name": "notifyRewardAmount",
      "outputs": [],
      "payable": false,
      "stateMutability": "nonpayable",
      "type": "function"
    },
    {
      "constant": true,
      "inputs": [],
      "name": "periodFinish",
      "outputs": [
        {
          "internalType": "uint256",
          "name": "",
          "type": "uint256"
        }
      ],
      "payable": false,
      "stateMutability": "view",
      "type": "function"
    },
    {
      "constant": false,
      "inputs": [
        {
          "internalType": "address",
          "name": "_account",
          "type": "address"
        }
      ],
      "name": "pokeBoost",
      "outputs": [],
      "payable": false,
      "stateMutability": "nonpayable",
      "type": "function"
    },
    {
      "constant": true,
      "inputs": [
        {
          "internalType": "address",
          "name": "_account",
          "type": "address"
        }
      ],
      "name": "rawBalanceOf",
      "outputs": [
        {
          "internalType": "uint256",
          "name": "",
          "type": "uint256"
        }
      ],
      "payable": false,
      "stateMutability": "view",
      "type": "function"
    },
    {
      "constant": true,
      "inputs": [],
      "name": "rewardPerToken",
      "outputs": [
        {
          "internalType": "uint256",
          "name": "",
          "type": "uint256"
        }
      ],
      "payable": false,
      "stateMutability": "view",
      "type": "function"
    },
    {
      "constant": true,
      "inputs": [],
      "name": "rewardPerTokenStored",
      "outputs": [
        {
          "internalType": "uint256",
          "name": "",
          "type": "uint256"
        }
      ],
      "payable": false,
      "stateMutability": "view",
      "type": "function"
    },
    {
      "constant": true,
      "inputs": [],
      "name": "rewardRate",
      "outputs": [
        {
          "internalType": "uint256",
          "name": "",
          "type": "uint256"
        }
      ],
      "payable": false,
      "stateMutability": "view",
      "type": "function"
    },
    {
      "constant": true,
      "inputs": [],
      "name": "rewardsDistributor",
      "outputs": [
        {
          "internalType": "address",
          "name": "",
          "type": "address"
        }
      ],
      "payable": false,
      "stateMutability": "view",
      "type": "function"
    },
    {
      "constant": true,
      "inputs": [],
      "name": "rewardsToken",
      "outputs": [
        {
          "internalType": "contract IERC20",
          "name": "",
          "type": "address"
        }
      ],
      "payable": false,
      "stateMutability": "view",
      "type": "function"
    },
    {
      "constant": false,
      "inputs": [
        {
          "internalType": "address",
          "name": "_rewardsDistributor",
          "type": "address"
        }
      ],
      "name": "setRewardsDistribution",
      "outputs": [],
      "payable": false,
      "stateMutability": "nonpayable",
      "type": "function"
    },
    {
      "constant": false,
      "inputs": [
        {
          "internalType": "uint256",
          "name": "_amount",
          "type": "uint256"
        }
      ],
      "name": "stake",
      "outputs": [],
      "payable": false,
      "stateMutability": "nonpayable",
      "type": "function"
    },
    {
      "constant": false,
      "inputs": [
        {
          "internalType": "address",
          "name": "_beneficiary",
          "type": "address"
        },
        {
          "internalType": "uint256",
          "name": "_amount",
          "type": "uint256"
        }
      ],
      "name": "stake",
      "outputs": [],
      "payable": false,
      "stateMutability": "nonpayable",
      "type": "function"
    },
    {
      "constant": true,
      "inputs": [],
      "name": "stakingContract",
      "outputs": [
        {
          "internalType": "contract IIncentivisedVotingLockup",
          "name": "",
          "type": "address"
        }
      ],
      "payable": false,
      "stateMutability": "view",
      "type": "function"
    },
    {
      "constant": true,
      "inputs": [],
      "name": "stakingToken",
      "outputs": [
        {
          "internalType": "contract IERC20",
          "name": "",
          "type": "address"
        }
      ],
      "payable": false,
      "stateMutability": "view",
      "type": "function"
    },
    {
      "constant": true,
      "inputs": [],
      "name": "stakingContract",
      "outputs": [
        {
          "internalType": "contract IERC20",
          "name": "",
          "type": "address"
        }
      ],
      "payable": false,
      "stateMutability": "view",
      "type": "function"
    },
    {
      "constant": true,
      "inputs": [],
      "name": "totalSupply",
      "outputs": [
        {
          "internalType": "uint256",
          "name": "",
          "type": "uint256"
        }
      ],
      "payable": false,
      "stateMutability": "view",
      "type": "function"
    },
    {
      "constant": true,
      "inputs": [
        {
          "internalType": "address",
          "name": "_account",
          "type": "address"
        }
      ],
      "name": "unclaimedRewards",
      "outputs": [
        {
          "internalType": "uint256",
          "name": "amount",
          "type": "uint256"
        },
        {
          "internalType": "uint256",
          "name": "first",
          "type": "uint256"
        },
        {
          "internalType": "uint256",
          "name": "last",
          "type": "uint256"
        }
      ],
      "payable": false,
      "stateMutability": "view",
      "type": "function"
    },
    {
      "constant": true,
      "inputs": [
        {
          "internalType": "address",
          "name": "",
          "type": "address"
        }
      ],
      "name": "userClaim",
      "outputs": [
        {
          "internalType": "uint64",
          "name": "",
          "type": "uint64"
        }
      ],
      "payable": false,
      "stateMutability": "view",
      "type": "function"
    },
    {
      "constant": true,
      "inputs": [
        {
          "internalType": "address",
          "name": "",
          "type": "address"
        }
      ],
      "name": "userData",
      "outputs": [
        {
          "internalType": "uint128",
          "name": "rewardPerTokenPaid",
          "type": "uint128"
        },
        {
          "internalType": "uint128",
          "name": "rewards",
          "type": "uint128"
        },
        {
          "internalType": "uint64",
          "name": "lastAction",
          "type": "uint64"
        },
        {
          "internalType": "uint64",
          "name": "rewardCount",
          "type": "uint64"
        }
      ],
      "payable": false,
      "stateMutability": "view",
      "type": "function"
    },
    {
      "constant": true,
      "inputs": [
        {
          "internalType": "address",
          "name": "",
          "type": "address"
        },
        {
          "internalType": "uint256",
          "name": "",
          "type": "uint256"
        }
      ],
      "name": "userRewards",
      "outputs": [
        {
          "internalType": "uint64",
          "name": "start",
          "type": "uint64"
        },
        {
          "internalType": "uint64",
          "name": "finish",
          "type": "uint64"
        },
        {
          "internalType": "uint128",
          "name": "rate",
          "type": "uint128"
        }
      ],
      "payable": false,
      "stateMutability": "view",
      "type": "function"
    },
    {
      "constant": false,
      "inputs": [
        {
          "internalType": "uint256",
          "name": "_amount",
          "type": "uint256"
        }
      ],
      "name": "withdraw",
      "outputs": [],
      "payable": false,
      "stateMutability": "nonpayable",
      "type": "function"
    }
  ],
  "bytecode": "0x6080604052600060085560006009556000600a556000600b553480156200002557600080fd5b5060405162004fa738038062004fa7833981810160405260a08110156200004b57600080fd5b508051602082015160408301516060840151608090940151600080546001600160a01b0380861661010002610100600160a81b031960ff199093166001908117939093161790925580548285166001600160a01b031990911617905593949293919291859082908290811662000108576040805162461bcd60e51b815260206004820152601560248201527f4e65787573206973207a65726f20616464726573730000000000000000000000604482015290519081900360640190fd5b600580546001600160a01b039283166001600160a01b0319918216179091556006805493831693821693909317909255600780549590911694909116939093179092555050505050614e4780620001606000396000f3fe608060405234801561001057600080fd5b50600436106102105760003560e01c806372f702f311610125578063c8910913116100ad578063d1af0c7d1161007c578063d1af0c7d146105a8578063df136d65146105b0578063e9fad8ee146105b8578063ebe2b12b146105c0578063ee99205c146105c857610210565b8063c891091314610511578063c8f33c9114610572578063cd3daf9d1461057a578063cf7bf6b71461058257610210565b8063949813b8116100f4578063949813b814610474578063a3f5c1d2146104b8578063a694fc3a146104c0578063adc9772e146104dd578063b88a802f1461050957610210565b806372f702f3146104545780637b0a47ee1461045c57806380faa57d14610464578063845aef4b1461046c57610210565b8063372500ab116101a8578063594dd43211610177578063594dd4321461037e57806363c2a20a146103a157806367ba3d901461040057806369940d791461042657806370a082311461042e57610210565b8063372500ab1461032d5780633c6b16ab146103355780633f2a554014610352578063523993da1461037657610210565b806319762143116101e457806319762143146102bd5780631be05289146102e55780632af9cc41146102ed5780632e1a7d4d1461031057610210565b80628cc262146102155780630a6b433f1461024d57806312064c341461028f57806318160ddd146102b5575b600080fd5b61023b6004803603602081101561022b57600080fd5b50356001600160a01b03166105d0565b60408051918252519081900360200190f35b6102736004803603602081101561026357600080fd5b50356001600160a01b0316610664565b604080516001600160401b039092168252519081900360200190f35b61023b600480360360208110156102a557600080fd5b50356001600160a01b031661067f565b61023b61069a565b6102e3600480360360208110156102d357600080fd5b50356001600160a01b03166106a0565b005b61027361072f565b6102e36004803603604081101561030357600080fd5b5080359060200135610736565b6102e36004803603602081101561032657600080fd5b5035610c10565b6102e36110c0565b6102e36004803603602081101561034b57600080fd5b5035611582565b61035a611b94565b604080516001600160a01b039092168252519081900360200190f35b610273611ba3565b6102e36004803603604081101561039457600080fd5b5080359060200135611baf565b6103cd600480360360408110156103b757600080fd5b506001600160a01b03813516906020013561204e565b604080516001600160401b0394851681529290931660208301526001600160801b03168183015290519081900360600190f35b61023b6004803603602081101561041657600080fd5b50356001600160a01b031661209d565b61035a6120c6565b61023b6004803603602081101561044457600080fd5b50356001600160a01b03166120d5565b61035a6120f0565b61023b612104565b61023b61210a565b61023b61211d565b61049a6004803603602081101561048a57600080fd5b50356001600160a01b0316612124565b60408051938452602084019290925282820152519081900360600190f35b61035a61216a565b6102e3600480360360208110156104d657600080fd5b5035612179565b6102e3600480360360408110156104f357600080fd5b506001600160a01b038135169060200135612618565b6102e3612ab7565b6105376004803603602081101561052757600080fd5b50356001600160a01b0316612fd6565b604080516001600160801b0395861681529390941660208401526001600160401b039182168385015216606082015290519081900360800190f35b61023b613018565b61023b61301e565b6102e36004803603602081101561059857600080fd5b50356001600160a01b0316613030565b61035a613503565b61023b613512565b6102e3613518565b61023b6139c5565b61035a6139cb565b6001600160a01b0381166000908152600c602052604081205481906106079084906001600160801b031661060261301e565b6139da565b90506000610623826702c68af0bb14000063ffffffff613a2516565b6001600160a01b0385166000908152600c602052604090205490915061065a908290600160801b90046001600160801b0316613a3a565b925050505b919050565b600e602052600090815260409020546001600160401b031681565b6001600160a01b031660009081526004602052604090205490565b60025490565b6106a8613a94565b6001600160a01b0316336001600160a01b03161461070d576040805162461bcd60e51b815260206004820152601960248201527f4f6e6c7920676f7665726e6f722063616e206578656375746500000000000000604482015290519081900360640190fd5b600680546001600160a01b0319166001600160a01b0392909216919091179055565b62093a8081565b3342600061074382613b0a565b9050600080610750613b52565b90925090508115610b9d57600b829055600a8190556001600160a01b03851615610b985761077c614cd9565b506001600160a01b0385166000908152600c60209081526040808320815160808101835281546001600160801b03808216808452600160801b90920416948201949094526001909101546001600160401b0380821693830193909352600160401b9004909116606082015291906107f5908890866139da565b90508015610ac3576000610817826702c68af0bb14000063ffffffff613a2516565b9050600061082b838363ffffffff613c0716565b9050600d60008a6001600160a01b03166001600160a01b03168152602001908152602001600020604051806060016040528061088861088388604001516001600160401b031662eff100613a3a90919063ffffffff16565b613b0a565b6001600160401b031681526020016108ac61088362eff1008d63ffffffff613a3a16565b6001600160401b031681526020016108f26108ed6108e089604001516001600160401b03168e613c0790919063ffffffff16565b869063ffffffff613c4916565b613c8b565b6001600160801b0390811690915282546001810184556000938452602093849020835191018054948401516040948501518416600160801b026001600160401b03918216600160401b02600160401b600160801b0319929094166001600160401b0319909716969096171691909117909116929092179091558051608081019091528061097e88613c8b565b6001600160801b031681526020016109af6108ed87602001516001600160801b031686613a3a90919063ffffffff16565b6001600160801b03168152602001886001600160401b0316815260200185606001516001016001600160401b0316815250600c60008b6001600160a01b03166001600160a01b0316815260200190815260200160002060008201518160000160006101000a8154816001600160801b0302191690836001600160801b0316021790555060208201518160000160106101000a8154816001600160801b0302191690836001600160801b0316021790555060408201518160010160006101000a8154816001600160401b0302191690836001600160401b0316021790555060608201518160010160086101000a8154816001600160401b0302191690836001600160401b031602179055509050505050610b95565b6040518060800160405280610ad786613c8b565b6001600160801b0390811682526020858101518216818401526001600160401b03808a166040808601919091526060808901518316958101959095526001600160a01b038d166000908152600c845281902086518154948801518616600160801b029086166001600160801b031990951694909417909416929092178355908401516001909201805494909301518116600160401b02600160401b600160801b0319929091166001600160401b031990941693909317169190911790555b50505b610be1565b6001600160a01b03851615610be1576001600160a01b0385166000908152600c6020526040902060010180546001600160401b0319166001600160401b0385161790555b33610bf3610bee3361067f565b613ccf565b610bfd8888613d5a565b610c0681613e27565b5050505050505050565b33426000610c1d82613b0a565b9050600080610c2a613b52565b9092509050811561106057600b829055600a8190556001600160a01b0385161561105b57610c56614cd9565b506001600160a01b0385166000908152600c60209081526040808320815160808101835281546001600160801b03808216808452600160801b90920416948201949094526001909101546001600160401b0380821693830193909352600160401b900490911660608201529190610ccf908890866139da565b90508015610f86576000610cf1826702c68af0bb14000063ffffffff613a2516565b90506000610d05838363ffffffff613c0716565b9050600d60008a6001600160a01b03166001600160a01b031681526020019081526020016000206040518060600160405280610d5d61088388604001516001600160401b031662eff100613a3a90919063ffffffff16565b6001600160401b03168152602001610d8161088362eff1008d63ffffffff613a3a16565b6001600160401b03168152602001610db56108ed6108e089604001516001600160401b03168e613c0790919063ffffffff16565b6001600160801b0390811690915282546001810184556000938452602093849020835191018054948401516040948501518416600160801b026001600160401b03918216600160401b02600160401b600160801b0319929094166001600160401b03199097169690961716919091179091169290921790915580516080810190915280610e4188613c8b565b6001600160801b03168152602001610e726108ed87602001516001600160801b031686613a3a90919063ffffffff16565b6001600160801b03168152602001886001600160401b0316815260200185606001516001016001600160401b0316815250600c60008b6001600160a01b03166001600160a01b0316815260200190815260200160002060008201518160000160006101000a8154816001600160801b0302191690836001600160801b0316021790555060208201518160000160106101000a8154816001600160801b0302191690836001600160801b0316021790555060408201518160010160006101000a8154816001600160401b0302191690836001600160401b0316021790555060608201518160010160086101000a8154816001600160401b0302191690836001600160401b031602179055509050505050611058565b6040518060800160405280610f9a86613c8b565b6001600160801b0390811682526020858101518216818401526001600160401b03808a166040808601919091526060808901518316958101959095526001600160a01b038d166000908152600c845281902086518154948801518616600160801b029086166001600160801b031990951694909417909416929092178355908401516001909201805494909301518116600160401b02600160401b600160801b0319929091166001600160401b031990941693909317169190911790555b50505b6110a4565b6001600160a01b038516156110a4576001600160a01b0385166000908152600c6020526040902060010180546001600160401b0319166001600160401b0385161790555b336110ae87613ccf565b6110b781613e27565b50505050505050565b334260006110cd82613b0a565b90506000806110da613b52565b9092509050811561151057600b829055600a8190556001600160a01b0385161561150b57611106614cd9565b506001600160a01b0385166000908152600c60209081526040808320815160808101835281546001600160801b03808216808452600160801b90920416948201949094526001909101546001600160401b0380821693830193909352600160401b90049091166060820152919061117f908890866139da565b905080156114365760006111a1826702c68af0bb14000063ffffffff613a2516565b905060006111b5838363ffffffff613c0716565b9050600d60008a6001600160a01b03166001600160a01b03168152602001908152602001600020604051806060016040528061120d61088388604001516001600160401b031662eff100613a3a90919063ffffffff16565b6001600160401b0316815260200161123161088362eff1008d63ffffffff613a3a16565b6001600160401b031681526020016112656108ed6108e089604001516001600160401b03168e613c0790919063ffffffff16565b6001600160801b0390811690915282546001810184556000938452602093849020835191018054948401516040948501518416600160801b026001600160401b03918216600160401b02600160401b600160801b0319929094166001600160401b031990971696909617169190911790911692909217909155805160808101909152806112f188613c8b565b6001600160801b031681526020016113226108ed87602001516001600160801b031686613a3a90919063ffffffff16565b6001600160801b03168152602001886001600160401b0316815260200185606001516001016001600160401b0316815250600c60008b6001600160a01b03166001600160a01b0316815260200190815260200160002060008201518160000160006101000a8154816001600160801b0302191690836001600160801b0316021790555060208201518160000160106101000a8154816001600160801b0302191690836001600160801b0316021790555060408201518160010160006101000a8154816001600160401b0302191690836001600160401b0316021790555060608201518160010160086101000a8154816001600160401b0302191690836001600160401b031602179055509050505050611508565b604051806080016040528061144a86613c8b565b6001600160801b0390811682526020858101518216818401526001600160401b03808a166040808601919091526060808901518316958101959095526001600160a01b038d166000908152600c845281902086518154948801518616600160801b029086166001600160801b031990951694909417909416929092178355908401516001909201805494909301518116600160401b02600160401b600160801b0319929091166001600160401b031990941693909317169190911790555b50505b611554565b6001600160a01b03851615611554576001600160a01b0385166000908152600c6020526040902060010180546001600160401b0319166001600160401b0385161790555b3360008061156133613f58565b9150915061156f8282613d5a565b505061157a81613e27565b505050505050565b6006546001600160a01b031633146115e1576040805162461bcd60e51b815260206004820181905260248201527f43616c6c6572206973206e6f7420726577617264206469737472696275746f72604482015290519081900360640190fd5b600042816115ee82613b0a565b90506000806115fb613b52565b90925090508115611a3157600b829055600a8190556001600160a01b03851615611a2c57611627614cd9565b506001600160a01b0385166000908152600c60209081526040808320815160808101835281546001600160801b03808216808452600160801b90920416948201949094526001909101546001600160401b0380821693830193909352600160401b9004909116606082015291906116a0908890866139da565b905080156119575760006116c2826702c68af0bb14000063ffffffff613a2516565b905060006116d6838363ffffffff613c0716565b9050600d60008a6001600160a01b03166001600160a01b03168152602001908152602001600020604051806060016040528061172e61088388604001516001600160401b031662eff100613a3a90919063ffffffff16565b6001600160401b0316815260200161175261088362eff1008d63ffffffff613a3a16565b6001600160401b031681526020016117866108ed6108e089604001516001600160401b03168e613c0790919063ffffffff16565b6001600160801b0390811690915282546001810184556000938452602093849020835191018054948401516040948501518416600160801b026001600160401b03918216600160401b02600160401b600160801b0319929094166001600160401b0319909716969096171691909117909116929092179091558051608081019091528061181288613c8b565b6001600160801b031681526020016118436108ed87602001516001600160801b031686613a3a90919063ffffffff16565b6001600160801b03168152602001886001600160401b0316815260200185606001516001016001600160401b0316815250600c60008b6001600160a01b03166001600160a01b0316815260200190815260200160002060008201518160000160006101000a8154816001600160801b0302191690836001600160801b0316021790555060208201518160000160106101000a8154816001600160801b0302191690836001600160801b0316021790555060408201518160010160006101000a8154816001600160401b0302191690836001600160401b0316021790555060608201518160010160086101000a8154816001600160401b0302191690836001600160401b031602179055509050505050611a29565b604051806080016040528061196b86613c8b565b6001600160801b0390811682526020858101518216818401526001600160401b03808a166040808601919091526060808901518316958101959095526001600160a01b038d166000908152600c845281902086518154948801518616600160801b029086166001600160801b031990951694909417909416929092178355908401516001909201805494909301518116600160401b02600160401b600160801b0319929091166001600160401b031990941693909317169190911790555b50505b611a75565b6001600160a01b03851615611a75576001600160a01b0385166000908152600c6020526040902060010180546001600160401b0319166001600160401b0385161790555b69d3c21bcecceda10000008610611abd5760405162461bcd60e51b815260040180806020018281038252602c815260200180614d21602c913960400191505060405180910390fd5b60085442908110611ae357611adb8762093a8063ffffffff613c4916565b600955611b3d565b600854600090611af9908363ffffffff613c0716565b90506000611b1260095483613fa190919063ffffffff16565b9050611b3762093a80611b2b8b8463ffffffff613a3a16565b9063ffffffff613c4916565b60095550505b600a819055611b558162093a8063ffffffff613a3a16565b6008556040805188815290517fde88a922e0d3b88b24e9623efeb464919c6bf9f66857a65e2bfcf2ce87a9433d9181900360200190a150505050505050565b6006546001600160a01b031681565b6702c68af0bb14000081565b33426000611bbc82613b0a565b9050600080611bc9613b52565b90925090508115611fff57600b829055600a8190556001600160a01b03851615611ffa57611bf5614cd9565b506001600160a01b0385166000908152600c60209081526040808320815160808101835281546001600160801b03808216808452600160801b90920416948201949094526001909101546001600160401b0380821693830193909352600160401b900490911660608201529190611c6e908890866139da565b90508015611f25576000611c90826702c68af0bb14000063ffffffff613a2516565b90506000611ca4838363ffffffff613c0716565b9050600d60008a6001600160a01b03166001600160a01b031681526020019081526020016000206040518060600160405280611cfc61088388604001516001600160401b031662eff100613a3a90919063ffffffff16565b6001600160401b03168152602001611d2061088362eff1008d63ffffffff613a3a16565b6001600160401b03168152602001611d546108ed6108e089604001516001600160401b03168e613c0790919063ffffffff16565b6001600160801b0390811690915282546001810184556000938452602093849020835191018054948401516040948501518416600160801b026001600160401b03918216600160401b02600160401b600160801b0319929094166001600160401b03199097169690961716919091179091169290921790915580516080810190915280611de088613c8b565b6001600160801b03168152602001611e116108ed87602001516001600160801b031686613a3a90919063ffffffff16565b6001600160801b03168152602001886001600160401b0316815260200185606001516001016001600160401b0316815250600c60008b6001600160a01b03166001600160a01b0316815260200190815260200160002060008201518160000160006101000a8154816001600160801b0302191690836001600160801b0316021790555060208201518160000160106101000a8154816001600160801b0302191690836001600160801b0316021790555060408201518160010160006101000a8154816001600160401b0302191690836001600160401b0316021790555060608201518160010160086101000a8154816001600160401b0302191690836001600160401b031602179055509050505050611ff7565b6040518060800160405280611f3986613c8b565b6001600160801b0390811682526020858101518216818401526001600160401b03808a166040808601919091526060808901518316958101959095526001600160a01b038d166000908152600c845281902086518154948801518616600160801b029086166001600160801b031990951694909417909416929092178355908401516001909201805494909301518116600160401b02600160401b600160801b0319929091166001600160401b031990941693909317169190911790555b50505b612043565b6001600160a01b03851615612043576001600160a01b0385166000908152600c6020526040902060010180546001600160401b0319166001600160401b0385161790555b33610bfd8888613d5a565b600d602052816000526040600020818154811061206757fe5b6000918252602090912001546001600160401b038082169350600160401b8204169150600160801b90046001600160801b031683565b60006120c06120ab8361067f565b6120b4846120d5565b9063ffffffff613ffa16565b92915050565b6007546001600160a01b031690565b6001600160a01b031660009081526003602052604090205490565b60005461010090046001600160a01b031681565b60095481565b60006121184260085461402f565b905090565b62eff10081565b600080600061213284613f58565b90925090506000612144858484614044565b509050612160612153866105d0565b829063ffffffff613a3a16565b9350509193909250565b6005546001600160a01b031681565b3342600061218682613b0a565b9050600080612193613b52565b909250905081156125c957600b829055600a8190556001600160a01b038516156125c4576121bf614cd9565b506001600160a01b0385166000908152600c60209081526040808320815160808101835281546001600160801b03808216808452600160801b90920416948201949094526001909101546001600160401b0380821693830193909352600160401b900490911660608201529190612238908890866139da565b905080156124ef57600061225a826702c68af0bb14000063ffffffff613a2516565b9050600061226e838363ffffffff613c0716565b9050600d60008a6001600160a01b03166001600160a01b0316815260200190815260200160002060405180606001604052806122c661088388604001516001600160401b031662eff100613a3a90919063ffffffff16565b6001600160401b031681526020016122ea61088362eff1008d63ffffffff613a3a16565b6001600160401b0316815260200161231e6108ed6108e089604001516001600160401b03168e613c0790919063ffffffff16565b6001600160801b0390811690915282546001810184556000938452602093849020835191018054948401516040948501518416600160801b026001600160401b03918216600160401b02600160401b600160801b0319929094166001600160401b031990971696909617169190911790911692909217909155805160808101909152806123aa88613c8b565b6001600160801b031681526020016123db6108ed87602001516001600160801b031686613a3a90919063ffffffff16565b6001600160801b03168152602001886001600160401b0316815260200185606001516001016001600160401b0316815250600c60008b6001600160a01b03166001600160a01b0316815260200190815260200160002060008201518160000160006101000a8154816001600160801b0302191690836001600160801b0316021790555060208201518160000160106101000a8154816001600160801b0302191690836001600160801b0316021790555060408201518160010160006101000a8154816001600160401b0302191690836001600160401b0316021790555060608201518160010160086101000a8154816001600160401b0302191690836001600160401b0316021790555090505050506125c1565b604051806080016040528061250386613c8b565b6001600160801b0390811682526020858101518216818401526001600160401b03808a166040808601919091526060808901518316958101959095526001600160a01b038d166000908152600c845281902086518154948801518616600160801b029086166001600160801b031990951694909417909416929092178355908401516001909201805494909301518116600160401b02600160401b600160801b0319929091166001600160401b031990941693909317169190911790555b50505b61260d565b6001600160a01b0385161561260d576001600160a01b0385166000908152600c6020526040902060010180546001600160401b0319166001600160401b0385161790555b336110ae3388614382565b8142600061262582613b0a565b9050600080612632613b52565b90925090508115612a6857600b829055600a8190556001600160a01b03851615612a635761265e614cd9565b506001600160a01b0385166000908152600c60209081526040808320815160808101835281546001600160801b03808216808452600160801b90920416948201949094526001909101546001600160401b0380821693830193909352600160401b9004909116606082015291906126d7908890866139da565b9050801561298e5760006126f9826702c68af0bb14000063ffffffff613a2516565b9050600061270d838363ffffffff613c0716565b9050600d60008a6001600160a01b03166001600160a01b03168152602001908152602001600020604051806060016040528061276561088388604001516001600160401b031662eff100613a3a90919063ffffffff16565b6001600160401b0316815260200161278961088362eff1008d63ffffffff613a3a16565b6001600160401b031681526020016127bd6108ed6108e089604001516001600160401b03168e613c0790919063ffffffff16565b6001600160801b0390811690915282546001810184556000938452602093849020835191018054948401516040948501518416600160801b026001600160401b03918216600160401b02600160401b600160801b0319929094166001600160401b0319909716969096171691909117909116929092179091558051608081019091528061284988613c8b565b6001600160801b0316815260200161287a6108ed87602001516001600160801b031686613a3a90919063ffffffff16565b6001600160801b03168152602001886001600160401b0316815260200185606001516001016001600160401b0316815250600c60008b6001600160a01b03166001600160a01b0316815260200190815260200160002060008201518160000160006101000a8154816001600160801b0302191690836001600160801b0316021790555060208201518160000160106101000a8154816001600160801b0302191690836001600160801b0316021790555060408201518160010160006101000a8154816001600160401b0302191690836001600160401b0316021790555060608201518160010160086101000a8154816001600160401b0302191690836001600160401b031602179055509050505050612a60565b60405180608001604052806129a286613c8b565b6001600160801b0390811682526020858101518216818401526001600160401b03808a166040808601919091526060808901518316958101959095526001600160a01b038d166000908152600c845281902086518154948801518616600160801b029086166001600160801b031990951694909417909416929092178355908401516001909201805494909301518116600160401b02600160401b600160801b0319929091166001600160401b031990941693909317169190911790555b50505b612aac565b6001600160a01b03851615612aac576001600160a01b0385166000908152600c6020526040902060010180546001600160401b0319166001600160401b0385161790555b86610bfd8888614382565b33426000612ac482613b0a565b9050600080612ad1613b52565b90925090508115612f0757600b829055600a8190556001600160a01b03851615612f0257612afd614cd9565b506001600160a01b0385166000908152600c60209081526040808320815160808101835281546001600160801b03808216808452600160801b90920416948201949094526001909101546001600160401b0380821693830193909352600160401b900490911660608201529190612b76908890866139da565b90508015612e2d576000612b98826702c68af0bb14000063ffffffff613a2516565b90506000612bac838363ffffffff613c0716565b9050600d60008a6001600160a01b03166001600160a01b031681526020019081526020016000206040518060600160405280612c0461088388604001516001600160401b031662eff100613a3a90919063ffffffff16565b6001600160401b03168152602001612c2861088362eff1008d63ffffffff613a3a16565b6001600160401b03168152602001612c5c6108ed6108e089604001516001600160401b03168e613c0790919063ffffffff16565b6001600160801b0390811690915282546001810184556000938452602093849020835191018054948401516040948501518416600160801b026001600160401b03918216600160401b02600160401b600160801b0319929094166001600160401b03199097169690961716919091179091169290921790915580516080810190915280612ce888613c8b565b6001600160801b03168152602001612d196108ed87602001516001600160801b031686613a3a90919063ffffffff16565b6001600160801b03168152602001886001600160401b0316815260200185606001516001016001600160401b0316815250600c60008b6001600160a01b03166001600160a01b0316815260200190815260200160002060008201518160000160006101000a8154816001600160801b0302191690836001600160801b0316021790555060208201518160000160106101000a8154816001600160801b0302191690836001600160801b0316021790555060408201518160010160006101000a8154816001600160401b0302191690836001600160401b0316021790555060608201518160010160086101000a8154816001600160401b0302191690836001600160401b031602179055509050505050612eff565b6040518060800160405280612e4186613c8b565b6001600160801b0390811682526020858101518216818401526001600160401b03808a166040808601919091526060808901518316958101959095526001600160a01b038d166000908152600c845281902086518154948801518616600160801b029086166001600160801b031990951694909417909416929092178355908401516001909201805494909301518116600160401b02600160401b600160801b0319929091166001600160401b031990941693909317169190911790555b50505b612f4b565b6001600160a01b03851615612f4b576001600160a01b0385166000908152600c6020526040902060010180546001600160401b0319166001600160401b0385161790555b336000818152600c6020526040902080546001600160801b03808216909255600160801b9004168015612fcc57600754612f95906001600160a01b0316338363ffffffff61441816565b60408051828152905133917fe2403640ba68fed3a2f88b7557551d1993f84b99bb10ff833f0cf8db0c5e0486919081900360200190a25b5061157a81613e27565b600c60205260009081526040902080546001909101546001600160801b0380831692600160801b900416906001600160401b0380821691600160401b90041684565b600a5481565b600080613029613b52565b5091505090565b8042600061303d82613b0a565b905060008061304a613b52565b9092509050811561348057600b829055600a8190556001600160a01b0385161561347b57613076614cd9565b506001600160a01b0385166000908152600c60209081526040808320815160808101835281546001600160801b03808216808452600160801b90920416948201949094526001909101546001600160401b0380821693830193909352600160401b9004909116606082015291906130ef908890866139da565b905080156133a6576000613111826702c68af0bb14000063ffffffff613a2516565b90506000613125838363ffffffff613c0716565b9050600d60008a6001600160a01b03166001600160a01b03168152602001908152602001600020604051806060016040528061317d61088388604001516001600160401b031662eff100613a3a90919063ffffffff16565b6001600160401b031681526020016131a161088362eff1008d63ffffffff613a3a16565b6001600160401b031681526020016131d56108ed6108e089604001516001600160401b03168e613c0790919063ffffffff16565b6001600160801b0390811690915282546001810184556000938452602093849020835191018054948401516040948501518416600160801b026001600160401b03918216600160401b02600160401b600160801b0319929094166001600160401b0319909716969096171691909117909116929092179091558051608081019091528061326188613c8b565b6001600160801b031681526020016132926108ed87602001516001600160801b031686613a3a90919063ffffffff16565b6001600160801b03168152602001886001600160401b0316815260200185606001516001016001600160401b0316815250600c60008b6001600160a01b03166001600160a01b0316815260200190815260200160002060008201518160000160006101000a8154816001600160801b0302191690836001600160801b0316021790555060208201518160000160106101000a8154816001600160801b0302191690836001600160801b0316021790555060408201518160010160006101000a8154816001600160401b0302191690836001600160401b0316021790555060608201518160010160086101000a8154816001600160401b0302191690836001600160401b031602179055509050505050613478565b60405180608001604052806133ba86613c8b565b6001600160801b0390811682526020858101518216818401526001600160401b03808a166040808601919091526060808901518316958101959095526001600160a01b038d166000908152600c845281902086518154948801518616600160801b029086166001600160801b031990951694909417909416929092178355908401516001909201805494909301518116600160401b02600160401b600160801b0319929091166001600160401b031990941693909317169190911790555b50505b6134c4565b6001600160a01b038516156134c4576001600160a01b0385166000908152600c6020526040902060010180546001600160401b0319166001600160401b0385161790555b60405186906001600160a01b038216907fa31b3b303c759fa7ee31d89a1a6fb7eb704d8fe5c87aa4f60f54468ff121bee890600090a26110b781613e27565b6007546001600160a01b031681565b600b5481565b3342600061352582613b0a565b9050600080613532613b52565b9092509050811561396857600b829055600a8190556001600160a01b038516156139635761355e614cd9565b506001600160a01b0385166000908152600c60209081526040808320815160808101835281546001600160801b03808216808452600160801b90920416948201949094526001909101546001600160401b0380821693830193909352600160401b9004909116606082015291906135d7908890866139da565b9050801561388e5760006135f9826702c68af0bb14000063ffffffff613a2516565b9050600061360d838363ffffffff613c0716565b9050600d60008a6001600160a01b03166001600160a01b03168152602001908152602001600020604051806060016040528061366561088388604001516001600160401b031662eff100613a3a90919063ffffffff16565b6001600160401b0316815260200161368961088362eff1008d63ffffffff613a3a16565b6001600160401b031681526020016136bd6108ed6108e089604001516001600160401b03168e613c0790919063ffffffff16565b6001600160801b0390811690915282546001810184556000938452602093849020835191018054948401516040948501518416600160801b026001600160401b03918216600160401b02600160401b600160801b0319929094166001600160401b0319909716969096171691909117909116929092179091558051608081019091528061374988613c8b565b6001600160801b0316815260200161377a6108ed87602001516001600160801b031686613a3a90919063ffffffff16565b6001600160801b03168152602001886001600160401b0316815260200185606001516001016001600160401b0316815250600c60008b6001600160a01b03166001600160a01b0316815260200190815260200160002060008201518160000160006101000a8154816001600160801b0302191690836001600160801b0316021790555060208201518160000160106101000a8154816001600160801b0302191690836001600160801b0316021790555060408201518160010160006101000a8154816001600160401b0302191690836001600160401b0316021790555060608201518160010160086101000a8154816001600160401b0302191690836001600160401b031602179055509050505050613960565b60405180608001604052806138a286613c8b565b6001600160801b0390811682526020858101518216818401526001600160401b03808a166040808601919091526060808901518316958101959095526001600160a01b038d166000908152600c845281902086518154948801518616600160801b029086166001600160801b031990951694909417909416929092178355908401516001909201805494909301518116600160401b02600160401b600160801b0319929091166001600160401b031990941693909317169190911790555b50505b6139ac565b6001600160a01b038516156139ac576001600160a01b0385166000908152600c6020526040902060010180546001600160401b0319166001600160401b0385161790555b336139b9610bee3361067f565b60008061156133613f58565b60085481565b6001546001600160a01b031681565b6000806139ed838563ffffffff613c0716565b9050806139fe576000915050613a1e565b6000613a1982613a0d886120d5565b9063ffffffff613a2516565b925050505b9392505050565b6000613a1e8383670de0b6b3a764000061446f565b600082820183811015613a1e576040805162461bcd60e51b815260206004820152601b60248201527f536166654d6174683a206164646974696f6e206f766572666c6f770000000000604482015290519081900360640190fd5b6005546040805163030d028960e21b815290516000926001600160a01b031691630c340a24916004808301926020929190829003018186803b158015613ad957600080fd5b505afa158015613aed573d6000803e3d6000fd5b505050506040513d6020811015613b0357600080fd5b5051905090565b6000600160401b8210613b4e5760405162461bcd60e51b8152600401808060200182810382526026815260200180614dc36026913960400191505060405180910390fd5b5090565b6000806000613b5f61210a565b90506000613b78600a5483613c0790919063ffffffff16565b905080613b8c5750600b5492509050613c03565b600954600090613ba2908363ffffffff613fa116565b90506000613bae61069a565b9050801580613bbb575081155b15613bd157600b54849550955050505050613c03565b6000613be3838363ffffffff613ffa16565b600b54909150613bf9908263ffffffff613a3a16565b9650939450505050505b9091565b6000613a1e83836040518060400160405280601e81526020017f536166654d6174683a207375627472616374696f6e206f766572666c6f77000081525061449d565b6000613a1e83836040518060400160405280601a81526020017f536166654d6174683a206469766973696f6e206279207a65726f000000000000815250614534565b6000600160801b8210613b4e5760405162461bcd60e51b8152600401808060200182810382526027815260200180614d7b6027913960400191505060405180910390fd5b60008111613d18576040805162461bcd60e51b8152602060048201526011602482015270043616e6e6f74207769746864726177203607c1b604482015290519081900360640190fd5b613d2181614599565b60408051828152905133917f7084f5476618d8e60b11ef0d7d3f06914655adb8793e28ff7f018d4c76d505d5919081900360200190a250565b600080613d68338585614044565b336000908152600e6020908152604080832080546001600160401b0319166001600160401b038616179055600c909152812080546001600160801b03808216909255939550919350600160801b9092041690613dc48483613a3a565b9050801561157a57600754613de9906001600160a01b0316338363ffffffff61441816565b60408051828152905133917fe2403640ba68fed3a2f88b7557551d1993f84b99bb10ff833f0cf8db0c5e0486919081900360200190a2505050505050565b6001600160a01b0381166000908152600460209081526040808320546003909252909120546706f05b59d3b20000670de0b6b3a7640000831115613ef257600154604080516370a0823160e01b81526001600160a01b038781166004830152915160009392909216916370a0823191602480820192602092909190829003018186803b158015613eb657600080fd5b505afa158015613eca573d6000803e3d6000fd5b505050506040513d6020811015613ee057600080fd5b50519050613eee848261465c565b9150505b6000613f04848363ffffffff613a2516565b9050828114613f5157613f3281613f2685600254613c0790919063ffffffff16565b9063ffffffff613a3a16565b6002556001600160a01b03851660009081526003602052604090208190555b5050505050565b6001600160a01b0381166000908152600e602052604081205481906001600160401b031681613f8782866147a9565b90506000613f9486614883565b9194509092505050915091565b600082613fb0575060006120c0565b82820282848281613fbd57fe5b0414613a1e5760405162461bcd60e51b8152600401808060200182810382526021815260200180614da26021913960400191505060405180910390fd5b60008061401584670de0b6b3a764000063ffffffff613fa116565b9050614027818463ffffffff613c4916565b949350505050565b600081831161403e5782613a1e565b50919050565b6001600160a01b0383166000908152600e6020908152604080832054600d909252822054829142916001600160401b039091169086158015614084575085155b156140e1578015806140cd57506001600160a01b0388166000908152600d6020526040812080549091906140b457fe5b6000918252602090912001546001600160401b03168311155b156140e157506000935090915061437a9050565b8615614178576001600160a01b0388166000908152600d6020526040902061411088600163ffffffff613c0716565b8154811061411a57fe5b6000918252602090912001546001600160401b03600160401b909104811690831610156141785760405162461bcd60e51b815260040180806020018281038252602e815260200180614d4d602e913960400191505060405180910390fd5b600061418f6001613f26898b63ffffffff613c0716565b905060005b818110156143275760006141ae8a8363ffffffff613a3a16565b90506141b8614d00565b6001600160a01b038c166000908152600d602052604090208054839081106141dc57fe5b60009182526020918290206040805160608101825292909101546001600160401b03808216808552600160401b830490911694840194909452600160801b90046001600160801b03169082015291508710801590614250575080602001516001600160401b0316866001600160401b031611155b614291576040805162461bcd60e51b815260206004820152600d60248201526c092dcecc2d8d2c840cae0dec6d609b1b604482015290519081900360640190fd5b60006142aa82602001516001600160401b03168961402f565b905060006142ce83600001516001600160401b0316896001600160401b0316614958565b9050600061430284604001516001600160801b03166142f68486613c0790919063ffffffff16565b9063ffffffff613fa116565b90506143148c8263ffffffff613a3a16565b9b50506001909401935061419492505050565b506001600160a01b0389166000908152600d6020526040902080546143739186918a90811061435257fe5b600091825260209091200154600160401b90046001600160401b031661402f565b9450505050505b935093915050565b600081116143c8576040805162461bcd60e51b815260206004820152600e60248201526d043616e6e6f74207374616b6520360941b604482015290519081900360640190fd5b6143d2828261496e565b6040805182815233602082015281516001600160a01b038516927f9f9e4044c5742cca66ca090b21552bac14645e68bad7a92364a9d9ff18111a1c928290030190a25050565b604080516001600160a01b038416602482015260448082018490528251808303909101815260649091019091526020810180516001600160e01b031663a9059cbb60e01b17905261446a908490614a3e565b505050565b600080614482858563ffffffff613fa116565b9050614494818463ffffffff613c4916565b95945050505050565b6000818484111561452c5760405162461bcd60e51b81526004018080602001828103825283818151815260200191508051906020019080838360005b838110156144f15781810151838201526020016144d9565b50505050905090810190601f16801561451e5780820380516001836020036101000a031916815260200191505b509250505060405180910390fd5b505050900390565b600081836145835760405162461bcd60e51b81526020600482018181528351602484015283519092839260449091019190850190808383600083156144f15781810151838201526020016144d9565b50600083858161458f57fe5b0495945050505050565b60005460ff166145f0576040805162461bcd60e51b815260206004820152601f60248201527f5265656e7472616e637947756172643a207265656e7472616e742063616c6c00604482015290519081900360640190fd5b6000805460ff1916815533815260046020526040902054614617908263ffffffff613c0716565b33600081815260046020526040812092909255905461464c916101009091046001600160a01b0316908363ffffffff61441816565b506000805460ff19166001179055565b6000670de0b6b3a76400008310156146bb576040805162461bcd60e51b815260206004820152601e60248201527f5265717569726573206d696e696d756d206465706f7369742076616c75650000604482015290519081900360640190fd5b816146cf57506706f05b59d3b200006120c0565b60006146ea6146e56146e586620186a002614bfc565b614bfc565b905061474c61473f61473261472561471861470b868063ffffffff613fa116565b869063ffffffff613fa116565b859063ffffffff613fa116565b849063ffffffff613fa116565b839063ffffffff613fa116565b829063ffffffff613fa116565b9050614760816103e863ffffffff613c4916565b9050600061477e826120b4600a611b2b88602063ffffffff613fa116565b905061449461479b6706f05b59d3b200008363ffffffff613a3a16565b6714d1120d7b16000061402f565b6001600160a01b0381166000908152600d6020526040812054806147d15760009150506120c0565b60006000198201815b6080811015614878578183106147ef57614878565b600061480b6002611b2b6001613f26888863ffffffff613a3a16565b6001600160a01b0388166000908152600d602052604090208054919250908290811061483357fe5b6000918252602090912001546001600160401b03908116908916111561485b5780935061486f565b61486c81600163ffffffff613c0716565b92505b506001016147da565b509095945050505050565b6001600160a01b0381166000908152600d6020526040812054806148ab57600091505061065f565b60006000198201815b608081101561494e578183106148c95761494e565b60006148e56002611b2b6001613f26888863ffffffff613a3a16565b6001600160a01b0388166000908152600d602052604090208054919250908290811061490d57fe5b6000918252602090912001546001600160401b031642111561493157809350614945565b61494281600163ffffffff613c0716565b92505b506001016148b4565b5090949350505050565b60008183116149675781613a1e565b5090919050565b60005460ff166149c5576040805162461bcd60e51b815260206004820152601f60248201527f5265656e7472616e637947756172643a207265656e7472616e742063616c6c00604482015290519081900360640190fd5b6000805460ff191681556001600160a01b0383168152600460205260409020546149f5908263ffffffff613a3a16565b6001600160a01b038084166000908152600460205260408120929092559054614a2d916101009091041633308463ffffffff614c4616565b50506000805460ff19166001179055565b614a50826001600160a01b0316614ca0565b614aa1576040805162461bcd60e51b815260206004820152601f60248201527f5361666545524332303a2063616c6c20746f206e6f6e2d636f6e747261637400604482015290519081900360640190fd5b60006060836001600160a01b0316836040518082805190602001908083835b60208310614adf5780518252601f199092019160209182019101614ac0565b6001836020036101000a0380198251168184511680821785525050505050509050019150506000604051808303816000865af19150503d8060008114614b41576040519150601f19603f3d011682016040523d82523d6000602084013e614b46565b606091505b509150915081614b9d576040805162461bcd60e51b815260206004820181905260248201527f5361666545524332303a206c6f772d6c6576656c2063616c6c206661696c6564604482015290519081900360640190fd5b805115614bf657808060200190516020811015614bb957600080fd5b5051614bf65760405162461bcd60e51b815260040180806020018281038252602a815260200180614de9602a913960400191505060405180910390fd5b50505050565b600080614c156002611b2b85600163ffffffff613a3a16565b90508291505b8181101561403e57905080614c3f6002611b2b83613f26878263ffffffff613c4916565b9050614c1b565b604080516001600160a01b0385811660248301528416604482015260648082018490528251808303909101815260849091019091526020810180516001600160e01b03166323b872dd60e01b179052614bf6908590614a3e565b6000813f7fc5d2460186f7233c927e7db2dcc703c0e500b653ca82273b7bfad8045d85a47081811480159061065a575050151592915050565b60408051608081018252600080825260208201819052918101829052606081019190915290565b60408051606081018252600080825260208201819052918101919091529056fe43616e6e6f74206e6f746966792077697468206d6f7265207468616e2061206d696c6c696f6e20756e697473496e76616c6964205f6669727374206172673a204d75737420636c61696d206561726c69657220656e747269657353616665436173743a2076616c756520646f65736e27742066697420696e203132382062697473536166654d6174683a206d756c7469706c69636174696f6e206f766572666c6f7753616665436173743a2076616c756520646f65736e27742066697420696e20363420626974735361666545524332303a204552433230206f7065726174696f6e20646964206e6f742073756363656564a265627a7a72315820234349004925a36e39061a0cf12963f0157609502a92b0567b2b49699539f2f064736f6c63430005100032",
  "linkReferences": {},
  "deployedLinkReferences": {}
}