{
  "_format": "hh-sol-artifact-1",
  "contractName": "BoostedDualVault",
  "sourceName": "contracts/rewards/boosted-staking/BoostedDualVault.sol",
  "abi": [
    {
      "inputs": [
        {
          "internalType": "address",
          "name": "_nexus",
          "type": "address"
        },
        {
          "internalType": "address",
          "name": "_stakingToken",
          "type": "address"
        },
        {
          "internalType": "address",
          "name": "_boostDirector",
          "type": "address"
        },
        {
          "internalType": "uint256",
          "name": "_priceCoeff",
          "type": "uint256"
        },
        {
          "internalType": "uint256",
          "name": "_boostCoeff",
          "type": "uint256"
        },
        {
          "internalType": "address",
          "name": "_rewardsToken",
          "type": "address"
        },
        {
          "internalType": "address",
          "name": "_platformToken",
          "type": "address"
        }
      ],
      "stateMutability": "nonpayable",
      "type": "constructor"
    },
    {
      "anonymous": false,
      "inputs": [
        {
          "indexed": true,
          "internalType": "address",
          "name": "user",
          "type": "address"
        }
      ],
      "name": "Poked",
      "type": "event"
    },
    {
      "anonymous": false,
      "inputs": [
        {
          "indexed": false,
          "internalType": "uint256",
          "name": "reward",
          "type": "uint256"
        },
        {
          "indexed": false,
          "internalType": "uint256",
          "name": "platformReward",
          "type": "uint256"
        }
      ],
      "name": "RewardAdded",
      "type": "event"
    },
    {
      "anonymous": false,
      "inputs": [
        {
          "indexed": true,
          "internalType": "address",
          "name": "user",
          "type": "address"
        },
        {
          "indexed": false,
          "internalType": "uint256",
          "name": "reward",
          "type": "uint256"
        },
        {
          "indexed": false,
          "internalType": "uint256",
          "name": "platformReward",
          "type": "uint256"
        }
      ],
      "name": "RewardPaid",
      "type": "event"
    },
    {
      "anonymous": false,
      "inputs": [
        {
          "indexed": true,
          "internalType": "address",
          "name": "user",
          "type": "address"
        },
        {
          "indexed": false,
          "internalType": "uint256",
          "name": "amount",
          "type": "uint256"
        },
        {
          "indexed": false,
          "internalType": "address",
          "name": "payer",
          "type": "address"
        }
      ],
      "name": "Staked",
      "type": "event"
    },
    {
      "anonymous": false,
      "inputs": [
        {
          "indexed": true,
          "internalType": "address",
          "name": "from",
          "type": "address"
        },
        {
          "indexed": true,
          "internalType": "address",
          "name": "to",
          "type": "address"
        },
        {
          "indexed": false,
          "internalType": "uint256",
          "name": "value",
          "type": "uint256"
        }
      ],
      "name": "Transfer",
      "type": "event"
    },
    {
      "anonymous": false,
      "inputs": [
        {
          "indexed": true,
          "internalType": "address",
          "name": "user",
          "type": "address"
        },
        {
          "indexed": false,
          "internalType": "uint256",
          "name": "amount",
          "type": "uint256"
        }
      ],
      "name": "Withdrawn",
      "type": "event"
    },
    {
      "inputs": [],
      "name": "DURATION",
      "outputs": [
        {
          "internalType": "uint64",
          "name": "",
          "type": "uint64"
        }
      ],
      "stateMutability": "view",
      "type": "function"
    },
    {
      "inputs": [],
      "name": "LOCKUP",
      "outputs": [
        {
          "internalType": "uint256",
          "name": "",
          "type": "uint256"
        }
      ],
      "stateMutability": "view",
      "type": "function"
    },
    {
      "inputs": [],
      "name": "UNLOCK",
      "outputs": [
        {
          "internalType": "uint64",
          "name": "",
          "type": "uint64"
        }
      ],
      "stateMutability": "view",
      "type": "function"
    },
    {
      "inputs": [
        {
          "internalType": "address",
          "name": "_account",
          "type": "address"
        }
      ],
      "name": "balanceOf",
      "outputs": [
        {
          "internalType": "uint256",
          "name": "",
          "type": "uint256"
        }
      ],
      "stateMutability": "view",
      "type": "function"
    },
    {
      "inputs": [],
      "name": "boostCoeff",
      "outputs": [
        {
          "internalType": "uint256",
          "name": "",
          "type": "uint256"
        }
      ],
      "stateMutability": "view",
      "type": "function"
    },
    {
      "inputs": [],
      "name": "boostDirector",
      "outputs": [
        {
          "internalType": "contract IBoostDirector",
          "name": "",
          "type": "address"
        }
      ],
      "stateMutability": "view",
      "type": "function"
    },
    {
      "inputs": [],
      "name": "claimReward",
      "outputs": [],
      "stateMutability": "nonpayable",
      "type": "function"
    },
    {
      "inputs": [],
      "name": "claimRewards",
      "outputs": [],
      "stateMutability": "nonpayable",
      "type": "function"
    },
    {
      "inputs": [
        {
          "internalType": "uint256",
          "name": "_first",
          "type": "uint256"
        },
        {
          "internalType": "uint256",
          "name": "_last",
          "type": "uint256"
        }
      ],
      "name": "claimRewards",
      "outputs": [],
      "stateMutability": "nonpayable",
      "type": "function"
    },
    {
      "inputs": [],
      "name": "decimals",
      "outputs": [
        {
          "internalType": "uint8",
          "name": "",
          "type": "uint8"
        }
      ],
      "stateMutability": "view",
      "type": "function"
    },
    {
      "inputs": [
        {
          "internalType": "address",
          "name": "_account",
          "type": "address"
        }
      ],
      "name": "earned",
      "outputs": [
        {
          "internalType": "uint256",
          "name": "",
          "type": "uint256"
        },
        {
          "internalType": "uint256",
          "name": "",
          "type": "uint256"
        }
      ],
      "stateMutability": "view",
      "type": "function"
    },
    {
      "inputs": [
        {
          "internalType": "uint256",
          "name": "_first",
          "type": "uint256"
        },
        {
          "internalType": "uint256",
          "name": "_last",
          "type": "uint256"
        }
      ],
      "name": "exit",
      "outputs": [],
      "stateMutability": "nonpayable",
      "type": "function"
    },
    {
      "inputs": [],
      "name": "exit",
      "outputs": [],
      "stateMutability": "nonpayable",
      "type": "function"
    },
    {
      "inputs": [
        {
          "internalType": "address",
          "name": "_account",
          "type": "address"
        }
      ],
      "name": "getBoost",
      "outputs": [
        {
          "internalType": "uint256",
          "name": "",
          "type": "uint256"
        }
      ],
      "stateMutability": "view",
      "type": "function"
    },
    {
      "inputs": [],
      "name": "getPlatformToken",
      "outputs": [
        {
          "internalType": "contract IERC20",
          "name": "",
          "type": "address"
        }
      ],
      "stateMutability": "view",
      "type": "function"
    },
    {
      "inputs": [],
      "name": "getRewardToken",
      "outputs": [
        {
          "internalType": "contract IERC20",
          "name": "",
          "type": "address"
        }
      ],
      "stateMutability": "view",
      "type": "function"
    },
    {
      "inputs": [
        {
          "internalType": "address",
          "name": "_rewardsDistributorArg",
          "type": "address"
        },
        {
          "internalType": "string",
          "name": "_nameArg",
          "type": "string"
        },
        {
          "internalType": "string",
          "name": "_symbolArg",
          "type": "string"
        }
      ],
      "name": "initialize",
      "outputs": [],
      "stateMutability": "nonpayable",
      "type": "function"
    },
    {
      "inputs": [],
      "name": "lastTimeRewardApplicable",
      "outputs": [
        {
          "internalType": "uint256",
          "name": "",
          "type": "uint256"
        }
      ],
      "stateMutability": "view",
      "type": "function"
    },
    {
      "inputs": [],
      "name": "lastUpdateTime",
      "outputs": [
        {
          "internalType": "uint256",
          "name": "",
          "type": "uint256"
        }
      ],
      "stateMutability": "view",
      "type": "function"
    },
    {
      "inputs": [],
      "name": "name",
      "outputs": [
        {
          "internalType": "string",
          "name": "",
          "type": "string"
        }
      ],
      "stateMutability": "view",
      "type": "function"
    },
    {
      "inputs": [],
      "name": "nexus",
      "outputs": [
        {
          "internalType": "contract INexus",
          "name": "",
          "type": "address"
        }
      ],
      "stateMutability": "view",
      "type": "function"
    },
    {
      "inputs": [
        {
          "internalType": "uint256",
          "name": "_reward",
          "type": "uint256"
        }
      ],
      "name": "notifyRewardAmount",
      "outputs": [],
      "stateMutability": "nonpayable",
      "type": "function"
    },
    {
      "inputs": [],
      "name": "periodFinish",
      "outputs": [
        {
          "internalType": "uint256",
          "name": "",
          "type": "uint256"
        }
      ],
      "stateMutability": "view",
      "type": "function"
    },
    {
      "inputs": [],
      "name": "platformRewardPerTokenStored",
      "outputs": [
        {
          "internalType": "uint256",
          "name": "",
          "type": "uint256"
        }
      ],
      "stateMutability": "view",
      "type": "function"
    },
    {
      "inputs": [],
      "name": "platformRewardRate",
      "outputs": [
        {
          "internalType": "uint256",
          "name": "",
          "type": "uint256"
        }
      ],
      "stateMutability": "view",
      "type": "function"
    },
    {
      "inputs": [],
      "name": "platformToken",
      "outputs": [
        {
          "internalType": "contract IERC20",
          "name": "",
          "type": "address"
        }
      ],
      "stateMutability": "view",
      "type": "function"
    },
    {
      "inputs": [],
      "name": "platformTokenVendor",
      "outputs": [
        {
          "internalType": "contract PlatformTokenVendor",
          "name": "",
          "type": "address"
        }
      ],
      "stateMutability": "view",
      "type": "function"
    },
    {
      "inputs": [
        {
          "internalType": "address",
          "name": "_account",
          "type": "address"
        }
      ],
      "name": "pokeBoost",
      "outputs": [],
      "stateMutability": "nonpayable",
      "type": "function"
    },
    {
      "inputs": [],
      "name": "priceCoeff",
      "outputs": [
        {
          "internalType": "uint256",
          "name": "",
          "type": "uint256"
        }
      ],
      "stateMutability": "view",
      "type": "function"
    },
    {
      "inputs": [
        {
          "internalType": "address",
          "name": "_account",
          "type": "address"
        }
      ],
      "name": "rawBalanceOf",
      "outputs": [
        {
          "internalType": "uint256",
          "name": "",
          "type": "uint256"
        }
      ],
      "stateMutability": "view",
      "type": "function"
    },
    {
      "inputs": [],
      "name": "rewardPerToken",
      "outputs": [
        {
          "internalType": "uint256",
          "name": "",
          "type": "uint256"
        },
        {
          "internalType": "uint256",
          "name": "",
          "type": "uint256"
        }
      ],
      "stateMutability": "view",
      "type": "function"
    },
    {
      "inputs": [],
      "name": "rewardPerTokenStored",
      "outputs": [
        {
          "internalType": "uint256",
          "name": "",
          "type": "uint256"
        }
      ],
      "stateMutability": "view",
      "type": "function"
    },
    {
      "inputs": [],
      "name": "rewardRate",
      "outputs": [
        {
          "internalType": "uint256",
          "name": "",
          "type": "uint256"
        }
      ],
      "stateMutability": "view",
      "type": "function"
    },
    {
      "inputs": [],
      "name": "rewardsDistributor",
      "outputs": [
        {
          "internalType": "address",
          "name": "",
          "type": "address"
        }
      ],
      "stateMutability": "view",
      "type": "function"
    },
    {
      "inputs": [],
      "name": "rewardsToken",
      "outputs": [
        {
          "internalType": "contract IERC20",
          "name": "",
          "type": "address"
        }
      ],
      "stateMutability": "view",
      "type": "function"
    },
    {
      "inputs": [
        {
          "internalType": "address",
          "name": "_rewardsDistributor",
          "type": "address"
        }
      ],
      "name": "setRewardsDistribution",
      "outputs": [],
      "stateMutability": "nonpayable",
      "type": "function"
    },
    {
      "inputs": [
        {
          "internalType": "uint256",
          "name": "_amount",
          "type": "uint256"
        }
      ],
      "name": "stake",
      "outputs": [],
      "stateMutability": "nonpayable",
      "type": "function"
    },
    {
      "inputs": [
        {
          "internalType": "address",
          "name": "_beneficiary",
          "type": "address"
        },
        {
          "internalType": "uint256",
          "name": "_amount",
          "type": "uint256"
        }
      ],
      "name": "stake",
      "outputs": [],
      "stateMutability": "nonpayable",
      "type": "function"
    },
    {
      "inputs": [],
      "name": "stakingToken",
      "outputs": [
        {
          "internalType": "contract IERC20",
          "name": "",
          "type": "address"
        }
      ],
      "stateMutability": "view",
      "type": "function"
    },
    {
      "inputs": [],
      "name": "symbol",
      "outputs": [
        {
          "internalType": "string",
          "name": "",
          "type": "string"
        }
      ],
      "stateMutability": "view",
      "type": "function"
    },
    {
      "inputs": [],
      "name": "totalRaw",
      "outputs": [
        {
          "internalType": "uint256",
          "name": "",
          "type": "uint256"
        }
      ],
      "stateMutability": "view",
      "type": "function"
    },
    {
      "inputs": [],
      "name": "totalSupply",
      "outputs": [
        {
          "internalType": "uint256",
          "name": "",
          "type": "uint256"
        }
      ],
      "stateMutability": "view",
      "type": "function"
    },
    {
      "inputs": [
        {
          "internalType": "address",
          "name": "_account",
          "type": "address"
        }
      ],
      "name": "unclaimedRewards",
      "outputs": [
        {
          "internalType": "uint256",
          "name": "amount",
          "type": "uint256"
        },
        {
          "internalType": "uint256",
          "name": "first",
          "type": "uint256"
        },
        {
          "internalType": "uint256",
          "name": "last",
          "type": "uint256"
        },
        {
          "internalType": "uint256",
          "name": "platformAmount",
          "type": "uint256"
        }
      ],
      "stateMutability": "view",
      "type": "function"
    },
    {
      "inputs": [
        {
          "internalType": "address",
          "name": "",
          "type": "address"
        }
      ],
      "name": "userClaim",
      "outputs": [
        {
          "internalType": "uint64",
          "name": "",
          "type": "uint64"
        }
      ],
      "stateMutability": "view",
      "type": "function"
    },
    {
      "inputs": [
        {
          "internalType": "address",
          "name": "",
          "type": "address"
        }
      ],
      "name": "userData",
      "outputs": [
        {
          "internalType": "uint128",
          "name": "rewardPerTokenPaid",
          "type": "uint128"
        },
        {
          "internalType": "uint128",
          "name": "rewards",
          "type": "uint128"
        },
        {
          "internalType": "uint128",
          "name": "platformRewardPerTokenPaid",
          "type": "uint128"
        },
        {
          "internalType": "uint128",
          "name": "platformRewards",
          "type": "uint128"
        },
        {
          "internalType": "uint64",
          "name": "lastAction",
          "type": "uint64"
        },
        {
          "internalType": "uint64",
          "name": "rewardCount",
          "type": "uint64"
        }
      ],
      "stateMutability": "view",
      "type": "function"
    },
    {
      "inputs": [
        {
          "internalType": "address",
          "name": "",
          "type": "address"
        },
        {
          "internalType": "uint256",
          "name": "",
          "type": "uint256"
        }
      ],
      "name": "userRewards",
      "outputs": [
        {
          "internalType": "uint64",
          "name": "start",
          "type": "uint64"
        },
        {
          "internalType": "uint64",
          "name": "finish",
          "type": "uint64"
        },
        {
          "internalType": "uint128",
          "name": "rate",
          "type": "uint128"
        }
      ],
      "stateMutability": "view",
      "type": "function"
    },
    {
      "inputs": [
        {
          "internalType": "uint256",
          "name": "_amount",
          "type": "uint256"
        }
      ],
      "name": "withdraw",
      "outputs": [],
      "stateMutability": "nonpayable",
      "type": "function"
    }
  ],
  "bytecode": "0x6101606040523480156200001257600080fd5b5060405162004065380380620040658339810160408190526200003591620000fd565b858585858a806001600160a01b038116620000965760405162461bcd60e51b815260206004820152601560248201527f4e657875732061646472657373206973207a65726f0000000000000000000000604482015260640160405180910390fd5b6001600160601b0319606091821b811660805295811b861660a05293841b851660c052506101009190915260e05292831b811661012052911b1661014052506200017f9350505050565b80516001600160a01b0381168114620000f857600080fd5b919050565b600080600080600080600060e0888a03121562000118578283fd5b6200012388620000e0565b96506200013360208901620000e0565b95506200014360408901620000e0565b945060608801519350608088015192506200016160a08901620000e0565b91506200017160c08901620000e0565b905092959891949750929550565b60805160601c60a05160601c60c05160601c60e051610100516101205160601c6101405160601c613e1a6200024b600039600081816105f2015281816107b301528181610b9201528181610c3301528181610f57015261228c0152600081816104ff0152818161078b015281816110ce01526119940152600081816104120152611a4601526000818161080301526126bc0152600081816106730152611aac015260008181610556015281816125e30152612b2701526000818161061d01526123e20152613e1a6000f3fe60806040523480156200001157600080fd5b5060043610620002d35760003560e01c806380faa57d1162000189578063c891091311620000e1578063df136d651162000093578063df136d6514620007d5578063e882025a14620007df578063e9fad8ee14620007e9578063ebe2b12b14620007f3578063f62aa97514620007fd578063f9ce7d47146200082557620002d3565b8063c891091314620006a9578063c8f33c91146200075a578063cd3daf9d1462000764578063cf7bf6b7146200076e578063d1af0c7d1462000785578063d1b812cd14620007ad57620002d3565b8063a3f5c1d2116200013b578063a3f5c1d21462000617578063a694fc3a146200063f578063adc9772e1462000656578063b43082ec146200066d578063b88a802f1462000695578063c5869a06146200069f57620002d3565b806380faa57d1462000582578063845aef4b146200058c578063906571471462000597578063949813b814620005ae57806395d89b4114620005e65780639ed374f714620005f057620002d3565b8063372500ab116200023d57806363c2a20a11620001ef57806363c2a20a146200049f57806367ba3d9014620004e657806369940d7914620004fd57806370a08231146200052457806372f702f314620005505780637b0a47ee146200057857620002d3565b8063372500ab146200040257806338d3eb38146200040c5780633c6b16ab14620004345780633f2a5540146200044b578063523993da1462000478578063594dd432146200048857620002d3565b80631976214311620002975780631976214314620003965780631be0528914620003af5780632056797114620003ba5780632af9cc4114620003c45780632e1a7d4d14620003db578063313ce56714620003f257620002d3565b80628cc26214620002d857806306fdde0314620003095780630a6b433f146200032257806312064c34146200036757806318160ddd146200038d575b600080fd5b620002ef620002e936600462002f40565b62000839565b604080519283526020830191909152015b60405180910390f35b6200031362000915565b604051620003009190620030c8565b6200034e6200033336600462002f40565b6043602052600090815260409020546001600160401b031681565b6040516001600160401b03909116815260200162000300565b6200037e6200037836600462002f40565b620009af565b60405190815260200162000300565b6036546200037e565b620003ad620003a736600462002f40565b620009ce565b005b6200034e62093a8081565b6200037e603a5481565b620003ad620003d536600462003088565b620009fa565b620003ad620003ec36600462003056565b62000a39565b6040516012815260200162000300565b620003ad62000a61565b6200037e7f000000000000000000000000000000000000000000000000000000000000000081565b620003ad6200044536600462003056565b62000a9d565b6033546200045f906001600160a01b031681565b6040516001600160a01b03909116815260200162000300565b6200034e670494654067e1000081565b620003ad6200049936600462003088565b62000d67565b620004b6620004b036600462003006565b62000d80565b604080516001600160401b0394851681529390921660208401526001600160801b03169082015260600162000300565b6200037e620004f736600462002f40565b62000dd3565b7f00000000000000000000000000000000000000000000000000000000000000006200045f565b6200037e6200053536600462002f40565b6001600160a01b031660009081526037602052604090205490565b6200045f7f000000000000000000000000000000000000000000000000000000000000000081565b6200037e603c5481565b6200037e62000e0a565b6200037e62eff10081565b620003ad620005a836600462002f7e565b62000e1f565b620005c5620005bf36600462002f40565b62000fed565b60408051948552602085019390935291830152606082015260800162000300565b6200031362001043565b7f00000000000000000000000000000000000000000000000000000000000000006200045f565b6200045f7f000000000000000000000000000000000000000000000000000000000000000081565b620003ad6200065036600462003056565b62001054565b620003ad6200066736600462003006565b6200106d565b6200045f7f000000000000000000000000000000000000000000000000000000000000000081565b620003ad62001086565b6200037e60405481565b6200070e620006ba36600462002f40565b6041602052600090815260409020805460018201546002909201546001600160801b0380831693600160801b93849004821693818316939104909116906001600160401b0380821691600160401b90041686565b604080516001600160801b039788168152958716602087015293861693850193909352931660608301526001600160401b0392831660808301529190911660a082015260c00162000300565b6200037e603e5481565b620002ef6200114d565b620003ad6200077f36600462002f40565b62001169565b6200045f7f000000000000000000000000000000000000000000000000000000000000000081565b6200045f7f000000000000000000000000000000000000000000000000000000000000000081565b6200037e603f5481565b6200037e603d5481565b620003ad620011b6565b6200037e603b5481565b6200037e7f000000000000000000000000000000000000000000000000000000000000000081565b6039546200045f906001600160a01b031681565b600080600080620008496200114d565b6001600160a01b03871660009081526041602052604081205492945090925090620008819087906001600160801b03168584620011e0565b905060006200089982670494654067e100006200124f565b6001600160a01b038816600090815260416020526040902054909150620008d190600160801b90046001600160801b0316826200312b565b6001600160a01b038816600090815260416020526040902060019081015462000908918a916001600160801b0316908790620011e0565b9550955050505050915091565b6060603480546200092690620031f7565b80601f01602080910402602001604051908101604052809291908181526020018280546200095490620031f7565b8015620009a55780601f106200097957610100808354040283529160200191620009a5565b820191906000526020600020905b8154815290600101906020018083116200098757829003601f168201915b5050505050905090565b6001600160a01b0381166000908152603860205260409020545b919050565b620009d86200126d565b603380546001600160a01b0319166001600160a01b0392909216919091179055565b3362000a0681620012db565b3362000a1c62000a1633620009af565b6200186c565b62000a2884846200190e565b62000a338162001a0f565b50505050565b3362000a4581620012db565b3362000a51836200186c565b62000a5c8162001a0f565b505050565b3362000a6d81620012db565b3360008062000a7c3362001c3e565b9150915062000a8c82826200190e565b505062000a998162001a0f565b5050565b6033546001600160a01b0316331462000afd5760405162461bcd60e51b815260206004820181905260248201527f43616c6c6572206973206e6f7420726577617264206469737472696275746f7260448201526064015b60405180910390fd5b600062000b0a81620012db565b69d3c21bcecceda1000000821062000b7a5760405162461bcd60e51b815260206004820152602c60248201527f43616e6e6f74206e6f746966792077697468206d6f7265207468616e2061206d60448201526b696c6c696f6e20756e69747360a01b606482015260840162000af4565b6040516370a0823160e01b81523060048201526000907f00000000000000000000000000000000000000000000000000000000000000006001600160a01b0316906370a082319060240160206040518083038186803b15801562000bdd57600080fd5b505afa15801562000bf2573d6000803e3d6000fd5b505050506040513d601f19601f8201168201806040525081019062000c1891906200306f565b9050801562000c5d5760395462000c5d906001600160a01b037f0000000000000000000000000000000000000000000000000000000000000000811691168362001c8b565b603b544290811062000c935762000c7862093a80856200316b565b603c5562000c8a62093a80836200316b565b603d5562000d11565b600081603b5462000ca59190620031ae565b90506000603c548262000cb991906200318c565b905062093a8062000ccb82886200312b565b62000cd791906200316b565b603c55603d5460009062000cec90846200318c565b905062093a8062000cfe82876200312b565b62000d0a91906200316b565b603d555050505b603e81905562000d2562093a80826200312b565b603b5560408051858152602081018490527f6c07ee05dcf262f13abf9d87b846ee789d2f90fe991d495acd7d7fc109ee1f55910160405180910390a150505050565b3362000d7381620012db565b3362000a2884846200190e565b6042602052816000526040600020818154811062000d9d57600080fd5b6000918252602090912001546001600160401b038082169350600160401b8204169150600160801b90046001600160801b031683565b600062000e0462000de483620009af565b6001600160a01b0384166000908152603760205260409020549062001cf0565b92915050565b600062000e1a42603b5462001d13565b905090565b600054610100900460ff168062000e355750303b155b8062000e44575060005460ff16155b62000ea95760405162461bcd60e51b815260206004820152602e60248201527f436f6e747261637420696e7374616e63652068617320616c726561647920626560448201526d195b881a5b9a5d1a585b1a5e995960921b606482015260840162000af4565b600054610100900460ff1615801562000ed5576000805460ff1961ff0019909116610100171660011790555b62000ee086620009d8565b62000f5585858080601f01602080910402602001604051908101604052809392919081815260200183838082843760009201919091525050604080516020601f8901819004810282018101909252878152925087915086908190840183828082843760009201919091525062001d2a92505050565b7f000000000000000000000000000000000000000000000000000000000000000060405162000f849062002e4d565b6001600160a01b039091168152602001604051809103906000f08015801562000fb1573d6000803e3d6000fd5b50603980546001600160a01b0319166001600160a01b0392909216919091179055801562000fe5576000805461ff00191690555b505050505050565b60008060008062000ffe8562001c3e565b909350915060006200101286858562001d6e565b509050600080620010238862000839565b90925090506200103482846200312b565b96508093505050509193509193565b6060603580546200092690620031f7565b336200106081620012db565b3362000a5133846200212a565b816200107981620012db565b8262000a2884846200212a565b336200109281620012db565b33600081815260416020526040902080546001600160801b03808216909255600160801b9004168015620010f657620010f66001600160a01b037f000000000000000000000000000000000000000000000000000000000000000016338362001c8b565b60006200110262002231565b604080518481526020810183905291925033917fd6f2c8500df5b44f11e9e48b91ff9f1b9d81bc496d55570c2b1b75bf65243f51910160405180910390a2505062000a998162001a0f565b6000806000806200115d620022b7565b50909450925050509091565b806200117581620012db565b60405182906001600160a01b038216907fa31b3b303c759fa7ee31d89a1a6fb7eb704d8fe5c87aa4f60f54468ff121bee890600090a262000a5c8162001a0f565b33620011c281620012db565b33620011d262000a1633620009af565b60008062000a7c3362001c3e565b600080620011ef8585620031ae565b9050806200120257600091505062001247565b60008362001229576001600160a01b03871660009081526037602052604090205462001234565b6200123487620009af565b90506200124281836200124f565b925050505b949350505050565b6000620012668383670de0b6b3a7640000620023c3565b9392505050565b62001277620023de565b6001600160a01b0316336001600160a01b031614620012d95760405162461bcd60e51b815260206004820152601960248201527f4f6e6c7920676f7665726e6f722063616e206578656375746500000000000000604482015260640162000af4565b565b426000620012e98262002475565b90506000806000620012fa620022b7565b9250925092506000831180620013105750600082115b156200181d57603f8390556040829055603e8190556001600160a01b0386161562001817576001600160a01b0386166000908152604160209081526040808320815160c08101835281546001600160801b03808216808452600160801b9283900482169684019690965260018401548082169584019590955293049092166060830152600201546001600160401b038082166080840152600160401b9091041660a08201529190620013c69089908784620011e0565b90506000620013e68984604001516001600160801b0316876001620011e0565b90508115620016cd5760006200140583670494654067e100006200124f565b90506000620014158285620031ae565b9050604260008c6001600160a01b03166001600160a01b0316815260200190815260200160002060405180606001604052806200146f88608001516001600160401b031662eff1006200146991906200312b565b62002475565b6001600160401b0316815260200162001490620014698e62eff1006200312b565b6001600160401b03168152602001620014cf88608001516001600160401b03168e620014bd9190620031ae565b620014c990866200316b565b620024df565b6001600160801b0390811690915282546001810184556000938452602093849020835191018054948401516040948501518416600160801b026001600160401b03918216600160401b0267ffffffffffffffff60401b199290941667ffffffffffffffff1990971696909617169190911790911692909217909155805160c08101909152806200155f8a620024df565b6001600160801b031681526020016200158c87602001516001600160801b031685620014c991906200312b565b6001600160801b03168152602001620015a589620024df565b6001600160801b03168152602001620015be85620024df565b8760600151620015cf9190620030fd565b6001600160801b031681526020018a6001600160401b031681526020018660a001516001620015ff919062003146565b6001600160401b039081169091526001600160a01b038d1660009081526041602090815260409182902084518154928601516001600160801b03908116600160801b9081029282166001600160801b03199586161782169290921783559386015160018301805460608901518716909302918616929094169190911790931692909217905560808301516002909101805460a0909401518316600160401b0267ffffffffffffffff60401b199290931667ffffffffffffffff19909416939093171617905550620018139050565b6040518060c00160405280620016e388620024df565b6001600160801b0316815260200184602001516001600160801b031681526020016200170f87620024df565b6001600160801b031681526020016200172883620024df565b8560600151620017399190620030fd565b6001600160801b0390811682526001600160401b03808b1660208085019190915260a08089015183166040958601526001600160a01b038f1660009081526041835285902086518154938801518616600160801b9081029187166001600160801b03199586161787169190911782559587015160018201805460608a01518816909802918716979094169690961790941694909417905560808401516002909201805494909301518116600160401b0267ffffffffffffffff60401b199290911667ffffffffffffffff1990941693909317169190911790555b5050505b62000fe5565b6001600160a01b0386161562000fe5576001600160a01b038616600090815260416020526040902060020180546001600160401b03861667ffffffffffffffff19909116179055505050505050565b60008111620018b25760405162461bcd60e51b8152602060048201526011602482015270043616e6e6f74207769746864726177203607c1b604482015260640162000af4565b620018bd8162002546565b80603a6000828254620018d19190620031ae565b909155505060405181815233907f7084f5476618d8e60b11ef0d7d3f06914655adb8793e28ff7f018d4c76d505d59060200160405180910390a250565b6000806200191e33858562001d6e565b336000908152604360209081526040808320805467ffffffffffffffff19166001600160401b0386161790556041909152812080546001600160801b03808216909255939550919350600160801b90920416906200197d82856200312b565b90508015620019bc57620019bc6001600160a01b037f000000000000000000000000000000000000000000000000000000000000000016338362001c8b565b6000620019c862002231565b604080518481526020810183905291925033917fd6f2c8500df5b44f11e9e48b91ff9f1b9d81bc496d55570c2b1b75bf65243f51910160405180910390a250505050505050565b6001600160a01b03811660009081526038602090815260408083205460379092528220549091670de0b6b3a7640000908162001a6c7f0000000000000000000000000000000000000000000000000000000000000000866200318c565b62001a7891906200316b565b9050670de0b6b3a7640000811062001b405760405163f8b2cb4f60e01b81526001600160a01b0386811660048301526000917f00000000000000000000000000000000000000000000000000000000000000009091169063f8b2cb4f90602401602060405180830381600087803b15801562001af357600080fd5b505af115801562001b08573d6000803e3d6000fd5b505050506040513d601f19601f8201168201806040525081019062001b2e91906200306f565b905062001b3c828262002621565b9250505b600062001b4e85846200124f565b905083811462000fe557808460365462001b699190620031ae565b62001b7591906200312b565b6036556001600160a01b03861660009081526037602052604090208190558381111562001bec576001600160a01b03861660007fddf252ad1be2c89b69c2b068fc378daa952ba7f163c4a11628f55a4df523b3ef62001bd58785620031ae565b60405190815260200160405180910390a362000fe5565b60006001600160a01b0387167fddf252ad1be2c89b69c2b068fc378daa952ba7f163c4a11628f55a4df523b3ef62001c258488620031ae565b60405190815260200160405180910390a3505050505050565b6001600160a01b03811660009081526043602052604081205481906001600160401b03168162001c6f828662002765565b9050600062001c7e866200287d565b9194509092505050915091565b6040516001600160a01b03831660248201526044810182905262000a5c90849063a9059cbb60e01b906064015b60408051601f198184030181529190526020810180516001600160e01b03166001600160e01b03199093169290921790915262002990565b60008162001d07670de0b6b3a7640000856200318c565b6200126691906200316b565b600081831162001d24578262001266565b50919050565b62001d436033805460ff60a01b1916600160a01b179055565b815162001d5890603490602085019062002e5b565b50805162000a5c90603590602084019062002e5b565b6001600160a01b0383166000908152604360209081526040808320546042909252822054829142916001600160401b03909116908615801562001daf575085155b1562001e255780158062001e0f57506001600160a01b0388166000908152604260205260408120805490919062001df657634e487b7160e01b600052603260045260246000fd5b6000918252602090912001546001600160401b03168311155b1562001e25576000839450945050505062002122565b861562001ef8576001600160a01b038816600090815260426020526040902062001e51600189620031ae565b8154811062001e7057634e487b7160e01b600052603260045260246000fd5b6000918252602090912001546001600160401b03600160401b9091048116908316101562001ef85760405162461bcd60e51b815260206004820152602e60248201527f496e76616c6964205f6669727374206172673a204d75737420636c61696d206560448201526d61726c69657220656e747269657360901b606482015260840162000af4565b600062001f068888620031ae565b62001f139060016200312b565b905060005b81811015620020b857600062001f2f828b6200312b565b6001600160a01b038c166000908152604260205260408120805492935090918390811062001f6d57634e487b7160e01b600052603260045260246000fd5b60009182526020918290206040805160608101825292909101546001600160401b03808216808552600160401b830490911694840194909452600160801b90046001600160801b0316908201529150871080159062001fe2575080602001516001600160401b0316866001600160401b031611155b620020205760405162461bcd60e51b815260206004820152600d60248201526c092dcecc2d8d2c840cae0dec6d609b1b604482015260640162000af4565b60006200203b82602001516001600160401b03168962001d13565b905060006200206183600001516001600160401b0316896001600160401b031662002a69565b9050600083604001516001600160801b03168284620020819190620031ae565b6200208d91906200318c565b90506200209b818d6200312b565b9b5050505050508080620020af906200322e565b91505062001f18565b506001600160a01b038916600090815260426020526040902080546200211b9186918a908110620020f957634e487b7160e01b600052603260045260246000fd5b600091825260209091200154600160401b90046001600160401b031662001d13565b9450505050505b935093915050565b600081116200216d5760405162461bcd60e51b815260206004820152600e60248201526d043616e6e6f74207374616b6520360941b604482015260640162000af4565b6001600160a01b038216620021c55760405162461bcd60e51b815260206004820152601b60248201527f496e76616c69642062656e656669636961727920616464726573730000000000604482015260640162000af4565b620021d1828262002a81565b80603a6000828254620021e591906200312b565b9091555050604080518281523360208201526001600160a01b038416917f9f9e4044c5742cca66ca090b21552bac14645e68bad7a92364a9d9ff18111a1c910160405180910390a25050565b33600090815260416020526040812060010154600160801b90046001600160801b0316801562000e1a5733600081815260416020526040902060010180546001600160801b0316905560395462000e1a916001600160a01b037f000000000000000000000000000000000000000000000000000000000000000081169216908462002b67565b600080600080620022c762000e0a565b90506000603e5482620022db9190620031ae565b905080620022f75750603f5460405490945092509050620023be565b600081603c546200230991906200318c565b9050600082603d546200231d91906200318c565b90506200232960365490565b15806200233e5750811580156200233e575080155b156200235b57603f546040548596509650965050505050620023be565b6000620023736200236b60365490565b849062001cf0565b905060006200238e603a548462001cf090919063ffffffff16565b905081603f54620023a091906200312b565b81604054620023b091906200312b565b879850985098505050505050505b909192565b600081620023d284866200318c565b6200124791906200316b565b60007f00000000000000000000000000000000000000000000000000000000000000006001600160a01b0316630c340a246040518163ffffffff1660e01b815260040160206040518083038186803b1580156200243a57600080fd5b505afa1580156200244f573d6000803e3d6000fd5b505050506040513d601f19601f8201168201806040525081019062000e1a919062002f5f565b6000600160401b8210620024db5760405162461bcd60e51b815260206004820152602660248201527f53616665436173743a2076616c756520646f65736e27742066697420696e203660448201526534206269747360d01b606482015260840162000af4565b5090565b6000600160801b8210620024db5760405162461bcd60e51b815260206004820152602760248201527f53616665436173743a2076616c756520646f65736e27742066697420696e20316044820152663238206269747360c81b606482015260840162000af4565b603354600160a01b900460ff16620025a15760405162461bcd60e51b815260206004820152601f60248201527f5265656e7472616e637947756172643a207265656e7472616e742063616c6c00604482015260640162000af4565b6033805460ff60a01b191690553360009081526038602052604081208054839290620025cf908490620031ae565b909155506200260b90506001600160a01b037f000000000000000000000000000000000000000000000000000000000000000016338362001c8b565b506033805460ff60a01b1916600160a01b179055565b600081620026395750670de0b6b3a764000062000e04565b60006200265662002650808087620f42406200318c565b62002ba1565b905080808080806200266981806200318c565b6200267591906200318c565b6200268191906200318c565b6200268d91906200318c565b6200269991906200318c565b620026a591906200318c565b9050620026b56103e8826200316b565b905080600a7f0000000000000000000000000000000000000000000000000000000000000000620026f186693f870857a3e0e380000062001d13565b620026fd91906200318c565b6200270991906200316b565b6200271d90670de0b6b3a76400006200318c565b6200272991906200316b565b915062001247673782dace9d9000006200275f670de0b6b3a76400006200275986670d2f13f7789f00006200312b565b62002a69565b62001d13565b6001600160a01b038116600090815260426020526040812054806200278f57600091505062000e04565b6000806200279f600184620031ae565b905060005b60808110156200287257818310620027bc5762002872565b60006002620027cc84866200312b565b620027d99060016200312b565b620027e591906200316b565b6001600160a01b0388166000908152604260205260409020805491925090829081106200282257634e487b7160e01b600052603260045260246000fd5b6000918252602090912001546001600160401b0390811690891611156200284c578093506200285c565b62002859600182620031ae565b92505b508062002869816200322e565b915050620027a4565b509095945050505050565b6001600160a01b03811660009081526042602052604081205480620028a7576000915050620009c9565b600080620028b7600184620031ae565b905060005b60808110156200298657818310620028d45762002986565b60006002620028e484866200312b565b620028f19060016200312b565b620028fd91906200316b565b6001600160a01b0388166000908152604260205260409020805491925090829081106200293a57634e487b7160e01b600052603260045260246000fd5b6000918252602090912001546001600160401b0316421115620029605780935062002970565b6200296d600182620031ae565b92505b50806200297d816200322e565b915050620028bc565b5090949350505050565b6000620029e7826040518060400160405280602081526020017f5361666545524332303a206c6f772d6c6576656c2063616c6c206661696c6564815250856001600160a01b031662002d459092919063ffffffff16565b80519091501562000a5c578080602001905181019062002a08919062003034565b62000a5c5760405162461bcd60e51b815260206004820152602a60248201527f5361666545524332303a204552433230206f7065726174696f6e20646964206e6044820152691bdd081cdd58d8d9595960b21b606482015260840162000af4565b600081831162002a7a578162001266565b5090919050565b603354600160a01b900460ff1662002adc5760405162461bcd60e51b815260206004820152601f60248201527f5265656e7472616e637947756172643a207265656e7472616e742063616c6c00604482015260640162000af4565b6033805460ff60a01b191690556001600160a01b0382166000908152603860205260408120805483929062002b139084906200312b565b9091555062002b5090506001600160a01b037f00000000000000000000000000000000000000000000000000000000000000001633308462002b67565b50506033805460ff60a01b1916600160a01b179055565b6040516001600160a01b038085166024830152831660448201526064810182905262000a339085906323b872dd60e01b9060840162001cb8565b60008162002bb257506000620009c9565b816001600160801b821062002bcc5760809190911c9060401b5b600160401b821062002be35760409190911c9060201b5b640100000000821062002bfb5760209190911c9060101b5b62010000821062002c115760109190911c9060081b5b610100821062002c265760089190911c9060041b5b6010821062002c3a5760049190911c9060021b5b6008821062002c475760011b5b600162002c5582866200316b565b62002c6190836200312b565b901c9050600162002c7382866200316b565b62002c7f90836200312b565b901c9050600162002c9182866200316b565b62002c9d90836200312b565b901c9050600162002caf82866200316b565b62002cbb90836200312b565b901c9050600162002ccd82866200316b565b62002cd990836200312b565b901c9050600162002ceb82866200316b565b62002cf790836200312b565b901c9050600162002d0982866200316b565b62002d1590836200312b565b901c9050600062002d2782866200316b565b905080821062002d38578062002d3a565b815b9350505050620009c9565b606062001247848460008585843b62002da15760405162461bcd60e51b815260206004820152601d60248201527f416464726573733a2063616c6c20746f206e6f6e2d636f6e7472616374000000604482015260640162000af4565b600080866001600160a01b0316858760405162002dbf9190620030aa565b60006040518083038185875af1925050503d806000811462002dfe576040519150601f19603f3d011682016040523d82523d6000602084013e62002e03565b606091505b5091509150620012428282866060831562002e2057508162001266565b82511562002e315782518084602001fd5b8160405162461bcd60e51b815260040162000af49190620030c8565b610b69806200327c83390190565b82805462002e6990620031f7565b90600052602060002090601f01602090048101928262002e8d576000855562002ed8565b82601f1062002ea857805160ff191683800117855562002ed8565b8280016001018555821562002ed8579182015b8281111562002ed857825182559160200191906001019062002ebb565b50620024db9291505b80821115620024db576000815560010162002ee1565b60008083601f84011262002f09578182fd5b5081356001600160401b0381111562002f20578182fd5b60208301915083602082850101111562002f3957600080fd5b9250929050565b60006020828403121562002f52578081fd5b8135620012668162003262565b60006020828403121562002f71578081fd5b8151620012668162003262565b60008060008060006060868803121562002f96578081fd5b853562002fa38162003262565b945060208601356001600160401b038082111562002fbf578283fd5b62002fcd89838a0162002ef7565b9096509450604088013591508082111562002fe6578283fd5b5062002ff58882890162002ef7565b969995985093965092949392505050565b6000806040838503121562003019578182fd5b8235620030268162003262565b946020939093013593505050565b60006020828403121562003046578081fd5b8151801515811462001266578182fd5b60006020828403121562003068578081fd5b5035919050565b60006020828403121562003081578081fd5b5051919050565b600080604083850312156200309b578182fd5b50508035926020909101359150565b60008251620030be818460208701620031c8565b9190910192915050565b6000602082528251806020840152620030e9816040850160208701620031c8565b601f01601f19169190910160400192915050565b60006001600160801b038083168185168083038211156200312257620031226200324c565b01949350505050565b600082198211156200314157620031416200324c565b500190565b60006001600160401b038083168185168083038211156200312257620031226200324c565b6000826200318757634e487b7160e01b81526012600452602481fd5b500490565b6000816000190483118215151615620031a957620031a96200324c565b500290565b600082821015620031c357620031c36200324c565b500390565b60005b83811015620031e5578181015183820152602001620031cb565b8381111562000a335750506000910152565b6002810460018216806200320c57607f821691505b6020821081141562001d2457634e487b7160e01b600052602260045260246000fd5b60006000198214156200324557620032456200324c565b5060010190565b634e487b7160e01b600052601160045260246000fd5b6001600160a01b03811681146200327857600080fd5b5056fe60c06040523480156200001157600080fd5b5060405162000b6938038062000b698339810160408190526200003491620004ad565b33606081811b60a05282901b6001600160601b031916608052620000669082906200006d602090811b6200010617901c565b5062000575565b62000093816000846001600160a01b0316620000be60201b62000135179092919060201c565b620000ba81600019846001600160a01b0316620000be60201b62000135179092919060201c565b5050565b8015806200014c5750604051636eb1769f60e11b81523060048201526001600160a01b03838116602483015284169063dd62ed3e9060440160206040518083038186803b1580156200010f57600080fd5b505afa15801562000124573d6000803e3d6000fd5b505050506040513d601f19601f820116820180604052508101906200014a9190620004d6565b155b620001c45760405162461bcd60e51b815260206004820152603660248201527f5361666545524332303a20617070726f76652066726f6d206e6f6e2d7a65726f60448201527f20746f206e6f6e2d7a65726f20616c6c6f77616e63650000000000000000000060648201526084015b60405180910390fd5b604080516001600160a01b038416602482015260448082018490528251808303909101815260649091019091526020810180516001600160e01b0390811663095ea7b360e01b179091526200021c9185916200022116565b505050565b60006200027d826040518060400160405280602081526020017f5361666545524332303a206c6f772d6c6576656c2063616c6c206661696c6564815250856001600160a01b0316620002ff60201b62000285179092919060201c565b8051909150156200021c57808060200190518101906200029e91906200048b565b6200021c5760405162461bcd60e51b815260206004820152602a60248201527f5361666545524332303a204552433230206f7065726174696f6e20646964206e6044820152691bdd081cdd58d8d9595960b21b6064820152608401620001bb565b60606200031084846000856200031a565b90505b9392505050565b6060824710156200037d5760405162461bcd60e51b815260206004820152602660248201527f416464726573733a20696e73756666696369656e742062616c616e636520666f6044820152651c8818d85b1b60d21b6064820152608401620001bb565b843b620003cd5760405162461bcd60e51b815260206004820152601d60248201527f416464726573733a2063616c6c20746f206e6f6e2d636f6e74726163740000006044820152606401620001bb565b600080866001600160a01b03168587604051620003eb9190620004ef565b60006040518083038185875af1925050503d80600081146200042a576040519150601f19603f3d011682016040523d82523d6000602084013e6200042f565b606091505b509092509050620004428282866200044d565b979650505050505050565b606083156200045e57508162000313565b8251156200046f5782518084602001fd5b8160405162461bcd60e51b8152600401620001bb91906200050d565b6000602082840312156200049d578081fd5b8151801515811462000313578182fd5b600060208284031215620004bf578081fd5b81516001600160a01b038116811462000313578182fd5b600060208284031215620004e8578081fd5b5051919050565b600082516200050381846020870162000542565b9190910192915050565b60006020825282518060208401526200052e81604085016020870162000542565b601f01601f19169190910160400192915050565b60005b838110156200055f57818101518382015260200162000545565b838111156200056f576000848401525b50505050565b60805160601c60a05160601c6105be620005ab60003960008181604b015260e0015260008181608e015260bf01526105be6000f3fe608060405234801561001057600080fd5b50600436106100415760003560e01c8063488a49e314610046578063d1b812cd14610089578063d8245bb9146100b0575b600080fd5b61006d7f000000000000000000000000000000000000000000000000000000000000000081565b6040516001600160a01b03909116815260200160405180910390f35b61006d7f000000000000000000000000000000000000000000000000000000000000000081565b6100b86100ba565b005b6101047f00000000000000000000000000000000000000000000000000000000000000007f0000000000000000000000000000000000000000000000000000000000000000610106565b565b61011b6001600160a01b038316826000610135565b6101316001600160a01b03831682600019610135565b5050565b8015806101be5750604051636eb1769f60e11b81523060048201526001600160a01b03838116602483015284169063dd62ed3e9060440160206040518083038186803b15801561018457600080fd5b505afa158015610198573d6000803e3d6000fd5b505050506040513d601f19601f820116820180604052508101906101bc91906104f1565b155b61022e5760405162461bcd60e51b815260206004820152603660248201527f5361666545524332303a20617070726f76652066726f6d206e6f6e2d7a65726f60448201527520746f206e6f6e2d7a65726f20616c6c6f77616e636560501b60648201526084015b60405180910390fd5b604080516001600160a01b038416602482015260448082018490528251808303909101815260649091019091526020810180516001600160e01b031663095ea7b360e01b17905261028090849061029e565b505050565b60606102948484600085610370565b90505b9392505050565b60006102f3826040518060400160405280602081526020017f5361666545524332303a206c6f772d6c6576656c2063616c6c206661696c6564815250856001600160a01b03166102859092919063ffffffff16565b805190915015610280578080602001905181019061031191906104d1565b6102805760405162461bcd60e51b815260206004820152602a60248201527f5361666545524332303a204552433230206f7065726174696f6e20646964206e6044820152691bdd081cdd58d8d9595960b21b6064820152608401610225565b6060824710156103d15760405162461bcd60e51b815260206004820152602660248201527f416464726573733a20696e73756666696369656e742062616c616e636520666f6044820152651c8818d85b1b60d21b6064820152608401610225565b843b61041f5760405162461bcd60e51b815260206004820152601d60248201527f416464726573733a2063616c6c20746f206e6f6e2d636f6e74726163740000006044820152606401610225565b600080866001600160a01b0316858760405161043b9190610509565b60006040518083038185875af1925050503d8060008114610478576040519150601f19603f3d011682016040523d82523d6000602084013e61047d565b606091505b509150915061048d828286610498565b979650505050505050565b606083156104a7575081610297565b8251156104b75782518084602001fd5b8160405162461bcd60e51b81526004016102259190610525565b6000602082840312156104e2578081fd5b81518015158114610297578182fd5b600060208284031215610502578081fd5b5051919050565b6000825161051b818460208701610558565b9190910192915050565b6000602082528251806020840152610544816040850160208701610558565b601f01601f19169190910160400192915050565b60005b8381101561057357818101518382015260200161055b565b83811115610582576000848401525b5050505056fea26469706673582212206634ae8860774891a1d0c035a99c4f0f3333cbc5e8de6314979d4ad7067641ba64736f6c63430008020033a2646970667358221220b37e1dcb9f58eef8faaf47e67bdd39f65dd2164eeb13b56f0e3bd713e32c10b464736f6c63430008020033",
  "linkReferences": {},
  "deployedLinkReferences": {}
}