{
  "_format": "hh-sol-artifact-1",
  "contractName": "CurvedMasset",
  "sourceName": "contracts/curved-masset/CurvedMasset.sol",
  "abi": [
    {
      "inputs": [
        {
          "internalType": "address",
          "name": "_nexus",
          "type": "address"
        }
      ],
      "stateMutability": "nonpayable",
      "type": "constructor"
    },
    {
      "anonymous": false,
      "inputs": [
        {
          "indexed": true,
          "internalType": "address",
          "name": "owner",
          "type": "address"
        },
        {
          "indexed": true,
          "internalType": "address",
          "name": "spender",
          "type": "address"
        },
        {
          "indexed": false,
          "internalType": "uint256",
          "name": "value",
          "type": "uint256"
        }
      ],
      "name": "Approval",
      "type": "event"
    },
    {
      "anonymous": false,
      "inputs": [
        {
          "indexed": false,
          "internalType": "uint256",
          "name": "cacheSize",
          "type": "uint256"
        }
      ],
      "name": "CacheSizeChanged",
      "type": "event"
    },
    {
      "anonymous": false,
      "inputs": [
        {
          "indexed": false,
          "internalType": "address",
          "name": "forgeValidator",
          "type": "address"
        }
      ],
      "name": "ForgeValidatorChanged",
      "type": "event"
    },
    {
      "anonymous": false,
      "inputs": [
        {
          "indexed": true,
          "internalType": "address",
          "name": "minter",
          "type": "address"
        },
        {
          "indexed": false,
          "internalType": "address",
          "name": "recipient",
          "type": "address"
        },
        {
          "indexed": false,
          "internalType": "uint256",
          "name": "mAssetQuantity",
          "type": "uint256"
        },
        {
          "indexed": false,
          "internalType": "address",
          "name": "input",
          "type": "address"
        },
        {
          "indexed": false,
          "internalType": "uint256",
          "name": "inputQuantity",
          "type": "uint256"
        }
      ],
      "name": "Minted",
      "type": "event"
    },
    {
      "anonymous": false,
      "inputs": [
        {
          "indexed": true,
          "internalType": "address",
          "name": "minter",
          "type": "address"
        },
        {
          "indexed": false,
          "internalType": "address",
          "name": "recipient",
          "type": "address"
        },
        {
          "indexed": false,
          "internalType": "uint256",
          "name": "mAssetQuantity",
          "type": "uint256"
        },
        {
          "indexed": false,
          "internalType": "address[]",
          "name": "inputs",
          "type": "address[]"
        },
        {
          "indexed": false,
          "internalType": "uint256[]",
          "name": "inputQuantities",
          "type": "uint256[]"
        }
      ],
      "name": "MintedMulti",
      "type": "event"
    },
    {
      "anonymous": false,
      "inputs": [
        {
          "indexed": true,
          "internalType": "address",
          "name": "redeemer",
          "type": "address"
        },
        {
          "indexed": false,
          "internalType": "address",
          "name": "recipient",
          "type": "address"
        },
        {
          "indexed": false,
          "internalType": "uint256",
          "name": "mAssetQuantity",
          "type": "uint256"
        },
        {
          "indexed": false,
          "internalType": "address",
          "name": "output",
          "type": "address"
        },
        {
          "indexed": false,
          "internalType": "uint256",
          "name": "outputQuantity",
          "type": "uint256"
        },
        {
          "indexed": false,
          "internalType": "uint256",
          "name": "scaledFee",
          "type": "uint256"
        }
      ],
      "name": "Redeemed",
      "type": "event"
    },
    {
      "anonymous": false,
      "inputs": [
        {
          "indexed": true,
          "internalType": "address",
          "name": "redeemer",
          "type": "address"
        },
        {
          "indexed": false,
          "internalType": "address",
          "name": "recipient",
          "type": "address"
        },
        {
          "indexed": false,
          "internalType": "uint256",
          "name": "mAssetQuantity",
          "type": "uint256"
        },
        {
          "indexed": false,
          "internalType": "address[]",
          "name": "outputs",
          "type": "address[]"
        },
        {
          "indexed": false,
          "internalType": "uint256[]",
          "name": "outputQuantity",
          "type": "uint256[]"
        },
        {
          "indexed": false,
          "internalType": "uint256",
          "name": "scaledFee",
          "type": "uint256"
        }
      ],
      "name": "RedeemedMulti",
      "type": "event"
    },
    {
      "anonymous": false,
      "inputs": [
        {
          "indexed": false,
          "internalType": "uint256",
          "name": "fee",
          "type": "uint256"
        }
      ],
      "name": "RedemptionFeeChanged",
      "type": "event"
    },
    {
      "anonymous": false,
      "inputs": [
        {
          "indexed": false,
          "internalType": "uint256",
          "name": "fee",
          "type": "uint256"
        }
      ],
      "name": "SwapFeeChanged",
      "type": "event"
    },
    {
      "anonymous": false,
      "inputs": [
        {
          "indexed": true,
          "internalType": "address",
          "name": "swapper",
          "type": "address"
        },
        {
          "indexed": false,
          "internalType": "address",
          "name": "input",
          "type": "address"
        },
        {
          "indexed": false,
          "internalType": "address",
          "name": "output",
          "type": "address"
        },
        {
          "indexed": false,
          "internalType": "uint256",
          "name": "outputAmount",
          "type": "uint256"
        },
        {
          "indexed": false,
          "internalType": "uint256",
          "name": "scaledFee",
          "type": "uint256"
        },
        {
          "indexed": false,
          "internalType": "address",
          "name": "recipient",
          "type": "address"
        }
      ],
      "name": "Swapped",
      "type": "event"
    },
    {
      "anonymous": false,
      "inputs": [
        {
          "indexed": true,
          "internalType": "address",
          "name": "from",
          "type": "address"
        },
        {
          "indexed": true,
          "internalType": "address",
          "name": "to",
          "type": "address"
        },
        {
          "indexed": false,
          "internalType": "uint256",
          "name": "value",
          "type": "uint256"
        }
      ],
      "name": "Transfer",
      "type": "event"
    },
    {
      "inputs": [
        {
          "internalType": "address",
          "name": "owner",
          "type": "address"
        },
        {
          "internalType": "address",
          "name": "spender",
          "type": "address"
        }
      ],
      "name": "allowance",
      "outputs": [
        {
          "internalType": "uint256",
          "name": "",
          "type": "uint256"
        }
      ],
      "stateMutability": "view",
      "type": "function"
    },
    {
      "inputs": [],
      "name": "ampData",
      "outputs": [
        {
          "internalType": "uint64",
          "name": "initialA",
          "type": "uint64"
        },
        {
          "internalType": "uint64",
          "name": "futureA",
          "type": "uint64"
        },
        {
          "internalType": "uint64",
          "name": "initialATime",
          "type": "uint64"
        },
        {
          "internalType": "uint64",
          "name": "futureATime",
          "type": "uint64"
        }
      ],
      "stateMutability": "view",
      "type": "function"
    },
    {
      "inputs": [
        {
          "internalType": "address",
          "name": "spender",
          "type": "address"
        },
        {
          "internalType": "uint256",
          "name": "amount",
          "type": "uint256"
        }
      ],
      "name": "approve",
      "outputs": [
        {
          "internalType": "bool",
          "name": "",
          "type": "bool"
        }
      ],
      "stateMutability": "nonpayable",
      "type": "function"
    },
    {
      "inputs": [
        {
          "internalType": "uint256",
          "name": "",
          "type": "uint256"
        }
      ],
      "name": "bAssetData",
      "outputs": [
        {
          "internalType": "uint128",
          "name": "ratio",
          "type": "uint128"
        },
        {
          "internalType": "uint128",
          "name": "vaultBalance",
          "type": "uint128"
        }
      ],
      "stateMutability": "view",
      "type": "function"
    },
    {
      "inputs": [
        {
          "internalType": "address",
          "name": "",
          "type": "address"
        }
      ],
      "name": "bAssetIndexes",
      "outputs": [
        {
          "internalType": "uint8",
          "name": "",
          "type": "uint8"
        }
      ],
      "stateMutability": "view",
      "type": "function"
    },
    {
      "inputs": [
        {
          "internalType": "uint256",
          "name": "",
          "type": "uint256"
        }
      ],
      "name": "bAssetPersonal",
      "outputs": [
        {
          "internalType": "address",
          "name": "addr",
          "type": "address"
        },
        {
          "internalType": "address",
          "name": "integrator",
          "type": "address"
        },
        {
          "internalType": "bool",
          "name": "hasTxFee",
          "type": "bool"
        },
        {
          "internalType": "enum MassetStructs.BassetStatus",
          "name": "status",
          "type": "uint8"
        }
      ],
      "stateMutability": "view",
      "type": "function"
    },
    {
      "inputs": [
        {
          "internalType": "address",
          "name": "account",
          "type": "address"
        }
      ],
      "name": "balanceOf",
      "outputs": [
        {
          "internalType": "uint256",
          "name": "",
          "type": "uint256"
        }
      ],
      "stateMutability": "view",
      "type": "function"
    },
    {
      "inputs": [],
      "name": "basket",
      "outputs": [
        {
          "internalType": "bool",
          "name": "undergoingRecol",
          "type": "bool"
        },
        {
          "internalType": "bool",
          "name": "failed",
          "type": "bool"
        }
      ],
      "stateMutability": "view",
      "type": "function"
    },
    {
      "inputs": [],
      "name": "cacheSize",
      "outputs": [
        {
          "internalType": "uint256",
          "name": "",
          "type": "uint256"
        }
      ],
      "stateMutability": "view",
      "type": "function"
    },
    {
      "inputs": [],
      "name": "collectInterest",
      "outputs": [
        {
          "internalType": "uint256",
          "name": "mintAmount",
          "type": "uint256"
        },
        {
          "internalType": "uint256",
          "name": "newSupply",
          "type": "uint256"
        }
      ],
      "stateMutability": "nonpayable",
      "type": "function"
    },
    {
      "inputs": [],
      "name": "collectPlatformInterest",
      "outputs": [
        {
          "internalType": "uint256",
          "name": "mintAmount",
          "type": "uint256"
        },
        {
          "internalType": "uint256",
          "name": "newSupply",
          "type": "uint256"
        }
      ],
      "stateMutability": "nonpayable",
      "type": "function"
    },
    {
      "inputs": [],
      "name": "decimals",
      "outputs": [
        {
          "internalType": "uint8",
          "name": "",
          "type": "uint8"
        }
      ],
      "stateMutability": "view",
      "type": "function"
    },
    {
      "inputs": [
        {
          "internalType": "address",
          "name": "spender",
          "type": "address"
        },
        {
          "internalType": "uint256",
          "name": "subtractedValue",
          "type": "uint256"
        }
      ],
      "name": "decreaseAllowance",
      "outputs": [
        {
          "internalType": "bool",
          "name": "",
          "type": "bool"
        }
      ],
      "stateMutability": "nonpayable",
      "type": "function"
    },
    {
      "inputs": [],
      "name": "deprecated_redemptionFee",
      "outputs": [
        {
          "internalType": "uint256",
          "name": "",
          "type": "uint256"
        }
      ],
      "stateMutability": "view",
      "type": "function"
    },
    {
      "inputs": [],
      "name": "forgeValidator",
      "outputs": [
        {
          "internalType": "contract IInvariantValidator",
          "name": "",
          "type": "address"
        }
      ],
      "stateMutability": "view",
      "type": "function"
    },
    {
      "inputs": [],
      "name": "getBasket",
      "outputs": [
        {
          "internalType": "bool",
          "name": "",
          "type": "bool"
        },
        {
          "internalType": "bool",
          "name": "",
          "type": "bool"
        }
      ],
      "stateMutability": "view",
      "type": "function"
    },
    {
      "inputs": [
        {
          "internalType": "address",
          "name": "_bAsset",
          "type": "address"
        }
      ],
      "name": "getBasset",
      "outputs": [
        {
          "components": [
            {
              "internalType": "address",
              "name": "addr",
              "type": "address"
            },
            {
              "internalType": "address",
              "name": "integrator",
              "type": "address"
            },
            {
              "internalType": "bool",
              "name": "hasTxFee",
              "type": "bool"
            },
            {
              "internalType": "enum MassetStructs.BassetStatus",
              "name": "status",
              "type": "uint8"
            }
          ],
          "internalType": "struct MassetStructs.BassetPersonal",
          "name": "personal",
          "type": "tuple"
        },
        {
          "components": [
            {
              "internalType": "uint128",
              "name": "ratio",
              "type": "uint128"
            },
            {
              "internalType": "uint128",
              "name": "vaultBalance",
              "type": "uint128"
            }
          ],
          "internalType": "struct MassetStructs.BassetData",
          "name": "data",
          "type": "tuple"
        }
      ],
      "stateMutability": "view",
      "type": "function"
    },
    {
      "inputs": [],
      "name": "getBassets",
      "outputs": [
        {
          "components": [
            {
              "internalType": "address",
              "name": "addr",
              "type": "address"
            },
            {
              "internalType": "address",
              "name": "integrator",
              "type": "address"
            },
            {
              "internalType": "bool",
              "name": "hasTxFee",
              "type": "bool"
            },
            {
              "internalType": "enum MassetStructs.BassetStatus",
              "name": "status",
              "type": "uint8"
            }
          ],
          "internalType": "struct MassetStructs.BassetPersonal[]",
          "name": "personal",
          "type": "tuple[]"
        },
        {
          "components": [
            {
              "internalType": "uint128",
              "name": "ratio",
              "type": "uint128"
            },
            {
              "internalType": "uint128",
              "name": "vaultBalance",
              "type": "uint128"
            }
          ],
          "internalType": "struct MassetStructs.BassetData[]",
          "name": "data",
          "type": "tuple[]"
        }
      ],
      "stateMutability": "view",
      "type": "function"
    },
    {
      "inputs": [
        {
          "internalType": "address[]",
          "name": "_inputs",
          "type": "address[]"
        },
        {
          "internalType": "uint256[]",
          "name": "_inputQuantities",
          "type": "uint256[]"
        }
      ],
      "name": "getMintMultiOutput",
      "outputs": [
        {
          "internalType": "uint256",
          "name": "mintOutput",
          "type": "uint256"
        }
      ],
      "stateMutability": "view",
      "type": "function"
    },
    {
      "inputs": [
        {
          "internalType": "address",
          "name": "_input",
          "type": "address"
        },
        {
          "internalType": "uint256",
          "name": "_inputQuantity",
          "type": "uint256"
        }
      ],
      "name": "getMintOutput",
      "outputs": [
        {
          "internalType": "uint256",
          "name": "mintOutput",
          "type": "uint256"
        }
      ],
      "stateMutability": "view",
      "type": "function"
    },
    {
      "inputs": [
        {
          "internalType": "address[]",
          "name": "_outputs",
          "type": "address[]"
        },
        {
          "internalType": "uint256[]",
          "name": "_outputQuantities",
          "type": "uint256[]"
        }
      ],
      "name": "getRedeemExactBassetsOutput",
      "outputs": [
        {
          "internalType": "uint256",
          "name": "mAssetAmount",
          "type": "uint256"
        }
      ],
      "stateMutability": "view",
      "type": "function"
    },
    {
      "inputs": [
        {
          "internalType": "address",
          "name": "_output",
          "type": "address"
        },
        {
          "internalType": "uint256",
          "name": "_mAssetQuantity",
          "type": "uint256"
        }
      ],
      "name": "getRedeemOutput",
      "outputs": [
        {
          "internalType": "uint256",
          "name": "bAssetOutput",
          "type": "uint256"
        }
      ],
      "stateMutability": "view",
      "type": "function"
    },
    {
      "inputs": [
        {
          "internalType": "address",
          "name": "_input",
          "type": "address"
        },
        {
          "internalType": "address",
          "name": "_output",
          "type": "address"
        },
        {
          "internalType": "uint256",
          "name": "_inputQuantity",
          "type": "uint256"
        }
      ],
      "name": "getSwapOutput",
      "outputs": [
        {
          "internalType": "uint256",
          "name": "swapOutput",
          "type": "uint256"
        }
      ],
      "stateMutability": "view",
      "type": "function"
    },
    {
      "inputs": [
        {
          "internalType": "address",
          "name": "_bAsset",
          "type": "address"
        },
        {
          "internalType": "bool",
          "name": "_belowPeg",
          "type": "bool"
        }
      ],
      "name": "handlePegLoss",
      "outputs": [],
      "stateMutability": "nonpayable",
      "type": "function"
    },
    {
      "inputs": [],
      "name": "hardMax",
      "outputs": [
        {
          "internalType": "uint256",
          "name": "",
          "type": "uint256"
        }
      ],
      "stateMutability": "view",
      "type": "function"
    },
    {
      "inputs": [
        {
          "internalType": "address",
          "name": "spender",
          "type": "address"
        },
        {
          "internalType": "uint256",
          "name": "addedValue",
          "type": "uint256"
        }
      ],
      "name": "increaseAllowance",
      "outputs": [
        {
          "internalType": "bool",
          "name": "",
          "type": "bool"
        }
      ],
      "stateMutability": "nonpayable",
      "type": "function"
    },
    {
      "inputs": [
        {
          "internalType": "string",
          "name": "_nameArg",
          "type": "string"
        },
        {
          "internalType": "string",
          "name": "_symbolArg",
          "type": "string"
        },
        {
          "internalType": "address",
          "name": "_forgeValidator",
          "type": "address"
        },
        {
          "components": [
            {
              "internalType": "address",
              "name": "addr",
              "type": "address"
            },
            {
              "internalType": "address",
              "name": "integrator",
              "type": "address"
            },
            {
              "internalType": "bool",
              "name": "hasTxFee",
              "type": "bool"
            },
            {
              "internalType": "enum MassetStructs.BassetStatus",
              "name": "status",
              "type": "uint8"
            }
          ],
          "internalType": "struct MassetStructs.BassetPersonal[]",
          "name": "_bAssets",
          "type": "tuple[]"
        },
        {
          "components": [
            {
              "internalType": "uint256",
              "name": "a",
              "type": "uint256"
            },
            {
              "internalType": "uint256",
              "name": "maxWeight",
              "type": "uint256"
            }
          ],
          "internalType": "struct MassetStructs.InvariantConfig",
          "name": "_config",
          "type": "tuple"
        }
      ],
      "name": "initialize",
      "outputs": [],
      "stateMutability": "nonpayable",
      "type": "function"
    },
    {
      "inputs": [],
      "name": "maxBassets",
      "outputs": [
        {
          "internalType": "uint8",
          "name": "",
          "type": "uint8"
        }
      ],
      "stateMutability": "view",
      "type": "function"
    },
    {
      "inputs": [
        {
          "internalType": "address[]",
          "name": "_bAssets",
          "type": "address[]"
        },
        {
          "internalType": "address",
          "name": "_newIntegration",
          "type": "address"
        }
      ],
      "name": "migrateBassets",
      "outputs": [],
      "stateMutability": "nonpayable",
      "type": "function"
    },
    {
      "inputs": [
        {
          "internalType": "address",
          "name": "_input",
          "type": "address"
        },
        {
          "internalType": "uint256",
          "name": "_inputQuantity",
          "type": "uint256"
        },
        {
          "internalType": "uint256",
          "name": "_minOutputQuantity",
          "type": "uint256"
        },
        {
          "internalType": "address",
          "name": "_recipient",
          "type": "address"
        }
      ],
      "name": "mint",
      "outputs": [
        {
          "internalType": "uint256",
          "name": "mintOutput",
          "type": "uint256"
        }
      ],
      "stateMutability": "nonpayable",
      "type": "function"
    },
    {
      "inputs": [
        {
          "internalType": "address[]",
          "name": "_inputs",
          "type": "address[]"
        },
        {
          "internalType": "uint256[]",
          "name": "_inputQuantities",
          "type": "uint256[]"
        },
        {
          "internalType": "uint256",
          "name": "_minOutputQuantity",
          "type": "uint256"
        },
        {
          "internalType": "address",
          "name": "_recipient",
          "type": "address"
        }
      ],
      "name": "mintMulti",
      "outputs": [
        {
          "internalType": "uint256",
          "name": "mintOutput",
          "type": "uint256"
        }
      ],
      "stateMutability": "nonpayable",
      "type": "function"
    },
    {
      "inputs": [],
      "name": "name",
      "outputs": [
        {
          "internalType": "string",
          "name": "",
          "type": "string"
        }
      ],
      "stateMutability": "view",
      "type": "function"
    },
    {
      "inputs": [
        {
          "internalType": "address",
          "name": "_bAsset",
          "type": "address"
        }
      ],
      "name": "negateIsolation",
      "outputs": [],
      "stateMutability": "nonpayable",
      "type": "function"
    },
    {
      "inputs": [],
      "name": "nexus",
      "outputs": [
        {
          "internalType": "contract INexus",
          "name": "",
          "type": "address"
        }
      ],
      "stateMutability": "view",
      "type": "function"
    },
    {
      "inputs": [
        {
          "internalType": "uint256",
          "name": "futureA",
          "type": "uint256"
        },
        {
          "internalType": "uint256",
          "name": "futureTime",
          "type": "uint256"
        }
      ],
      "name": "rampA",
      "outputs": [],
      "stateMutability": "nonpayable",
      "type": "function"
    },
    {
      "inputs": [
        {
          "internalType": "address",
          "name": "_output",
          "type": "address"
        },
        {
          "internalType": "uint256",
          "name": "_mAssetQuantity",
          "type": "uint256"
        },
        {
          "internalType": "uint256",
          "name": "_minOutputQuantity",
          "type": "uint256"
        },
        {
          "internalType": "address",
          "name": "_recipient",
          "type": "address"
        }
      ],
      "name": "redeem",
      "outputs": [
        {
          "internalType": "uint256",
          "name": "outputQuantity",
          "type": "uint256"
        }
      ],
      "stateMutability": "nonpayable",
      "type": "function"
    },
    {
      "inputs": [
        {
          "internalType": "address",
          "name": "_output",
          "type": "address"
        },
        {
          "internalType": "uint256",
          "name": "_outputQuantity",
          "type": "uint256"
        },
        {
          "internalType": "uint256",
          "name": "_maxMassetQuantity",
          "type": "uint256"
        },
        {
          "internalType": "address",
          "name": "_recipient",
          "type": "address"
        }
      ],
      "name": "redeemExactBasset",
      "outputs": [
        {
          "internalType": "uint256",
          "name": "mAssetRedeemed",
          "type": "uint256"
        }
      ],
      "stateMutability": "nonpayable",
      "type": "function"
    },
    {
      "inputs": [
        {
          "internalType": "address[]",
          "name": "_outputs",
          "type": "address[]"
        },
        {
          "internalType": "uint256[]",
          "name": "_outputQuantities",
          "type": "uint256[]"
        },
        {
          "internalType": "uint256",
          "name": "_maxMassetQuantity",
          "type": "uint256"
        },
        {
          "internalType": "address",
          "name": "_recipient",
          "type": "address"
        }
      ],
      "name": "redeemExactBassets",
      "outputs": [
        {
          "internalType": "uint256",
          "name": "mAssetRedeemed",
          "type": "uint256"
        }
      ],
      "stateMutability": "nonpayable",
      "type": "function"
    },
    {
      "inputs": [
        {
          "internalType": "uint256",
          "name": "_cacheSize",
          "type": "uint256"
        }
      ],
      "name": "setCacheSize",
      "outputs": [],
      "stateMutability": "nonpayable",
      "type": "function"
    },
    {
      "inputs": [
        {
          "internalType": "uint256",
          "name": "_swapFee",
          "type": "uint256"
        }
      ],
      "name": "setSwapFee",
      "outputs": [],
      "stateMutability": "nonpayable",
      "type": "function"
    },
    {
      "inputs": [
        {
          "internalType": "address",
          "name": "_bAsset",
          "type": "address"
        },
        {
          "internalType": "bool",
          "name": "_flag",
          "type": "bool"
        }
      ],
      "name": "setTransferFeesFlag",
      "outputs": [],
      "stateMutability": "nonpayable",
      "type": "function"
    },
    {
      "inputs": [],
      "name": "stopRampA",
      "outputs": [],
      "stateMutability": "nonpayable",
      "type": "function"
    },
    {
      "inputs": [],
      "name": "surplus",
      "outputs": [
        {
          "internalType": "uint256",
          "name": "",
          "type": "uint256"
        }
      ],
      "stateMutability": "view",
      "type": "function"
    },
    {
      "inputs": [
        {
          "internalType": "address",
          "name": "_input",
          "type": "address"
        },
        {
          "internalType": "address",
          "name": "_output",
          "type": "address"
        },
        {
          "internalType": "uint256",
          "name": "_inputQuantity",
          "type": "uint256"
        },
        {
          "internalType": "uint256",
          "name": "_minOutputQuantity",
          "type": "uint256"
        },
        {
          "internalType": "address",
          "name": "_recipient",
          "type": "address"
        }
      ],
      "name": "swap",
      "outputs": [
        {
          "internalType": "uint256",
          "name": "swapOutput",
          "type": "uint256"
        }
      ],
      "stateMutability": "nonpayable",
      "type": "function"
    },
    {
      "inputs": [],
      "name": "swapFee",
      "outputs": [
        {
          "internalType": "uint256",
          "name": "",
          "type": "uint256"
        }
      ],
      "stateMutability": "view",
      "type": "function"
    },
    {
      "inputs": [],
      "name": "symbol",
      "outputs": [
        {
          "internalType": "string",
          "name": "",
          "type": "string"
        }
      ],
      "stateMutability": "view",
      "type": "function"
    },
    {
      "inputs": [],
      "name": "totalSupply",
      "outputs": [
        {
          "internalType": "uint256",
          "name": "",
          "type": "uint256"
        }
      ],
      "stateMutability": "view",
      "type": "function"
    },
    {
      "inputs": [
        {
          "internalType": "address",
          "name": "recipient",
          "type": "address"
        },
        {
          "internalType": "uint256",
          "name": "amount",
          "type": "uint256"
        }
      ],
      "name": "transfer",
      "outputs": [
        {
          "internalType": "bool",
          "name": "",
          "type": "bool"
        }
      ],
      "stateMutability": "nonpayable",
      "type": "function"
    },
    {
      "inputs": [
        {
          "internalType": "address",
          "name": "sender",
          "type": "address"
        },
        {
          "internalType": "address",
          "name": "recipient",
          "type": "address"
        },
        {
          "internalType": "uint256",
          "name": "amount",
          "type": "uint256"
        }
      ],
      "name": "transferFrom",
      "outputs": [
        {
          "internalType": "bool",
          "name": "",
          "type": "bool"
        }
      ],
      "stateMutability": "nonpayable",
      "type": "function"
    },
    {
      "inputs": [
        {
          "internalType": "address",
          "name": "_newForgeValidator",
          "type": "address"
        }
      ],
      "name": "upgradeForgeValidator",
      "outputs": [],
      "stateMutability": "nonpayable",
      "type": "function"
    }
  ],
  "bytecode": "0x60a06040523480156200001157600080fd5b50604051620060be380380620060be83398101604081905262000034916200007e565b806001600160a01b038116620000675760405162461bcd60e51b81526004016200005e90620000ae565b60405180910390fd5b60601b6001600160601b03191660805250620000e5565b60006020828403121562000090578081fd5b81516001600160a01b0381168114620000a7578182fd5b9392505050565b60208082526015908201527f4e657875732061646472657373206973207a65726f0000000000000000000000604082015260600190565b60805160601c615fa5620001196000396000818161164401528181613ab901528181613ba70152613ffb0152615fa56000f3fe608060405234801561001057600080fd5b50600436106102d65760003560e01c80636ea0abef11610182578063a9059cbb116100e9578063cd6ef2b0116100a2578063dd62ed3e1161007c578063dd62ed3e14610631578063e5555b8f14610644578063edc832b314610657578063f74bfe8e1461065f576102d6565b8063cd6ef2b014610600578063d5bcb9b514610616578063d7d5226614610629576102d6565b8063a9059cbb146105a4578063aa5d27e9146105b7578063af290bd4146105ca578063bd2f771f146105dd578063bdfbe29c146105e5578063c4db7fa0146105f8576102d6565b8063905e89141161013b578063905e89141461054657806395d89b4114610559578063969642b9146105615780639f80262d14610574578063a3f5c1d21461057c578063a457c2d714610591576102d6565b80636ea0abef146104df5780636fb3e89c146104f257806370a082311461050557806372ea90761461051857806378aa987e1461052b5780637e8901ea1461053e576102d6565b80632a2fab221161024157806343bcfab6116101fa578063598362f0116101d4578063598362f014610496578063674a64e0146104ae5780636c36581c146104b65780636d5d6eb1146104be576102d6565b806343bcfab61461046857806354cf2aeb1461047b578063593d132c14610483576102d6565b80632a2fab22146103e35780632f91a724146103f9578063313ce5671461041957806334e199071461042157806339509351146104345780633e37bcbc14610447576102d6565b806318160ddd1161029357806318160ddd146103775780631820783d1461037f5780631a861d5d146103945780631d3ce398146103a757806323b872dd146103bd57806326bbe60a146103d0576102d6565b80630357359c146102db57806304de5a731461030757806306fdde0314610327578063095ea7b31461033c578063119849cf1461035c578063138885651461036f575b600080fd5b6102ee6102e9366004614b51565b610672565b6040516102fe9493929190614e5a565b60405180910390f35b61031a610315366004614941565b6106c2565b6040516102fe919061536b565b61032f61073a565b6040516102fe9190615374565b61034f61034a366004614879565b6107cd565b6040516102fe919061534e565b61031a61036a366004614879565b6107ea565b61031a6107fd565b61031a610803565b61039261038d366004614b51565b610809565b005b6103926103a2366004614a69565b610882565b6103af610bcd565b6040516102fe92919061516f565b61034f6103cb3660046147ae565b610d2a565b6103926103de36600461473e565b610d9f565b6103eb610e49565b6040516102fe929190615ca9565b61040c61040736600461473e565b610f00565b6040516102fe9190615d8c565b61040c610f15565b61039261042f366004614b51565b610f1e565b61034f610442366004614879565b610f7d565b61045a61045536600461473e565b610fcc565b6040516102fe929190615d2c565b61031a6104763660046148a4565b611157565b61031a6111b8565b610392610491366004614c33565b6111be565b61049e611242565b6040516102fe9493929190615d61565b61031a611270565b61040c611276565b6104d16104cc366004614b51565b61127f565b6040516102fe929190615d47565b61031a6104ed3660046148a4565b6112b4565b6103926105003660046148ed565b6112fd565b61031a61051336600461473e565b61137b565b61031a6105263660046147ae565b611396565b61031a610539366004614879565b6113b3565b6103eb6113bf565b61039261055436600461484c565b611568565b61032f6115b2565b61039261056f36600461473e565b6115c1565b61031a61163c565b610584611642565b6040516102fe9190614e46565b61034f61059f366004614879565b611666565b61034f6105b2366004614879565b6116b5565b61031a6105c53660046149a9565b6116c9565b61031a6105d83660046149a9565b611791565b61031a61183f565b6103926105f336600461484c565b611845565b61039261188c565b610608611907565b6040516102fe929190615359565b61031a6106243660046147ee565b61191a565b61058461197d565b61031a61063f366004614776565b611992565b61031a610652366004614941565b6119bd565b610608611acb565b61031a61066d3660046148a4565b611add565b603f818154811061068257600080fd5b6000918252602090912060029091020180546001909101546001600160a01b0391821692509081169060ff600160a01b8204811691600160a81b90041684565b600061073185858080602002602001604051908101604052809392919081815260200183836020028082843760009201919091525050604080516020808902828101820190935288825290935088925087918291850190849080828437600092019190915250611b2692505050565b95945050505050565b60606036805461074990615ed0565b80601f016020809104026020016040519081016040528092919081815260200182805461077590615ed0565b80156107c25780601f10610797576101008083540402835291602001916107c2565b820191906000526020600020905b8154815290600101906020018083116107a557829003601f168201915b505050505090505b90565b60006107e16107da611c26565b8484611c2a565b50600192915050565b60006107f68383611cde565b9392505050565b603e5481565b60355490565b610811611da0565b6702c68af0bb1400008111156108425760405162461bcd60e51b81526004016108399061579c565b60405180910390fd5b603d8190556040517f2f5a6b1defeafd30e7568ea5c176aa0702b0af5b00ba41fa20e58b2c72e8afe79061087790839061536b565b60405180910390a150565b600054610100900460ff168061089b575061089b611dda565b806108a9575060005460ff16155b6108c55760405162461bcd60e51b8152600401610839906158a0565b600054610100900460ff161580156108f0576000805460ff1961ff0019909116610100171660011790555b61096389898080601f01602080910402602001604051908101604052809392919081815260200183838082843760009201919091525050604080516020601f8d018190048102820181019092528b815292508b91508a9081908401838280828437600092019190915250611de092505050565b61096b611df0565b6038805462010000600160b01b031916620100006001600160a01b03881602179055826109aa5760405162461bcd60e51b81526004016108399061544e565b6042805460ff1916600a17905560005b83811015610afe5760425473__$5b16d5998f5ade2b8429b01a34059bc31b$__90637c37ca3990603f9060409060419060ff168a8a88818110610a0d57634e487b7160e01b600052603260045260246000fd5b610a23926020608090920201908101915061473e565b8b8b89818110610a4357634e487b7160e01b600052603260045260246000fd5b9050608002016020016020810190610a5b919061473e565b6305f5e1008d8d8b818110610a8057634e487b7160e01b600052603260045260246000fd5b9050608002016040016020810190610a989190614a31565b6040518963ffffffff1660e01b8152600401610abb98979695949392919061526c565b60006040518083038186803b158015610ad357600080fd5b505af4158015610ae7573d6000803e3d6000fd5b505050508080610af690615f05565b9150506109ba565b506000610b1a60648460000151610b159190615e26565b611e01565b604080516080810182526001600160401b0392909216808352602080840182905260009284018390526060909301919091526044805467ffffffffffffffff191682176fffffffffffffffff00000000000000001916600160401b909202919091176001600160801b031690558301516045555066470de4df820000603b55660221b262dd8000603a5567016345785d8a0000603d558015610bc2576000805461ff00191690555b505050505050505050565b606080603f604081805480602002602001604051908101604052809291908181526020016000905b82821015610cac576000848152602090819020604080516080810182526002860290920180546001600160a01b03908116845260018201549081169484019490945260ff600160a01b8504811615159284019290925291926060840191600160a81b909104166007811115610c7a57634e487b7160e01b600052602160045260246000fd5b6007811115610c9957634e487b7160e01b600052602160045260246000fd5b8152505081526020019060010190610bf5565b50505050915080805480602002602001604051908101604052809291908181526020016000905b82821015610d1c57600084815260209081902060408051808201909152908401546001600160801b038082168352600160801b9091041681830152825260019092019101610cd3565b505050509050915091509091565b6000610d37848484611e2a565b610d9584610d43611c26565b6001600160a01b03871660009081526034602052604081208691610d65611c26565b6001600160a01b03166001600160a01b0316815260200190815260200160002054610d909190615e6d565b611c2a565b5060019392505050565b610da7611da0565b603854600160b01b900460ff1615610dd15760405162461bcd60e51b8152600401610839906157fb565b6001600160a01b038116610df75760405162461bcd60e51b815260040161083990615701565b6038805462010000600160b01b031916620100006001600160a01b038416021790556040517f2e137a82d7f7fe8a4c453313f3d08557c162ad9d78219a2e937e318b41e12f7a90610877908390614e46565b600080610e54611f15565b603e546001811115610ef157610e6b600182615e6d565b6001603e559250610e7c3384611f44565b307f7d3ff197e9071095bd36b627028ef523ecf46fcbf17cbde745a4b65aec88b6bc33856000604051908082528060200260200182016040528015610ecb578160200160208202803683370190505b5060408051600081526020810191829052610ee894939291614f83565b60405180910390a25b610ef9610803565b9150509091565b60416020526000908152604090205460ff1681565b60385460ff1690565b610f26611da0565b603b54811115610f485760405162461bcd60e51b815260040161083990615869565b603a8190556040517f9cabc14d438714dbcd9292df9b3f89c42f98acd93a675ad72cd6033777e9b8e79061087790839061536b565b60006107e1610f8a611c26565b848460346000610f98611c26565b6001600160a01b03908116825260208083019390935260409182016000908120918b1681529252902054610d909190615dee565b610fd461455e565b610fdc614583565b6001600160a01b038316600090815260416020526040902054603f805460ff909216918290811061101d57634e487b7160e01b600052603260045260246000fd5b600091825260209182902060408051608081018252600290930290910180546001600160a01b03908116845260018201549081169484019490945260ff600160a01b8504811615159284019290925291926060840191600160a81b90910416600781111561109b57634e487b7160e01b600052602160045260246000fd5b60078111156110ba57634e487b7160e01b600052602160045260246000fd5b815250509250836001600160a01b031683600001516001600160a01b0316146110f55760405162461bcd60e51b815260040161083990615b3b565b60408160ff168154811061111957634e487b7160e01b600052603260045260246000fd5b6000918252602091829020604080518082019091529101546001600160801b038082168352600160801b909104169181019190915292949293505050565b603854600090610100900460ff166111815760405162461bcd60e51b815260040161083990615b6a565b6038805461ff0019169055611194611ff8565b6111a08585858561203c565b6038805461ff00191661010017905595945050505050565b603a5481565b6111c6611da0565b73__$5b16d5998f5ade2b8429b01a34059bc31b$__6385255cb5604484846111ec61231d565b60646040518663ffffffff1660e01b815260040161120e959493929190615cb7565b60006040518083038186803b15801561122657600080fd5b505af415801561123a573d6000803e3d6000fd5b505050505050565b6044546001600160401b0380821691600160401b8104821691600160801b8204811691600160c01b90041684565b603d5481565b60425460ff1681565b6040818154811061128f57600080fd5b6000918252602090912001546001600160801b038082169250600160801b9091041682565b603854600090610100900460ff166112de5760405162461bcd60e51b815260040161083990615b6a565b6038805461ff00191690556112f1611ff8565b6111a085858585612471565b611305611da0565b60405163a5bee44b60e01b815273__$5b16d5998f5ade2b8429b01a34059bc31b$__9063a5bee44b9061134690603f906041908890889088906004016152d9565b60006040518083038186803b15801561135e57600080fd5b505af4158015611372573d6000803e3d6000fd5b50505050505050565b6001600160a01b031660009081526033602052604090205490565b60006113a0612535565b6113ab848484612598565b949350505050565b60006107f6838361272a565b6000806113ca611f15565b6113d2611ff8565b603854610100900460ff166113f95760405162461bcd60e51b815260040161083990615b6a565b6038805461ff0019169081905560609073__$5b16d5998f5ade2b8429b01a34059bc31b$__90638b8029b490603f906040906201000090046001600160a01b031661144261280e565b6040518563ffffffff1660e01b815260040161146194939291906151c6565b60006040518083038186803b15801561147957600080fd5b505af415801561148d573d6000803e3d6000fd5b505050506040513d6000823e601f3d908101601f191682016040526114b59190810190614b81565b9093509050826114d75760405162461bcd60e51b8152600401610839906156d1565b6114e13384611f44565b307f7d3ff197e9071095bd36b627028ef523ecf46fcbf17cbde745a4b65aec88b6bc33856000604051908082528060200260200182016040528015611530578160200160208202803683370190505b50856040516115429493929190614f83565b60405180910390a2611552610803565b6038805461ff0019166101001790559293915050565b611570612839565b60405163ee60ee2b60e01b815273__$5b16d5998f5ade2b8429b01a34059bc31b$__9063ee60ee2b9061120e90604390603f9060419088908890600401615cfe565b60606037805461074990615ed0565b6115c9612839565b604051634c1e9da160e11b815273__$5b16d5998f5ade2b8429b01a34059bc31b$__9063983d3b429061160990604390603f906041908790600401615cda565b60006040518083038186803b15801561162157600080fd5b505af4158015611635573d6000803e3d6000fd5b5050505050565b60455481565b7f000000000000000000000000000000000000000000000000000000000000000081565b60006107e1611673611c26565b848460346000611681611c26565b6001600160a01b03908116825260208083019390935260409182016000908120918b1681529252902054610d909190615e6d565b60006107e16116c2611c26565b8484611e2a565b603854600090610100900460ff166116f35760405162461bcd60e51b815260040161083990615b6a565b6038805461ff0019169055611706611ff8565b61177787878080602002602001604051908101604052809392919081815260200183836020028082843760009201919091525050604080516020808b0282810182019093528a82529093508a9250899182918501908490808284376000920191909152508892508791506128829050565b6038805461ff001916610100179055979650505050505050565b603854600090610100900460ff166117bb5760405162461bcd60e51b815260040161083990615b6a565b6038805461ff00191690556117ce612535565b61177787878080602002602001604051908101604052809392919081815260200183836020028082843760009201919091525050604080516020808b0282810182019093528a82529093508a925089918291850190849080828437600092019190915250889250879150612c699050565b603c5481565b61184d612839565b604051638d18aef960e01b815273__$5b16d5998f5ade2b8429b01a34059bc31b$__90638d18aef99061120e90603f90604190879087906004016152b3565b611894611da0565b73__$5b16d5998f5ade2b8429b01a34059bc31b$__6318068e4060446118b861231d565b6040518363ffffffff1660e01b81526004016118d5929190615ca9565b60006040518083038186803b1580156118ed57600080fd5b505af4158015611901573d6000803e3d6000fd5b50505050565b60435460ff808216916101009004169091565b603854600090610100900460ff166119445760405162461bcd60e51b815260040161083990615b6a565b6038805461ff0019169055611957612535565b611964868686868661306b565b6038805461ff0019166101001790559695505050505050565b6038546201000090046001600160a01b031681565b6001600160a01b03918216600090815260346020908152604080832093909416825291909152205490565b60008180158015906119ce57508085145b6119ea5760405162461bcd60e51b8152600401610839906153d4565b6000611a2887878080602002602001604051908101604052809392919081815260200183836020028082843760009201919091525061349d92505050565b506038549091506201000090046001600160a01b0316639a32a4de6040838888611a5061280e565b6040518663ffffffff1660e01b8152600401611a709594939291906150e5565b60206040518083038186803b158015611a8857600080fd5b505afa158015611a9c573d6000803e3d6000fd5b505050506040513d601f19601f82011682018060405250810190611ac09190614b69565b979650505050505050565b60435460ff8082169161010090041682565b603854600090610100900460ff16611b075760405162461bcd60e51b815260040161083990615b6a565b6038805461ff0019169055611b1a612535565b6111a0858585856136b3565b80516000908015801590611b3a5750835181145b611b565760405162461bcd60e51b8152600401610839906153d4565b6000611b618561349d565b506038549091506000906201000090046001600160a01b031663209a9b4260408488611b8b61280e565b6040518563ffffffff1660e01b8152600401611baa9493929190615149565b60206040518083038186803b158015611bc257600080fd5b505afa158015611bd6573d6000803e3d6000fd5b505050506040513d601f19601f82011682018060405250810190611bfa9190614b69565b9050611c1c603a54670de0b6b3a7640000611c159190615e6d565b829061396c565b9695505050505050565b3390565b6001600160a01b038316611c505760405162461bcd60e51b815260040161083990615a08565b6001600160a01b038216611c765760405162461bcd60e51b815260040161083990615472565b6001600160a01b0380841660008181526034602090815260408083209487168084529490915290819020849055517f8c5be1e5ebec7d5bd14f71427d1e84f3dd0314c0f7b2291e5b200ac8c7c3b92590611cd190859061536b565b60405180910390a3505050565b6000808211611cff5760405162461bcd60e51b81526004016108399061569a565b6000611d0a8461398b565b506038549091506201000090046001600160a01b03166348cfc42d60408386611d3161280e565b6040518563ffffffff1660e01b8152600401611d50949392919061515c565b60206040518083038186803b158015611d6857600080fd5b505afa158015611d7c573d6000803e3d6000fd5b505050506040513d601f19601f820116820180604052508101906113ab9190614b69565b611da8613ab5565b6001600160a01b0316336001600160a01b031614611dd85760405162461bcd60e51b815260040161083990615663565b565b303b1590565b611dec82826012613b4d565b5050565b6038805461ff001916610100179055565b6000600160401b8210611e265760405162461bcd60e51b81526004016108399061576f565b5090565b6001600160a01b038316611e505760405162461bcd60e51b8152600401610839906159c3565b6001600160a01b038216611e765760405162461bcd60e51b81526004016108399061540b565b6001600160a01b03831660009081526033602052604081208054839290611e9e908490615e6d565b90915550506001600160a01b03821660009081526033602052604081208054839290611ecb908490615dee565b92505081905550816001600160a01b0316836001600160a01b03167fddf252ad1be2c89b69c2b068fc378daa952ba7f163c4a11628f55a4df523b3ef83604051611cd1919061536b565b33611f1e613b8d565b6001600160a01b031614611dd85760405162461bcd60e51b8152600401610839906155f5565b6001600160a01b038216611f6a5760405162461bcd60e51b815260040161083990615c72565b8060356000828254611f7c9190615dee565b90915550506001600160a01b03821660009081526033602052604081208054839290611fa9908490615dee565b90915550506040516001600160a01b038316906000907fddf252ad1be2c89b69c2b068fc378daa952ba7f163c4a11628f55a4df523b3ef90611fec90859061536b565b60405180910390a35050565b6040805180820190915260435460ff808216158015845261010090920416151560208301526120395760405162461bcd60e51b8152600401610839906154b4565b50565b60006001600160a01b0382166120645760405162461bcd60e51b815260040161083990615b04565b600084116120845760405162461bcd60e51b815260040161083990615acd565b60006040805480602002602001604051908101604052809291908181526020016000905b828210156120f157600084815260209081902060408051808201909152908401546001600160801b038082168352600160801b90910416818301528252600190920191016120a8565b5050505090506000806121038861398b565b915091506000612111613c14565b9050600061212a603a548a613c6b90919063ffffffff16565b6038549091506201000090046001600160a01b031663bd38cf508686612150858e615e6d565b61215861280e565b6040518563ffffffff1660e01b81526004016121779493929190615074565b60206040518083038186803b15801561218f57600080fd5b505afa1580156121a3573d6000803e3d6000fd5b505050506040513d601f19601f820116820180604052508101906121c79190614b69565b9550878610156121e95760405162461bcd60e51b815260040161083990615ba1565b6121f3338a613c80565b61222e8684878760ff168151811061221b57634e487b7160e01b600052603260045260246000fd5b60200260200101518a8660200151613d2a565b61223786613fbc565b858560ff168151811061225a57634e487b7160e01b600052603260045260246000fd5b6020026020010151602001516122709190615e45565b60408560ff168154811061229457634e487b7160e01b600052603260045260246000fd5b600091825260209091200180546001600160801b03928316600160801b02921691909117905560408201516122ca908290615dee565b603e55825160405133917f105ffcfe6c5fa767ff5a53039fdd9ba80ce97196d4daa0beb1bfbfa0ed838ad891612308918b918e91908c908890614f4f565b60405180910390a25050505050949350505050565b604080516080810182526044546001600160401b038082168352600160401b8204811660208401819052600160801b8304821694840194909452600160c01b9091041660608201819052600092904281111561245e57825160408401516001600160401b0380831690851611156123fc576123988184615e84565b6001600160401b0316816001600160401b0316426123b69190615e6d565b6123c08487615e84565b6001600160401b03166123d39190615e26565b6123dd9190615e06565b6123f0906001600160401b038416615dee565b955050505050506107ca565b6124068184615e84565b6001600160401b0316816001600160401b0316426124249190615e6d565b61242e8685615e84565b6001600160401b03166124419190615e26565b61244b9190615e06565b6123f0906001600160401b038416615e6d565b506001600160401b031691506107ca9050565b60408051600180825281830190925260009182919060208083019080368337505060408051600180825281830190925292935060009291506020808301908036833701905050905086826000815181106124db57634e487b7160e01b600052603260045260246000fd5b60200260200101906001600160a01b031690816001600160a01b031681525050858160008151811061251d57634e487b7160e01b600052603260045260246000fd5b602002602001018181525050611ac082828787612882565b6040805180820190915260435460ff808216158015845261010090920416151560208301526125765760405162461bcd60e51b8152600401610839906154b4565b8060200151156120395760405162461bcd60e51b815260040161083990615522565b6000826001600160a01b0316846001600160a01b031614156125cc5760405162461bcd60e51b8152600401610839906157c4565b600082116125ec5760405162461bcd60e51b815260040161083990615925565b60006040805480602002602001604051908101604052809291908181526020016000905b8282101561265957600084815260209081902060408051808201909152908401546001600160801b038082168352600160801b9091041681830152825260019092019101612610565b505050509050600061266a8661398b565b50905060006126788661398b565b509050603860029054906101000a90046001600160a01b03166001600160a01b031663e8418f0f84848489603a546126ae61280e565b6040518763ffffffff1660e01b81526004016126cf969594939291906150a5565b604080518083038186803b1580156126e657600080fd5b505afa1580156126fa573d6000803e3d6000fd5b505050506040513d601f19601f8201168201806040525081019061271e9190614c54565b50979650505050505050565b600080821161274b5760405162461bcd60e51b815260040161083990615acd565b60006127568461398b565b5090506000612770603a5485613c6b90919063ffffffff16565b6038549091506201000090046001600160a01b031663bd38cf506040846127978589615e6d565b61279f61280e565b6040518563ffffffff1660e01b81526004016127be949392919061515c565b60206040518083038186803b1580156127d657600080fd5b505afa1580156127ea573d6000803e3d6000fd5b505050506040513d601f19601f820116820180604052508101906107319190614b69565b61281661459a565b604051806040016040528061282961231d565b8152602001604554815250905090565b33612842613fe1565b6001600160a01b0316148061286657503361285b613ab5565b6001600160a01b0316145b611dd85760405162461bcd60e51b81526004016108399061562c565b60006001600160a01b0382166128aa5760405162461bcd60e51b815260040161083990615b04565b835180158015906128bb5750855181145b6128d75760405162461bcd60e51b8152600401610839906153d4565b600084116128f75760405162461bcd60e51b8152600401610839906158ee565b6000806129038861349d565b6040805481516020808302820181018452828252949650929450600093849084015b8282101561296e57600084815260209081902060408051808201909152908401546001600160801b038082168352600160801b9091041681830152825260019092019101612925565b505050509050600061297e613c14565b6038549091506000906201000090046001600160a01b031663209a9b4284878d6129a661280e565b6040518563ffffffff1660e01b81526004016129c5949392919061502b565b60206040518083038186803b1580156129dd57600080fd5b505afa1580156129f1573d6000803e3d6000fd5b505050506040513d601f19601f82011682018060405250810190612a159190614b69565b9050612a30603a54670de0b6b3a7640000611c159190615e6d565b96506000612a3e8289615e6d565b905060008811612a605760405162461bcd60e51b815260040161083990615c3b565b612a6b600189615dee565b975089881115612a8d5760405162461bcd60e51b815260040161083990615c06565b612a973389613c80565b60005b87811015612bfa576000878281518110612ac457634e487b7160e01b600052603260045260246000fd5b602002602001015190506000868260ff1681518110612af357634e487b7160e01b600052603260045260246000fd5b60200260200101519050612b5c8e8481518110612b2057634e487b7160e01b600052603260045260246000fd5b6020026020010151898581518110612b4857634e487b7160e01b600052603260045260246000fd5b6020026020010151838f8a60200151613d2a565b612b8c8e8481518110612b7f57634e487b7160e01b600052603260045260246000fd5b6020026020010151613fbc565b8160200151612b9b9190615e45565b60408360ff1681548110612bbf57634e487b7160e01b600052603260045260246000fd5b600091825260209091200180546001600160801b03928316600160801b02921691909117905550819050612bf281615f05565b915050612a9a565b50808360400151612c0b9190615dee565b603e81905550336001600160a01b03167fdf5bf345d5d6eedd0e8667d799d60af65d7127e3b0417e04bef4d954d2a4750e8a8a8f8f86604051612c52959493929190614fbc565b60405180910390a250505050505050949350505050565b60006001600160a01b038216612c915760405162461bcd60e51b815260040161083990615b04565b83518015801590612ca25750855181145b612cbe5760405162461bcd60e51b815260040161083990615580565b600080612cca8861349d565b6040805481516020808302820181018452828252949650929450600093849084015b82821015612d3557600084815260209081902060408051808201909152908401546001600160801b038082168352600160801b9091041681830152825260019092019101612cec565b5050505090506000612d45613c14565b90506000856001600160401b03811115612d6f57634e487b7160e01b600052604160045260246000fd5b604051908082528060200260200182016040528015612d98578160200160208202803683370190505b50905060005b86811015612f385760008b8281518110612dc857634e487b7160e01b600052603260045260246000fd5b602002602001015190506000811115612f25576000878381518110612dfd57634e487b7160e01b600052603260045260246000fd5b602002602001015190506000868260ff1681518110612e2c57634e487b7160e01b600052603260045260246000fd5b602002602001015190506000888581518110612e5857634e487b7160e01b600052603260045260246000fd5b602002602001015190506000612e8f826000015184600001516001600160801b031684602001518560400151898d60200151614050565b905080878781518110612eb257634e487b7160e01b600052603260045260246000fd5b602002602001018181525050612ec781613fbc565b8360200151612ed69190615dc3565b60408560ff1681548110612efa57634e487b7160e01b600052603260045260246000fd5b600091825260209091200180546001600160801b03928316600160801b029216919091179055505050505b5080612f3081615f05565b915050612d9e565b506038546201000090046001600160a01b0316639a32a4de848784612f5b61280e565b6040518563ffffffff1660e01b8152600401612f7a949392919061502b565b60206040518083038186803b158015612f9257600080fd5b505afa158015612fa6573d6000803e3d6000fd5b505050506040513d601f19601f82011682018060405250810190612fca9190614b69565b965088871015612fec5760405162461bcd60e51b815260040161083990615549565b6000871161300c5760405162461bcd60e51b815260040161083990615954565b6130168888611f44565b336001600160a01b03167f7d3ff197e9071095bd36b627028ef523ecf46fcbf17cbde745a4b65aec88b6bc89898e8e6040516130559493929190614f83565b60405180910390a2505050505050949350505050565b60006001600160a01b0382166130935760405162461bcd60e51b815260040161083990615b04565b846001600160a01b0316866001600160a01b031614156130c55760405162461bcd60e51b8152600401610839906157c4565b600084116130e55760405162461bcd60e51b815260040161083990615925565b60006040805480602002602001604051908101604052809291908181526020016000905b8282101561315257600084815260209081902060408051808201909152908401546001600160801b038082168352600160801b9091041681830152825260019092019101613109565b5050505090506000806131648961398b565b915091506000806131748a61398b565b915091506000613182613c14565b905060006131db8560000151888860ff16815181106131b157634e487b7160e01b600052603260045260246000fd5b6020026020010151600001516001600160801b0316876020015188604001518f8760200151614050565b90506131e681613fbc565b878760ff168151811061320957634e487b7160e01b600052603260045260246000fd5b60200260200101516020015161321f9190615dc3565b60408760ff168154811061324357634e487b7160e01b600052603260045260246000fd5b9060005260206000200160000160106101000a8154816001600160801b0302191690836001600160801b031602179055506000603860029054906101000a90046001600160a01b03166001600160a01b031663e8418f0f89898886603a546132a961280e565b6040518763ffffffff1660e01b81526004016132ca969594939291906150a5565b604080518083038186803b1580156132e157600080fd5b505afa1580156132f5573d6000803e3d6000fd5b505050506040513d601f19601f820116820180604052508101906133199190614c54565b90995090508a89101561333e5760405162461bcd60e51b8152600401610839906154eb565b6000891161335e5760405162461bcd60e51b815260040161083990615bd8565b61339989858a8860ff168151811061338657634e487b7160e01b600052603260045260246000fd5b60200260200101518d8760200151613d2a565b6133a289613fbc565b888660ff16815181106133c557634e487b7160e01b600052603260045260246000fd5b6020026020010151602001516133db9190615e45565b60408660ff16815481106133ff57634e487b7160e01b600052603260045260246000fd5b600091825260209091200180546001600160801b03928316600160801b0292169190911790556040830151613435908290615dee565b603e81905550336001600160a01b03167f1eeaa4acf3c225a4033105c2647625dbb298dec93b14e16253c4231e26c02b1d876000015186600001518c858f604051613484959493929190614eab565b60405180910390a2505050505050505095945050505050565b80516060908190806001600160401b038111156134ca57634e487b7160e01b600052604160045260246000fd5b6040519080825280602002602001820160405280156134f3578160200160208202803683370190505b509250806001600160401b0381111561351c57634e487b7160e01b600052604160045260246000fd5b60405190808252806020026020018201604052801561355557816020015b61354261455e565b81526020019060019003908161353a5790505b50915060005b818110156136ac5761359385828151811061358657634e487b7160e01b600052603260045260246000fd5b602002602001015161398b565b8583815181106135b357634e487b7160e01b600052603260045260246000fd5b602002602001018584815181106135da57634e487b7160e01b600052603260045260246000fd5b602090810291909101019190915260ff909116905260006135fc826001615dee565b90505b828110156136995785818151811061362757634e487b7160e01b600052603260045260246000fd5b60200260200101516001600160a01b031686838151811061365857634e487b7160e01b600052603260045260246000fd5b60200260200101516001600160a01b031614156136875760405162461bcd60e51b815260040161083990615832565b8061369181615f05565b9150506135ff565b50806136a481615f05565b91505061355b565b5050915091565b60006001600160a01b0382166136db5760405162461bcd60e51b815260040161083990615b04565b600084116136fb5760405162461bcd60e51b81526004016108399061569a565b60006040805480602002602001604051908101604052809291908181526020016000905b8282101561376857600084815260209081902060408051808201909152908401546001600160801b038082168352600160801b909104168183015282526001909201910161371f565b50505050905060008061377a8861398b565b915091506000613788613c14565b905060006137e18360000151868660ff16815181106137b757634e487b7160e01b600052603260045260246000fd5b6020026020010151600001516001600160801b0316856020015186604001518d8760200151614050565b6038549091506201000090046001600160a01b03166348cfc42d86868461380661280e565b6040518563ffffffff1660e01b81526004016138259493929190615074565b60206040518083038186803b15801561383d57600080fd5b505afa158015613851573d6000803e3d6000fd5b505050506040513d601f19601f820116820180604052508101906138759190614b69565b9550878610156138975760405162461bcd60e51b815260040161083990615549565b6138a081613fbc565b858560ff16815181106138c357634e487b7160e01b600052603260045260246000fd5b6020026020010151602001516138d99190615dc3565b60408560ff16815481106138fd57634e487b7160e01b600052603260045260246000fd5b600091825260209091200180546001600160801b03928316600160801b02921691909117905561392d8787611f44565b336001600160a01b03167f30873c596f54a2e2e09894670d7e1a48b2433c00204f81fbedf557353c36e7c788888d856040516123089493929190614f25565b600081613981670de0b6b3a764000085615e26565b6107f69190615e06565b600061399561455e565b6001600160a01b038316600090815260416020526040902054603f805460ff909216935090839081106139d857634e487b7160e01b600052603260045260246000fd5b600091825260209182902060408051608081018252600290930290910180546001600160a01b03908116845260018201549081169484019490945260ff600160a01b8504811615159284019290925291926060840191600160a81b909104166007811115613a5657634e487b7160e01b600052602160045260246000fd5b6007811115613a7557634e487b7160e01b600052602160045260246000fd5b815250509050826001600160a01b031681600001516001600160a01b031614613ab05760405162461bcd60e51b8152600401610839906153a7565b915091565b60007f00000000000000000000000000000000000000000000000000000000000000006001600160a01b0316630c340a246040518163ffffffff1660e01b815260040160206040518083038186803b158015613b1057600080fd5b505afa158015613b24573d6000803e3d6000fd5b505050506040513d601f19601f82011682018060405250810190613b48919061475a565b905090565b8251613b609060369060208601906145b4565b508151613b749060379060208501906145b4565b506038805460ff191660ff929092169190911790555050565b6040516385acd64160e01b81526000906001600160a01b037f000000000000000000000000000000000000000000000000000000000000000016906385acd64190613bfc907f12fe936c77a1e196473c4314f3bed8eeac1d757b319abb85bdda70df35511bf19060040161536b565b60206040518083038186803b158015613b1057600080fd5b613c1c614634565b603e54600081613c2a610803565b613c349190615dee565b90506040518060600160405280828152602001613c5c603d5484613c6b90919063ffffffff16565b81526020019290925250905090565b60006107f68383670de0b6b3a764000061420d565b6001600160a01b038216613ca65760405162461bcd60e51b815260040161083990615982565b6001600160a01b03821660009081526033602052604081208054839290613cce908490615e6d565b925050819055508060356000828254613ce79190615e6d565b90915550506040516000906001600160a01b038416907fddf252ad1be2c89b69c2b068fc378daa952ba7f163c4a11628f55a4df523b3ef90611fec90859061536b565b84613d3457611635565b60208401516001600160a01b0316613d61578351613d5c906001600160a01b03168387614224565b611635565b836040015115613dde576020840151845160405163c89fc72f60e01b81526001600160a01b039092169163c89fc72f91613da7918691908a908190600190600401614edb565b600060405180830381600087803b158015613dc157600080fd5b505af1158015613dd5573d6000803e3d6000fd5b50505050611635565b835160208501516040516370a0823160e01b81526000926001600160a01b0316916370a0823191613e129190600401614e46565b60206040518083038186803b158015613e2a57600080fd5b505afa158015613e3e573d6000803e3d6000fd5b505050506040513d601f19601f82011682018060405250810190613e629190614b69565b9050858110613ed9576020850151855160405163a4e2859560e01b81526001600160a01b039092169163a4e2859591613ea2918791908b90600401614e87565b600060405180830381600087803b158015613ebc57600080fd5b505af1158015613ed0573d6000803e3d6000fd5b5050505061123a565b8351600090600290613ef59085906001600160801b031661427f565b613eff9190615e06565b90506000613f4183613f118a85615dee565b613f1b9190615e6d565b613f2485613fbc565b8860200151613f339190615e45565b6001600160801b0316614290565b6020880151885160405163c89fc72f60e01b81529293506001600160a01b039091169163c89fc72f91613f80918991908d908790600090600401614edb565b600060405180830381600087803b158015613f9a57600080fd5b505af1158015613fae573d6000803e3d6000fd5b505050505050505050505050565b6000600160801b8210611e265760405162461bcd60e51b8152600401610839906155ae565b6040516385acd64160e01b81526000906001600160a01b037f000000000000000000000000000000000000000000000000000000000000000016906385acd64190613bfc907f6d439300980e333f0256d64be2c9f67e86f4493ce25f82498d6db7f4be3d9e6f9060040161536b565b60006001600160a01b03851661407857600061406e33308a876142a5565b509150611c1c9050565b600061408633878a876142a5565b9092509050841561412c576040516307dba22560e31b81526000906001600160a01b03881690633edd1128906140c5908c908790600190600401615008565b602060405180830381600087803b1580156140df57600080fd5b505af11580156140f3573d6000803e3d6000fd5b505050506040513d601f19601f820116820180604052508101906141179190614b69565b90506141238186614290565b92505050611c1c565b83821461414b5760405162461bcd60e51b815260040161083990615738565b6000614157848961427f565b90508082111561420157600061416e600283615e06565b6141789084615e6d565b6040516307dba22560e31b81529091506001600160a01b03891690633edd1128906141ac908d908590600090600401615008565b602060405180830381600087803b1580156141c657600080fd5b505af11580156141da573d6000803e3d6000fd5b505050506040513d601f19601f820116820180604052508101906141fe9190614b69565b50505b50509695505050505050565b60008161421a8486615e26565b6113ab9190615e06565b61427a8363a9059cbb60e01b8484604051602401614243929190614f0c565b60408051601f198184030181529190526020810180516001600160e01b03166001600160e01b0319909316929092179091526143d1565b505050565b6000816139816305f5e10085615e26565b600081831161429f57826107f6565b50919050565b6000806000846001600160a01b03166370a08231876040518263ffffffff1660e01b81526004016142d69190614e46565b60206040518083038186803b1580156142ee57600080fd5b505afa158015614302573d6000803e3d6000fd5b505050506040513d601f19601f820116820180604052508101906143269190614b69565b905061433d6001600160a01b038616888887614460565b6040516370a0823160e01b81526001600160a01b038616906370a0823190614369908990600401614e46565b60206040518083038186803b15801561438157600080fd5b505afa158015614395573d6000803e3d6000fd5b505050506040513d601f19601f820116820180604052508101906143b99190614b69565b91506143c58183615e6d565b92505094509492505050565b6000614426826040518060400160405280602081526020017f5361666545524332303a206c6f772d6c6576656c2063616c6c206661696c6564815250856001600160a01b03166144819092919063ffffffff16565b80519091501561427a57808060200190518101906144449190614a4d565b61427a5760405162461bcd60e51b815260040161083990615a83565b611901846323b872dd60e01b85858560405160240161424393929190614e87565b60606113ab8484600085856144958561451f565b6144b15760405162461bcd60e51b815260040161083990615a4c565b600080866001600160a01b031685876040516144cd9190614e2a565b60006040518083038185875af1925050503d806000811461450a576040519150601f19603f3d011682016040523d82523d6000602084013e61450f565b606091505b5091509150611ac0828286614525565b3b151590565b606083156145345750816107f6565b8251156145445782518084602001fd5b8160405162461bcd60e51b81526004016108399190615374565b6040805160808101825260008082526020820181905291810182905290606082015290565b604080518082019091526000808252602082015290565b604051806040016040528060008152602001600081525090565b8280546145c090615ed0565b90600052602060002090601f0160209004810192826145e25760008555614628565b82601f106145fb57805160ff1916838001178555614628565b82800160010185558215614628579182015b8281111561462857825182559160200191906001019061460d565b50611e26929150614655565b60405180606001604052806000815260200160008152602001600081525090565b5b80821115611e265760008155600101614656565b60008083601f84011261467b578081fd5b5081356001600160401b03811115614691578182fd5b60208301915083602080830285010111156146ab57600080fd5b9250929050565b60008083601f8401126146c3578182fd5b5081356001600160401b038111156146d9578182fd5b6020830191508360208285010111156146ab57600080fd5b600060408284031215614702578081fd5b604051604081018181106001600160401b038211171561472457614724615f36565b604052823581526020928301359281019290925250919050565b60006020828403121561474f578081fd5b81356107f681615f4c565b60006020828403121561476b578081fd5b81516107f681615f4c565b60008060408385031215614788578081fd5b823561479381615f4c565b915060208301356147a381615f4c565b809150509250929050565b6000806000606084860312156147c2578081fd5b83356147cd81615f4c565b925060208401356147dd81615f4c565b929592945050506040919091013590565b600080600080600060a08688031215614805578081fd5b853561481081615f4c565b9450602086013561482081615f4c565b93506040860135925060608601359150608086013561483e81615f4c565b809150509295509295909350565b6000806040838503121561485e578182fd5b823561486981615f4c565b915060208301356147a381615f61565b6000806040838503121561488b578182fd5b823561489681615f4c565b946020939093013593505050565b600080600080608085870312156148b9578384fd5b84356148c481615f4c565b9350602085013592506040850135915060608501356148e281615f4c565b939692955090935050565b600080600060408486031215614901578283fd5b83356001600160401b03811115614916578384fd5b6149228682870161466a565b909450925050602084013561493681615f4c565b809150509250925092565b60008060008060408587031215614956578182fd5b84356001600160401b038082111561496c578384fd5b6149788883890161466a565b90965094506020870135915080821115614990578384fd5b5061499d8782880161466a565b95989497509550505050565b600080600080600080608087890312156149c1578384fd5b86356001600160401b03808211156149d7578586fd5b6149e38a838b0161466a565b909850965060208901359150808211156149fb578586fd5b50614a0889828a0161466a565b909550935050604087013591506060870135614a2381615f4c565b809150509295509295509295565b600060208284031215614a42578081fd5b81356107f681615f61565b600060208284031215614a5e578081fd5b81516107f681615f61565b60008060008060008060008060c0898b031215614a84578586fd5b88356001600160401b0380821115614a9a578788fd5b614aa68c838d016146b2565b909a50985060208b0135915080821115614abe578788fd5b614aca8c838d016146b2565b909850965060408b01359150614adf82615f4c565b90945060608a01359080821115614af4578384fd5b818b0191508b601f830112614b07578384fd5b813581811115614b15578485fd5b8c6020608083028501011115614b29578485fd5b602083019550809450505050614b428a60808b016146f1565b90509295985092959890939650565b600060208284031215614b62578081fd5b5035919050565b600060208284031215614b7a578081fd5b5051919050565b60008060408385031215614b93578182fd5b825191506020808401516001600160401b0380821115614bb1578384fd5b818601915086601f830112614bc4578384fd5b815181811115614bd657614bd6615f36565b8381029150614be6848301615d9a565b8181528481019084860184860187018b1015614c00578788fd5b8795505b83861015614c22578051835260019590950194918601918601614c04565b508096505050505050509250929050565b60008060408385031215614c45578182fd5b50508035926020909101359150565b60008060408385031215614c66578182fd5b505080516020909101519092909150565b6000815180845260208085019450808401835b83811015614caf5781516001600160a01b031687529582019590820190600101614c8a565b509495945050505050565b6000815180845260208085019450808401835b83811015614caf57614ce0878351614dc8565b6040969096019590820190600101614ccd565b6000815480845260208085019450838352808320835b83811015614caf5781546001600160801b038116885260801c8388015260409096019560019182019101614d09565b6000815180845260208085019450808401835b83811015614caf57815187529582019590820190600101614d4b565b6000815180845260208085019450808401835b83811015614caf57815160ff1687529582019590820190600101614d7a565b6001600160a01b03169052565b60088110614dc457634e487b7160e01b600052602160045260246000fd5b9052565b80516001600160801b03908116835260209182015116910152565b60018060a01b0380825116835280602083015116602084015250604081015115156040830152606081015161427a6060840182614da6565b80518252602090810151910152565b60008251614e3c818460208701615ea4565b9190910192915050565b6001600160a01b0391909116815260200190565b6001600160a01b038581168252841660208201528215156040820152608081016107316060830184614da6565b6001600160a01b039384168152919092166020820152604081019190915260600190565b6001600160a01b039586168152938516602085015260408401929092526060830152909116608082015260a00190565b6001600160a01b03958616815293909416602084015260408301919091526060820152901515608082015260a00190565b6001600160a01b03929092168252602082015260400190565b6001600160a01b039485168152602081019390935292166040820152606081019190915260800190565b6001600160a01b03958616815260208101949094529190931660408301526060820192909252608081019190915260a00190565b600060018060a01b038616825284602083015260806040830152614faa6080830185614c77565b8281036060840152611ac08185614d38565b600060018060a01b038716825285602083015260a06040830152614fe360a0830186614c77565b8281036060840152614ff58186614d38565b9150508260808301529695505050505050565b6001600160a01b0393909316835260208301919091521515604082015260600190565b600060a0825261503e60a0830187614cba565b82810360208401526150508187614d67565b905082810360408401526150648186614d38565b9150506107316060830184614e1b565b600060a0825261508760a0830187614cba565b905060ff851660208301528360408301526107316060830184614e1b565b600060e082526150b860e0830189614cba565b905060ff8716602083015260ff86166040830152846060830152836080830152611ac060a0830184614e1b565b600060a082526150f860a0830188614cf3565b828103602084015261510a8188614d67565b838103604085015285815290506001600160fb1b0385111561512a578182fd5b602085028087602084013701602001908152611c1c6060830184614e1b565b600060a0825261503e60a0830187614cf3565b600060a0825261508760a0830187614cf3565b604080825283519082018190526000906020906060840190828701845b828110156151b25761519f848351614de3565b608093909301929084019060010161518c565b50505083810382850152611c1c8186614cba565b600060a080830181845280885480835260c08601915089855260209250828520855b828110156152455781546001600160a01b03908116855260018301549081168686015260ff81881c8116151560408701529061522d6060870160a883901c8416614da6565b505060809390930192600291909101906001016151e8565b505050908401879052915061525f90506040830185614d99565b6107316060830184614e1b565b9788526020880196909652604087019490945260ff9290921660608601526001600160a01b0390811660808601521660a084015260c0830152151560e08201526101000190565b93845260208401929092526001600160a01b031660408301521515606082015260800190565b85815260208082018690526080604083018190528201849052600090859060a08401835b8781101561532b57833561531081615f4c565b6001600160a01b0316825292820192908201906001016152fd565b506001600160a01b03959095166060949094019390935250919695505050505050565b901515815260200190565b91151582521515602082015260400190565b90815260200190565b6000602082528251806020840152615393816040850160208701615ea4565b601f01601f19169190910160400192915050565b602080825260139082015272125b9d985b1a5908185cdcd95d081a5b9c1d5d606a1b604082015260600190565b6020808252601b908201527f496e707574206172726179206c656e677468206d69736d617463680000000000604082015260600190565b60208082526023908201527f45524332303a207472616e7366657220746f20746865207a65726f206164647260408201526265737360e81b606082015260800190565b6020808252600a90820152694e6f206241737365747360b01b604082015260600190565b60208082526022908201527f45524332303a20617070726f766520746f20746865207a65726f206164647265604082015261737360f01b606082015260800190565b6020808252601b908201527f6241737365742072652d636f6c6c61746572616c69736174696f6e0000000000604082015260600190565b6020808252601d908201527f53776170206f757470757420717479203c206d696e696d756d20717479000000604082015260600190565b6020808252600d908201526c18985cdad95d0819985a5b1959609a1b604082015260600190565b6020808252601e908201527f4d696e74206d4173736574207175616e74697479203c206d696e207174790000604082015260600190565b602080825260149082015273092dce0eae840c2e4e4c2f240dad2e6dac2e8c6d60631b604082015260600190565b60208082526027908201527f53616665436173743a2076616c756520646f65736e27742066697420696e20316040820152663238206269747360c81b606082015260800190565b60208082526017908201527f4d75737420626520736176696e6773206d616e61676572000000000000000000604082015260600190565b6020808252601b908201527f4d757374206265206d616e61676572206f7220676f7665726e6f720000000000604082015260600190565b60208082526019908201527f4f6e6c7920676f7665726e6f722063616e206578656375746500000000000000604082015260600190565b60208082526019908201527f5175616e74697479206d757374206e6f74206265207a65726f00000000000000604082015260600190565b6020808252601690820152754d75737420636f6c6c65637420736f6d657468696e6760501b604082015260600190565b60208082526018908201527f4d757374206265206e6f6e206e756c6c20616464726573730000000000000000604082015260600190565b6020808252601b908201527f4173736574206e6f742066756c6c79207472616e736665727265640000000000604082015260600190565b60208082526013908201527253616665436173743a20746f6f206c6172676560681b604082015260600190565b6020808252600e908201526d4d757374206265203c3d2032302560901b604082015260600190565b6020808252601d908201527f43616e206e6f742073776170207468652073616d652062417373657473000000604082015260600190565b6020808252601a908201527f4d75737420626520616c6c6f77656420746f2075706772616465000000000000604082015260600190565b6020808252601b908201527f4e6f206475706c69636174652061737365747320616c6c6f7765640000000000604082015260600190565b6020808252601a908201527f52617465206d7573742062652077697468696e20626f756e6473000000000000604082015260600190565b6020808252602e908201527f436f6e747261637420696e7374616e63652068617320616c726561647920626560408201526d195b881a5b9a5d1a585b1a5e995960921b606082015260800190565b6020808252601b908201527f4d6178206d4173736574207175616e74697479206973207a65726f0000000000604082015260600190565b602080825260159082015274496e76616c69642073776170207175616e7469747960581b604082015260600190565b6020808252601490820152735a65726f206d4173736574207175616e7469747960601b604082015260600190565b60208082526021908201527f45524332303a206275726e2066726f6d20746865207a65726f206164647265736040820152607360f81b606082015260800190565b60208082526025908201527f45524332303a207472616e736665722066726f6d20746865207a65726f206164604082015264647265737360d81b606082015260800190565b60208082526024908201527f45524332303a20617070726f76652066726f6d20746865207a65726f206164646040820152637265737360e01b606082015260800190565b6020808252601d908201527f416464726573733a2063616c6c20746f206e6f6e2d636f6e7472616374000000604082015260600190565b6020808252602a908201527f5361666545524332303a204552433230206f7065726174696f6e20646964206e6040820152691bdd081cdd58d8d9595960b21b606082015260800190565b6020808252601b908201527f496e76616c696420726564656d7074696f6e207175616e746974790000000000604082015260600190565b60208082526019908201527f4d75737420626520612076616c696420726563697069656e7400000000000000604082015260600190565b60208082526015908201527418905cdcd95d08191bd95cc81b9bdd08195e1a5cdd605a1b604082015260600190565b6020808252601f908201527f5265656e7472616e637947756172643a207265656e7472616e742063616c6c00604082015260600190565b6020808252601b908201527f62417373657420717479203c206d696e20624173736574207174790000000000604082015260600190565b6020808252601490820152735a65726f206f7574707574207175616e7469747960601b604082015260600190565b6020808252818101527f72656465656d206d417373657420717479203e206d6178207175616e74697479604082015260600190565b60208082526018908201527f4d7573742072656465656d20736f6d65206d4173736574730000000000000000604082015260600190565b6020808252601f908201527f45524332303a206d696e7420746f20746865207a65726f206164647265737300604082015260600190565b918252602082015260400190565b948552602085019390935260408401919091526060830152608082015260a00190565b938452602084019290925260408301526001600160a01b0316606082015260800190565b948552602085019390935260408401919091526001600160a01b031660608301521515608082015260a00190565b60c08101615d3a8285614de3565b6107f66080830184614dc8565b6001600160801b0392831681529116602082015260400190565b6001600160401b03948516815292841660208401529083166040830152909116606082015260800190565b60ff91909116815260200190565b6040518181016001600160401b0381118282101715615dbb57615dbb615f36565b604052919050565b60006001600160801b03808316818516808303821115615de557615de5615f20565b01949350505050565b60008219821115615e0157615e01615f20565b500190565b600082615e2157634e487b7160e01b81526012600452602481fd5b500490565b6000816000190483118215151615615e4057615e40615f20565b500290565b60006001600160801b0383811690831681811015615e6557615e65615f20565b039392505050565b600082821015615e7f57615e7f615f20565b500390565b60006001600160401b0383811690831681811015615e6557615e65615f20565b60005b83811015615ebf578181015183820152602001615ea7565b838111156119015750506000910152565b600281046001821680615ee457607f821691505b6020821081141561429f57634e487b7160e01b600052602260045260246000fd5b6000600019821415615f1957615f19615f20565b5060010190565b634e487b7160e01b600052601160045260246000fd5b634e487b7160e01b600052604160045260246000fd5b6001600160a01b038116811461203957600080fd5b801515811461203957600080fdfea264697066735822122062906786cb8d8dbc9075a96a31b62f8077c00557390c563ec32ee45639da93dd64736f6c63430008000033",
  "linkReferences": {
    "contracts/curved-masset/Manager.sol": {
      "Manager": [
        {
          "length": 20,
          "start": 2784
        },
        {
          "length": 20,
          "start": 4833
        },
        {
          "length": 20,
          "start": 5165
        },
        {
          "length": 20,
          "start": 5412
        },
        {
          "length": 20,
          "start": 5784
        },
        {
          "length": 20,
          "start": 5873
        },
        {
          "length": 20,
          "start": 6517
        },
        {
          "length": 20,
          "start": 6575
        }
      ]
    }
  },
  "deployedLinkReferences": {
    "contracts/curved-masset/Manager.sol": {
      "Manager": [
        {
          "length": 20,
          "start": 2503
        },
        {
          "length": 20,
          "start": 4552
        },
        {
          "length": 20,
          "start": 4884
        },
        {
          "length": 20,
          "start": 5131
        },
        {
          "length": 20,
          "start": 5503
        },
        {
          "length": 20,
          "start": 5592
        },
        {
          "length": 20,
          "start": 6236
        },
        {
          "length": 20,
          "start": 6294
        }
      ]
    }
  }
}