{
  "_format": "hh-sol-artifact-1",
  "contractName": "InvariantValidator",
  "sourceName": "contracts/curved-masset/InvariantValidator.sol",
  "abi": [
    {
      "inputs": [
        {
          "internalType": "uint256",
          "name": "_startingCap",
          "type": "uint256"
        },
        {
          "internalType": "uint256",
          "name": "_capFactor",
          "type": "uint256"
        }
      ],
      "stateMutability": "nonpayable",
      "type": "constructor"
    },
    {
      "inputs": [],
      "name": "capFactor",
      "outputs": [
        {
          "internalType": "uint256",
          "name": "",
          "type": "uint256"
        }
      ],
      "stateMutability": "view",
      "type": "function"
    },
    {
      "inputs": [
        {
          "components": [
            {
              "internalType": "uint128",
              "name": "ratio",
              "type": "uint128"
            },
            {
              "internalType": "uint128",
              "name": "vaultBalance",
              "type": "uint128"
            }
          ],
          "internalType": "struct MassetStructs.BassetData[]",
          "name": "_bAssets",
          "type": "tuple[]"
        },
        {
          "internalType": "uint8",
          "name": "_i",
          "type": "uint8"
        },
        {
          "internalType": "uint256",
          "name": "_rawInput",
          "type": "uint256"
        },
        {
          "components": [
            {
              "internalType": "uint256",
              "name": "a",
              "type": "uint256"
            },
            {
              "internalType": "uint256",
              "name": "maxWeight",
              "type": "uint256"
            }
          ],
          "internalType": "struct MassetStructs.InvariantConfig",
          "name": "_config",
          "type": "tuple"
        }
      ],
      "name": "computeMint",
      "outputs": [
        {
          "internalType": "uint256",
          "name": "mintAmount",
          "type": "uint256"
        }
      ],
      "stateMutability": "view",
      "type": "function"
    },
    {
      "inputs": [
        {
          "components": [
            {
              "internalType": "uint128",
              "name": "ratio",
              "type": "uint128"
            },
            {
              "internalType": "uint128",
              "name": "vaultBalance",
              "type": "uint128"
            }
          ],
          "internalType": "struct MassetStructs.BassetData[]",
          "name": "_bAssets",
          "type": "tuple[]"
        },
        {
          "internalType": "uint8[]",
          "name": "_indices",
          "type": "uint8[]"
        },
        {
          "internalType": "uint256[]",
          "name": "_rawInputs",
          "type": "uint256[]"
        },
        {
          "components": [
            {
              "internalType": "uint256",
              "name": "a",
              "type": "uint256"
            },
            {
              "internalType": "uint256",
              "name": "maxWeight",
              "type": "uint256"
            }
          ],
          "internalType": "struct MassetStructs.InvariantConfig",
          "name": "_config",
          "type": "tuple"
        }
      ],
      "name": "computeMintMulti",
      "outputs": [
        {
          "internalType": "uint256",
          "name": "mintAmount",
          "type": "uint256"
        }
      ],
      "stateMutability": "view",
      "type": "function"
    },
    {
      "inputs": [
        {
          "components": [
            {
              "internalType": "uint128",
              "name": "ratio",
              "type": "uint128"
            },
            {
              "internalType": "uint128",
              "name": "vaultBalance",
              "type": "uint128"
            }
          ],
          "internalType": "struct MassetStructs.BassetData[]",
          "name": "_bAssets",
          "type": "tuple[]"
        },
        {
          "internalType": "uint8",
          "name": "_i",
          "type": "uint8"
        },
        {
          "internalType": "uint256",
          "name": "_netMassetQuantity",
          "type": "uint256"
        },
        {
          "components": [
            {
              "internalType": "uint256",
              "name": "a",
              "type": "uint256"
            },
            {
              "internalType": "uint256",
              "name": "maxWeight",
              "type": "uint256"
            }
          ],
          "internalType": "struct MassetStructs.InvariantConfig",
          "name": "_config",
          "type": "tuple"
        }
      ],
      "name": "computeRedeem",
      "outputs": [
        {
          "internalType": "uint256",
          "name": "rawOutputUnits",
          "type": "uint256"
        }
      ],
      "stateMutability": "view",
      "type": "function"
    },
    {
      "inputs": [
        {
          "components": [
            {
              "internalType": "uint128",
              "name": "ratio",
              "type": "uint128"
            },
            {
              "internalType": "uint128",
              "name": "vaultBalance",
              "type": "uint128"
            }
          ],
          "internalType": "struct MassetStructs.BassetData[]",
          "name": "_bAssets",
          "type": "tuple[]"
        },
        {
          "internalType": "uint8[]",
          "name": "_indices",
          "type": "uint8[]"
        },
        {
          "internalType": "uint256[]",
          "name": "_rawOutputs",
          "type": "uint256[]"
        },
        {
          "components": [
            {
              "internalType": "uint256",
              "name": "a",
              "type": "uint256"
            },
            {
              "internalType": "uint256",
              "name": "maxWeight",
              "type": "uint256"
            }
          ],
          "internalType": "struct MassetStructs.InvariantConfig",
          "name": "_config",
          "type": "tuple"
        }
      ],
      "name": "computeRedeemExact",
      "outputs": [
        {
          "internalType": "uint256",
          "name": "totalmAssets",
          "type": "uint256"
        }
      ],
      "stateMutability": "view",
      "type": "function"
    },
    {
      "inputs": [
        {
          "components": [
            {
              "internalType": "uint128",
              "name": "ratio",
              "type": "uint128"
            },
            {
              "internalType": "uint128",
              "name": "vaultBalance",
              "type": "uint128"
            }
          ],
          "internalType": "struct MassetStructs.BassetData[]",
          "name": "_bAssets",
          "type": "tuple[]"
        },
        {
          "internalType": "uint8",
          "name": "_i",
          "type": "uint8"
        },
        {
          "internalType": "uint8",
          "name": "_o",
          "type": "uint8"
        },
        {
          "internalType": "uint256",
          "name": "_rawInput",
          "type": "uint256"
        },
        {
          "internalType": "uint256",
          "name": "_feeRate",
          "type": "uint256"
        },
        {
          "components": [
            {
              "internalType": "uint256",
              "name": "a",
              "type": "uint256"
            },
            {
              "internalType": "uint256",
              "name": "maxWeight",
              "type": "uint256"
            }
          ],
          "internalType": "struct MassetStructs.InvariantConfig",
          "name": "_config",
          "type": "tuple"
        }
      ],
      "name": "computeSwap",
      "outputs": [
        {
          "internalType": "uint256",
          "name": "bAssetOutputQuantity",
          "type": "uint256"
        },
        {
          "internalType": "uint256",
          "name": "scaledSwapFee",
          "type": "uint256"
        }
      ],
      "stateMutability": "view",
      "type": "function"
    },
    {
      "inputs": [],
      "name": "startTime",
      "outputs": [
        {
          "internalType": "uint256",
          "name": "",
          "type": "uint256"
        }
      ],
      "stateMutability": "view",
      "type": "function"
    },
    {
      "inputs": [],
      "name": "startingCap",
      "outputs": [
        {
          "internalType": "uint256",
          "name": "",
          "type": "uint256"
        }
      ],
      "stateMutability": "view",
      "type": "function"
    }
  ],
  "bytecode": "0x60e060405234801561001057600080fd5b5060405161187138038061187183398101604081905261002f91610041565b4260805260a09190915260c052610064565b60008060408385031215610053578182fd5b505080516020909101519092909150565b60805160a05160c0516117c96100a86000396000818161012a0152610f010152600081816107060152610f350152600081816105170152610e8b01526117c96000f3fe608060405234801561001057600080fd5b50600436106100885760003560e01c80639a32a4de1161005b5780639a32a4de146100d9578063ad45ed96146100ec578063bd38cf50146100f4578063e8418f0f1461010757610088565b80630b0652871461008d578063209a9b42146100ab57806348cfc42d146100be57806378e97925146100d1575b600080fd5b610095610128565b6040516100a29190611538565b60405180910390f35b6100956100b9366004611263565b61014c565b6100956100cc36600461130b565b610379565b610095610515565b6100956100e7366004611263565b610539565b610095610704565b61009561010236600461130b565b610728565b61011a610115366004611379565b6108d6565b6040516100a2929190611541565b7f000000000000000000000000000000000000000000000000000000000000000081565b60008060006101ac8a8a808060200260200160405190810160405280939291908181526020016000905b828210156101a257610193604083028601368190038101906113f3565b81526020019060010190610176565b5050505050610b68565b9150915060006101c183838760000151610c7d565b9050876000805b82811015610315576305f5e1008e8e8e8e858181106101f757634e487b7160e01b600052603260045260246000fd5b905060200201602081019061020c919061144b565b60ff1681811061022c57634e487b7160e01b600052603260045260246000fd5b6102429260206040909202019081019150611431565b6001600160801b03168b8b8481811061026b57634e487b7160e01b600052603260045260246000fd5b9050602002013561027c9190611716565b61028691906115c5565b915081868d8d848181106102aa57634e487b7160e01b600052603260045260246000fd5b90506020020160208101906102bf919061144b565b60ff16815181106102e057634e487b7160e01b600052603260045260246000fd5b602002602001018181516102f49190611735565b9052506103018286611735565b94508061030d8161174c565b9150506101c8565b5061032585858960200151610ded565b61034a5760405162461bcd60e51b8152600401610341906114e0565b60405180910390fd5b600061035b86868a60000151610c7d565b90506103678185611735565b9e9d5050505050505050505050505050565b60008060006103cf8888808060200260200160405190810160405280939291908181526020016000905b828210156101a2576103c0604083028601368190038101906113f3565b815260200190600101906103a3565b9150915060006103e483838760000151610c7d565b905060006305f5e1008a8a8a60ff1681811061041057634e487b7160e01b600052603260045260246000fd5b6104269260206040909202019081019150611431565b610439906001600160801b031689611716565b61044391906115c5565b905080848960ff168151811061046957634e487b7160e01b600052603260045260246000fd5b6020026020010181815161047d9190611587565b90525061048a8184611587565b9250856020015183858a60ff16815181106104b557634e487b7160e01b600052603260045260246000fd5b6020026020010151670de0b6b3a76400006104d09190611716565b6104da91906115c5565b106104f75760405162461bcd60e51b8152600401610341906114e0565b6105078484848960000151610e70565b9a9950505050505050505050565b7f000000000000000000000000000000000000000000000000000000000000000081565b600080600061058f8a8a808060200260200160405190810160405280939291908181526020016000905b828210156101a257610580604083028601368190038101906113f3565b81526020019060010190610563565b9150915060006105a483838760000151610c7d565b905087600080805b838110156106c8578c8c828181106105d457634e487b7160e01b600052603260045260246000fd5b90506020020160208101906105e9919061144b565b92506305f5e1008f8f8560ff1681811061061357634e487b7160e01b600052603260045260246000fd5b6106299260206040909202019081019150611431565b6001600160801b03168c8c8481811061065257634e487b7160e01b600052603260045260246000fd5b905060200201356106639190611716565b61066d91906115c5565b915081878460ff168151811061069357634e487b7160e01b600052603260045260246000fd5b602002602001018181516106a79190611587565b9052506106b48287611587565b9550806106c08161174c565b9150506105ac565b506106d886868a60200151610ded565b6106f45760405162461bcd60e51b8152600401610341906114e0565b6103678686868b60000151610e70565b7f000000000000000000000000000000000000000000000000000000000000000081565b600080600061077e8888808060200260200160405190810160405280939291908181526020016000905b828210156101a25761076f604083028601368190038101906113f3565b81526020019060010190610752565b91509150600061079383838760000151610c7d565b905060006107b28487600001518a8a866107ad9190611735565b610f92565b90506000600182868b60ff16815181106107dc57634e487b7160e01b600052603260045260246000fd5b60200260200101516107ee9190611735565b6107f89190611735565b90508a8a8a60ff1681811061081d57634e487b7160e01b600052603260045260246000fd5b6108339260206040909202019081019150611431565b6001600160801b031661084a826305f5e100611716565b61085491906115c5565b955080858a60ff168151811061087a57634e487b7160e01b600052603260045260246000fd5b6020026020010181815161088e9190611735565b90525061089b8185611735565b93506108ac85858960200151610ded565b6108c85760405162461bcd60e51b8152600401610341906114e0565b505050505095945050505050565b60008060008061092d8b8b808060200260200160405190810160405280939291908181526020016000905b828210156101a25761091e604083028601368190038101906113f3565b81526020019060010190610901565b91509150600061094283838860000151610c7d565b905060006305f5e1008d8d8d60ff1681811061096e57634e487b7160e01b600052603260045260246000fd5b6109849260206040909202019081019150611431565b610997906001600160801b03168b611716565b6109a191906115c5565b905080848c60ff16815181106109c757634e487b7160e01b600052603260045260246000fd5b602002602001018181516109db9190611587565b9052506109e88184611587565b925060006109fb85858a60000151610c7d565b9050670de0b6b3a764000089610a118584611735565b610a1b9190611716565b610a2591906115c5565b95506000610a3f868a600001518e8a886107ad9190611587565b90506000600182888f60ff1681518110610a6957634e487b7160e01b600052603260045260246000fd5b6020026020010151610a7b9190611735565b610a859190611735565b90508f8f8e60ff16818110610aaa57634e487b7160e01b600052603260045260246000fd5b610ac09260206040909202019081019150611431565b6001600160801b0316610ad7826305f5e100611716565b610ae191906115c5565b985080878e60ff1681518110610b0757634e487b7160e01b600052603260045260246000fd5b60200260200101818151610b1b9190611735565b905250610b288187611735565b9550610b3987878c60200151610ded565b610b555760405162461bcd60e51b8152600401610341906114e0565b5050505050505097509795505050505050565b80516060906000908067ffffffffffffffff811115610b9757634e487b7160e01b600052604160045260246000fd5b604051908082528060200260200182016040528015610bc0578160200160208202803683370190505b5092506000805b82811015610c75576000868281518110610bf157634e487b7160e01b600052603260045260246000fd5b602002602001015190506305f5e10081600001518260200151610c1491906116f0565b610c1e919061159f565b6001600160801b0316925082868381518110610c4a57634e487b7160e01b600052603260045260246000fd5b6020908102919091010152610c5f8386611587565b9450508080610c6d9061174c565b915050610bc7565b505050915091565b825160009083610c91576000915050610de6565b60008481610c9f8487611716565b905060005b610100811015610dcd578260005b86811015610d1557868b8281518110610cdb57634e487b7160e01b600052603260045260246000fd5b6020026020010151610ced9190611716565b610cf78684611716565b610d0191906115c5565b915080610d0d8161174c565b915050610cb2565b5083945080866001610d279190611587565b610d319190611716565b606485610d3e8287611735565b610d489190611716565b610d5291906115c5565b610d5c9190611587565b84610d678884611716565b6064610d738d88611716565b610d7d91906115c5565b610d879190611587565b610d919190611716565b610d9b91906115c5565b9350610da78486611148565b15610dba57839650505050505050610de6565b5080610dc58161174c565b915050610ca4565b5060405162461bcd60e51b8152600401610341906114b4565b9392505050565b825160019060005b81811015610e67578385878381518110610e1f57634e487b7160e01b600052603260045260246000fd5b6020026020010151670de0b6b3a7640000610e3a9190611716565b610e4491906115c5565b1115610e5557600092505050610de6565b80610e5f8161174c565b915050610df5565b50509392505050565b600080610e7e868685610c7d565b9050600062093a80610eb07f000000000000000000000000000000000000000000000000000000000000000042611735565b610ec290670de0b6b3a7640000611716565b610ecc91906115c5565b905067a688906bd8b00000811015610f7d5760006ec097ce7bc90715b34b9f1000000000610efb60028461161f565b610f25907f0000000000000000000000000000000000000000000000000000000000000000611716565b610f2f91906115c5565b610f59907f0000000000000000000000000000000000000000000000000000000000000000611587565b905080831115610f7b5760405162461bcd60e51b815260040161034190611509565b505b610f878583611735565b979650505050505050565b8351600090808460ff1610610fb95760405162461bcd60e51b815260040161034190611491565b6000610fc58287611716565b90508360008080805b86811015611053578960ff16811461100f578b818151811061100057634e487b7160e01b600052603260045260246000fd5b60200260200101519250611014565b611041565b61101e8385611587565b935061102a8784611716565b6110348a87611716565b61103e91906115c5565b94505b8061104b8161174c565b915050610fce565b5061105e8686611716565b606461106a8a87611716565b6110749190611716565b61107e91906115c5565b935060008561108e60648b611716565b61109891906115c5565b6110a29085611587565b905088975060005b6101008110156111275788925089826110c4856002611716565b6110ce9190611587565b6110d89190611735565b866110e38b80611716565b6110ed9190611587565b6110f791906115c5565b98506111038984611148565b15611115575050505050505050611140565b8061111f8161174c565b9150506110aa565b5060405162461bcd60e51b815260040161034190611465565b949350505050565b60008183111561116757600161115e8385611735565b11159050611173565b600161115e8484611735565b92915050565b60008083601f84011261118a578182fd5b50813567ffffffffffffffff8111156111a1578182fd5b6020830191508360206040830285010111156111bc57600080fd5b9250929050565b60008083601f8401126111d4578182fd5b50813567ffffffffffffffff8111156111eb578182fd5b60208301915083602080830285010111156111bc57600080fd5b600060408284031215611216578081fd5b611220604061154f565b9050813581526020820135602082015292915050565b80356001600160801b038116811461124d57600080fd5b919050565b803560ff8116811461124d57600080fd5b600080600080600080600060a0888a03121561127d578283fd5b873567ffffffffffffffff80821115611294578485fd5b6112a08b838c01611179565b909950975060208a01359150808211156112b8578485fd5b6112c48b838c016111c3565b909750955060408a01359150808211156112dc578485fd5b506112e98a828b016111c3565b90945092506112fd90508960608a01611205565b905092959891949750929550565b600080600080600060a08688031215611322578081fd5b853567ffffffffffffffff811115611338578182fd5b61134488828901611179565b9096509450611357905060208701611252565b92506040860135915061136d8760608801611205565b90509295509295909350565b600080600080600080600060e0888a031215611393578283fd5b873567ffffffffffffffff8111156113a9578384fd5b6113b58a828b01611179565b90985096506113c8905060208901611252565b94506113d660408901611252565b935060608801359250608088013591506112fd8960a08a01611205565b600060408284031215611404578081fd5b61140e604061154f565b61141783611236565b815261142560208401611236565b60208201529392505050565b600060208284031215611442578081fd5b610de682611236565b60006020828403121561145c578081fd5b610de682611252565b6020808252601290820152715920646964206e6f7420636f6e766572676560701b604082015260600190565b602080825260099082015268496e76616c6964206960b81b604082015260600190565b6020808252601290820152714420646964206e6f7420636f6e766572676560701b604082015260600190565b6020808252600f908201526e13dd995c881b585e081dd95a59da1d608a1b604082015260600190565b602080825260159082015274043616e6e6f74206578636565642054564c2063617605c1b604082015260600190565b90815260200190565b918252602082015260400190565b60405181810167ffffffffffffffff8111828210171561157f57634e487b7160e01b600052604160045260246000fd5b604052919050565b6000821982111561159a5761159a611767565b500190565b60006001600160801b03808416806115b9576115b961177d565b92169190910492915050565b6000826115d4576115d461177d565b500490565b80825b60018086116115eb5750611616565b8187048211156115fd576115fd611767565b8086161561160a57918102915b9490941c9380026115dc565b94509492505050565b6000610de660001960ff85168460008261163b57506001610de6565b8161164857506000610de6565b816001811461165e576002811461166857611695565b6001915050610de6565b60ff84111561167957611679611767565b6001841b91508482111561168f5761168f611767565b50610de6565b5060208310610133831016604e8410600b84101617156116c8575081810a838111156116c3576116c3611767565b610de6565b6116d584848460016115d9565b8086048211156116e7576116e7611767565b02949350505050565b60006001600160801b03808316818516818304811182151516156116e7576116e7611767565b600081600019048311821515161561173057611730611767565b500290565b60008282101561174757611747611767565b500390565b600060001982141561176057611760611767565b5060010190565b634e487b7160e01b600052601160045260246000fd5b634e487b7160e01b600052601260045260246000fdfea2646970667358221220e62a42a3025b85d9ace408667cbb815c796ebde627673dff133b348135108a5364736f6c63430008000033",
  "linkReferences": {},
  "deployedLinkReferences": {}
}