{
  "_format": "hh-sol-artifact-1",
  "contractName": "InvariantValidator",
  "sourceName": "contracts/masset/InvariantValidator.sol",
  "abi": [
    {
      "inputs": [
        {
          "internalType": "uint256",
          "name": "_startingCap",
          "type": "uint256"
        },
        {
          "internalType": "uint256",
          "name": "_capFactor",
          "type": "uint256"
        }
      ],
      "stateMutability": "nonpayable",
      "type": "constructor"
    },
    {
      "inputs": [],
      "name": "capFactor",
      "outputs": [
        {
          "internalType": "uint256",
          "name": "",
          "type": "uint256"
        }
      ],
      "stateMutability": "view",
      "type": "function"
    },
    {
      "inputs": [
        {
          "components": [
            {
              "internalType": "uint128",
              "name": "ratio",
              "type": "uint128"
            },
            {
              "internalType": "uint128",
              "name": "vaultBalance",
              "type": "uint128"
            }
          ],
          "internalType": "struct MassetStructs.BassetData[]",
          "name": "_bAssets",
          "type": "tuple[]"
        },
        {
          "internalType": "uint8",
          "name": "_i",
          "type": "uint8"
        },
        {
          "internalType": "uint256",
          "name": "_rawInput",
          "type": "uint256"
        },
        {
          "components": [
            {
              "internalType": "uint256",
              "name": "a",
              "type": "uint256"
            },
            {
              "components": [
                {
                  "internalType": "uint128",
                  "name": "min",
                  "type": "uint128"
                },
                {
                  "internalType": "uint128",
                  "name": "max",
                  "type": "uint128"
                }
              ],
              "internalType": "struct MassetStructs.WeightLimits",
              "name": "limits",
              "type": "tuple"
            }
          ],
          "internalType": "struct MassetStructs.InvariantConfig",
          "name": "_config",
          "type": "tuple"
        }
      ],
      "name": "computeMint",
      "outputs": [
        {
          "internalType": "uint256",
          "name": "mintAmount",
          "type": "uint256"
        }
      ],
      "stateMutability": "view",
      "type": "function"
    },
    {
      "inputs": [
        {
          "components": [
            {
              "internalType": "uint128",
              "name": "ratio",
              "type": "uint128"
            },
            {
              "internalType": "uint128",
              "name": "vaultBalance",
              "type": "uint128"
            }
          ],
          "internalType": "struct MassetStructs.BassetData[]",
          "name": "_bAssets",
          "type": "tuple[]"
        },
        {
          "internalType": "uint8[]",
          "name": "_indices",
          "type": "uint8[]"
        },
        {
          "internalType": "uint256[]",
          "name": "_rawInputs",
          "type": "uint256[]"
        },
        {
          "components": [
            {
              "internalType": "uint256",
              "name": "a",
              "type": "uint256"
            },
            {
              "components": [
                {
                  "internalType": "uint128",
                  "name": "min",
                  "type": "uint128"
                },
                {
                  "internalType": "uint128",
                  "name": "max",
                  "type": "uint128"
                }
              ],
              "internalType": "struct MassetStructs.WeightLimits",
              "name": "limits",
              "type": "tuple"
            }
          ],
          "internalType": "struct MassetStructs.InvariantConfig",
          "name": "_config",
          "type": "tuple"
        }
      ],
      "name": "computeMintMulti",
      "outputs": [
        {
          "internalType": "uint256",
          "name": "mintAmount",
          "type": "uint256"
        }
      ],
      "stateMutability": "view",
      "type": "function"
    },
    {
      "inputs": [
        {
          "components": [
            {
              "internalType": "uint128",
              "name": "ratio",
              "type": "uint128"
            },
            {
              "internalType": "uint128",
              "name": "vaultBalance",
              "type": "uint128"
            }
          ],
          "internalType": "struct MassetStructs.BassetData[]",
          "name": "_bAssets",
          "type": "tuple[]"
        },
        {
          "internalType": "uint8",
          "name": "_o",
          "type": "uint8"
        },
        {
          "internalType": "uint256",
          "name": "_netMassetQuantity",
          "type": "uint256"
        },
        {
          "components": [
            {
              "internalType": "uint256",
              "name": "a",
              "type": "uint256"
            },
            {
              "components": [
                {
                  "internalType": "uint128",
                  "name": "min",
                  "type": "uint128"
                },
                {
                  "internalType": "uint128",
                  "name": "max",
                  "type": "uint128"
                }
              ],
              "internalType": "struct MassetStructs.WeightLimits",
              "name": "limits",
              "type": "tuple"
            }
          ],
          "internalType": "struct MassetStructs.InvariantConfig",
          "name": "_config",
          "type": "tuple"
        }
      ],
      "name": "computeRedeem",
      "outputs": [
        {
          "internalType": "uint256",
          "name": "rawOutputUnits",
          "type": "uint256"
        }
      ],
      "stateMutability": "view",
      "type": "function"
    },
    {
      "inputs": [
        {
          "components": [
            {
              "internalType": "uint128",
              "name": "ratio",
              "type": "uint128"
            },
            {
              "internalType": "uint128",
              "name": "vaultBalance",
              "type": "uint128"
            }
          ],
          "internalType": "struct MassetStructs.BassetData[]",
          "name": "_bAssets",
          "type": "tuple[]"
        },
        {
          "internalType": "uint8[]",
          "name": "_indices",
          "type": "uint8[]"
        },
        {
          "internalType": "uint256[]",
          "name": "_rawOutputs",
          "type": "uint256[]"
        },
        {
          "components": [
            {
              "internalType": "uint256",
              "name": "a",
              "type": "uint256"
            },
            {
              "components": [
                {
                  "internalType": "uint128",
                  "name": "min",
                  "type": "uint128"
                },
                {
                  "internalType": "uint128",
                  "name": "max",
                  "type": "uint128"
                }
              ],
              "internalType": "struct MassetStructs.WeightLimits",
              "name": "limits",
              "type": "tuple"
            }
          ],
          "internalType": "struct MassetStructs.InvariantConfig",
          "name": "_config",
          "type": "tuple"
        }
      ],
      "name": "computeRedeemExact",
      "outputs": [
        {
          "internalType": "uint256",
          "name": "totalmAssets",
          "type": "uint256"
        }
      ],
      "stateMutability": "view",
      "type": "function"
    },
    {
      "inputs": [
        {
          "components": [
            {
              "internalType": "uint128",
              "name": "ratio",
              "type": "uint128"
            },
            {
              "internalType": "uint128",
              "name": "vaultBalance",
              "type": "uint128"
            }
          ],
          "internalType": "struct MassetStructs.BassetData[]",
          "name": "_bAssets",
          "type": "tuple[]"
        },
        {
          "internalType": "uint8",
          "name": "_i",
          "type": "uint8"
        },
        {
          "internalType": "uint8",
          "name": "_o",
          "type": "uint8"
        },
        {
          "internalType": "uint256",
          "name": "_rawInput",
          "type": "uint256"
        },
        {
          "internalType": "uint256",
          "name": "_feeRate",
          "type": "uint256"
        },
        {
          "components": [
            {
              "internalType": "uint256",
              "name": "a",
              "type": "uint256"
            },
            {
              "components": [
                {
                  "internalType": "uint128",
                  "name": "min",
                  "type": "uint128"
                },
                {
                  "internalType": "uint128",
                  "name": "max",
                  "type": "uint128"
                }
              ],
              "internalType": "struct MassetStructs.WeightLimits",
              "name": "limits",
              "type": "tuple"
            }
          ],
          "internalType": "struct MassetStructs.InvariantConfig",
          "name": "_config",
          "type": "tuple"
        }
      ],
      "name": "computeSwap",
      "outputs": [
        {
          "internalType": "uint256",
          "name": "bAssetOutputQuantity",
          "type": "uint256"
        },
        {
          "internalType": "uint256",
          "name": "scaledSwapFee",
          "type": "uint256"
        }
      ],
      "stateMutability": "view",
      "type": "function"
    },
    {
      "inputs": [],
      "name": "startTime",
      "outputs": [
        {
          "internalType": "uint256",
          "name": "",
          "type": "uint256"
        }
      ],
      "stateMutability": "view",
      "type": "function"
    },
    {
      "inputs": [],
      "name": "startingCap",
      "outputs": [
        {
          "internalType": "uint256",
          "name": "",
          "type": "uint256"
        }
      ],
      "stateMutability": "view",
      "type": "function"
    }
  ],
  "bytecode": "0x60e060405234801561001057600080fd5b50604051611a0d380380611a0d83398101604081905261002f91610041565b4260805260a09190915260c052610064565b60008060408385031215610053578182fd5b505080516020909101519092909150565b60805160a05160c0516119656100a86000396000818161012a01526110d501526000818161072101526111090152600081816105a1015261105f01526119656000f3fe608060405234801561001057600080fd5b50600436106100885760003560e01c80637910213b1161005b5780637910213b146100e7578063ad45ed96146100fa578063b7ecbf7214610102578063d176d6941461011557610088565b80630b0652871461008d5780630e3c01d3146100ab57806350494dc0146100cc57806378e97925146100df575b600080fd5b610095610128565b6040516100a291906116d4565b60405180910390f35b6100be6100b936600461154e565b61014c565b6040516100a29291906116dd565b6100956100da3660046114e0565b6103f6565b61009561059f565b6100956100f53660046114e0565b6105c3565b61009561071f565b610095610110366004611438565b610743565b610095610123366004611438565b610920565b7f000000000000000000000000000000000000000000000000000000000000000081565b6000806000806101ad8b8b808060200260200160405190810160405280939291908181526020016000905b828210156101a357610194604083028601368190038101906115c9565b81526020019060010190610177565b5050505050610b28565b9150915060006101c283838860000151610c3d565b905060006305f5e1008d8d8d60ff168181106101ee57634e487b7160e01b600052603260045260246000fd5b61020492602060409092020190810191506115e4565b610217906001600160801b03168b6118b2565b6102219190611761565b905080848c60ff168151811061024757634e487b7160e01b600052603260045260246000fd5b6020026020010181815161025b9190611723565b9052506102688184611723565b9250600061027b85858a60000151610c3d565b9050670de0b6b3a76400008961029185846118d1565b61029b91906118b2565b6102a59190611761565b955060006102c4868a600001518e8a886102bf9190611723565b610dad565b90506000600182888f60ff16815181106102ee57634e487b7160e01b600052603260045260246000fd5b602002602001015161030091906118d1565b61030a91906118d1565b90508f8f8e60ff1681811061032f57634e487b7160e01b600052603260045260246000fd5b61034592602060409092020190810191506115e4565b6001600160801b031661035c826305f5e1006118b2565b6103669190611761565b985080878e60ff168151811061038c57634e487b7160e01b600052603260045260246000fd5b602002602001018181516103a091906118d1565b9052506103ad81876118d1565b95506103be87878c60200151610f9a565b6103e35760405162461bcd60e51b81526004016103da90611676565b60405180910390fd5b5050505050505097509795505050505050565b600080600061044c8888808060200260200160405190810160405280939291908181526020016000905b828210156101a35761043d604083028601368190038101906115c9565b81526020019060010190610420565b91509150600061046183838760000151610c3d565b9050600061047b8487600001518a8a866102bf91906118d1565b90506000600182868b60ff16815181106104a557634e487b7160e01b600052603260045260246000fd5b60200260200101516104b791906118d1565b6104c191906118d1565b90508a8a8a60ff168181106104e657634e487b7160e01b600052603260045260246000fd5b6104fc92602060409092020190810191506115e4565b6001600160801b0316610513826305f5e1006118b2565b61051d9190611761565b955080858a60ff168151811061054357634e487b7160e01b600052603260045260246000fd5b6020026020010181815161055791906118d1565b90525061056481856118d1565b935061057585858960200151610f9a565b6105915760405162461bcd60e51b81526004016103da90611676565b505050505095945050505050565b7f000000000000000000000000000000000000000000000000000000000000000081565b60008060006106198888808060200260200160405190810160405280939291908181526020016000905b828210156101a35761060a604083028601368190038101906115c9565b815260200190600101906105ed565b91509150600061062e83838760000151610c3d565b905060006305f5e1008a8a8a60ff1681811061065a57634e487b7160e01b600052603260045260246000fd5b61067092602060409092020190810191506115e4565b610683906001600160801b0316896118b2565b61068d9190611761565b905080848960ff16815181106106b357634e487b7160e01b600052603260045260246000fd5b602002602001018181516106c79190611723565b9052506106d48184611723565b92506106e584848860200151610f9a565b6107015760405162461bcd60e51b81526004016103da90611676565b6107118484848960000151611044565b9a9950505050505050505050565b7f000000000000000000000000000000000000000000000000000000000000000081565b60008060006107998a8a808060200260200160405190810160405280939291908181526020016000905b828210156101a35761078a604083028601368190038101906115c9565b8152602001906001019061076d565b9150915060006107ae83838760000151610c3d565b905087600080805b838110156108d2578c8c828181106107de57634e487b7160e01b600052603260045260246000fd5b90506020020160208101906107f391906115fe565b92506305f5e1008f8f8560ff1681811061081d57634e487b7160e01b600052603260045260246000fd5b61083392602060409092020190810191506115e4565b6001600160801b03168c8c8481811061085c57634e487b7160e01b600052603260045260246000fd5b9050602002013561086d91906118b2565b6108779190611761565b915081878460ff168151811061089d57634e487b7160e01b600052603260045260246000fd5b602002602001018181516108b19190611723565b9052506108be8287611723565b9550806108ca816118e8565b9150506107b6565b506108e286868a60200151610f9a565b6108fe5760405162461bcd60e51b81526004016103da90611676565b61090e8686868b60000151611044565b9e9d5050505050505050505050505050565b60008060006109768a8a808060200260200160405190810160405280939291908181526020016000905b828210156101a357610967604083028601368190038101906115c9565b8152602001906001019061094a565b91509150600061098b83838760000151610c3d565b9050876000805b82811015610adf576305f5e1008e8e8e8e858181106109c157634e487b7160e01b600052603260045260246000fd5b90506020020160208101906109d691906115fe565b60ff168181106109f657634e487b7160e01b600052603260045260246000fd5b610a0c92602060409092020190810191506115e4565b6001600160801b03168b8b84818110610a3557634e487b7160e01b600052603260045260246000fd5b90506020020135610a4691906118b2565b610a509190611761565b915081868d8d84818110610a7457634e487b7160e01b600052603260045260246000fd5b9050602002016020810190610a8991906115fe565b60ff1681518110610aaa57634e487b7160e01b600052603260045260246000fd5b60200260200101818151610abe91906118d1565b905250610acb82866118d1565b945080610ad7816118e8565b915050610992565b50610aef85858960200151610f9a565b610b0b5760405162461bcd60e51b81526004016103da90611676565b6000610b1c86868a60000151610c3d565b905061090e81856118d1565b80516060906000908067ffffffffffffffff811115610b5757634e487b7160e01b600052604160045260246000fd5b604051908082528060200260200182016040528015610b80578160200160208202803683370190505b5092506000805b82811015610c35576000868281518110610bb157634e487b7160e01b600052603260045260246000fd5b602002602001015190506305f5e10081600001518260200151610bd4919061188c565b610bde919061173b565b6001600160801b0316925082868381518110610c0a57634e487b7160e01b600052603260045260246000fd5b6020908102919091010152610c1f8386611723565b9450508080610c2d906118e8565b915050610b87565b505050915091565b825160009083610c51576000915050610da6565b6000610c5d82856118b2565b9050600085815b610100811015610d8d578160005b86811015610cd557868b8281518110610c9b57634e487b7160e01b600052603260045260246000fd5b6020026020010151610cad91906118b2565b610cb785846118b2565b610cc19190611761565b915080610ccd816118e8565b915050610c72565b5082935080866001610ce79190611723565b610cf191906118b2565b606484610cfe82896118d1565b610d0891906118b2565b610d129190611761565b610d1c9190611723565b83610d2788846118b2565b6064610d338d8a6118b2565b610d3d9190611761565b610d479190611723565b610d5191906118b2565b610d5b9190611761565b9250610d678385611166565b15610d7a57829650505050505050610da6565b5080610d85816118e8565b915050610c64565b5060405162461bcd60e51b81526004016103da9061163f565b9392505050565b8351600090808460ff1610610dd45760405162461bcd60e51b81526004016103da90611618565b6000808080610de3858a6118b2565b8792509250925060005b84811015610e90578760ff168114610e7e57898181518110610e1f57634e487b7160e01b600052603260045260246000fd5b602002602001015184610e329190611723565b9350848a8281518110610e5557634e487b7160e01b600052603260045260246000fd5b6020026020010151610e6791906118b2565b610e7188846118b2565b610e7b9190611761565b91505b80610e88816118e8565b915050610ded565b50600084836064610ea18a866118b2565b610eab91906118b2565b610eb59190611761565b610ebf9190611761565b9050600083610ecf6064826118d1565b610ed9908a6118b2565b610ee39190611761565b9050600085821115610f4c57610ef986836118d1565b9050600281610f26610f0c8660046118b2565b610f176002866117bb565b610f219190611723565b611197565b610f309190611723565b610f3a9190611761565b610f45906001611723565b9750610f8b565b610f5682876118d1565b9050600281610f69610f0c8660046118b2565b610f7391906118d1565b610f7d9190611761565b610f88906001611723565b97505b50505050505050949350505050565b82516001906000805b8281101561103a5785878281518110610fcc57634e487b7160e01b600052603260045260246000fd5b6020026020010151670de0b6b3a7640000610fe791906118b2565b610ff19190611761565b915084602001516001600160801b0316821180611017575084516001600160801b031682105b156110285760009350505050610da6565b80611032816118e8565b915050610fa3565b5050509392505050565b600080611052868685610c3d565b9050600062093a806110847f0000000000000000000000000000000000000000000000000000000000000000426118d1565b61109690670de0b6b3a76400006118b2565b6110a09190611761565b9050676124fee993bc00008110156111515760006ec097ce7bc90715b34b9f10000000006110cf6002846117bb565b6110f9907f00000000000000000000000000000000000000000000000000000000000000006118b2565b6111039190611761565b61112d907f0000000000000000000000000000000000000000000000000000000000000000611723565b90508083111561114f5760405162461bcd60e51b81526004016103da906116a5565b505b61115b85836118d1565b979650505050505050565b60008282111561118557600161117c84846118d1565b11159050611191565b600161117c83856118d1565b92915050565b6000816111a657506000611312565b816001600160801b82106111bf5760809190911c9060401b5b6801000000000000000082106111da5760409190911c9060201b5b64010000000082106111f15760209190911c9060101b5b6201000082106112065760109190911c9060081b5b610100821061121a5760089190911c9060041b5b6010821061122d5760049190911c9060021b5b600882106112395760011b5b60016112458286611761565b61124f9083611723565b901c9050600161125f8286611761565b6112699083611723565b901c905060016112798286611761565b6112839083611723565b901c905060016112938286611761565b61129d9083611723565b901c905060016112ad8286611761565b6112b79083611723565b901c905060016112c78286611761565b6112d19083611723565b901c905060016112e18286611761565b6112eb9083611723565b901c905060006112fb8286611761565b905080821061130a578061130c565b815b93505050505b919050565b60008083601f840112611328578182fd5b50813567ffffffffffffffff81111561133f578182fd5b60208301915083602060408302850101111561135a57600080fd5b9250929050565b60008083601f840112611372578182fd5b50813567ffffffffffffffff811115611389578182fd5b602083019150836020808302850101111561135a57600080fd5b6000604082840312156113b4578081fd5b6113be60406116eb565b90506113c982611410565b81526113d760208301611410565b602082015292915050565b6000606082840312156113f3578081fd5b6113fd60406116eb565b9050813581526113d783602084016113a3565b80356001600160801b038116811461131257600080fd5b803560ff8116811461131257600080fd5b600080600080600080600060c0888a031215611452578283fd5b873567ffffffffffffffff80821115611469578485fd5b6114758b838c01611317565b909950975060208a013591508082111561148d578485fd5b6114998b838c01611361565b909750955060408a01359150808211156114b1578485fd5b506114be8a828b01611361565b90945092506114d290508960608a016113e2565b905092959891949750929550565b600080600080600060c086880312156114f7578081fd5b853567ffffffffffffffff81111561150d578182fd5b61151988828901611317565b909650945061152c905060208701611427565b92506040860135915061154287606088016113e2565b90509295509295909350565b6000806000806000806000610100888a031215611569578283fd5b873567ffffffffffffffff81111561157f578384fd5b61158b8a828b01611317565b909850965061159e905060208901611427565b94506115ac60408901611427565b935060608801359250608088013591506114d28960a08a016113e2565b6000604082840312156115da578081fd5b610da683836113a3565b6000602082840312156115f5578081fd5b610da682611410565b60006020828403121561160f578081fd5b610da682611427565b6020808252600d908201526c092dcecc2d8d2c840d2dcc8caf609b1b604082015260600190565b6020808252601a908201527f496e76617269616e7420646964206e6f7420636f6e7665726765000000000000604082015260600190565b6020808252601590820152744578636565647320776569676874206c696d69747360581b604082015260600190565b602080825260159082015274043616e6e6f74206578636565642054564c2063617605c1b604082015260600190565b90815260200190565b918252602082015260400190565b60405181810167ffffffffffffffff8111828210171561171b57634e487b7160e01b600052604160045260246000fd5b604052919050565b6000821982111561173657611736611903565b500190565b60006001600160801b038084168061175557611755611919565b92169190910492915050565b60008261177057611770611919565b500490565b80825b600180861161178757506117b2565b81870482111561179957611799611903565b808616156117a657918102915b9490941c938002611778565b94509492505050565b6000610da660001960ff8516846000826117d757506001610da6565b816117e457506000610da6565b81600181146117fa576002811461180457611831565b6001915050610da6565b60ff84111561181557611815611903565b6001841b91508482111561182b5761182b611903565b50610da6565b5060208310610133831016604e8410600b8410161715611864575081810a8381111561185f5761185f611903565b610da6565b6118718484846001611775565b80860482111561188357611883611903565b02949350505050565b60006001600160801b038083168185168183048111821515161561188357611883611903565b60008160001904831182151516156118cc576118cc611903565b500290565b6000828210156118e3576118e3611903565b500390565b60006000198214156118fc576118fc611903565b5060010190565b634e487b7160e01b600052601160045260246000fd5b634e487b7160e01b600052601260045260246000fdfea2646970667358221220b3ec137c35f23b20f4dc603f3beb642322bd0831dd4a7675999bde823f2e9c7164736f6c63430008000033",
  "linkReferences": {},
  "deployedLinkReferences": {}
}