{
  "_format": "hh-sol-artifact-1",
  "contractName": "InvariantValidator",
  "sourceName": "contracts/curved-masset/InvariantValidator.sol",
  "abi": [
    {
      "inputs": [
        {
          "internalType": "uint256",
          "name": "_hardMin",
          "type": "uint256"
        },
        {
          "internalType": "uint256",
          "name": "_softMin",
          "type": "uint256"
        },
        {
          "internalType": "uint256",
          "name": "_softMax",
          "type": "uint256"
        },
        {
          "internalType": "uint256",
          "name": "_hardMax",
          "type": "uint256"
        },
        {
          "internalType": "uint256",
          "name": "_floorPenalty",
          "type": "uint256"
        },
        {
          "internalType": "uint256",
          "name": "_floorExponent",
          "type": "uint256"
        },
        {
          "internalType": "uint256",
          "name": "_ceilingPenalty",
          "type": "uint256"
        },
        {
          "internalType": "uint256",
          "name": "_ceilingExponent",
          "type": "uint256"
        },
        {
          "internalType": "uint256",
          "name": "_startingCap",
          "type": "uint256"
        }
      ],
      "stateMutability": "nonpayable",
      "type": "constructor"
    },
    {
      "inputs": [],
      "name": "ceilingExponent",
      "outputs": [
        {
          "internalType": "uint256",
          "name": "",
          "type": "uint256"
        }
      ],
      "stateMutability": "view",
      "type": "function"
    },
    {
      "inputs": [
        {
          "components": [
            {
              "internalType": "uint128",
              "name": "ratio",
              "type": "uint128"
            },
            {
              "internalType": "uint128",
              "name": "vaultBalance",
              "type": "uint128"
            }
          ],
          "internalType": "struct MassetStructs.BassetData[]",
          "name": "_bAssets",
          "type": "tuple[]"
        },
        {
          "internalType": "uint8",
          "name": "_i",
          "type": "uint8"
        },
        {
          "internalType": "uint256",
          "name": "_rawInput",
          "type": "uint256"
        }
      ],
      "name": "computeMint",
      "outputs": [
        {
          "internalType": "uint256",
          "name": "mintAmount",
          "type": "uint256"
        }
      ],
      "stateMutability": "view",
      "type": "function"
    },
    {
      "inputs": [
        {
          "components": [
            {
              "internalType": "uint128",
              "name": "ratio",
              "type": "uint128"
            },
            {
              "internalType": "uint128",
              "name": "vaultBalance",
              "type": "uint128"
            }
          ],
          "internalType": "struct MassetStructs.BassetData[]",
          "name": "_bAssets",
          "type": "tuple[]"
        },
        {
          "internalType": "uint8[]",
          "name": "_indices",
          "type": "uint8[]"
        },
        {
          "internalType": "uint256[]",
          "name": "_rawInputs",
          "type": "uint256[]"
        }
      ],
      "name": "computeMintMulti",
      "outputs": [
        {
          "internalType": "uint256",
          "name": "mintAmount",
          "type": "uint256"
        }
      ],
      "stateMutability": "view",
      "type": "function"
    },
    {
      "inputs": [
        {
          "components": [
            {
              "internalType": "uint128",
              "name": "ratio",
              "type": "uint128"
            },
            {
              "internalType": "uint128",
              "name": "vaultBalance",
              "type": "uint128"
            }
          ],
          "internalType": "struct MassetStructs.BassetData[]",
          "name": "_bAssets",
          "type": "tuple[]"
        },
        {
          "internalType": "uint8",
          "name": "_i",
          "type": "uint8"
        },
        {
          "internalType": "uint256",
          "name": "_netMassetQuantity",
          "type": "uint256"
        }
      ],
      "name": "computeRedeem",
      "outputs": [
        {
          "internalType": "uint256",
          "name": "rawOutputUnits",
          "type": "uint256"
        }
      ],
      "stateMutability": "view",
      "type": "function"
    },
    {
      "inputs": [
        {
          "components": [
            {
              "internalType": "uint128",
              "name": "ratio",
              "type": "uint128"
            },
            {
              "internalType": "uint128",
              "name": "vaultBalance",
              "type": "uint128"
            }
          ],
          "internalType": "struct MassetStructs.BassetData[]",
          "name": "_bAssets",
          "type": "tuple[]"
        },
        {
          "internalType": "uint8[]",
          "name": "_indices",
          "type": "uint8[]"
        },
        {
          "internalType": "uint256[]",
          "name": "_rawOutputs",
          "type": "uint256[]"
        }
      ],
      "name": "computeRedeemExact",
      "outputs": [
        {
          "internalType": "uint256",
          "name": "totalmAssets",
          "type": "uint256"
        }
      ],
      "stateMutability": "view",
      "type": "function"
    },
    {
      "inputs": [
        {
          "components": [
            {
              "internalType": "uint128",
              "name": "ratio",
              "type": "uint128"
            },
            {
              "internalType": "uint128",
              "name": "vaultBalance",
              "type": "uint128"
            }
          ],
          "internalType": "struct MassetStructs.BassetData[]",
          "name": "_bAssets",
          "type": "tuple[]"
        },
        {
          "internalType": "uint8",
          "name": "_i",
          "type": "uint8"
        },
        {
          "internalType": "uint8",
          "name": "_o",
          "type": "uint8"
        },
        {
          "internalType": "uint256",
          "name": "_rawInput",
          "type": "uint256"
        },
        {
          "internalType": "uint256",
          "name": "_feeRate",
          "type": "uint256"
        }
      ],
      "name": "computeSwap",
      "outputs": [
        {
          "internalType": "uint256",
          "name": "bAssetOutputQuantity",
          "type": "uint256"
        },
        {
          "internalType": "uint256",
          "name": "scaledSwapFee",
          "type": "uint256"
        }
      ],
      "stateMutability": "view",
      "type": "function"
    },
    {
      "inputs": [],
      "name": "dceilingPenalty",
      "outputs": [
        {
          "internalType": "uint256",
          "name": "",
          "type": "uint256"
        }
      ],
      "stateMutability": "view",
      "type": "function"
    },
    {
      "inputs": [],
      "name": "dpidw00",
      "outputs": [
        {
          "internalType": "uint256",
          "name": "",
          "type": "uint256"
        }
      ],
      "stateMutability": "view",
      "type": "function"
    },
    {
      "inputs": [],
      "name": "dpidw01",
      "outputs": [
        {
          "internalType": "uint256",
          "name": "",
          "type": "uint256"
        }
      ],
      "stateMutability": "view",
      "type": "function"
    },
    {
      "inputs": [],
      "name": "dpidw10",
      "outputs": [
        {
          "internalType": "uint256",
          "name": "",
          "type": "uint256"
        }
      ],
      "stateMutability": "view",
      "type": "function"
    },
    {
      "inputs": [],
      "name": "dpidw11",
      "outputs": [
        {
          "internalType": "uint256",
          "name": "",
          "type": "uint256"
        }
      ],
      "stateMutability": "view",
      "type": "function"
    },
    {
      "inputs": [],
      "name": "floorExponent",
      "outputs": [
        {
          "internalType": "uint256",
          "name": "",
          "type": "uint256"
        }
      ],
      "stateMutability": "view",
      "type": "function"
    },
    {
      "inputs": [],
      "name": "floorPenalty",
      "outputs": [
        {
          "internalType": "uint256",
          "name": "",
          "type": "uint256"
        }
      ],
      "stateMutability": "view",
      "type": "function"
    },
    {
      "inputs": [],
      "name": "hardMax",
      "outputs": [
        {
          "internalType": "uint256",
          "name": "",
          "type": "uint256"
        }
      ],
      "stateMutability": "view",
      "type": "function"
    },
    {
      "inputs": [],
      "name": "hardMin",
      "outputs": [
        {
          "internalType": "uint256",
          "name": "",
          "type": "uint256"
        }
      ],
      "stateMutability": "view",
      "type": "function"
    },
    {
      "inputs": [],
      "name": "softMax",
      "outputs": [
        {
          "internalType": "uint256",
          "name": "",
          "type": "uint256"
        }
      ],
      "stateMutability": "view",
      "type": "function"
    },
    {
      "inputs": [],
      "name": "softMin",
      "outputs": [
        {
          "internalType": "uint256",
          "name": "",
          "type": "uint256"
        }
      ],
      "stateMutability": "view",
      "type": "function"
    },
    {
      "inputs": [],
      "name": "startTime",
      "outputs": [
        {
          "internalType": "uint256",
          "name": "",
          "type": "uint256"
        }
      ],
      "stateMutability": "view",
      "type": "function"
    },
    {
      "inputs": [],
      "name": "startingCap",
      "outputs": [
        {
          "internalType": "uint256",
          "name": "",
          "type": "uint256"
        }
      ],
      "stateMutability": "view",
      "type": "function"
    }
  ],
  "bytecode": "0x6102406040523480156200001257600080fd5b5060405162002497380380620024978339810160408190526200003591620000fd565b608089905260a088905260c087905260e0869052610100859052610120849052610140839052610160829052836200007686670de0b6b3a7640000620002a8565b620000829190620002a8565b6101805283620000938a8a620002ca565b6200009f9190620001b3565b6101a05281620000b884670de0b6b3a7640000620002a8565b620000c49190620002a8565b6101c05281620000d58888620002ca565b620000e19190620001b3565b6101e052610220525050426102005250620002fa945050505050565b60008060008060008060008060006101208a8c0312156200011c578485fd5b8951985060208a0151975060408a0151965060608a0151955060808a0151945060a08a0151935060c08a0151925060e08a015191506101008a015190509295985092959850929598565b80825b60018086116200017a5750620001aa565b8187048211156200018f576200018f620002e4565b808616156200019d57918102915b9490941c93800262000169565b94509492505050565b6000620001c46000198484620001cb565b9392505050565b600082620001dc57506001620001c4565b81620001eb57506000620001c4565b81600181146200020457600281146200020f5762000243565b6001915050620001c4565b60ff841115620002235762000223620002e4565b6001841b9150848211156200023c576200023c620002e4565b50620001c4565b5060208310610133831016604e8410600b84101617156200027b575081810a83811115620002755762000275620002e4565b620001c4565b6200028a848484600162000166565b8086048211156200029f576200029f620002e4565b02949350505050565b6000816000190483118215151615620002c557620002c5620002e4565b500290565b600082821015620002df57620002df620002e4565b500390565b634e487b7160e01b600052601160045260246000fd5b60805160a05160c05160e05161010051610120516101405161016051610180516101a0516101c0516101e051610200516102205161200762000490600039600081816108940152610ddc01526000818161073a0152610d4a015260008181610a9c01528181611033015281816116fb01526117aa015260008181610b08015261182e015260008181610a7801528181610f5a0152818161155d015261160c01526000818161087001526116900152600081816108b8015281816110540152818161171c01526117d0015260008181610ac0015281816110ad015261177501526000818161036e01528181610f7b0152818161157e0152611632015260008181610ae401528181610fd401526115d701526000818161084c01528181610ef101526114f40152600081816107160152818161100b01528181611078015281816116d30152818161174001526117f901526000818161021a01528181610f3201528181610fa001528181611535015281816115a3015261165c0152600081816106f201528181610ec601526114c901526120076000f3fe608060405234801561001057600080fd5b50600436106101205760003560e01c80639f80262d116100ad578063bfe2408711610071578063bfe24087146101f0578063c1a80617146101f8578063c741cd6d14610200578063d048718314610208578063e8a95be51461021057610120565b80639f80262d146101bd578063ab6e3d64146101c5578063ad45ed96146101cd578063ae99a285146101d5578063bec15dd0146101dd57610120565b806351bc906a116100f457806351bc906a1461017f57806366f96d761461019257806376a93d3d1461019a57806378e97925146101a25780639dbecbfe146101aa57610120565b80627f8dd31461012557806314efeae7146101435780631e5f1ba114610156578063461b7ff51461015e575b600080fd5b61012d610218565b60405161013a9190611c33565b60405180910390f35b61012d6101513660046119a4565b61023c565b61012d61036c565b61017161016c3660046119fe565b610390565b60405161013a929190611c3c565b61012d61018d36600461190e565b610549565b61012d6106f0565b61012d610714565b61012d610738565b61012d6101b83660046119a4565b61075c565b61012d61084a565b61012d61086e565b61012d610892565b61012d6108b6565b61012d6101eb36600461190e565b6108da565b61012d610a76565b61012d610a9a565b61012d610abe565b61012d610ae2565b61012d610b06565b7f000000000000000000000000000000000000000000000000000000000000000081565b600080600061029c8787808060200260200160405190810160405280939291908181526020016000905b828210156102925761028360408302860136819003810190611a73565b81526020019060010190610266565b5050505050610b2a565b9150915060006102ac8383610c3f565b905060006305f5e10089898960ff168181106102d857634e487b7160e01b600052603260045260246000fd5b6102ee9260206040909202019081019150611ad9565b610301906001600160801b031688611edb565b61030b9190611cf7565b905080848860ff168151811061033157634e487b7160e01b600052603260045260246000fd5b602002602001018181516103459190611c8b565b9052506103528184611c8b565b925061035f848484610d30565b9998505050505050505050565b7f000000000000000000000000000000000000000000000000000000000000000081565b6000806000806103e78a8a808060200260200160405190810160405280939291908181526020016000905b82821015610292576103d860408302860136819003810190611a73565b815260200190600101906103bb565b9150915060006103f78383610c3f565b905060006305f5e1008c8c8c60ff1681811061042357634e487b7160e01b600052603260045260246000fd5b6104399260206040909202019081019150611ad9565b61044c906001600160801b03168a611edb565b6104569190611cf7565b905080848b60ff168151811061047c57634e487b7160e01b600052603260045260246000fd5b602002602001018181516104909190611c8b565b90525061049d8184611c8b565b925060006104ad8585858d610e41565b9050670de0b6b3a76400006104c28983611edb565b6104cc9190611cf7565b955060006104da8783611f39565b90508d8d8c60ff168181106104ff57634e487b7160e01b600052603260045260246000fd5b6105159260206040909202019081019150611ad9565b6001600160801b031661052c826305f5e100611edb565b6105369190611cf7565b9750505050505050965096945050505050565b600080600061059f8989808060200260200160405190810160405280939291908181526020016000905b828210156102925761059060408302860136819003810190611a73565b81526020019060010190610573565b9150915060006105af8383610c3f565b905086600080805b838110156106d3578b8b828181106105df57634e487b7160e01b600052603260045260246000fd5b90506020020160208101906105f49190611af3565b92506305f5e1008e8e8560ff1681811061061e57634e487b7160e01b600052603260045260246000fd5b6106349260206040909202019081019150611ad9565b6001600160801b03168b8b8481811061065d57634e487b7160e01b600052603260045260246000fd5b9050602002013561066e9190611edb565b6106789190611cf7565b915081878460ff168151811061069e57634e487b7160e01b600052603260045260246000fd5b602002602001018181516106b29190611c8b565b9052506106bf8287611c8b565b9550806106cb81611f50565b9150506105b7565b506106df868686610d30565b9d9c50505050505050505050505050565b7f000000000000000000000000000000000000000000000000000000000000000081565b7f000000000000000000000000000000000000000000000000000000000000000081565b7f000000000000000000000000000000000000000000000000000000000000000081565b60008060006107b28787808060200260200160405190810160405280939291908181526020016000905b82821015610292576107a360408302860136819003810190611a73565b81526020019060010190610786565b9150915060006107c28383610c3f565b905060006107d08683611f39565b905060006107e08585848b610e41565b905089898960ff1681811061080557634e487b7160e01b600052603260045260246000fd5b61081b9260206040909202019081019150611ad9565b6001600160801b0316610832826305f5e100611edb565b61083c9190611cf7565b9a9950505050505050505050565b7f000000000000000000000000000000000000000000000000000000000000000081565b7f000000000000000000000000000000000000000000000000000000000000000081565b7f000000000000000000000000000000000000000000000000000000000000000081565b7f000000000000000000000000000000000000000000000000000000000000000081565b60008060006109308989808060200260200160405190810160405280939291908181526020016000905b828210156102925761092160408302860136819003810190611a73565b81526020019060010190610904565b9150915060006109408383610c3f565b9050866000805b82811015610a5d576305f5e1008d8d8381811061097457634e487b7160e01b600052603260045260246000fd5b61098a9260206040909202019081019150611ad9565b6001600160801b03168a8a848181106109b357634e487b7160e01b600052603260045260246000fd5b905060200201356109c49190611edb565b6109ce9190611cf7565b915081868c8c848181106109f257634e487b7160e01b600052603260045260246000fd5b9050602002016020810190610a079190611af3565b60ff1681518110610a2857634e487b7160e01b600052603260045260246000fd5b60200260200101818151610a3c9190611f39565b905250610a498286611f39565b945080610a5581611f50565b915050610947565b506000610a6a8686610c3f565b90506106df8185611f39565b7f000000000000000000000000000000000000000000000000000000000000000081565b7f000000000000000000000000000000000000000000000000000000000000000081565b7f000000000000000000000000000000000000000000000000000000000000000081565b7f000000000000000000000000000000000000000000000000000000000000000081565b7f000000000000000000000000000000000000000000000000000000000000000081565b80516060906000908067ffffffffffffffff811115610b5957634e487b7160e01b600052604160045260246000fd5b604051908082528060200260200182016040528015610b82578160200160208202803683370190505b5092506000805b82811015610c37576000868281518110610bb357634e487b7160e01b600052603260045260246000fd5b602002602001015190506305f5e10081600001518260200151610bd69190611eb5565b610be09190611cd1565b6001600160801b0316925082868381518110610c0c57634e487b7160e01b600052603260045260246000fd5b6020908102919091010152610c218386611c8b565b9450508080610c2f90611f50565b915050610b89565b505050915091565b600081610c4e57506000610d2a565b825160009081805b82811015610d115785878281518110610c7f57634e487b7160e01b600052603260045260246000fd5b6020026020010151670de0b6b3a7640000610c9a9190611edb565b610ca49190611cf7565b9150610caf82610ec2565b610cc190670de0b6b3a7640000611f39565b878281518110610ce157634e487b7160e01b600052603260045260246000fd5b6020026020010151610cf39190611edb565b610cfd9085611c8b565b935080610d0981611f50565b915050610c56565b50610d24670de0b6b3a764000084611cf7565b93505050505b92915050565b600080610d3d8585610c3f565b9050600062093a80610d6f7f000000000000000000000000000000000000000000000000000000000000000042611f39565b610d8190670de0b6b3a7640000611edb565b610d8b9190611cf7565b905067a688906bd8b00000811015610e2d5760006ec097ce7bc90715b34b9f1000000000610dba600284611d60565b610dcc9067d02ab486cedc0000611edb565b610dd69190611cf7565b610e00907f0000000000000000000000000000000000000000000000000000000000000000611c8b565b905080831115610e2b5760405162461bcd60e51b8152600401610e2290611c04565b60405180910390fd5b505b610e378483611f39565b9695505050505050565b600080858360ff1681518110610e6757634e487b7160e01b600052603260045260246000fd5b602002602001015190506000610e7f878787876110e3565b9050808460ff1681518110610ea457634e487b7160e01b600052603260045260246000fd5b602002602001015182610eb79190611f39565b979650505050505050565b60007f00000000000000000000000000000000000000000000000000000000000000008210158015610f1457507f00000000000000000000000000000000000000000000000000000000000000008211155b610f305760405162461bcd60e51b8152600401610e2290611ba6565b7f0000000000000000000000000000000000000000000000000000000000000000821015611009577f00000000000000000000000000000000000000000000000000000000000000007f0000000000000000000000000000000000000000000000000000000000000000610fc4847f0000000000000000000000000000000000000000000000000000000000000000611f39565b610fce9190611d51565b610ff8907f0000000000000000000000000000000000000000000000000000000000000000611edb565b6110029190611cf7565b90506110de565b7f00000000000000000000000000000000000000000000000000000000000000008211156110de577f00000000000000000000000000000000000000000000000000000000000000007f000000000000000000000000000000000000000000000000000000000000000061109d7f000000000000000000000000000000000000000000000000000000000000000085611f39565b6110a79190611d51565b6110d1907f0000000000000000000000000000000000000000000000000000000000000000611edb565b6110db9190611cf7565b90505b919050565b835184908490600090839060ff861690811061110f57634e487b7160e01b600052603260045260246000fd5b602002602001015190506000611147620f4240670de0b6b3a76400008860026111389190611edb565b6111429190611cf7565b611262565b905060006111548761127a565b90506000805b601960ff821610156112415760008061117489898c6112a3565b91509150846111828361127a565b61118c9190611efa565b93508561119885611487565b116111aa57505050505050505061125a565b6111b48789611f39565b97506111ee816111cc86670de0b6b3a7640000611e32565b6111d69190611ca3565b6111df8961127a565b6111e99190611efa565b6114a2565b96506111fa8789611c8b565b975086898b60ff168151811061122057634e487b7160e01b600052603260045260246000fd5b6020026020010181815250505050808061123990611f6b565b91505061115a565b5060405162461bcd60e51b8152600401610e2290611bcd565b949350505050565b60008183116112715781611273565b825b9392505050565b6000600160ff1b821061129f5760405162461bcd60e51b8152600401610e2290611b79565b5090565b600080836112b65750600090508061147f565b50508251600090670de0b6b3a764000090828080805b8481101561144557888a82815181106112f557634e487b7160e01b600052603260045260246000fd5b6020026020010151670de0b6b3a76400006113109190611edb565b61131a9190611cf7565b9350611325846114c4565b909350915061133c83670de0b6b3a7640000611f39565b8a828151811061135c57634e487b7160e01b600052603260045260246000fd5b602002602001015161136e9190611edb565b6113789088611c8b565b96508760ff168114156113f45761138e8361127a565b6113989087611efa565b95506ec097ce7bc90715b34b9f1000000000826113cf6113c087670de0b6b3a7640000611f39565b6113ca9088611edb565b61127a565b6113d99190611e32565b6113e39190611ca3565b6113ed9087611efa565b9550611433565b6ec097ce7bc90715b34b9f1000000000826114126113ca8780611edb565b61141c9190611e32565b6114269190611ca3565b6114309087611c4a565b95505b8061143d81611f50565b9150506112cc565b50600085136114665760405162461bcd60e51b8152600401610e2290611b0d565b611478670de0b6b3a764000087611cf7565b9550505050505b935093915050565b60008082121561149d576110026111e983611f8b565b6110db825b60008082121561129f5760405162461bcd60e51b8152600401610e2290611b44565b6000807f0000000000000000000000000000000000000000000000000000000000000000831015801561151757507f00000000000000000000000000000000000000000000000000000000000000008311155b6115335760405162461bcd60e51b8152600401610e2290611ba6565b7f00000000000000000000000000000000000000000000000000000000000000008310156116d1577f00000000000000000000000000000000000000000000000000000000000000007f00000000000000000000000000000000000000000000000000000000000000006115c7857f0000000000000000000000000000000000000000000000000000000000000000611f39565b6115d19190611d51565b6115fb907f0000000000000000000000000000000000000000000000000000000000000000611edb565b6116059190611cf7565b91506116be7f000000000000000000000000000000000000000000000000000000000000000061165660017f0000000000000000000000000000000000000000000000000000000000000000611f39565b611680867f0000000000000000000000000000000000000000000000000000000000000000611f39565b61168a9190611d51565b6116b4907f0000000000000000000000000000000000000000000000000000000000000000611edb565b6113ca9190611cf7565b6116ca90600019611e32565b9050611855565b7f0000000000000000000000000000000000000000000000000000000000000000831115611855577f00000000000000000000000000000000000000000000000000000000000000007f00000000000000000000000000000000000000000000000000000000000000006117657f000000000000000000000000000000000000000000000000000000000000000086611f39565b61176f9190611d51565b611799907f0000000000000000000000000000000000000000000000000000000000000000611edb565b6117a39190611cf7565b91506118527f00000000000000000000000000000000000000000000000000000000000000006117f460017f0000000000000000000000000000000000000000000000000000000000000000611f39565b61181e7f000000000000000000000000000000000000000000000000000000000000000087611f39565b6118289190611d51565b6116b4907f0000000000000000000000000000000000000000000000000000000000000000611edb565b90505b915091565b60008083601f84011261186b578182fd5b50813567ffffffffffffffff811115611882578182fd5b60208301915083602060408302850101111561189d57600080fd5b9250929050565b60008083601f8401126118b5578182fd5b50813567ffffffffffffffff8111156118cc578182fd5b602083019150836020808302850101111561189d57600080fd5b80356001600160801b03811681146110de57600080fd5b803560ff811681146110de57600080fd5b60008060008060008060608789031215611926578182fd5b863567ffffffffffffffff8082111561193d578384fd5b6119498a838b0161185a565b90985096506020890135915080821115611961578384fd5b61196d8a838b016118a4565b90965094506040890135915080821115611985578384fd5b5061199289828a016118a4565b979a9699509497509295939492505050565b600080600080606085870312156119b9578384fd5b843567ffffffffffffffff8111156119cf578485fd5b6119db8782880161185a565b90955093506119ee9050602086016118fd565b9396929550929360400135925050565b60008060008060008060a08789031215611a16578182fd5b863567ffffffffffffffff811115611a2c578283fd5b611a3889828a0161185a565b9097509550611a4b9050602088016118fd565b9350611a59604088016118fd565b925060608701359150608087013590509295509295509295565b600060408284031215611a84578081fd5b6040516040810181811067ffffffffffffffff82111715611ab357634e487b7160e01b83526041600452602483fd5b604052611abf836118e6565b8152611acd602084016118e6565b60208201529392505050565b600060208284031215611aea578081fd5b611273826118e6565b600060208284031215611b04578081fd5b611273826118fd565b60208082526017908201527f44657269766174697665206d7573742062652067742030000000000000000000604082015260600190565b6020808252818101527f53616665436173743a2076616c7565206d75737420626520706f736974697665604082015260600190565b60208082526013908201527253616665436173743a20746f6f206c6172676560681b604082015260600190565b6020808252600d908201526c4f7574206f6620626f756e647360981b604082015260600190565b60208082526019908201527f536f6c7574696f6e20646964206e6f7420636f6e766572676500000000000000604082015260600190565b602080825260159082015274043616e6e6f74206578636565642054564c2063617605c1b604082015260600190565b90815260200190565b918252602082015260400190565b600080821280156001600160ff1b0384900385131615611c6c57611c6c611fa5565b600160ff1b8390038412811615611c8557611c85611fa5565b50500190565b60008219821115611c9e57611c9e611fa5565b500190565b600082611cb257611cb2611fbb565b600160ff1b821460001984141615611ccc57611ccc611fa5565b500590565b60006001600160801b0380841680611ceb57611ceb611fbb565b92169190910492915050565b600082611d0657611d06611fbb565b500490565b80825b6001808611611d1d5750611d48565b818704821115611d2f57611d2f611fa5565b80861615611d3c57918102915b9490941c938002611d0e565b94509492505050565b60006112736000198484611d6e565b600061127360001960ff8516845b600082611d7d57506001611273565b81611d8a57506000611273565b8160018114611da05760028114611daa57611dd7565b6001915050611273565b60ff841115611dbb57611dbb611fa5565b6001841b915084821115611dd157611dd1611fa5565b50611273565b5060208310610133831016604e8410600b8410161715611e0a575081810a83811115611e0557611e05611fa5565b611273565b611e178484846001611d0b565b808604821115611e2957611e29611fa5565b02949350505050565b60006001600160ff1b0381841382841380821686840486111615611e5857611e58611fa5565b600160ff1b84871282811687830589121615611e7657611e76611fa5565b858712925087820587128484161615611e9157611e91611fa5565b87850587128184161615611ea757611ea7611fa5565b505050929093029392505050565b60006001600160801b0380831681851681830481118215151615611e2957611e29611fa5565b6000816000190483118215151615611ef557611ef5611fa5565b500290565b60008083128015600160ff1b850184121615611f1857611f18611fa5565b6001600160ff1b0384018313811615611f3357611f33611fa5565b50500390565b600082821015611f4b57611f4b611fa5565b500390565b6000600019821415611f6457611f64611fa5565b5060010190565b600060ff821660ff811415611f8257611f82611fa5565b60010192915050565b6000600160ff1b821415611fa157611fa1611fa5565b0390565b634e487b7160e01b600052601160045260246000fd5b634e487b7160e01b600052601260045260246000fdfea26469706673582212207fd03bbae6ce789a9488adde2362423a10c7a8258540ddb1716fb45432724c4364736f6c63430008000033",
  "linkReferences": {},
  "deployedLinkReferences": {}
}