{
  "_format": "hh-sol-artifact-1",
  "contractName": "SavingsContract",
  "sourceName": "contracts/savings/SavingsContract.sol",
  "abi": [
    {
      "inputs": [
        {
          "internalType": "address",
          "name": "_nexus",
          "type": "address"
        },
        {
          "internalType": "address",
          "name": "_rewardToken",
          "type": "address"
        },
        {
          "internalType": "address",
          "name": "_distributor",
          "type": "address"
        },
        {
          "internalType": "contract IERC20",
          "name": "_underlying",
          "type": "address"
        },
        {
          "internalType": "string",
          "name": "_nameArg",
          "type": "string"
        },
        {
          "internalType": "string",
          "name": "_symbolArg",
          "type": "string"
        },
        {
          "internalType": "uint8",
          "name": "_decimalsArg",
          "type": "uint8"
        }
      ],
      "payable": false,
      "stateMutability": "nonpayable",
      "type": "constructor"
    },
    {
      "anonymous": false,
      "inputs": [
        {
          "indexed": true,
          "internalType": "address",
          "name": "owner",
          "type": "address"
        },
        {
          "indexed": true,
          "internalType": "address",
          "name": "spender",
          "type": "address"
        },
        {
          "indexed": false,
          "internalType": "uint256",
          "name": "value",
          "type": "uint256"
        }
      ],
      "name": "Approval",
      "type": "event"
    },
    {
      "anonymous": false,
      "inputs": [
        {
          "indexed": false,
          "internalType": "bool",
          "name": "automationEnabled",
          "type": "bool"
        }
      ],
      "name": "AutomaticInterestCollectionSwitched",
      "type": "event"
    },
    {
      "anonymous": false,
      "inputs": [
        {
          "indexed": true,
          "internalType": "address",
          "name": "redeemer",
          "type": "address"
        },
        {
          "indexed": false,
          "internalType": "uint256",
          "name": "creditsRedeemed",
          "type": "uint256"
        },
        {
          "indexed": false,
          "internalType": "uint256",
          "name": "savingsCredited",
          "type": "uint256"
        }
      ],
      "name": "CreditsRedeemed",
      "type": "event"
    },
    {
      "anonymous": false,
      "inputs": [
        {
          "indexed": false,
          "internalType": "uint256",
          "name": "newExchangeRate",
          "type": "uint256"
        },
        {
          "indexed": false,
          "internalType": "uint256",
          "name": "interestCollected",
          "type": "uint256"
        }
      ],
      "name": "ExchangeRateUpdated",
      "type": "event"
    },
    {
      "anonymous": false,
      "inputs": [
        {
          "indexed": false,
          "internalType": "uint256",
          "name": "reward",
          "type": "uint256"
        }
      ],
      "name": "RewardAdded",
      "type": "event"
    },
    {
      "anonymous": false,
      "inputs": [
        {
          "indexed": true,
          "internalType": "address",
          "name": "user",
          "type": "address"
        },
        {
          "indexed": false,
          "internalType": "uint256",
          "name": "reward",
          "type": "uint256"
        }
      ],
      "name": "RewardPaid",
      "type": "event"
    },
    {
      "anonymous": false,
      "inputs": [
        {
          "indexed": true,
          "internalType": "address",
          "name": "saver",
          "type": "address"
        },
        {
          "indexed": false,
          "internalType": "uint256",
          "name": "savingsDeposited",
          "type": "uint256"
        },
        {
          "indexed": false,
          "internalType": "uint256",
          "name": "creditsIssued",
          "type": "uint256"
        }
      ],
      "name": "SavingsDeposited",
      "type": "event"
    },
    {
      "anonymous": false,
      "inputs": [
        {
          "indexed": true,
          "internalType": "address",
          "name": "from",
          "type": "address"
        },
        {
          "indexed": true,
          "internalType": "address",
          "name": "to",
          "type": "address"
        },
        {
          "indexed": false,
          "internalType": "uint256",
          "name": "value",
          "type": "uint256"
        }
      ],
      "name": "Transfer",
      "type": "event"
    },
    {
      "constant": true,
      "inputs": [
        {
          "internalType": "address",
          "name": "owner",
          "type": "address"
        },
        {
          "internalType": "address",
          "name": "spender",
          "type": "address"
        }
      ],
      "name": "allowance",
      "outputs": [
        {
          "internalType": "uint256",
          "name": "",
          "type": "uint256"
        }
      ],
      "payable": false,
      "stateMutability": "view",
      "type": "function"
    },
    {
      "constant": false,
      "inputs": [
        {
          "internalType": "address",
          "name": "spender",
          "type": "address"
        },
        {
          "internalType": "uint256",
          "name": "amount",
          "type": "uint256"
        }
      ],
      "name": "approve",
      "outputs": [
        {
          "internalType": "bool",
          "name": "",
          "type": "bool"
        }
      ],
      "payable": false,
      "stateMutability": "nonpayable",
      "type": "function"
    },
    {
      "constant": false,
      "inputs": [
        {
          "internalType": "bool",
          "name": "_enabled",
          "type": "bool"
        }
      ],
      "name": "automateInterestCollectionFlag",
      "outputs": [],
      "payable": false,
      "stateMutability": "nonpayable",
      "type": "function"
    },
    {
      "constant": true,
      "inputs": [
        {
          "internalType": "address",
          "name": "account",
          "type": "address"
        }
      ],
      "name": "balanceOf",
      "outputs": [
        {
          "internalType": "uint256",
          "name": "",
          "type": "uint256"
        }
      ],
      "payable": false,
      "stateMutability": "view",
      "type": "function"
    },
    {
      "constant": true,
      "inputs": [
        {
          "internalType": "address",
          "name": "_user",
          "type": "address"
        }
      ],
      "name": "balanceOfUnderlying",
      "outputs": [
        {
          "internalType": "uint256",
          "name": "balance",
          "type": "uint256"
        }
      ],
      "payable": false,
      "stateMutability": "view",
      "type": "function"
    },
    {
      "constant": false,
      "inputs": [],
      "name": "claimReward",
      "outputs": [],
      "payable": false,
      "stateMutability": "nonpayable",
      "type": "function"
    },
    {
      "constant": true,
      "inputs": [
        {
          "internalType": "address",
          "name": "_user",
          "type": "address"
        }
      ],
      "name": "creditBalances",
      "outputs": [
        {
          "internalType": "uint256",
          "name": "",
          "type": "uint256"
        }
      ],
      "payable": false,
      "stateMutability": "view",
      "type": "function"
    },
    {
      "constant": true,
      "inputs": [],
      "name": "decimals",
      "outputs": [
        {
          "internalType": "uint8",
          "name": "",
          "type": "uint8"
        }
      ],
      "payable": false,
      "stateMutability": "view",
      "type": "function"
    },
    {
      "constant": false,
      "inputs": [
        {
          "internalType": "address",
          "name": "spender",
          "type": "address"
        },
        {
          "internalType": "uint256",
          "name": "subtractedValue",
          "type": "uint256"
        }
      ],
      "name": "decreaseAllowance",
      "outputs": [
        {
          "internalType": "bool",
          "name": "",
          "type": "bool"
        }
      ],
      "payable": false,
      "stateMutability": "nonpayable",
      "type": "function"
    },
    {
      "constant": false,
      "inputs": [
        {
          "internalType": "uint256",
          "name": "_underlying",
          "type": "uint256"
        },
        {
          "internalType": "address",
          "name": "_beneficiary",
          "type": "address"
        }
      ],
      "name": "deposit",
      "outputs": [
        {
          "internalType": "uint256",
          "name": "creditsIssued",
          "type": "uint256"
        }
      ],
      "payable": false,
      "stateMutability": "nonpayable",
      "type": "function"
    },
    {
      "constant": false,
      "inputs": [
        {
          "internalType": "uint256",
          "name": "_amount",
          "type": "uint256"
        }
      ],
      "name": "depositInterest",
      "outputs": [],
      "payable": false,
      "stateMutability": "nonpayable",
      "type": "function"
    },
    {
      "constant": false,
      "inputs": [
        {
          "internalType": "uint256",
          "name": "_underlying",
          "type": "uint256"
        }
      ],
      "name": "depositSavings",
      "outputs": [
        {
          "internalType": "uint256",
          "name": "creditsIssued",
          "type": "uint256"
        }
      ],
      "payable": false,
      "stateMutability": "nonpayable",
      "type": "function"
    },
    {
      "constant": true,
      "inputs": [
        {
          "internalType": "address",
          "name": "_account",
          "type": "address"
        }
      ],
      "name": "earned",
      "outputs": [
        {
          "internalType": "uint256",
          "name": "",
          "type": "uint256"
        }
      ],
      "payable": false,
      "stateMutability": "view",
      "type": "function"
    },
    {
      "constant": true,
      "inputs": [],
      "name": "exchangeRate",
      "outputs": [
        {
          "internalType": "uint256",
          "name": "",
          "type": "uint256"
        }
      ],
      "payable": false,
      "stateMutability": "view",
      "type": "function"
    },
    {
      "constant": true,
      "inputs": [],
      "name": "getRewardToken",
      "outputs": [
        {
          "internalType": "contract IERC20",
          "name": "",
          "type": "address"
        }
      ],
      "payable": false,
      "stateMutability": "view",
      "type": "function"
    },
    {
      "constant": false,
      "inputs": [
        {
          "internalType": "address",
          "name": "spender",
          "type": "address"
        },
        {
          "internalType": "uint256",
          "name": "addedValue",
          "type": "uint256"
        }
      ],
      "name": "increaseAllowance",
      "outputs": [
        {
          "internalType": "bool",
          "name": "",
          "type": "bool"
        }
      ],
      "payable": false,
      "stateMutability": "nonpayable",
      "type": "function"
    },
    {
      "constant": true,
      "inputs": [],
      "name": "lastTimeRewardApplicable",
      "outputs": [
        {
          "internalType": "uint256",
          "name": "",
          "type": "uint256"
        }
      ],
      "payable": false,
      "stateMutability": "view",
      "type": "function"
    },
    {
      "constant": true,
      "inputs": [],
      "name": "lastUpdateTime",
      "outputs": [
        {
          "internalType": "uint256",
          "name": "",
          "type": "uint256"
        }
      ],
      "payable": false,
      "stateMutability": "view",
      "type": "function"
    },
    {
      "constant": true,
      "inputs": [],
      "name": "name",
      "outputs": [
        {
          "internalType": "string",
          "name": "",
          "type": "string"
        }
      ],
      "payable": false,
      "stateMutability": "view",
      "type": "function"
    },
    {
      "constant": true,
      "inputs": [],
      "name": "nexus",
      "outputs": [
        {
          "internalType": "contract INexus",
          "name": "",
          "type": "address"
        }
      ],
      "payable": false,
      "stateMutability": "view",
      "type": "function"
    },
    {
      "constant": false,
      "inputs": [
        {
          "internalType": "uint256",
          "name": "_reward",
          "type": "uint256"
        }
      ],
      "name": "notifyRewardAmount",
      "outputs": [],
      "payable": false,
      "stateMutability": "nonpayable",
      "type": "function"
    },
    {
      "constant": true,
      "inputs": [],
      "name": "periodFinish",
      "outputs": [
        {
          "internalType": "uint256",
          "name": "",
          "type": "uint256"
        }
      ],
      "payable": false,
      "stateMutability": "view",
      "type": "function"
    },
    {
      "constant": false,
      "inputs": [
        {
          "internalType": "uint256",
          "name": "_credits",
          "type": "uint256"
        }
      ],
      "name": "redeem",
      "outputs": [
        {
          "internalType": "uint256",
          "name": "massetReturned",
          "type": "uint256"
        }
      ],
      "payable": false,
      "stateMutability": "nonpayable",
      "type": "function"
    },
    {
      "constant": false,
      "inputs": [
        {
          "internalType": "uint256",
          "name": "_underlying",
          "type": "uint256"
        }
      ],
      "name": "redeemUnderlying",
      "outputs": [
        {
          "internalType": "uint256",
          "name": "creditsBurned",
          "type": "uint256"
        }
      ],
      "payable": false,
      "stateMutability": "nonpayable",
      "type": "function"
    },
    {
      "constant": true,
      "inputs": [],
      "name": "rewardPerToken",
      "outputs": [
        {
          "internalType": "uint256",
          "name": "",
          "type": "uint256"
        }
      ],
      "payable": false,
      "stateMutability": "view",
      "type": "function"
    },
    {
      "constant": true,
      "inputs": [],
      "name": "rewardPerTokenStored",
      "outputs": [
        {
          "internalType": "uint256",
          "name": "",
          "type": "uint256"
        }
      ],
      "payable": false,
      "stateMutability": "view",
      "type": "function"
    },
    {
      "constant": true,
      "inputs": [],
      "name": "rewardRate",
      "outputs": [
        {
          "internalType": "uint256",
          "name": "",
          "type": "uint256"
        }
      ],
      "payable": false,
      "stateMutability": "view",
      "type": "function"
    },
    {
      "constant": true,
      "inputs": [
        {
          "internalType": "address",
          "name": "",
          "type": "address"
        }
      ],
      "name": "rewards",
      "outputs": [
        {
          "internalType": "uint256",
          "name": "",
          "type": "uint256"
        }
      ],
      "payable": false,
      "stateMutability": "view",
      "type": "function"
    },
    {
      "constant": true,
      "inputs": [],
      "name": "rewardsDistributor",
      "outputs": [
        {
          "internalType": "address",
          "name": "",
          "type": "address"
        }
      ],
      "payable": false,
      "stateMutability": "view",
      "type": "function"
    },
    {
      "constant": true,
      "inputs": [],
      "name": "rewardsToken",
      "outputs": [
        {
          "internalType": "contract IERC20",
          "name": "",
          "type": "address"
        }
      ],
      "payable": false,
      "stateMutability": "view",
      "type": "function"
    },
    {
      "constant": false,
      "inputs": [
        {
          "internalType": "address",
          "name": "_rewardsDistributor",
          "type": "address"
        }
      ],
      "name": "setRewardsDistribution",
      "outputs": [],
      "payable": false,
      "stateMutability": "nonpayable",
      "type": "function"
    },
    {
      "constant": true,
      "inputs": [],
      "name": "symbol",
      "outputs": [
        {
          "internalType": "string",
          "name": "",
          "type": "string"
        }
      ],
      "payable": false,
      "stateMutability": "view",
      "type": "function"
    },
    {
      "constant": true,
      "inputs": [],
      "name": "totalSavings",
      "outputs": [
        {
          "internalType": "uint256",
          "name": "",
          "type": "uint256"
        }
      ],
      "payable": false,
      "stateMutability": "view",
      "type": "function"
    },
    {
      "constant": true,
      "inputs": [],
      "name": "totalSupply",
      "outputs": [
        {
          "internalType": "uint256",
          "name": "",
          "type": "uint256"
        }
      ],
      "payable": false,
      "stateMutability": "view",
      "type": "function"
    },
    {
      "constant": false,
      "inputs": [
        {
          "internalType": "address",
          "name": "recipient",
          "type": "address"
        },
        {
          "internalType": "uint256",
          "name": "amount",
          "type": "uint256"
        }
      ],
      "name": "transfer",
      "outputs": [
        {
          "internalType": "bool",
          "name": "",
          "type": "bool"
        }
      ],
      "payable": false,
      "stateMutability": "nonpayable",
      "type": "function"
    },
    {
      "constant": false,
      "inputs": [
        {
          "internalType": "address",
          "name": "sender",
          "type": "address"
        },
        {
          "internalType": "address",
          "name": "recipient",
          "type": "address"
        },
        {
          "internalType": "uint256",
          "name": "amount",
          "type": "uint256"
        }
      ],
      "name": "transferFrom",
      "outputs": [
        {
          "internalType": "bool",
          "name": "",
          "type": "bool"
        }
      ],
      "payable": false,
      "stateMutability": "nonpayable",
      "type": "function"
    },
    {
      "constant": true,
      "inputs": [
        {
          "internalType": "address",
          "name": "",
          "type": "address"
        }
      ],
      "name": "userRewardPerTokenPaid",
      "outputs": [
        {
          "internalType": "uint256",
          "name": "",
          "type": "uint256"
        }
      ],
      "payable": false,
      "stateMutability": "view",
      "type": "function"
    }
  ],
  "bytecode": "0x6080604052600060058190556006819055600781905560085567016345785d8a0000600f556010805460ff60a01b1916600160a01b1790553480156200004457600080fd5b506040516200286038038062002860833981810160405260e08110156200006a57600080fd5b8151602083015160408085015160608601516080870180519351959794969295919491939282019284640100000000821115620000a657600080fd5b908301906020820185811115620000bc57600080fd5b8251640100000000811182820188101715620000d757600080fd5b82525081516020918201929091019080838360005b8381101562000106578181015183820152602001620000ec565b50505050905090810190601f168015620001345780820380516001836020036101000a031916815260200191505b50604052602001805160405193929190846401000000008211156200015857600080fd5b9083019060208201858111156200016e57600080fd5b82516401000000008111828201881017156200018957600080fd5b82525081516020918201929091019080838360005b83811015620001b85781810151838201526020016200019e565b50505050905090810190601f168015620001e65780820380516001836020036101000a031916815260200191505b506040526020018051906020019092919050505086868685858585858582818188888882600090805190602001906200022192919062000383565b5081516200023790600190602085019062000383565b506002805460ff191660ff9290921691909117905550506001600160a01b038116620002aa576040805162461bcd60e51b815260206004820152601560248201527f4e65787573206973207a65726f20616464726573730000000000000000000000604482015290519081900360640190fd5b600280546001600160a01b0392831661010002610100600160a81b0319909116179055600380549282166001600160a01b0319938416179055600480549582169590921694909417905550508b16151596506200035595505050505050576040805162461bcd60e51b815260206004820152601660248201527f6d41737365742061646472657373206973207a65726f00000000000000000000604482015290519081900360640190fd5b5050601080546001600160a01b0319166001600160a01b039390931692909217909155506200042892505050565b828054600181600116156101000203166002900490600052602060002090601f016020900481019282601f10620003c657805160ff1916838001178555620003f6565b82800160010185558215620003f6579182015b82811115620003f6578251825591602001919060010190620003d9565b506200040492915062000408565b5090565b6200042591905b808211156200040457600081556001016200040f565b90565b61242880620004386000396000f3fe608060405234801561001057600080fd5b50600436106102265760003560e01c80637b0a47ee11610130578063a9059cbb116100b8578063d1af0c7d1161007c578063d1af0c7d146105f3578063db006a75146105fb578063dd62ed3e14610618578063df136d6514610646578063ebe2b12b1461064e57610226565b8063a9059cbb14610590578063b88a802f146105bc578063c8f33c91146105c4578063cbe54173146105cc578063cd3daf9d146105eb57610226565b806395d89b41116100ff57806395d89b411461052f5780639bf42b3f14610537578063a3f5c1d21461053f578063a453b6cf14610547578063a457c2d71461056457610226565b80637b0a47ee146104dc57806380faa57d146104e4578063852a12e3146104ec5780638b8763471461050957610226565b806339509351116101b35780633f2a5540116101825780633f2a55401461045e5780636009a2d81461048257806369940d79146104a85780636e553f65146104b057806370a082311461048257610226565b806339509351146103e75780633af9e669146104135780633ba0b9a9146104395780633c6b16ab1461044157610226565b806318160ddd116101fa57806318160ddd14610346578063197621431461034e578063220c5bbb1461037657806323b872dd14610393578063313ce567146103c957610226565b80628cc2621461022b57806306fdde03146102635780630700037d146102e0578063095ea7b314610306575b600080fd5b6102516004803603602081101561024157600080fd5b50356001600160a01b0316610656565b60408051918252519081900360200190f35b61026b6106da565b6040805160208082528351818301528351919283929083019185019080838360005b838110156102a557818101518382015260200161028d565b50505050905090810190601f1680156102d25780820380516001836020036101000a031916815260200191505b509250505060405180910390f35b610251600480360360208110156102f657600080fd5b50356001600160a01b0316610771565b6103326004803603604081101561031c57600080fd5b506001600160a01b038135169060200135610783565b604080519115158252519081900360200190f35b61025161079a565b6103746004803603602081101561036457600080fd5b50356001600160a01b03166107a0565b005b6103746004803603602081101561038c57600080fd5b503561082b565b610332600480360360608110156103a957600080fd5b506001600160a01b03813581169160208101359091169060400135610a29565b6103d1610a98565b6040805160ff9092168252519081900360200190f35b610332600480360360408110156103fd57600080fd5b506001600160a01b038135169060200135610aa1565b6102516004803603602081101561042957600080fd5b50356001600160a01b0316610add565b610251610aff565b6103746004803603602081101561045757600080fd5b5035610b05565b610466610ce3565b604080516001600160a01b039092168252519081900360200190f35b6102516004803603602081101561049857600080fd5b50356001600160a01b0316610cf2565b610466610d0d565b610251600480360360408110156104c657600080fd5b50803590602001356001600160a01b0316610d1c565b610251610d2f565b610251610d35565b6102516004803603602081101561050257600080fd5b5035610d48565b6102516004803603602081101561051f57600080fd5b50356001600160a01b0316610e8f565b61026b610ea1565b610251610f01565b610466610f07565b6102516004803603602081101561055d57600080fd5b5035610f1b565b6103326004803603604081101561057a57600080fd5b506001600160a01b038135169060200135610f27565b610332600480360360408110156105a657600080fd5b506001600160a01b038135169060200135610f7c565b610374610f89565b610251611067565b610374600480360360208110156105e257600080fd5b5035151561106d565b610251611129565b610466611199565b6102516004803603602081101561061157600080fd5b50356111a8565b6102516004803603604081101561062e57600080fd5b506001600160a01b0381358116916020013516611283565b6102516112ae565b6102516112b4565b6001600160a01b03811660009081526009602052604081205481906106899061067d611129565b9063ffffffff6112ba16565b905060006106a68261069a86610cf2565b9063ffffffff6112fc16565b6001600160a01b0385166000908152600a60205260409020549091506106d2908263ffffffff61131116565b949350505050565b60008054604080516020601f60026000196101006001881615020190951694909404938401819004810282018101909252828152606093909290918301828280156107665780601f1061073b57610100808354040283529160200191610766565b820191906000526020600020905b81548152906001019060200180831161074957829003601f168201915b505050505090505b90565b600a6020526000908152604090205481565b600061079033848461136b565b5060015b92915050565b600b5490565b6107a8611457565b6001600160a01b0316336001600160a01b031614610809576040805162461bcd60e51b81526020600482015260196024820152784f6e6c7920676f7665726e6f722063616e206578656375746560381b604482015290519081900360640190fd5b600380546001600160a01b0319166001600160a01b0392909216919091179055565b6108336114d8565b6001600160a01b0316336001600160a01b031614610898576040805162461bcd60e51b815260206004820181905260248201527f4f6e6c7920736176696e6773206d616e616765722063616e2065786563757465604482015290519081900360640190fd5b600081116108e6576040805162461bcd60e51b81526020600482015260166024820152754d757374206465706f73697420736f6d657468696e6760501b604482015290519081900360640190fd5b601054604080516323b872dd60e01b81523360048201523060248201526044810184905290516001600160a01b03909216916323b872dd916064808201926020929091908290030181600087803b15801561094057600080fd5b505af1158015610954573d6000803e3d6000fd5b505050506040513d602081101561096a57600080fd5b50516109b3576040805162461bcd60e51b81526020600482015260136024820152724d757374207265636569766520746f6b656e7360681b604482015290519081900360640190fd5b600e546109c6908263ffffffff61131116565b600e55600b5415610a2657600b54600e546109e69163ffffffff61154816565b600f819055604080519182526020820183905280517fc8d1043f24843c0a1c9251fdc30017d84e87498fbcf232af9f86816b5e182bde9281900390910190a15b50565b6000610a36848484611575565b610a8e8433610a8985604051806060016040528060288152602001612313602891396001600160a01b038a166000908152600d60209081526040808320338452909152902054919063ffffffff61179d16565b61136b565b5060019392505050565b60025460ff1690565b336000818152600d602090815260408083206001600160a01b03871684529091528120549091610790918590610a89908663ffffffff61131116565b6001600160a01b0381166000908152600c602052604081205461079490611834565b600f5481565b6003546001600160a01b03163314610b64576040805162461bcd60e51b815260206004820181905260248201527f43616c6c6572206973206e6f7420726577617264206469737472696275746f72604482015290519081900360640190fd5b600080610b6f611129565b90508015610bc7576008819055610b84610d35565b6007556001600160a01b03821615610bc757610b9f82610656565b6001600160a01b0383166000908152600a602090815260408083209390935560099052208190555b69d3c21bcecceda10000008310610c0f5760405162461bcd60e51b815260040180806020018281038252602c815260200180612239602c913960400191505060405180910390fd5b60055442908110610c3557610c2d8462093a8063ffffffff61184b16565b600655610c8f565b600554600090610c4b908363ffffffff6112ba16565b90506000610c646006548361188d90919063ffffffff16565b9050610c8962093a80610c7d888463ffffffff61131116565b9063ffffffff61184b16565b60065550505b6007819055610ca78162093a8063ffffffff61131116565b6005556040805185815290517fde88a922e0d3b88b24e9623efeb464919c6bf9f66857a65e2bfcf2ce87a9433d9181900360200190a150505050565b6003546001600160a01b031681565b6001600160a01b03166000908152600c602052604090205490565b6004546001600160a01b031690565b6000610d2883836118e6565b9392505050565b60065481565b6000610d4342600554611adc565b905090565b6000808211610d98576040805162461bcd60e51b81526020600482015260176024820152764d75737420776974686472617720736f6d657468696e6760481b604482015290519081900360640190fd5b601054600160a01b900460ff1615610e1a57610db26114d8565b60105460408051636515eff360e11b81526001600160a01b0392831660048201529051929091169163ca2bdfe69160248082019260009290919082900301818387803b158015610e0157600080fd5b505af1158015610e15573d6000803e3d6000fd5b505050505b6000610e2583611af1565b90506000610e3282611b18565b9050838114610e88576040805162461bcd60e51b815260206004820152601b60248201527f446964206e6f742072656465656d2073756666696369656e746c790000000000604482015290519081900360640190fd5b5092915050565b60096020526000908152604090205481565b60018054604080516020601f600260001961010087891615020190951694909404938401819004810282018101909252828152606093909290918301828280156107665780601f1061073b57610100808354040283529160200191610766565b600e5481565b60025461010090046001600160a01b031681565b600061079482336118e6565b60006107903384610a89856040518060600160405280602581526020016123cf60259139336000908152600d602090815260408083206001600160a01b038d168452909152902054919063ffffffff61179d16565b6000610790338484611575565b336000610f94611129565b90508015610fec576008819055610fa9610d35565b6007556001600160a01b03821615610fec57610fc482610656565b6001600160a01b0383166000908152600a602090815260408083209390935560099052208190555b336000908152600a6020526040902054801561106257336000818152600a602052604081205560045461102b916001600160a01b039091169083611ca4565b60408051828152905133917fe2403640ba68fed3a2f88b7557551d1993f84b99bb10ff833f0cf8db0c5e0486919081900360200190a25b505050565b60075481565b611075611457565b6001600160a01b0316336001600160a01b0316146110d6576040805162461bcd60e51b81526020600482015260196024820152784f6e6c7920676f7665726e6f722063616e206578656375746560381b604482015290519081900360640190fd5b60108054821515600160a01b810260ff60a01b199092169190911790915560408051918252517fb9fdedbd8818c7929701eadc08c748a262fb39d9237b27537ae1809061e305f69181900360200190a150565b60008061113461079a565b90508061114557505060085461076e565b600061116761115860075461067d610d35565b6006549063ffffffff61188d16565b9050600061117b828463ffffffff61154816565b600854909150611191908263ffffffff61131116565b935050505090565b6004546001600160a01b031681565b60008082116111f8576040805162461bcd60e51b81526020600482015260176024820152764d75737420776974686472617720736f6d657468696e6760481b604482015290519081900360640190fd5b601054600160a01b900460ff161561127a576112126114d8565b60105460408051636515eff360e11b81526001600160a01b0392831660048201529051929091169163ca2bdfe69160248082019260009290919082900301818387803b15801561126157600080fd5b505af1158015611275573d6000803e3d6000fd5b505050505b61079482611b18565b6001600160a01b039182166000908152600d6020908152604080832093909416825291909152205490565b60085481565b60055481565b6000610d2883836040518060400160405280601e81526020017f536166654d6174683a207375627472616374696f6e206f766572666c6f77000081525061179d565b6000610d288383670de0b6b3a7640000611cf6565b600082820183811015610d28576040805162461bcd60e51b815260206004820152601b60248201527f536166654d6174683a206164646974696f6e206f766572666c6f770000000000604482015290519081900360640190fd5b6001600160a01b0383166113b05760405162461bcd60e51b81526004018080602001828103825260248152602001806123816024913960400191505060405180910390fd5b6001600160a01b0382166113f55760405162461bcd60e51b81526004018080602001828103825260228152602001806122aa6022913960400191505060405180910390fd5b6001600160a01b038084166000818152600d6020908152604080832094871680845294825291829020859055815185815291517f8c5be1e5ebec7d5bd14f71427d1e84f3dd0314c0f7b2291e5b200ac8c7c3b9259281900390910190a3505050565b6000600260019054906101000a90046001600160a01b03166001600160a01b0316630c340a246040518163ffffffff1660e01b815260040160206040518083038186803b1580156114a757600080fd5b505afa1580156114bb573d6000803e3d6000fd5b505050506040513d60208110156114d157600080fd5b5051905090565b600254604080516385acd64160e01b81527f12fe936c77a1e196473c4314f3bed8eeac1d757b319abb85bdda70df35511bf16004820152905160009261010090046001600160a01b0316916385acd641916024808301926020929190829003018186803b1580156114a757600080fd5b60008061156384670de0b6b3a764000063ffffffff61188d16565b90506106d2818463ffffffff61184b16565b826000611580611129565b905080156115d8576008819055611595610d35565b6007556001600160a01b038216156115d8576115b082610656565b6001600160a01b0383166000908152600a602090815260408083209390935560099052208190555b8360006115e3611129565b9050801561163b5760088190556115f8610d35565b6007556001600160a01b0382161561163b5761161382610656565b6001600160a01b0383166000908152600a602090815260408083209390935560099052208190555b6001600160a01b0387166116805760405162461bcd60e51b815260040180806020018281038252602581526020018061235c6025913960400191505060405180910390fd5b6001600160a01b0386166116c55760405162461bcd60e51b81526004018080602001828103825260238152602001806122656023913960400191505060405180910390fd5b611708856040518060600160405280602681526020016122cc602691396001600160a01b038a166000908152600c6020526040902054919063ffffffff61179d16565b6001600160a01b038089166000908152600c6020526040808220939093559088168152205461173d908663ffffffff61131116565b6001600160a01b038088166000818152600c602090815260409182902094909455805189815290519193928b16927fddf252ad1be2c89b69c2b068fc378daa952ba7f163c4a11628f55a4df523b3ef92918290030190a350505050505050565b6000818484111561182c5760405162461bcd60e51b81526004018080602001828103825283818151815260200191508051906020019080838360005b838110156117f15781810151838201526020016117d9565b50505050905090810190601f16801561181e5780820380516001836020036101000a031916815260200191505b509250505060405180910390fd5b505050900390565b6000610794600f54836112fc90919063ffffffff16565b6000610d2883836040518060400160405280601a81526020017f536166654d6174683a206469766973696f6e206279207a65726f000000000000815250611d24565b60008261189c57506000610794565b828202828482816118a957fe5b0414610d285760405162461bcd60e51b81526004018080602001828103825260218152602001806122f26021913960400191505060405180910390fd5b6000808311611935576040805162461bcd60e51b81526020600482015260166024820152754d757374206465706f73697420736f6d657468696e6760501b604482015290519081900360640190fd5b61193d6114d8565b60105460408051636515eff360e11b81526001600160a01b0392831660048201529051929091169163ca2bdfe69160248082019260009290919082900301818387803b15801561198c57600080fd5b505af11580156119a0573d6000803e3d6000fd5b5050601054604080516323b872dd60e01b81523360048201523060248201526044810188905290516001600160a01b0390921693506323b872dd92506064808201926020929091908290030181600087803b1580156119fe57600080fd5b505af1158015611a12573d6000803e3d6000fd5b505050506040513d6020811015611a2857600080fd5b5051611a71576040805162461bcd60e51b81526020600482015260136024820152724d757374207265636569766520746f6b656e7360681b604482015290519081900360640190fd5b600e54611a84908463ffffffff61131116565b600e55611a9083611af1565b9050611a9c8282611d89565b6040805184815260208101839052815133927f1a96ef469e332471886959f90a71ae924792a05ad7eea4e43a1c29becdf238ed928290030190a292915050565b6000818311611aeb5782610d28565b50919050565b600f5460009061079490611b0c84600163ffffffff61131116565b9063ffffffff61154816565b336000908152600c602052604081205482811015611b74576040805162461bcd60e51b8152602060048201526014602482015273536176657220686173206e6f206372656469747360601b604482015290519081900360640190fd5b611b7e3384611ee0565b611b8783611834565b600e54909250611b9d908363ffffffff6112ba16565b600e556010546040805163a9059cbb60e01b81523360048201526024810185905290516001600160a01b039092169163a9059cbb916044808201926020929091908290030181600087803b158015611bf457600080fd5b505af1158015611c08573d6000803e3d6000fd5b505050506040513d6020811015611c1e57600080fd5b5051611c64576040805162461bcd60e51b815260206004820152601060248201526f4d7573742073656e6420746f6b656e7360801b604482015290519081900360640190fd5b6040805184815260208101849052815133927fa4feb388d266c39bec6f79f16c3a7dba32e12d9688ddbb14493d46ce4c1ce657928290030190a250919050565b604080516001600160a01b038416602482015260448082018490528251808303909101815260649091019091526020810180516001600160e01b031663a9059cbb60e01b179052611062908490612041565b600080611d09858563ffffffff61188d16565b9050611d1b818463ffffffff61184b16565b95945050505050565b60008183611d735760405162461bcd60e51b81526020600482018181528351602484015283519092839260449091019190850190808383600083156117f15781810151838201526020016117d9565b506000838581611d7f57fe5b0495945050505050565b816000611d94611129565b90508015611dec576008819055611da9610d35565b6007556001600160a01b03821615611dec57611dc482610656565b6001600160a01b0383166000908152600a602090815260408083209390935560099052208190555b6001600160a01b038416611e47576040805162461bcd60e51b815260206004820152601f60248201527f45524332303a206d696e7420746f20746865207a65726f206164647265737300604482015290519081900360640190fd5b600b54611e5a908463ffffffff61131116565b600b556001600160a01b0384166000908152600c6020526040902054611e86908463ffffffff61131116565b6001600160a01b0385166000818152600c602090815260408083209490945583518781529351929391927fddf252ad1be2c89b69c2b068fc378daa952ba7f163c4a11628f55a4df523b3ef9281900390910190a350505050565b816000611eeb611129565b90508015611f43576008819055611f00610d35565b6007556001600160a01b03821615611f4357611f1b82610656565b6001600160a01b0383166000908152600a602090815260408083209390935560099052208190555b6001600160a01b038416611f885760405162461bcd60e51b815260040180806020018281038252602181526020018061233b6021913960400191505060405180910390fd5b611fcb83604051806060016040528060228152602001612288602291396001600160a01b0387166000908152600c6020526040902054919063ffffffff61179d16565b6001600160a01b0385166000908152600c6020526040902055600b54611ff7908463ffffffff6112ba16565b600b556040805184815290516000916001600160a01b038716917fddf252ad1be2c89b69c2b068fc378daa952ba7f163c4a11628f55a4df523b3ef9181900360200190a350505050565b612053826001600160a01b03166121ff565b6120a4576040805162461bcd60e51b815260206004820152601f60248201527f5361666545524332303a2063616c6c20746f206e6f6e2d636f6e747261637400604482015290519081900360640190fd5b60006060836001600160a01b0316836040518082805190602001908083835b602083106120e25780518252601f1990920191602091820191016120c3565b6001836020036101000a0380198251168184511680821785525050505050509050019150506000604051808303816000865af19150503d8060008114612144576040519150601f19603f3d011682016040523d82523d6000602084013e612149565b606091505b5091509150816121a0576040805162461bcd60e51b815260206004820181905260248201527f5361666545524332303a206c6f772d6c6576656c2063616c6c206661696c6564604482015290519081900360640190fd5b8051156121f9578080602001905160208110156121bc57600080fd5b50516121f95760405162461bcd60e51b815260040180806020018281038252602a8152602001806123a5602a913960400191505060405180910390fd5b50505050565b6000813f7fc5d2460186f7233c927e7db2dcc703c0e500b653ca82273b7bfad8045d85a4708181148015906106d257505015159291505056fe43616e6e6f74206e6f746966792077697468206d6f7265207468616e2061206d696c6c696f6e20756e69747345524332303a207472616e7366657220746f20746865207a65726f206164647265737345524332303a206275726e20616d6f756e7420657863656564732062616c616e636545524332303a20617070726f766520746f20746865207a65726f206164647265737345524332303a207472616e7366657220616d6f756e7420657863656564732062616c616e6365536166654d6174683a206d756c7469706c69636174696f6e206f766572666c6f7745524332303a207472616e7366657220616d6f756e74206578636565647320616c6c6f77616e636545524332303a206275726e2066726f6d20746865207a65726f206164647265737345524332303a207472616e736665722066726f6d20746865207a65726f206164647265737345524332303a20617070726f76652066726f6d20746865207a65726f20616464726573735361666545524332303a204552433230206f7065726174696f6e20646964206e6f74207375636365656445524332303a2064656372656173656420616c6c6f77616e63652062656c6f77207a65726fa265627a7a72315820e2abcbc1af9c7c44ace2b1631fe76a63e50ebc099a315d6859437e9dd96365b564736f6c63430005100032",
  "linkReferences": {},
  "deployedLinkReferences": {}
}