{
  "_format": "hh-sol-artifact-1",
  "contractName": "SavingsManager",
  "sourceName": "contracts/savings/SavingsManager.sol",
  "abi": [
    {
      "inputs": [
        {
          "internalType": "address",
          "name": "_nexus",
          "type": "address"
        },
        {
          "internalType": "address",
          "name": "_mUSD",
          "type": "address"
        },
        {
          "internalType": "address",
          "name": "_savingsContract",
          "type": "address"
        }
      ],
      "payable": false,
      "stateMutability": "nonpayable",
      "type": "constructor"
    },
    {
      "anonymous": false,
      "inputs": [
        {
          "indexed": true,
          "internalType": "address",
          "name": "mAsset",
          "type": "address"
        },
        {
          "indexed": false,
          "internalType": "uint256",
          "name": "interest",
          "type": "uint256"
        },
        {
          "indexed": false,
          "internalType": "uint256",
          "name": "newTotalSupply",
          "type": "uint256"
        },
        {
          "indexed": false,
          "internalType": "uint256",
          "name": "apy",
          "type": "uint256"
        }
      ],
      "name": "InterestCollected",
      "type": "event"
    },
    {
      "anonymous": false,
      "inputs": [
        {
          "indexed": true,
          "internalType": "address",
          "name": "mAsset",
          "type": "address"
        },
        {
          "indexed": false,
          "internalType": "uint256",
          "name": "amountSent",
          "type": "uint256"
        }
      ],
      "name": "InterestDistributed",
      "type": "event"
    },
    {
      "anonymous": false,
      "inputs": [
        {
          "indexed": true,
          "internalType": "address",
          "name": "mAsset",
          "type": "address"
        },
        {
          "indexed": false,
          "internalType": "uint256",
          "name": "amount",
          "type": "uint256"
        }
      ],
      "name": "LiquidatorDeposited",
      "type": "event"
    },
    {
      "anonymous": false,
      "inputs": [
        {
          "indexed": false,
          "internalType": "address",
          "name": "account",
          "type": "address"
        }
      ],
      "name": "Paused",
      "type": "event"
    },
    {
      "anonymous": false,
      "inputs": [
        {
          "indexed": true,
          "internalType": "address",
          "name": "mAsset",
          "type": "address"
        },
        {
          "indexed": false,
          "internalType": "address",
          "name": "recipient",
          "type": "address"
        }
      ],
      "name": "RevenueRecipientSet",
      "type": "event"
    },
    {
      "anonymous": false,
      "inputs": [
        {
          "indexed": true,
          "internalType": "address",
          "name": "mAsset",
          "type": "address"
        },
        {
          "indexed": false,
          "internalType": "address",
          "name": "recipient",
          "type": "address"
        },
        {
          "indexed": false,
          "internalType": "uint256",
          "name": "amount",
          "type": "uint256"
        }
      ],
      "name": "RevenueRedistributed",
      "type": "event"
    },
    {
      "anonymous": false,
      "inputs": [
        {
          "indexed": true,
          "internalType": "address",
          "name": "mAsset",
          "type": "address"
        },
        {
          "indexed": false,
          "internalType": "address",
          "name": "savingsContract",
          "type": "address"
        }
      ],
      "name": "SavingsContractAdded",
      "type": "event"
    },
    {
      "anonymous": false,
      "inputs": [
        {
          "indexed": true,
          "internalType": "address",
          "name": "mAsset",
          "type": "address"
        },
        {
          "indexed": false,
          "internalType": "address",
          "name": "savingsContract",
          "type": "address"
        }
      ],
      "name": "SavingsContractUpdated",
      "type": "event"
    },
    {
      "anonymous": false,
      "inputs": [
        {
          "indexed": false,
          "internalType": "uint256",
          "name": "newSavingsRate",
          "type": "uint256"
        }
      ],
      "name": "SavingsRateChanged",
      "type": "event"
    },
    {
      "anonymous": false,
      "inputs": [],
      "name": "StreamsFrozen",
      "type": "event"
    },
    {
      "anonymous": false,
      "inputs": [
        {
          "indexed": false,
          "internalType": "address",
          "name": "account",
          "type": "address"
        }
      ],
      "name": "Unpaused",
      "type": "event"
    },
    {
      "constant": false,
      "inputs": [
        {
          "internalType": "address",
          "name": "_mAsset",
          "type": "address"
        },
        {
          "internalType": "address",
          "name": "_savingsContract",
          "type": "address"
        }
      ],
      "name": "addSavingsContract",
      "outputs": [],
      "payable": false,
      "stateMutability": "nonpayable",
      "type": "function"
    },
    {
      "constant": false,
      "inputs": [
        {
          "internalType": "address",
          "name": "_mAsset",
          "type": "address"
        }
      ],
      "name": "collectAndDistributeInterest",
      "outputs": [],
      "payable": false,
      "stateMutability": "nonpayable",
      "type": "function"
    },
    {
      "constant": false,
      "inputs": [
        {
          "internalType": "address",
          "name": "_mAsset",
          "type": "address"
        }
      ],
      "name": "collectAndStreamInterest",
      "outputs": [],
      "payable": false,
      "stateMutability": "nonpayable",
      "type": "function"
    },
    {
      "constant": false,
      "inputs": [
        {
          "internalType": "address",
          "name": "_mAsset",
          "type": "address"
        },
        {
          "internalType": "uint256",
          "name": "_liquidated",
          "type": "uint256"
        }
      ],
      "name": "depositLiquidation",
      "outputs": [],
      "payable": false,
      "stateMutability": "nonpayable",
      "type": "function"
    },
    {
      "constant": false,
      "inputs": [
        {
          "internalType": "address",
          "name": "_mAsset",
          "type": "address"
        }
      ],
      "name": "distributeUnallocatedInterest",
      "outputs": [],
      "payable": false,
      "stateMutability": "nonpayable",
      "type": "function"
    },
    {
      "constant": false,
      "inputs": [],
      "name": "freezeStreams",
      "outputs": [],
      "payable": false,
      "stateMutability": "nonpayable",
      "type": "function"
    },
    {
      "constant": true,
      "inputs": [
        {
          "internalType": "address",
          "name": "",
          "type": "address"
        }
      ],
      "name": "lastBatchCollected",
      "outputs": [
        {
          "internalType": "uint256",
          "name": "",
          "type": "uint256"
        }
      ],
      "payable": false,
      "stateMutability": "view",
      "type": "function"
    },
    {
      "constant": true,
      "inputs": [
        {
          "internalType": "address",
          "name": "",
          "type": "address"
        }
      ],
      "name": "lastCollection",
      "outputs": [
        {
          "internalType": "uint256",
          "name": "",
          "type": "uint256"
        }
      ],
      "payable": false,
      "stateMutability": "view",
      "type": "function"
    },
    {
      "constant": true,
      "inputs": [
        {
          "internalType": "address",
          "name": "",
          "type": "address"
        }
      ],
      "name": "lastPeriodStart",
      "outputs": [
        {
          "internalType": "uint256",
          "name": "",
          "type": "uint256"
        }
      ],
      "payable": false,
      "stateMutability": "view",
      "type": "function"
    },
    {
      "constant": true,
      "inputs": [],
      "name": "nexus",
      "outputs": [
        {
          "internalType": "contract INexus",
          "name": "",
          "type": "address"
        }
      ],
      "payable": false,
      "stateMutability": "view",
      "type": "function"
    },
    {
      "constant": false,
      "inputs": [],
      "name": "pause",
      "outputs": [],
      "payable": false,
      "stateMutability": "nonpayable",
      "type": "function"
    },
    {
      "constant": true,
      "inputs": [],
      "name": "paused",
      "outputs": [
        {
          "internalType": "bool",
          "name": "",
          "type": "bool"
        }
      ],
      "payable": false,
      "stateMutability": "view",
      "type": "function"
    },
    {
      "constant": true,
      "inputs": [
        {
          "internalType": "address",
          "name": "",
          "type": "address"
        }
      ],
      "name": "periodYield",
      "outputs": [
        {
          "internalType": "uint256",
          "name": "",
          "type": "uint256"
        }
      ],
      "payable": false,
      "stateMutability": "view",
      "type": "function"
    },
    {
      "constant": true,
      "inputs": [
        {
          "internalType": "address",
          "name": "",
          "type": "address"
        }
      ],
      "name": "revenueRecipients",
      "outputs": [
        {
          "internalType": "contract IRevenueRecipient",
          "name": "",
          "type": "address"
        }
      ],
      "payable": false,
      "stateMutability": "view",
      "type": "function"
    },
    {
      "constant": true,
      "inputs": [
        {
          "internalType": "address",
          "name": "",
          "type": "address"
        }
      ],
      "name": "savingsContracts",
      "outputs": [
        {
          "internalType": "contract ISavingsContractV1",
          "name": "",
          "type": "address"
        }
      ],
      "payable": false,
      "stateMutability": "view",
      "type": "function"
    },
    {
      "constant": false,
      "inputs": [
        {
          "internalType": "address",
          "name": "_mAsset",
          "type": "address"
        },
        {
          "internalType": "address",
          "name": "_recipient",
          "type": "address"
        }
      ],
      "name": "setRevenueRecipient",
      "outputs": [],
      "payable": false,
      "stateMutability": "nonpayable",
      "type": "function"
    },
    {
      "constant": false,
      "inputs": [
        {
          "internalType": "uint256",
          "name": "_savingsRate",
          "type": "uint256"
        }
      ],
      "name": "setSavingsRate",
      "outputs": [],
      "payable": false,
      "stateMutability": "nonpayable",
      "type": "function"
    },
    {
      "constant": true,
      "inputs": [
        {
          "internalType": "address",
          "name": "",
          "type": "address"
        }
      ],
      "name": "streamEnd",
      "outputs": [
        {
          "internalType": "uint256",
          "name": "",
          "type": "uint256"
        }
      ],
      "payable": false,
      "stateMutability": "view",
      "type": "function"
    },
    {
      "constant": true,
      "inputs": [
        {
          "internalType": "address",
          "name": "",
          "type": "address"
        }
      ],
      "name": "streamRate",
      "outputs": [
        {
          "internalType": "uint256",
          "name": "",
          "type": "uint256"
        }
      ],
      "payable": false,
      "stateMutability": "view",
      "type": "function"
    },
    {
      "constant": false,
      "inputs": [],
      "name": "unpause",
      "outputs": [],
      "payable": false,
      "stateMutability": "nonpayable",
      "type": "function"
    },
    {
      "constant": false,
      "inputs": [
        {
          "internalType": "address",
          "name": "_mAsset",
          "type": "address"
        },
        {
          "internalType": "address",
          "name": "_savingsContract",
          "type": "address"
        }
      ],
      "name": "updateSavingsContract",
      "outputs": [],
      "payable": false,
      "stateMutability": "nonpayable",
      "type": "function"
    }
  ],
  "bytecode": "0x60806040526000805460ff60a01b19169055670de0b6b3a76400006006556009805460ff191690553480156200003457600080fd5b50604051620029ca380380620029ca833981810160405260608110156200005a57600080fd5b508051602082015160409092015190919082806001600160a01b038116620000c9576040805162461bcd60e51b815260206004820152601560248201527f4e65787573206973207a65726f20616464726573730000000000000000000000604482015290519081900360640190fd5b600080546001600160a01b0319166001600160a01b03929092169190911760ff60a01b1916905550620000fd828262000147565b604080516001600160a01b0383811682529151918416917f508defc317fd15db2b6ef034d39cf1d5db588a037dbd3515824e4baec4228b6c9181900360200190a250505062000563565b6001600160a01b038216158015906200016857506001600160a01b03811615155b620001ba576040805162461bcd60e51b815260206004820152601560248201527f4d7573742062652076616c696420616464726573730000000000000000000000604482015290519081900360640190fd5b6001600160a01b038281166000818152600160209081526040822080546001600160a01b0319169486169490941790935562000202928491906200022d811b62001e4117901c565b6200022981600019846001600160a01b03166200022d60201b62001e41179092919060201c565b5050565b801580620002b7575060408051636eb1769f60e11b81523060048201526001600160a01b03848116602483015291519185169163dd62ed3e91604480820192602092909190829003018186803b1580156200028757600080fd5b505afa1580156200029c573d6000803e3d6000fd5b505050506040513d6020811015620002b357600080fd5b5051155b620002f45760405162461bcd60e51b8152600401808060200182810382526036815260200180620029946036913960400191505060405180910390fd5b604080516001600160a01b038416602482015260448082018490528251808303909101815260649091019091526020810180516001600160e01b0390811663095ea7b360e01b179091526200034c9185916200035116565b505050565b62000370826001600160a01b03166200052660201b620021e71760201c565b620003c2576040805162461bcd60e51b815260206004820152601f60248201527f5361666545524332303a2063616c6c20746f206e6f6e2d636f6e747261637400604482015290519081900360640190fd5b60006060836001600160a01b0316836040518082805190602001908083835b60208310620004025780518252601f199092019160209182019101620003e1565b6001836020036101000a0380198251168184511680821785525050505050509050019150506000604051808303816000865af19150503d806000811462000466576040519150601f19603f3d011682016040523d82523d6000602084013e6200046b565b606091505b509150915081620004c3576040805162461bcd60e51b815260206004820181905260248201527f5361666545524332303a206c6f772d6c6576656c2063616c6c206661696c6564604482015290519081900360640190fd5b8051156200052057808060200190516020811015620004e157600080fd5b5051620005205760405162461bcd60e51b815260040180806020018281038252602a8152602001806200296a602a913960400191505060405180910390fd5b50505050565b6000813f7fc5d2460186f7233c927e7db2dcc703c0e500b653ca82273b7bfad8045d85a4708181148015906200055b57508115155b949350505050565b6123f780620005736000396000f3fe608060405234801561001057600080fd5b50600436106101375760003560e01c80637a3a0fe8116100b8578063ac431d7a1161007c578063ac431d7a1461034f578063b75d760714610375578063ca2bdfe61461039b578063d176d5f7146103c1578063d5368188146103e7578063e81441921461041557610137565b80637a3a0fe8146102cd5780638456cb59146102f3578063882111fc146102fb5780639b5228de14610321578063a3f5c1d21461034757610137565b806340ed7333116100ff57806340ed7333146101ef5780634fa369c4146102315780635c975abb1461025d578063691ef66314610279578063717f2bc11461029f57610137565b806321aec84a1461013c5780633022dfeb1461016457806333bda1f7146101925780633be22149146101ca5780633f4ba83a146101e7575b600080fd5b6101626004803603602081101561015257600080fd5b50356001600160a01b031661041d565b005b6101626004803603604081101561017a57600080fd5b506001600160a01b03813581169160200135166106fb565b6101b8600480360360208110156101a857600080fd5b50356001600160a01b0316610812565b60408051918252519081900360200190f35b610162600480360360208110156101e057600080fd5b5035610824565b610162610922565b6102156004803603602081101561020557600080fd5b50356001600160a01b0316610a14565b604080516001600160a01b039092168252519081900360200190f35b6101626004803603604081101561024757600080fd5b506001600160a01b038135169060200135610a2f565b610265610bd7565b604080519115158252519081900360200190f35b6101b86004803603602081101561028f57600080fd5b50356001600160a01b0316610be7565b610162600480360360408110156102b557600080fd5b506001600160a01b0381358116916020013516610bf9565b6101b8600480360360208110156102e357600080fd5b50356001600160a01b0316610d0f565b610162610d21565b6101b86004803603602081101561031157600080fd5b50356001600160a01b0316610e16565b6101b86004803603602081101561033757600080fd5b50356001600160a01b0316610e28565b610215610e3a565b6101626004803603602081101561036557600080fd5b50356001600160a01b0316610e49565b6102156004803603602081101561038b57600080fd5b50356001600160a01b031661116a565b610162600480360360208110156103b157600080fd5b50356001600160a01b0316611185565b6101b8600480360360208110156103d757600080fd5b50356001600160a01b03166115fe565b610162600480360360408110156103fd57600080fd5b506001600160a01b0381358116916020013516611610565b6101626116d4565b6104256117bf565b6001600160a01b0316336001600160a01b0316148061045c575061044761183f565b6001600160a01b0316336001600160a01b0316145b6104ad576040805162461bcd60e51b815260206004820152601b60248201527f4f6e6c7920676f7665726e616e63652063616e20657865637574650000000000604482015290519081900360640190fd5b6001600160a01b03808216600090815260026020526040902054168061051a576040805162461bcd60e51b815260206004820152601960248201527f4d75737420686176652076616c696420726563697069656e7400000000000000604482015290519081900360640190fd5b604080516370a0823160e01b8152306004820152905183916000916001600160a01b038416916370a08231916024808301926020929190829003018186803b15801561056557600080fd5b505afa158015610579573d6000803e3d6000fd5b505050506040513d602081101561058f57600080fd5b50519050600061059e856118ab565b905060006105b2838363ffffffff61192216565b9050836001600160a01b031663095ea7b386836040518363ffffffff1660e01b815260040180836001600160a01b03166001600160a01b0316815260200182815260200192505050602060405180830381600087803b15801561061457600080fd5b505af1158015610628573d6000803e3d6000fd5b505050506040513d602081101561063e57600080fd5b50506040805163383680c360e11b81526001600160a01b0388811660048301526024820184905291519187169163706d01869160448082019260009290919082900301818387803b15801561069257600080fd5b505af11580156106a6573d6000803e3d6000fd5b5050604080516001600160a01b038981168252602082018690528251908b1694507f25f038afe3b508b51eefbd7cb74df863b1f311ff2e404467a4223bdb353dcce493509081900390910190a2505050505050565b6107036117bf565b6001600160a01b0316336001600160a01b031614610756576040805162461bcd60e51b815260206004820152601960248201526000805160206122f5833981519152604482015290519081900360640190fd5b6001600160a01b0382811660009081526001602052604090205416156107c3576040805162461bcd60e51b815260206004820152601f60248201527f536176696e677320636f6e747261637420616c72656164792065786973747300604482015290519081900360640190fd5b6107cd828261196d565b604080516001600160a01b0383811682529151918416917f508defc317fd15db2b6ef034d39cf1d5db588a037dbd3515824e4baec4228b6c9181900360200190a25050565b600a6020526000908152604090205481565b61082c6117bf565b6001600160a01b0316336001600160a01b03161461087f576040805162461bcd60e51b815260206004820152601960248201526000805160206122f5833981519152604482015290519081900360640190fd5b670853a0d2313c0000811015801561089f5750670de0b6b3a76400008111155b6108e7576040805162461bcd60e51b81526020600482015260146024820152734d75737420626520612076616c6964207261746560601b604482015290519081900360640190fd5b60068190556040805182815290517faedfe3437b11d6c786a86e8c27ef98816e4fd031ee0613a4e5132ae857065e479181900360200190a150565b61092a6117bf565b6001600160a01b0316336001600160a01b03161461097d576040805162461bcd60e51b815260206004820152601960248201526000805160206122f5833981519152604482015290519081900360640190fd5b600054600160a01b900460ff166109d2576040805162461bcd60e51b815260206004820152601460248201527314185d5cd8589b194e881b9bdd081c185d5cd95960621b604482015290519081900360640190fd5b6000805460ff60a01b191690556040805133815290517f5db9ee0a495bf2e6ff9c91a7834c1ba4fdd244a5e8aa4e537bd38aeae4b073aa9181900360200190a1565b6002602052600090815260409020546001600160a01b031681565b600054600160a01b900460ff1615610a81576040805162461bcd60e51b815260206004820152601060248201526f14185d5cd8589b194e881c185d5cd95960821b604482015290519081900360640190fd5b610a89611a30565b6001600160a01b0316336001600160a01b031614610aee576040805162461bcd60e51b815260206004820152601b60248201527f4f6e6c79206c697175696461746f722063616e20657865637574650000000000604482015290519081900360640190fd5b60095460ff1615610b46576040805162461bcd60e51b815260206004820152601d60248201527f53747265616d696e672069732063757272656e746c792066726f7a656e000000604482015290519081900360640190fd5b610b69610b51611a30565b6001600160a01b03841690308463ffffffff611a9c16565b6000610b74836118ab565b9050610b9383610b8a848463ffffffff611afc16565b62093a80611b56565b6040805183815290516001600160a01b038516917f2031d123851984662d738ba6c766d26c120f8030f44ee35ab4ba0a784f7c71a7919081900360200190a2505050565b600054600160a01b900460ff1690565b60036020526000908152604090205481565b610c016117bf565b6001600160a01b0316336001600160a01b031614610c54576040805162461bcd60e51b815260206004820152601960248201526000805160206122f5833981519152604482015290519081900360640190fd5b6001600160a01b0382811660009081526001602052604090205416610cc0576040805162461bcd60e51b815260206004820152601f60248201527f536176696e677320636f6e747261637420646f6573206e6f7420657869737400604482015290519081900360640190fd5b610cca828261196d565b604080516001600160a01b0383811682529151918416917fa1f7f49e41e6da12e99cafaf80f4fd0a1a5dbd92eca85369d5597a1c140b5eab9181900360200190a25050565b60086020526000908152604090205481565b610d296117bf565b6001600160a01b0316336001600160a01b031614610d7c576040805162461bcd60e51b815260206004820152601960248201526000805160206122f5833981519152604482015290519081900360640190fd5b600054600160a01b900460ff1615610dce576040805162461bcd60e51b815260206004820152601060248201526f14185d5cd8589b194e881c185d5cd95960821b604482015290519081900360640190fd5b6000805460ff60a01b1916600160a01b1790556040805133815290517f62e78cea01bee320cd4e420270b5ea74000d11b0c9f74754ebdbfc544b05a2589181900360200190a1565b60056020526000908152604090205481565b60076020526000908152604090205481565b6000546001600160a01b031681565b600054600160a01b900460ff1615610e9b576040805162461bcd60e51b815260206004820152601060248201526f14185d5cd8589b194e881c185d5cd95960821b604482015290519081900360640190fd5b60095460ff1615610ef3576040805162461bcd60e51b815260206004820152601d60248201527f53747265616d696e672069732063757272656e746c792066726f7a656e000000604482015290519081900360640190fd5b6001600160a01b038082166000908152600160205260409020541680610f4a5760405162461bcd60e51b81526004018080602001828103825260228152602001806122d36022913960400191505060405180910390fd5b6001600160a01b0382166000908152600a60205260408120544291610f75838363ffffffff61192216565b905061a8c08111610fcd576040805162461bcd60e51b815260206004820181905260248201527f43616e6e6f74206465706f73697420747769636520696e20313220686f757273604482015290519081900360640190fd5b6001600160a01b0385166000818152600a60205260408082208690558051633f4480f560e11b81528151899484939092637e8901ea926004808301939282900301818787803b15801561101f57600080fd5b505af1158015611033573d6000803e3d6000fd5b505050506040513d604081101561104957600080fd5b5080516020909101519092509050811561112657600061106a828487611bd5565b905060006110778a6118ab565b6001600160a01b038b166000908152600760205260408120549192508982116110a15760006110b1565b6110b1828b63ffffffff61192216565b905060006201518082106110c557816110ca565b620151805b90506110e68d6110e0898763ffffffff611afc16565b83611b56565b604080518881526020810188905280820187905290516001600160a01b038f1691600080516020612286833981519152919081900360600190a250505050505b604080518381526020810183905260008183015290516001600160a01b038a1691600080516020612286833981519152919081900360600190a25050505050505050565b6001602052600090815260409020546001600160a01b031681565b600054600160a01b900460ff16156111d7576040805162461bcd60e51b815260206004820152601060248201526f14185d5cd8589b194e881c185d5cd95960821b604482015290519081900360640190fd5b6001600160a01b03808216600090815260016020526040902054168061122e5760405162461bcd60e51b81526004018080602001828103825260228152602001806122d36022913960400191505060405180910390fd5b6001600160a01b0382166000818152600360209081526040808320546004928390528184208054429091558251631517d59160e11b8152835192969195899590948594632a2fab2293808401939082900301818787803b15801561129157600080fd5b505af11580156112a5573d6000803e3d6000fd5b505050506040513d60408110156112bb57600080fd5b508051602090910151909250905060006112e560016112e0428963ffffffff61192216565b611ccc565b905060006112fe60016112e0428963ffffffff61192216565b905083610708821115611336576001600160a01b038a16600090815260036020908152604080832042905560059091528120556113b4565b61070883111561136d576001600160a01b038a1660009081526003602090815260408083208a9055600590915290208590556113b4565b6001600160a01b038a16600090815260056020526040902054611396908663ffffffff611afc16565b6001600160a01b038b16600090815260056020526040902081905590505b60006113c08b89611ce2565b905060008611806113d15750600081115b156115b6576113e6868263ffffffff611afc16565b604080516370a0823160e01b815230600482015290516001600160a01b038e16916370a08231916024808301926020929190829003018186803b15801561142c57600080fd5b505afa158015611440573d6000803e3d6000fd5b505050506040513d602081101561145657600080fd5b5051101561149f576040805162461bcd60e51b8152602060048201526011602482015270135d5cdd081c9958d95a5d99481b5554d1607a1b604482015290519081900360640190fd5b60006114ac868486611bd5565b604080518981526020810189905280820183905290519192506001600160a01b038e16916000805160206122868339815191529181900360600190a260065460009061150e906115028a8663ffffffff611afc16565b9063ffffffff611d3c16565b90508b6001600160a01b031663220c5bbb826040518263ffffffff1660e01b815260040180828152602001915050600060405180830381600087803b15801561155657600080fd5b505af115801561156a573d6000803e3d6000fd5b505050508c6001600160a01b03167fffbd5470d1efa00ab4b8be8ae04ba319ee7926ffe943a91b8af15bea044ceaf3826040518082815260200191505060405180910390a250506115f1565b604080516000808252602082018890528183015290516001600160a01b038d1691600080516020612286833981519152919081900360600190a25b5050505050505050505050565b60046020526000908152604090205481565b6116186117bf565b6001600160a01b0316336001600160a01b03161461166b576040805162461bcd60e51b815260206004820152601960248201526000805160206122f5833981519152604482015290519081900360640190fd5b6001600160a01b0382811660008181526002602090815260409182902080546001600160a01b03191694861694851790558151938452905191927f8fca8811c9f2b99f3c43f36b80aedd3efebd97855e8fbb620f427806b0d257b1929081900390910190a25050565b6116dc6117bf565b6001600160a01b0316336001600160a01b03161461172f576040805162461bcd60e51b815260206004820152601960248201526000805160206122f5833981519152604482015290519081900360640190fd5b60095460ff1615611787576040805162461bcd60e51b815260206004820152601d60248201527f53747265616d696e672069732063757272656e746c792066726f7a656e000000604482015290519081900360640190fd5b6009805460ff191660011790556040517fd91af312a230e76188294986220b0a066629d876bbbbc3b060d59499e6f750bf90600090a1565b60008060009054906101000a90046001600160a01b03166001600160a01b0316630c340a246040518163ffffffff1660e01b815260040160206040518083038186803b15801561180e57600080fd5b505afa158015611822573d6000803e3d6000fd5b505050506040513d602081101561183857600080fd5b5051905090565b60008054604080516385acd64160e01b81527f9409903de1e6fd852dfc61c9dacb48196c48535b60e25abf92acc92dd689078d600482015290516001600160a01b03909216916385acd64191602480820192602092909190829003018186803b15801561180e57600080fd5b6001600160a01b038116600090815260076020908152604080832054600490925282205442919083828210156118ee576118eb838363ffffffff61192216565b90505b6001600160a01b03861660009081526008602052604090205461191890829063ffffffff611d5116565b9695505050505050565b600061196483836040518060400160405280601e81526020017f536166654d6174683a207375627472616374696f6e206f766572666c6f770000815250611daa565b90505b92915050565b6001600160a01b0382161580159061198d57506001600160a01b03811615155b6119d6576040805162461bcd60e51b81526020600482015260156024820152744d7573742062652076616c6964206164647265737360581b604482015290519081900360640190fd5b6001600160a01b03828116600081815260016020526040812080546001600160a01b03191693851693909317909255611a10918390611e41565b611a2c6001600160a01b0383168260001963ffffffff611e4116565b5050565b60008054604080516385acd64160e01b81527f1e9cb14d7560734a61fa5ff9273953e971ff3cd9283c03d8346e3264617933d4600482015290516001600160a01b03909216916385acd64191602480820192602092909190829003018186803b15801561180e57600080fd5b604080516001600160a01b0385811660248301528416604482015260648082018490528251808303909101815260849091019091526020810180516001600160e01b03166323b872dd60e01b179052611af6908590611f59565b50505050565b600082820183811015611964576040805162461bcd60e51b815260206004820152601b60248201527f536166654d6174683a206164646974696f6e206f766572666c6f770000000000604482015290519081900360640190fd5b42611b67838363ffffffff61211116565b6001600160a01b038516600090815260086020526040902055611b90818363ffffffff611afc16565b6001600160a01b039094166000908152600760209081526040808320969096556003815285822083905560048152858220929092556005909152928320929092555050565b600080611be8858563ffffffff61192216565b90506000611bfc858363ffffffff61215316565b90506000611c14856301e1338063ffffffff61215316565b9050611c26828263ffffffff61215316565b9350610708851115611c7d5767d02ab486cedc00008410611c785760405162461bcd60e51b815260040180806020018281038252602d815260200180612336602d913960400191505060405180910390fd5b611cc2565b66038d7ea4c680008210611cc25760405162461bcd60e51b815260040180806020018281038252602d8152602001806122a6602d913960400191505060405180910390fd5b5050509392505050565b6000818311611cdb5781611964565b5090919050565b6001600160a01b03821660009081526007602052604081205481611d068483612188565b6001600160a01b038616600090815260086020526040902054909150611d3390829063ffffffff611d5116565b95945050505050565b60006119648383670de0b6b3a76400006121c2565b600082611d6057506000611967565b82820282848281611d6d57fe5b04146119645760405162461bcd60e51b81526004018080602001828103825260218152602001806123156021913960400191505060405180910390fd5b60008184841115611e395760405162461bcd60e51b81526004018080602001828103825283818151815260200191508051906020019080838360005b83811015611dfe578181015183820152602001611de6565b50505050905090810190601f168015611e2b5780820380516001836020036101000a031916815260200191505b509250505060405180910390fd5b505050900390565b801580611ec7575060408051636eb1769f60e11b81523060048201526001600160a01b03848116602483015291519185169163dd62ed3e91604480820192602092909190829003018186803b158015611e9957600080fd5b505afa158015611ead573d6000803e3d6000fd5b505050506040513d6020811015611ec357600080fd5b5051155b611f025760405162461bcd60e51b815260040180806020018281038252603681526020018061238d6036913960400191505060405180910390fd5b604080516001600160a01b038416602482015260448082018490528251808303909101815260649091019091526020810180516001600160e01b031663095ea7b360e01b179052611f54908490611f59565b505050565b611f6b826001600160a01b03166121e7565b611fbc576040805162461bcd60e51b815260206004820152601f60248201527f5361666545524332303a2063616c6c20746f206e6f6e2d636f6e747261637400604482015290519081900360640190fd5b60006060836001600160a01b0316836040518082805190602001908083835b60208310611ffa5780518252601f199092019160209182019101611fdb565b6001836020036101000a0380198251168184511680821785525050505050509050019150506000604051808303816000865af19150503d806000811461205c576040519150601f19603f3d011682016040523d82523d6000602084013e612061565b606091505b5091509150816120b8576040805162461bcd60e51b815260206004820181905260248201527f5361666545524332303a206c6f772d6c6576656c2063616c6c206661696c6564604482015290519081900360640190fd5b805115611af6578080602001905160208110156120d457600080fd5b5051611af65760405162461bcd60e51b815260040180806020018281038252602a815260200180612363602a913960400191505060405180910390fd5b600061196483836040518060400160405280601a81526020017f536166654d6174683a206469766973696f6e206279207a65726f000000000000815250612220565b60008061216e84670de0b6b3a764000063ffffffff611d5116565b9050612180818463ffffffff61211116565b949350505050565b600042818382116121aa576121a3828663ffffffff61192216565b9050612180565b8385101561218057611d33848663ffffffff61192216565b6000806121d5858563ffffffff611d5116565b9050611d33818463ffffffff61211116565b6000813f7fc5d2460186f7233c927e7db2dcc703c0e500b653ca82273b7bfad8045d85a470818114801590612180575050151592915050565b6000818361226f5760405162461bcd60e51b8152602060048201818152835160248401528351909283926044909101919085019080838360008315611dfe578181015183820152602001611de6565b50600083858161227b57fe5b049594505050505056fe0abcfa9ece819bcdcfa052a818ce11f0b9fad8b3e3ccd98f120c40be689b690f496e7465726573742070726f7465637465642066726f6d20696e666c6174696e672070617374203130204270734d757374206861766520612076616c696420736176696e677320636f6e74726163744f6e6c7920676f7665726e6f722063616e206578656375746500000000000000536166654d6174683a206d756c7469706c69636174696f6e206f766572666c6f77496e7465726573742070726f7465637465642066726f6d20696e666c6174696e672070617374206d61784150595361666545524332303a204552433230206f7065726174696f6e20646964206e6f7420737563636565645361666545524332303a20617070726f76652066726f6d206e6f6e2d7a65726f20746f206e6f6e2d7a65726f20616c6c6f77616e6365a265627a7a723158204bb3a4641d970da078531087c20f2ec1ad3c925893f5300348af7036d2df10b764736f6c634300051000325361666545524332303a204552433230206f7065726174696f6e20646964206e6f7420737563636565645361666545524332303a20617070726f76652066726f6d206e6f6e2d7a65726f20746f206e6f6e2d7a65726f20616c6c6f77616e6365",
  "linkReferences": {},
  "deployedLinkReferences": {}
}