{
  "_format": "hh-sol-artifact-1",
  "contractName": "SavingsContract",
  "sourceName": "contracts/savings/SavingsContract.sol",
  "abi": [
    {
      "anonymous": false,
      "inputs": [
        {
          "indexed": true,
          "internalType": "address",
          "name": "owner",
          "type": "address"
        },
        {
          "indexed": true,
          "internalType": "address",
          "name": "spender",
          "type": "address"
        },
        {
          "indexed": false,
          "internalType": "uint256",
          "name": "value",
          "type": "uint256"
        }
      ],
      "name": "Approval",
      "type": "event"
    },
    {
      "anonymous": false,
      "inputs": [
        {
          "indexed": false,
          "internalType": "bool",
          "name": "automationEnabled",
          "type": "bool"
        }
      ],
      "name": "AutomaticInterestCollectionSwitched",
      "type": "event"
    },
    {
      "anonymous": false,
      "inputs": [
        {
          "indexed": true,
          "internalType": "address",
          "name": "redeemer",
          "type": "address"
        },
        {
          "indexed": false,
          "internalType": "uint256",
          "name": "creditsRedeemed",
          "type": "uint256"
        },
        {
          "indexed": false,
          "internalType": "uint256",
          "name": "savingsCredited",
          "type": "uint256"
        }
      ],
      "name": "CreditsRedeemed",
      "type": "event"
    },
    {
      "anonymous": false,
      "inputs": [
        {
          "indexed": false,
          "internalType": "uint256",
          "name": "newExchangeRate",
          "type": "uint256"
        },
        {
          "indexed": false,
          "internalType": "uint256",
          "name": "interestCollected",
          "type": "uint256"
        }
      ],
      "name": "ExchangeRateUpdated",
      "type": "event"
    },
    {
      "anonymous": false,
      "inputs": [
        {
          "indexed": false,
          "internalType": "uint256",
          "name": "fraction",
          "type": "uint256"
        }
      ],
      "name": "FractionUpdated",
      "type": "event"
    },
    {
      "anonymous": false,
      "inputs": [
        {
          "indexed": false,
          "internalType": "uint256",
          "name": "oldBalance",
          "type": "uint256"
        },
        {
          "indexed": false,
          "internalType": "uint256",
          "name": "newBalance",
          "type": "uint256"
        },
        {
          "indexed": false,
          "internalType": "uint256",
          "name": "interestDetected",
          "type": "uint256"
        }
      ],
      "name": "Poked",
      "type": "event"
    },
    {
      "anonymous": false,
      "inputs": [
        {
          "indexed": false,
          "internalType": "address",
          "name": "poker",
          "type": "address"
        }
      ],
      "name": "PokerUpdated",
      "type": "event"
    },
    {
      "anonymous": false,
      "inputs": [
        {
          "indexed": true,
          "internalType": "address",
          "name": "saver",
          "type": "address"
        },
        {
          "indexed": false,
          "internalType": "uint256",
          "name": "savingsDeposited",
          "type": "uint256"
        },
        {
          "indexed": false,
          "internalType": "uint256",
          "name": "creditsIssued",
          "type": "uint256"
        }
      ],
      "name": "SavingsDeposited",
      "type": "event"
    },
    {
      "anonymous": false,
      "inputs": [
        {
          "indexed": true,
          "internalType": "address",
          "name": "from",
          "type": "address"
        },
        {
          "indexed": true,
          "internalType": "address",
          "name": "to",
          "type": "address"
        },
        {
          "indexed": false,
          "internalType": "uint256",
          "name": "value",
          "type": "uint256"
        }
      ],
      "name": "Transfer",
      "type": "event"
    },
    {
      "constant": true,
      "inputs": [
        {
          "internalType": "address",
          "name": "owner",
          "type": "address"
        },
        {
          "internalType": "address",
          "name": "spender",
          "type": "address"
        }
      ],
      "name": "allowance",
      "outputs": [
        {
          "internalType": "uint256",
          "name": "",
          "type": "uint256"
        }
      ],
      "payable": false,
      "stateMutability": "view",
      "type": "function"
    },
    {
      "constant": false,
      "inputs": [
        {
          "internalType": "address",
          "name": "spender",
          "type": "address"
        },
        {
          "internalType": "uint256",
          "name": "amount",
          "type": "uint256"
        }
      ],
      "name": "approve",
      "outputs": [
        {
          "internalType": "bool",
          "name": "",
          "type": "bool"
        }
      ],
      "payable": false,
      "stateMutability": "nonpayable",
      "type": "function"
    },
    {
      "constant": false,
      "inputs": [
        {
          "internalType": "bool",
          "name": "_enabled",
          "type": "bool"
        }
      ],
      "name": "automateInterestCollectionFlag",
      "outputs": [],
      "payable": false,
      "stateMutability": "nonpayable",
      "type": "function"
    },
    {
      "constant": true,
      "inputs": [
        {
          "internalType": "address",
          "name": "account",
          "type": "address"
        }
      ],
      "name": "balanceOf",
      "outputs": [
        {
          "internalType": "uint256",
          "name": "",
          "type": "uint256"
        }
      ],
      "payable": false,
      "stateMutability": "view",
      "type": "function"
    },
    {
      "constant": true,
      "inputs": [
        {
          "internalType": "address",
          "name": "_user",
          "type": "address"
        }
      ],
      "name": "balanceOfUnderlying",
      "outputs": [
        {
          "internalType": "uint256",
          "name": "balance",
          "type": "uint256"
        }
      ],
      "payable": false,
      "stateMutability": "view",
      "type": "function"
    },
    {
      "constant": true,
      "inputs": [],
      "name": "connector",
      "outputs": [
        {
          "internalType": "contract IConnector",
          "name": "",
          "type": "address"
        }
      ],
      "payable": false,
      "stateMutability": "view",
      "type": "function"
    },
    {
      "constant": true,
      "inputs": [
        {
          "internalType": "address",
          "name": "_user",
          "type": "address"
        }
      ],
      "name": "creditBalances",
      "outputs": [
        {
          "internalType": "uint256",
          "name": "",
          "type": "uint256"
        }
      ],
      "payable": false,
      "stateMutability": "view",
      "type": "function"
    },
    {
      "constant": true,
      "inputs": [
        {
          "internalType": "uint256",
          "name": "_credits",
          "type": "uint256"
        }
      ],
      "name": "creditsToUnderlying",
      "outputs": [
        {
          "internalType": "uint256",
          "name": "amount",
          "type": "uint256"
        }
      ],
      "payable": false,
      "stateMutability": "view",
      "type": "function"
    },
    {
      "constant": true,
      "inputs": [],
      "name": "decimals",
      "outputs": [
        {
          "internalType": "uint8",
          "name": "",
          "type": "uint8"
        }
      ],
      "payable": false,
      "stateMutability": "view",
      "type": "function"
    },
    {
      "constant": false,
      "inputs": [
        {
          "internalType": "address",
          "name": "spender",
          "type": "address"
        },
        {
          "internalType": "uint256",
          "name": "subtractedValue",
          "type": "uint256"
        }
      ],
      "name": "decreaseAllowance",
      "outputs": [
        {
          "internalType": "bool",
          "name": "",
          "type": "bool"
        }
      ],
      "payable": false,
      "stateMutability": "nonpayable",
      "type": "function"
    },
    {
      "constant": false,
      "inputs": [
        {
          "internalType": "uint256",
          "name": "_amount",
          "type": "uint256"
        }
      ],
      "name": "depositInterest",
      "outputs": [],
      "payable": false,
      "stateMutability": "nonpayable",
      "type": "function"
    },
    {
      "constant": false,
      "inputs": [
        {
          "internalType": "uint256",
          "name": "_underlying",
          "type": "uint256"
        },
        {
          "internalType": "address",
          "name": "_beneficiary",
          "type": "address"
        }
      ],
      "name": "depositSavings",
      "outputs": [
        {
          "internalType": "uint256",
          "name": "creditsIssued",
          "type": "uint256"
        }
      ],
      "payable": false,
      "stateMutability": "nonpayable",
      "type": "function"
    },
    {
      "constant": false,
      "inputs": [
        {
          "internalType": "uint256",
          "name": "_underlying",
          "type": "uint256"
        }
      ],
      "name": "depositSavings",
      "outputs": [
        {
          "internalType": "uint256",
          "name": "creditsIssued",
          "type": "uint256"
        }
      ],
      "payable": false,
      "stateMutability": "nonpayable",
      "type": "function"
    },
    {
      "constant": false,
      "inputs": [
        {
          "internalType": "uint256",
          "name": "_withdrawAmount",
          "type": "uint256"
        }
      ],
      "name": "emergencyStop",
      "outputs": [],
      "payable": false,
      "stateMutability": "nonpayable",
      "type": "function"
    },
    {
      "constant": true,
      "inputs": [],
      "name": "exchangeRate",
      "outputs": [
        {
          "internalType": "uint256",
          "name": "",
          "type": "uint256"
        }
      ],
      "payable": false,
      "stateMutability": "view",
      "type": "function"
    },
    {
      "constant": true,
      "inputs": [],
      "name": "fraction",
      "outputs": [
        {
          "internalType": "uint256",
          "name": "",
          "type": "uint256"
        }
      ],
      "payable": false,
      "stateMutability": "view",
      "type": "function"
    },
    {
      "constant": false,
      "inputs": [
        {
          "internalType": "address",
          "name": "spender",
          "type": "address"
        },
        {
          "internalType": "uint256",
          "name": "addedValue",
          "type": "uint256"
        }
      ],
      "name": "increaseAllowance",
      "outputs": [
        {
          "internalType": "bool",
          "name": "",
          "type": "bool"
        }
      ],
      "payable": false,
      "stateMutability": "nonpayable",
      "type": "function"
    },
    {
      "constant": false,
      "inputs": [
        {
          "internalType": "address",
          "name": "_nexus",
          "type": "address"
        },
        {
          "internalType": "address",
          "name": "_poker",
          "type": "address"
        },
        {
          "internalType": "contract IERC20",
          "name": "_underlying",
          "type": "address"
        },
        {
          "internalType": "string",
          "name": "_nameArg",
          "type": "string"
        },
        {
          "internalType": "string",
          "name": "_symbolArg",
          "type": "string"
        }
      ],
      "name": "initialize",
      "outputs": [],
      "payable": false,
      "stateMutability": "nonpayable",
      "type": "function"
    },
    {
      "constant": true,
      "inputs": [],
      "name": "lastBalance",
      "outputs": [
        {
          "internalType": "uint256",
          "name": "",
          "type": "uint256"
        }
      ],
      "payable": false,
      "stateMutability": "view",
      "type": "function"
    },
    {
      "constant": true,
      "inputs": [],
      "name": "lastPoke",
      "outputs": [
        {
          "internalType": "uint256",
          "name": "",
          "type": "uint256"
        }
      ],
      "payable": false,
      "stateMutability": "view",
      "type": "function"
    },
    {
      "constant": true,
      "inputs": [],
      "name": "name",
      "outputs": [
        {
          "internalType": "string",
          "name": "",
          "type": "string"
        }
      ],
      "payable": false,
      "stateMutability": "view",
      "type": "function"
    },
    {
      "constant": true,
      "inputs": [],
      "name": "nexus",
      "outputs": [
        {
          "internalType": "contract INexus",
          "name": "",
          "type": "address"
        }
      ],
      "payable": false,
      "stateMutability": "view",
      "type": "function"
    },
    {
      "constant": false,
      "inputs": [],
      "name": "poke",
      "outputs": [],
      "payable": false,
      "stateMutability": "nonpayable",
      "type": "function"
    },
    {
      "constant": true,
      "inputs": [],
      "name": "poker",
      "outputs": [
        {
          "internalType": "address",
          "name": "",
          "type": "address"
        }
      ],
      "payable": false,
      "stateMutability": "view",
      "type": "function"
    },
    {
      "constant": false,
      "inputs": [
        {
          "internalType": "uint256",
          "name": "_credits",
          "type": "uint256"
        }
      ],
      "name": "redeem",
      "outputs": [
        {
          "internalType": "uint256",
          "name": "massetReturned",
          "type": "uint256"
        }
      ],
      "payable": false,
      "stateMutability": "nonpayable",
      "type": "function"
    },
    {
      "constant": false,
      "inputs": [
        {
          "internalType": "uint256",
          "name": "_credits",
          "type": "uint256"
        }
      ],
      "name": "redeemCredits",
      "outputs": [
        {
          "internalType": "uint256",
          "name": "massetReturned",
          "type": "uint256"
        }
      ],
      "payable": false,
      "stateMutability": "nonpayable",
      "type": "function"
    },
    {
      "constant": false,
      "inputs": [
        {
          "internalType": "uint256",
          "name": "_underlying",
          "type": "uint256"
        }
      ],
      "name": "redeemUnderlying",
      "outputs": [
        {
          "internalType": "uint256",
          "name": "creditsBurned",
          "type": "uint256"
        }
      ],
      "payable": false,
      "stateMutability": "nonpayable",
      "type": "function"
    },
    {
      "constant": false,
      "inputs": [],
      "name": "setConnector",
      "outputs": [],
      "payable": false,
      "stateMutability": "nonpayable",
      "type": "function"
    },
    {
      "constant": false,
      "inputs": [
        {
          "internalType": "uint256",
          "name": "_fraction",
          "type": "uint256"
        }
      ],
      "name": "setFraction",
      "outputs": [],
      "payable": false,
      "stateMutability": "nonpayable",
      "type": "function"
    },
    {
      "constant": false,
      "inputs": [
        {
          "internalType": "address",
          "name": "_newPoker",
          "type": "address"
        }
      ],
      "name": "setPoker",
      "outputs": [],
      "payable": false,
      "stateMutability": "nonpayable",
      "type": "function"
    },
    {
      "constant": true,
      "inputs": [],
      "name": "symbol",
      "outputs": [
        {
          "internalType": "string",
          "name": "",
          "type": "string"
        }
      ],
      "payable": false,
      "stateMutability": "view",
      "type": "function"
    },
    {
      "constant": true,
      "inputs": [],
      "name": "totalSupply",
      "outputs": [
        {
          "internalType": "uint256",
          "name": "",
          "type": "uint256"
        }
      ],
      "payable": false,
      "stateMutability": "view",
      "type": "function"
    },
    {
      "constant": false,
      "inputs": [
        {
          "internalType": "address",
          "name": "recipient",
          "type": "address"
        },
        {
          "internalType": "uint256",
          "name": "amount",
          "type": "uint256"
        }
      ],
      "name": "transfer",
      "outputs": [
        {
          "internalType": "bool",
          "name": "",
          "type": "bool"
        }
      ],
      "payable": false,
      "stateMutability": "nonpayable",
      "type": "function"
    },
    {
      "constant": false,
      "inputs": [
        {
          "internalType": "address",
          "name": "sender",
          "type": "address"
        },
        {
          "internalType": "address",
          "name": "recipient",
          "type": "address"
        },
        {
          "internalType": "uint256",
          "name": "amount",
          "type": "uint256"
        }
      ],
      "name": "transferFrom",
      "outputs": [
        {
          "internalType": "bool",
          "name": "",
          "type": "bool"
        }
      ],
      "payable": false,
      "stateMutability": "nonpayable",
      "type": "function"
    },
    {
      "constant": true,
      "inputs": [],
      "name": "underlying",
      "outputs": [
        {
          "internalType": "contract IERC20",
          "name": "",
          "type": "address"
        }
      ],
      "payable": false,
      "stateMutability": "view",
      "type": "function"
    },
    {
      "constant": true,
      "inputs": [
        {
          "internalType": "uint256",
          "name": "_underlying",
          "type": "uint256"
        }
      ],
      "name": "underlyingToCredits",
      "outputs": [
        {
          "internalType": "uint256",
          "name": "",
          "type": "uint256"
        }
      ],
      "payable": false,
      "stateMutability": "view",
      "type": "function"
    }
  ],
  "bytecode": "0x608060405267016345785d8a00006042556043805460ff60a01b1916600160a01b1790556128ee806100326000396000f3fe608060405234801561001057600080fd5b506004361061021c5760003560e01c80637781b05a11610125578063a7687f11116100ad578063cbe541731161007c578063cbe54173146106a7578063d8894bb5146106c6578063db006a75146106ce578063dd62ed3e146106eb578063f4430dd8146107195761021c565b8063a7687f1114610639578063a9059cbb14610656578063c4ec22ad14610682578063c9f18ebd1461068a5761021c565b80638f1c56bd116100f45780638f1c56bd146105d857806395d89b41146105e0578063a3f5c1d2146105e8578063a453b6cf146105f0578063a457c2d71461060d5761021c565b80637781b05a146104b357806383b43589146104d057806383f3084f146105b3578063852a12e3146105bb5761021c565b806339509351116101a85780634b6bdf1d116101775780634b6bdf1d1461040f578063590745c5146104335780636009a2d81461045f5780636f307dc31461048557806370a082311461048d5761021c565b806339509351146103985780633af9e669146103c45780633ba0b9a9146103ea57806343e38da8146103f25761021c565b8063182815b0116101ef578063182815b014610302578063220c5bbb1461031f57806323b872dd1461033c578063307ab17014610372578063313ce5671461037a5761021c565b806306fdde0314610221578063095ea7b31461029e57806318160ddd146102de57806318178358146102f8575b600080fd5b61022961073f565b6040805160208082528351818301528351919283929083019185019080838360005b8381101561026357818101518382015260200161024b565b50505050905090810190601f1680156102905780820380516001836020036101000a031916815260200191505b509250505060405180910390f35b6102ca600480360360408110156102b457600080fd5b506001600160a01b0381351690602001356107d6565b604080519115158252519081900360200190f35b6102e66107f4565b60408051918252519081900360200190f35b6103006107fa565b005b6103006004803603602081101561031857600080fd5b5035610b83565b6103006004803603602081101561033557600080fd5b5035610c76565b6102ca6004803603606081101561035257600080fd5b506001600160a01b03813581169160208101359091169060400135610e85565b610300610f12565b610382610f6f565b6040805160ff9092168252519081900360200190f35b6102ca600480360360408110156103ae57600080fd5b506001600160a01b038135169060200135610f78565b6102e6600480360360208110156103da57600080fd5b50356001600160a01b0316610fcc565b6102e6610fe1565b6102e66004803603602081101561040857600080fd5b5035610fe7565b610417610ffa565b604080516001600160a01b039092168252519081900360200190f35b6102e66004803603604081101561044957600080fd5b50803590602001356001600160a01b0316611009565b6102e66004803603602081101561047557600080fd5b50356001600160a01b031661101c565b610417611027565b6102e6600480360360208110156104a357600080fd5b50356001600160a01b0316611036565b6102e6600480360360208110156104c957600080fd5b5035611051565b610300600480360360a08110156104e657600080fd5b6001600160a01b038235811692602081013582169260408201359092169181019060808101606082013564010000000081111561052257600080fd5b82018360208201111561053457600080fd5b8035906020019184600183028401116401000000008311171561055657600080fd5b91939092909160208101903564010000000081111561057457600080fd5b82018360208201111561058657600080fd5b803590602001918460018302840111640100000000831117156105a857600080fd5b50909250905061105c565b610417611267565b6102e6600480360360208110156105d157600080fd5b5035611276565b6102e66113b6565b6102296113bc565b61041761141d565b6102e66004803603602081101561060657600080fd5b503561142c565b6102ca6004803603604081101561062357600080fd5b506001600160a01b038135169060200135611438565b6103006004803603602081101561064f57600080fd5b50356114a6565b6102ca6004803603604081101561066c57600080fd5b506001600160a01b038135169060200135611504565b6102e6611518565b6102e6600480360360208110156106a057600080fd5b503561151e565b610300600480360360208110156106bd57600080fd5b503515156115f9565b6102e66116a7565b6102e6600480360360208110156106e457600080fd5b50356116ad565b6102e66004803603604081101561070157600080fd5b506001600160a01b038135811691602001351661178f565b6103006004803603602081101561072f57600080fd5b50356001600160a01b03166117ba565b60368054604080516020601f60026000196101006001881615020190951694909404938401819004810282018101909252828152606093909290918301828280156107cb5780601f106107a0576101008083540402835291602001916107cb565b820191906000526020600020905b8154815290600101906020018083116107ae57829003601f168201915b505050505090505b90565b60006107ea6107e36118d0565b84846118d4565b5060015b92915050565b60355490565b6044546001600160a01b03163314610852576040805162461bcd60e51b81526020600482015260166024820152754f6e6c7920706f6b65722063616e206578656375746560501b604482015290519081900360640190fd5b604554429060009061086b90839063ffffffff6119c016565b905061384081116108c3576040805162461bcd60e51b815260206004820152601760248201527f4e6f7420656e6f7567682074696d6520656c6170736564000000000000000000604482015290519081900360640190fd5b60458290556048546040805163c71daccb60e01b815290516000926001600160a01b03169163c71daccb916004808301926020929190829003018186803b15801561090d57600080fd5b505afa158015610921573d6000803e3d6000fd5b505050506040513d602081101561093757600080fd5b505160465490915081156109a6578082101561098a576040805162461bcd60e51b815260206004820152600d60248201526c125b9d985b1a59081e5a595b19609a1b604482015290519081900360640190fd5b6109a48261099e818463ffffffff6119c016565b85611a02565b505b6046829055604354604080516370a0823160e01b815230600482015290516000926001600160a01b0316916370a08231916024808301926020929190829003018186803b1580156109f657600080fd5b505afa158015610a0a573d6000803e3d6000fd5b505050506040513d6020811015610a2057600080fd5b505190506000610a36828563ffffffff611aa516565b90506000610a4f60475483611aff90919063ffffffff16565b905084811115610acd576048546001600160a01b031663b6b55f25610a7a838863ffffffff6119c016565b6040518263ffffffff1660e01b815260040180828152602001915050600060405180830381600087803b158015610ab057600080fd5b505af1158015610ac4573d6000803e3d6000fd5b50505050610b3d565b6048546001600160a01b0316632e1a7d4d610aee878463ffffffff6119c016565b6040518263ffffffff1660e01b815260040180828152602001915050600060405180830381600087803b158015610b2457600080fd5b505af1158015610b38573d6000803e3d6000fd5b505050505b600080610b50610b4b6107f4565b611b14565b9150915081841115610b7857610b74610b676107f4565b859063ffffffff611b3116565b6042555b505050505050505050565b610b8b611b66565b6001600160a01b0316336001600160a01b031614610bde576040805162461bcd60e51b81526020600482015260196024820152600080516020612767833981519152604482015290519081900360640190fd5b6706f05b59d3b20000811115610c3b576040805162461bcd60e51b815260206004820152601760248201527f4672616374696f6e206d757374206265203c3d20353025000000000000000000604482015290519081900360640190fd5b60478190556040805182815290517f9e73ab667f43467c2a324114c461b2bd6fcf80f8e92918085a459d67438d62f39181900360200190a150565b610c7e611bdc565b6001600160a01b0316336001600160a01b031614610ce3576040805162461bcd60e51b815260206004820181905260248201527f4f6e6c7920736176696e6773206d616e616765722063616e2065786563757465604482015290519081900360640190fd5b60008111610d31576040805162461bcd60e51b81526020600482015260166024820152754d757374206465706f73697420736f6d657468696e6760501b604482015290519081900360640190fd5b604354604080516323b872dd60e01b81523360048201523060248201526044810184905290516001600160a01b03909216916323b872dd916064808201926020929091908290030181600087803b158015610d8b57600080fd5b505af1158015610d9f573d6000803e3d6000fd5b505050506040513d6020811015610db557600080fd5b5051610dfe576040805162461bcd60e51b81526020600482015260136024820152724d757374207265636569766520746f6b656e7360681b604482015290519081900360640190fd5b6000610e086107f4565b90508015610e81576000610e22838363ffffffff611b3116565b90506000610e3b82604254611aa590919063ffffffff16565b6042819055604080518281526020810187905281519293507fc8d1043f24843c0a1c9251fdc30017d84e87498fbcf232af9f86816b5e182bde929081900390910190a150505b5050565b6000610e92848484611c2b565b610f0884610e9e6118d0565b610f03856040518060600160405280602881526020016127a8602891396001600160a01b038a16600090815260346020526040812090610edc6118d0565b6001600160a01b03168152602081019190915260400160002054919063ffffffff611d8916565b6118d4565b5060019392505050565b610f1a611b66565b6001600160a01b0316336001600160a01b031614610f6d576040805162461bcd60e51b81526020600482015260196024820152600080516020612767833981519152604482015290519081900360640190fd5b565b60385460ff1690565b60006107ea610f856118d0565b84610f038560346000610f966118d0565b6001600160a01b03908116825260208083019390935260409182016000908120918c16815292529020549063ffffffff611aa516565b6000610fda610b4b83611036565b5092915050565b60425481565b6000610ff282611e20565b90505b919050565b6044546001600160a01b031681565b60006110158383611e48565b9392505050565b6000610ff282611036565b6043546001600160a01b031681565b6001600160a01b031660009081526033602052604090205490565b6000610fda82611b14565b600054610100900460ff16806110755750611075612041565b80611083575060005460ff16155b6110be5760405162461bcd60e51b815260040180806020018281038252602e8152602001806127d0602e913960400191505060405180910390fd5b600054610100900460ff161580156110e9576000805460ff1961ff0019909116610100171660011790555b61115c85858080601f01602080910402602001604051908101604052809392919081815260200183838082843760009201919091525050604080516020601f8901819004810282018101909252878152925087915086908190840183828082843760009201919091525061204792505050565b61116588612053565b6001600160a01b0386166111b9576040805162461bcd60e51b81526020600482015260166024820152756d41737365742061646472657373206973207a65726f60501b604482015290519081900360640190fd5b604380546001600160a01b0319166001600160a01b03888116919091179091558716611224576040805162461bcd60e51b8152602060048201526015602482015274496e76616c696420706f6b6572206164647265737360581b604482015290519081900360640190fd5b604480546001600160a01b0319166001600160a01b0389161790556702c68af0bb140000604755801561125d576000805461ff00191690555b5050505050505050565b6048546001600160a01b031681565b60008082116112c6576040805162461bcd60e51b81526020600482015260176024820152764d75737420776974686472617720736f6d657468696e6760481b604482015290519081900360640190fd5b604354600160a01b900460ff1615611348576112e0611bdc565b60435460408051636515eff360e11b81526001600160a01b0392831660048201529051929091169163ca2bdfe69160248082019260009290919082900301818387803b15801561132f57600080fd5b505af1158015611343573d6000803e3d6000fd5b505050505b600061135383611e20565b90506000611360826120c9565b9050838114610fda576040805162461bcd60e51b815260206004820152601b60248201527f446964206e6f742072656465656d2073756666696369656e746c790000000000604482015290519081900360640190fd5b60465481565b60378054604080516020601f60026000196101006001881615020190951694909404938401819004810282018101909252828152606093909290918301828280156107cb5780601f106107a0576101008083540402835291602001916107cb565b6041546001600160a01b031681565b6000610ff28233611e48565b60006107ea6114456118d0565b84610f0385604051806060016040528060258152602001612895602591396034600061146f6118d0565b6001600160a01b03908116825260208083019390935260409182016000908120918d1681529252902054919063ffffffff611d8916565b6114ae611b66565b6001600160a01b0316336001600160a01b031614611501576040805162461bcd60e51b81526020600482015260196024820152600080516020612767833981519152604482015290519081900360640190fd5b50565b60006107ea6115116118d0565b8484611c2b565b60455481565b600080821161156e576040805162461bcd60e51b81526020600482015260176024820152764d75737420776974686472617720736f6d657468696e6760481b604482015290519081900360640190fd5b604354600160a01b900460ff16156115f057611588611bdc565b60435460408051636515eff360e11b81526001600160a01b0392831660048201529051929091169163ca2bdfe69160248082019260009290919082900301818387803b1580156115d757600080fd5b505af11580156115eb573d6000803e3d6000fd5b505050505b610ff2826120c9565b611601611b66565b6001600160a01b0316336001600160a01b031614611654576040805162461bcd60e51b81526020600482015260196024820152600080516020612767833981519152604482015290519081900360640190fd5b60438054821515600160a01b810260ff60a01b199092169190911790915560408051918252517fb9fdedbd8818c7929701eadc08c748a262fb39d9237b27537ae1809061e305f69181900360200190a150565b60475481565b60008082116116fd576040805162461bcd60e51b81526020600482015260176024820152764d75737420776974686472617720736f6d657468696e6760481b604482015290519081900360640190fd5b611706826120c9565b604354909150600160a01b900460ff1615610ff557611723611bdc565b60435460408051636515eff360e11b81526001600160a01b0392831660048201529051929091169163ca2bdfe69160248082019260009290919082900301818387803b15801561177257600080fd5b505af1158015611786573d6000803e3d6000fd5b50505050919050565b6001600160a01b03918216600090815260346020908152604080832093909416825291909152205490565b6117c2611b66565b6001600160a01b0316336001600160a01b031614611815576040805162461bcd60e51b81526020600482015260196024820152600080516020612767833981519152604482015290519081900360640190fd5b6001600160a01b0381161580159061183b57506044546001600160a01b03828116911614155b61187c576040805162461bcd60e51b815260206004820152600d60248201526c24b73b30b634b2103837b5b2b960991b604482015290519081900360640190fd5b604480546001600160a01b0383166001600160a01b0319909116811790915560408051918252517f4324a90fd94048b85fa5a72fb447d1313da0a602723a297a1a550e910004aef49181900360200190a150565b3390565b6001600160a01b0383166119195760405162461bcd60e51b81526004018080602001828103825260248152602001806128716024913960400191505060405180910390fd5b6001600160a01b03821661195e5760405162461bcd60e51b815260040180806020018281038252602281526020018061271f6022913960400191505060405180910390fd5b6001600160a01b03808416600081815260346020908152604080832094871680845294825291829020859055815185815291517f8c5be1e5ebec7d5bd14f71427d1e84f3dd0314c0f7b2291e5b200ac8c7c3b9259281900390910190a3505050565b600061101583836040518060400160405280601e81526020017f536166654d6174683a207375627472616374696f6e206f766572666c6f770000815250611d89565b600080611a15858563ffffffff6119c016565b90506000611a29858363ffffffff611b3116565b90506000611a41856301e1338063ffffffff611b3116565b9050611a53828263ffffffff611b3116565b9350671bc16d674ec800008410611a9b5760405162461bcd60e51b815260040180806020018281038252602d8152602001806127fe602d913960400191505060405180910390fd5b5050509392505050565b600082820183811015611015576040805162461bcd60e51b815260206004820152601b60248201527f536166654d6174683a206164646974696f6e206f766572666c6f770000000000604482015290519081900360640190fd5b60006110158383670de0b6b3a76400006121ea565b604254600090611b2a838263ffffffff611aff16565b9150915091565b600080611b4c84670de0b6b3a764000063ffffffff61221816565b9050611b5e818463ffffffff61227116565b949350505050565b6041546040805163030d028960e21b815290516000926001600160a01b031691630c340a24916004808301926020929190829003018186803b158015611bab57600080fd5b505afa158015611bbf573d6000803e3d6000fd5b505050506040513d6020811015611bd557600080fd5b5051905090565b6041546040805481516385acd64160e01b8152600481019190915290516000926001600160a01b0316916385acd641916024808301926020929190829003018186803b158015611bab57600080fd5b6001600160a01b038316611c705760405162461bcd60e51b815260040180806020018281038252602581526020018061284c6025913960400191505060405180910390fd5b6001600160a01b038216611cb55760405162461bcd60e51b81526004018080602001828103825260238152602001806126da6023913960400191505060405180910390fd5b611cf881604051806060016040528060268152602001612741602691396001600160a01b038616600090815260336020526040902054919063ffffffff611d8916565b6001600160a01b038085166000908152603360205260408082209390935590841681522054611d2d908263ffffffff611aa516565b6001600160a01b0380841660008181526033602090815260409182902094909455805185815290519193928716927fddf252ad1be2c89b69c2b068fc378daa952ba7f163c4a11628f55a4df523b3ef92918290030190a3505050565b60008184841115611e185760405162461bcd60e51b81526004018080602001828103825283818151815260200191508051906020019080838360005b83811015611ddd578181015183820152602001611dc5565b50505050905090810190601f168015611e0a5780820380516001836020036101000a031916815260200191505b509250505060405180910390fd5b505050900390565b6000610ff26001611e3c60425485611b3190919063ffffffff16565b9063ffffffff611aa516565b6000808311611e97576040805162461bcd60e51b81526020600482015260166024820152754d757374206465706f73697420736f6d657468696e6760501b604482015290519081900360640190fd5b6043546001600160a01b0316611eab611bdc565b6001600160a01b031663ca2bdfe6826040518263ffffffff1660e01b815260040180826001600160a01b03166001600160a01b03168152602001915050600060405180830381600087803b158015611f0257600080fd5b505af1158015611f16573d6000803e3d6000fd5b5050604080516323b872dd60e01b81523360048201523060248201526044810188905290516001600160a01b03851693506323b872dd925060648083019260209291908290030181600087803b158015611f6f57600080fd5b505af1158015611f83573d6000803e3d6000fd5b505050506040513d6020811015611f9957600080fd5b5051611fe2576040805162461bcd60e51b81526020600482015260136024820152724d757374207265636569766520746f6b656e7360681b604482015290519081900360640190fd5b611feb84611e20565b9150611ff783836122b3565b604080518581526020810184905281516001600160a01b038616927f1a96ef469e332471886959f90a71ae924792a05ad7eea4e43a1c29becdf238ed928290030190a25092915050565b303b1590565b610e81828260126123a5565b6001600160a01b0381166120a6576040805162461bcd60e51b81526020600482015260156024820152744e657875732061646472657373206973207a65726f60581b604482015290519081900360640190fd5b604180546001600160a01b0319166001600160a01b0383161790556115016123e5565b60006120d533836124e0565b6000806120e184611b14565b6043546040805163a9059cbb60e01b81523360048201526024810185905290519395509193506001600160a01b03169163a9059cbb916044808201926020929091908290030181600087803b15801561213957600080fd5b505af115801561214d573d6000803e3d6000fd5b505050506040513d602081101561216357600080fd5b50516121a9576040805162461bcd60e51b815260206004820152601060248201526f4d7573742073656e6420746f6b656e7360801b604482015290519081900360640190fd5b6040805185815260208101849052815133927fa4feb388d266c39bec6f79f16c3a7dba32e12d9688ddbb14493d46ce4c1ce657928290030190a25092915050565b6000806121fd858563ffffffff61221816565b905061220f818463ffffffff61227116565b95945050505050565b600082612227575060006107ee565b8282028284828161223457fe5b04146110155760405162461bcd60e51b81526004018080602001828103825260218152602001806127876021913960400191505060405180910390fd5b600061101583836040518060400160405280601a81526020017f536166654d6174683a206469766973696f6e206279207a65726f0000000000008152506125dc565b6001600160a01b03821661230e576040805162461bcd60e51b815260206004820152601f60248201527f45524332303a206d696e7420746f20746865207a65726f206164647265737300604482015290519081900360640190fd5b603554612321908263ffffffff611aa516565b6035556001600160a01b03821660009081526033602052604090205461234d908263ffffffff611aa516565b6001600160a01b03831660008181526033602090815260408083209490945583518581529351929391927fddf252ad1be2c89b69c2b068fc378daa952ba7f163c4a11628f55a4df523b3ef9281900390910190a35050565b82516123b8906036906020860190612641565b5081516123cc906037906020850190612641565b506038805460ff191660ff929092169190911790555050565b6040805169476f7665726e616e636560b01b8152815190819003600a9081018220603955665374616b696e6760c81b825282519182900360079081018320603a5569283937bc3ca0b236b4b760b11b83528351928390039091018220603b556827b930b1b632a43ab160b91b825282519182900360099081018320603c556626b0b730b3b2b960c91b83528351928390039091018220603d556f2932b1b7b63630ba32b930b634b9b2b960811b82528251918290036010018220603e556826b2ba30aa37b5b2b760b91b8252825191829003018120603f556d29b0bb34b733b9a6b0b730b3b2b960911b8152815190819003600e0190209055565b6001600160a01b0382166125255760405162461bcd60e51b815260040180806020018281038252602181526020018061282b6021913960400191505060405180910390fd5b612568816040518060600160405280602281526020016126fd602291396001600160a01b038516600090815260336020526040902054919063ffffffff611d8916565b6001600160a01b038316600090815260336020526040902055603554612594908263ffffffff6119c016565b6035556040805182815290516000916001600160a01b038516917fddf252ad1be2c89b69c2b068fc378daa952ba7f163c4a11628f55a4df523b3ef9181900360200190a35050565b6000818361262b5760405162461bcd60e51b8152602060048201818152835160248401528351909283926044909101919085019080838360008315611ddd578181015183820152602001611dc5565b50600083858161263757fe5b0495945050505050565b828054600181600116156101000203166002900490600052602060002090601f016020900481019282601f1061268257805160ff19168380011785556126af565b828001600101855582156126af579182015b828111156126af578251825591602001919060010190612694565b506126bb9291506126bf565b5090565b6107d391905b808211156126bb57600081556001016126c556fe45524332303a207472616e7366657220746f20746865207a65726f206164647265737345524332303a206275726e20616d6f756e7420657863656564732062616c616e636545524332303a20617070726f766520746f20746865207a65726f206164647265737345524332303a207472616e7366657220616d6f756e7420657863656564732062616c616e63654f6e6c7920676f7665726e6f722063616e206578656375746500000000000000536166654d6174683a206d756c7469706c69636174696f6e206f766572666c6f7745524332303a207472616e7366657220616d6f756e74206578636565647320616c6c6f77616e6365436f6e747261637420696e7374616e63652068617320616c7265616479206265656e20696e697469616c697a6564496e7465726573742070726f7465637465642066726f6d20696e666c6174696e672070617374206d617841505945524332303a206275726e2066726f6d20746865207a65726f206164647265737345524332303a207472616e736665722066726f6d20746865207a65726f206164647265737345524332303a20617070726f76652066726f6d20746865207a65726f206164647265737345524332303a2064656372656173656420616c6c6f77616e63652062656c6f77207a65726fa265627a7a72315820ce2467f4003b56a8bc65fc0a37e383a250a00b8285f20fae46ed70e08a7923de64736f6c63430005100032",
  "linkReferences": {},
  "deployedLinkReferences": {}
}