{
  "_format": "hh-sol-artifact-1",
  "contractName": "MockTrigger",
  "sourceName": "contracts/z_mocks/shared/MockTrigger.sol",
  "abi": [
    {
      "inputs": [
        {
          "internalType": "contract ILiquidator",
          "name": "_liq",
          "type": "address"
        },
        {
          "internalType": "address",
          "name": "_integration",
          "type": "address"
        }
      ],
      "name": "trigger",
      "outputs": [],
      "stateMutability": "nonpayable",
      "type": "function"
    }
  ],
  "bytecode": "0x608060405234801561001057600080fd5b5061011b806100206000396000f3fe6080604052348015600f57600080fd5b506004361060285760003560e01c8063b92814d814602d575b600080fd5b603c6038366004609b565b603e565b005b60405163b350df5d60e01b81526001600160a01b03828116600483015283169063b350df5d90602401600060405180830381600087803b158015608057600080fd5b505af11580156093573d6000803e3d6000fd5b505050505050565b6000806040838503121560ac578182fd5b823560b58160ce565b9150602083013560c38160ce565b809150509250929050565b6001600160a01b038116811460e257600080fd5b5056fea26469706673582212206bbebc10bd0eff066a7c5e0fab0a9b24abf404224d49e9d5595a07a0d1a5eb2964736f6c63430008020033",
  "linkReferences": {},
  "deployedLinkReferences": {}
}