{
  "_format": "hh-sol-artifact-1",
  "contractName": "MockMasset",
  "sourceName": "contracts/z_mocks/masset/MockMasset.sol",
  "abi": [
    {
      "inputs": [
        {
          "internalType": "string",
          "name": "_name",
          "type": "string"
        },
        {
          "internalType": "string",
          "name": "_symbol",
          "type": "string"
        },
        {
          "internalType": "uint8",
          "name": "_decimals",
          "type": "uint8"
        },
        {
          "internalType": "address",
          "name": "_initialRecipient",
          "type": "address"
        },
        {
          "internalType": "uint256",
          "name": "_initialMint",
          "type": "uint256"
        }
      ],
      "stateMutability": "nonpayable",
      "type": "constructor"
    },
    {
      "anonymous": false,
      "inputs": [
        {
          "indexed": true,
          "internalType": "address",
          "name": "owner",
          "type": "address"
        },
        {
          "indexed": true,
          "internalType": "address",
          "name": "spender",
          "type": "address"
        },
        {
          "indexed": false,
          "internalType": "uint256",
          "name": "value",
          "type": "uint256"
        }
      ],
      "name": "Approval",
      "type": "event"
    },
    {
      "anonymous": false,
      "inputs": [
        {
          "indexed": true,
          "internalType": "address",
          "name": "from",
          "type": "address"
        },
        {
          "indexed": true,
          "internalType": "address",
          "name": "to",
          "type": "address"
        },
        {
          "indexed": false,
          "internalType": "uint256",
          "name": "value",
          "type": "uint256"
        }
      ],
      "name": "Transfer",
      "type": "event"
    },
    {
      "inputs": [
        {
          "internalType": "address",
          "name": "owner",
          "type": "address"
        },
        {
          "internalType": "address",
          "name": "spender",
          "type": "address"
        }
      ],
      "name": "allowance",
      "outputs": [
        {
          "internalType": "uint256",
          "name": "",
          "type": "uint256"
        }
      ],
      "stateMutability": "view",
      "type": "function"
    },
    {
      "inputs": [
        {
          "internalType": "address",
          "name": "spender",
          "type": "address"
        },
        {
          "internalType": "uint256",
          "name": "amount",
          "type": "uint256"
        }
      ],
      "name": "approve",
      "outputs": [
        {
          "internalType": "bool",
          "name": "",
          "type": "bool"
        }
      ],
      "stateMutability": "nonpayable",
      "type": "function"
    },
    {
      "inputs": [
        {
          "internalType": "address",
          "name": "account",
          "type": "address"
        }
      ],
      "name": "balanceOf",
      "outputs": [
        {
          "internalType": "uint256",
          "name": "",
          "type": "uint256"
        }
      ],
      "stateMutability": "view",
      "type": "function"
    },
    {
      "inputs": [],
      "name": "collectInterest",
      "outputs": [
        {
          "internalType": "uint256",
          "name": "totalInterestGained",
          "type": "uint256"
        },
        {
          "internalType": "uint256",
          "name": "newSupply",
          "type": "uint256"
        }
      ],
      "stateMutability": "nonpayable",
      "type": "function"
    },
    {
      "inputs": [],
      "name": "collectPlatformInterest",
      "outputs": [
        {
          "internalType": "uint256",
          "name": "totalInterestGained",
          "type": "uint256"
        },
        {
          "internalType": "uint256",
          "name": "newSupply",
          "type": "uint256"
        }
      ],
      "stateMutability": "nonpayable",
      "type": "function"
    },
    {
      "inputs": [],
      "name": "decimals",
      "outputs": [
        {
          "internalType": "uint8",
          "name": "",
          "type": "uint8"
        }
      ],
      "stateMutability": "view",
      "type": "function"
    },
    {
      "inputs": [
        {
          "internalType": "address",
          "name": "spender",
          "type": "address"
        },
        {
          "internalType": "uint256",
          "name": "subtractedValue",
          "type": "uint256"
        }
      ],
      "name": "decreaseAllowance",
      "outputs": [
        {
          "internalType": "bool",
          "name": "",
          "type": "bool"
        }
      ],
      "stateMutability": "nonpayable",
      "type": "function"
    },
    {
      "inputs": [
        {
          "internalType": "address",
          "name": "spender",
          "type": "address"
        },
        {
          "internalType": "uint256",
          "name": "addedValue",
          "type": "uint256"
        }
      ],
      "name": "increaseAllowance",
      "outputs": [
        {
          "internalType": "bool",
          "name": "",
          "type": "bool"
        }
      ],
      "stateMutability": "nonpayable",
      "type": "function"
    },
    {
      "inputs": [],
      "name": "name",
      "outputs": [
        {
          "internalType": "string",
          "name": "",
          "type": "string"
        }
      ],
      "stateMutability": "view",
      "type": "function"
    },
    {
      "inputs": [
        {
          "internalType": "uint256",
          "name": "_amount",
          "type": "uint256"
        }
      ],
      "name": "setAmountForCollectInterest",
      "outputs": [],
      "stateMutability": "nonpayable",
      "type": "function"
    },
    {
      "inputs": [
        {
          "internalType": "uint256",
          "name": "_amount",
          "type": "uint256"
        }
      ],
      "name": "setAmountForPlatformInterest",
      "outputs": [],
      "stateMutability": "nonpayable",
      "type": "function"
    },
    {
      "inputs": [],
      "name": "symbol",
      "outputs": [
        {
          "internalType": "string",
          "name": "",
          "type": "string"
        }
      ],
      "stateMutability": "view",
      "type": "function"
    },
    {
      "inputs": [],
      "name": "totalSupply",
      "outputs": [
        {
          "internalType": "uint256",
          "name": "",
          "type": "uint256"
        }
      ],
      "stateMutability": "view",
      "type": "function"
    },
    {
      "inputs": [
        {
          "internalType": "address",
          "name": "recipient",
          "type": "address"
        },
        {
          "internalType": "uint256",
          "name": "amount",
          "type": "uint256"
        }
      ],
      "name": "transfer",
      "outputs": [
        {
          "internalType": "bool",
          "name": "",
          "type": "bool"
        }
      ],
      "stateMutability": "nonpayable",
      "type": "function"
    },
    {
      "inputs": [
        {
          "internalType": "address",
          "name": "sender",
          "type": "address"
        },
        {
          "internalType": "address",
          "name": "recipient",
          "type": "address"
        },
        {
          "internalType": "uint256",
          "name": "amount",
          "type": "uint256"
        }
      ],
      "name": "transferFrom",
      "outputs": [
        {
          "internalType": "bool",
          "name": "",
          "type": "bool"
        }
      ],
      "stateMutability": "nonpayable",
      "type": "function"
    }
  ],
  "bytecode": "0x6080604052600060065560006007553480156200001b57600080fd5b5060405162001076380380620010768339810160408190526200003e91620002ff565b8484848484848481600390805190602001906200005d929190620001a6565b50805162000073906004906020840190620001a6565b50506005805460ff191660ff8616908117909155620000ae915083906200009c90600a62000412565b620000a8908462000507565b620000be565b5050505050505050505062000592565b6001600160a01b038216620001195760405162461bcd60e51b815260206004820152601f60248201527f45524332303a206d696e7420746f20746865207a65726f206164647265737300604482015260640160405180910390fd5b80600260008282546200012d9190620003aa565b90915550506001600160a01b038216600090815260208190526040812080548392906200015c908490620003aa565b90915550506040518181526001600160a01b038316906000907fddf252ad1be2c89b69c2b068fc378daa952ba7f163c4a11628f55a4df523b3ef9060200160405180910390a35050565b828054620001b49062000529565b90600052602060002090601f016020900481019282620001d8576000855562000223565b82601f10620001f357805160ff191683800117855562000223565b8280016001018555821562000223579182015b828111156200022357825182559160200191906001019062000206565b506200023192915062000235565b5090565b5b8082111562000231576000815560010162000236565b600082601f8301126200025d578081fd5b81516001600160401b03808211156200027a576200027a6200057c565b604051601f8301601f19908116603f01168101908282118183101715620002a557620002a56200057c565b81604052838152602092508683858801011115620002c1578485fd5b8491505b83821015620002e45785820183015181830184015290820190620002c5565b83821115620002f557848385830101525b9695505050505050565b600080600080600060a0868803121562000317578081fd5b85516001600160401b03808211156200032e578283fd5b6200033c89838a016200024c565b9650602088015191508082111562000352578283fd5b5062000361888289016200024c565b945050604086015160ff8116811462000378578182fd5b60608701519093506001600160a01b038116811462000395578182fd5b80925050608086015190509295509295909350565b60008219821115620003c057620003c062000566565b500190565b80825b6001808611620003d9575062000409565b818704821115620003ee57620003ee62000566565b80861615620003fc57918102915b9490941c938002620003c8565b94509492505050565b60006200042360001984846200042a565b9392505050565b6000826200043b5750600162000423565b816200044a5750600062000423565b81600181146200046357600281146200046e57620004a2565b600191505062000423565b60ff84111562000482576200048262000566565b6001841b9150848211156200049b576200049b62000566565b5062000423565b5060208310610133831016604e8410600b8410161715620004da575081810a83811115620004d457620004d462000566565b62000423565b620004e98484846001620003c5565b808604821115620004fe57620004fe62000566565b02949350505050565b600081600019048311821515161562000524576200052462000566565b500290565b6002810460018216806200053e57607f821691505b602082108114156200056057634e487b7160e01b600052602260045260246000fd5b50919050565b634e487b7160e01b600052601160045260246000fd5b634e487b7160e01b600052604160045260246000fd5b610ad480620005a26000396000f3fe608060405234801561001057600080fd5b50600436106100f55760003560e01c8063395093511161009757806395d89b411161006657806395d89b41146101e8578063a457c2d7146101f0578063a9059cbb14610203578063dd62ed3e14610216576100f5565b806339509351146101a7578063609bb413146101ba57806370a08231146101cd5780637e8901ea146101e0576100f5565b806323b872dd116100d357806323b872dd1461014d5780632a2fab22146101605780632dd5dde01461017d578063313ce56714610192576100f5565b806306fdde03146100fa578063095ea7b31461011857806318160ddd1461013b575b600080fd5b61010261024f565b60405161010f91906109cb565b60405180910390f35b61012b61012636600461098a565b6102e1565b604051901515815260200161010f565b6002545b60405190815260200161010f565b61012b61015b36600461094f565b6102f7565b6101686103ad565b6040805192835260208301919091520161010f565b61019061018b3660046109b3565b600655565b005b60055460405160ff909116815260200161010f565b61012b6101b536600461098a565b6103d5565b6101906101c83660046109b3565b600755565b61013f6101db3660046108fc565b61040c565b61016861042b565b610102610453565b61012b6101fe36600461098a565b610462565b61012b61021136600461098a565b6104fd565b61013f61022436600461091d565b6001600160a01b03918216600090815260016020908152604080832093909416825291909152205490565b60606003805461025e90610a4d565b80601f016020809104026020016040519081016040528092919081815260200182805461028a90610a4d565b80156102d75780601f106102ac576101008083540402835291602001916102d7565b820191906000526020600020905b8154815290600101906020018083116102ba57829003601f168201915b5050505050905090565b60006102ee33848461050a565b50600192915050565b600061030484848461062e565b6001600160a01b03841660009081526001602090815260408083203384529091529020548281101561038e5760405162461bcd60e51b815260206004820152602860248201527f45524332303a207472616e7366657220616d6f756e74206578636565647320616044820152676c6c6f77616e636560c01b60648201526084015b60405180910390fd5b6103a2853361039d8685610a36565b61050a565b506001949350505050565b6000806103bc33600654610806565b60065491506103ca60025490565b600060065591929050565b3360008181526001602090815260408083206001600160a01b038716845290915281205490916102ee91859061039d908690610a1e565b6001600160a01b0381166000908152602081905260409020545b919050565b60008061043a33600754610806565b600754915061044860025490565b600060075591929050565b60606004805461025e90610a4d565b3360009081526001602090815260408083206001600160a01b0386168452909152812054828110156104e45760405162461bcd60e51b815260206004820152602560248201527f45524332303a2064656372656173656420616c6c6f77616e63652062656c6f77604482015264207a65726f60d81b6064820152608401610385565b6104f3338561039d8685610a36565b5060019392505050565b60006102ee33848461062e565b6001600160a01b03831661056c5760405162461bcd60e51b8152602060048201526024808201527f45524332303a20617070726f76652066726f6d20746865207a65726f206164646044820152637265737360e01b6064820152608401610385565b6001600160a01b0382166105cd5760405162461bcd60e51b815260206004820152602260248201527f45524332303a20617070726f766520746f20746865207a65726f206164647265604482015261737360f01b6064820152608401610385565b6001600160a01b0383811660008181526001602090815260408083209487168084529482529182902085905590518481527f8c5be1e5ebec7d5bd14f71427d1e84f3dd0314c0f7b2291e5b200ac8c7c3b925910160405180910390a3505050565b6001600160a01b0383166106925760405162461bcd60e51b815260206004820152602560248201527f45524332303a207472616e736665722066726f6d20746865207a65726f206164604482015264647265737360d81b6064820152608401610385565b6001600160a01b0382166106f45760405162461bcd60e51b815260206004820152602360248201527f45524332303a207472616e7366657220746f20746865207a65726f206164647260448201526265737360e81b6064820152608401610385565b6001600160a01b0383166000908152602081905260409020548181101561076c5760405162461bcd60e51b815260206004820152602660248201527f45524332303a207472616e7366657220616d6f756e7420657863656564732062604482015265616c616e636560d01b6064820152608401610385565b6107768282610a36565b6001600160a01b0380861660009081526020819052604080822093909355908516815290812080548492906107ac908490610a1e565b92505081905550826001600160a01b0316846001600160a01b03167fddf252ad1be2c89b69c2b068fc378daa952ba7f163c4a11628f55a4df523b3ef846040516107f891815260200190565b60405180910390a350505050565b6001600160a01b03821661085c5760405162461bcd60e51b815260206004820152601f60248201527f45524332303a206d696e7420746f20746865207a65726f2061646472657373006044820152606401610385565b806002600082825461086e9190610a1e565b90915550506001600160a01b0382166000908152602081905260408120805483929061089b908490610a1e565b90915550506040518181526001600160a01b038316906000907fddf252ad1be2c89b69c2b068fc378daa952ba7f163c4a11628f55a4df523b3ef9060200160405180910390a35050565b80356001600160a01b038116811461042657600080fd5b60006020828403121561090d578081fd5b610916826108e5565b9392505050565b6000806040838503121561092f578081fd5b610938836108e5565b9150610946602084016108e5565b90509250929050565b600080600060608486031215610963578081fd5b61096c846108e5565b925061097a602085016108e5565b9150604084013590509250925092565b6000806040838503121561099c578182fd5b6109a5836108e5565b946020939093013593505050565b6000602082840312156109c4578081fd5b5035919050565b6000602080835283518082850152825b818110156109f7578581018301518582016040015282016109db565b81811115610a085783604083870101525b50601f01601f1916929092016040019392505050565b60008219821115610a3157610a31610a88565b500190565b600082821015610a4857610a48610a88565b500390565b600281046001821680610a6157607f821691505b60208210811415610a8257634e487b7160e01b600052602260045260246000fd5b50919050565b634e487b7160e01b600052601160045260246000fdfea264697066735822122088eaeb1c84872e1b9fea2aab45ccdfb6085fb8f8d12ca2d82174eb84fe79722264736f6c63430008020033",
  "linkReferences": {},
  "deployedLinkReferences": {}
}