{
  "_format": "hh-sol-artifact-1",
  "contractName": "DeadToken",
  "sourceName": "contracts/z_mocks/shared/DeadToken.sol",
  "abi": [
    {
      "inputs": [],
      "name": "decimals",
      "outputs": [
        {
          "internalType": "uint8",
          "name": "",
          "type": "uint8"
        }
      ],
      "stateMutability": "view",
      "type": "function"
    }
  ],
  "bytecode": "0x60806040526000805460ff19166012179055348015601c57600080fd5b50607c8061002b6000396000f3fe6080604052348015600f57600080fd5b506004361060285760003560e01c8063313ce56714602d575b600080fd5b6000546040805160ff9092168252519081900360200190f3fea2646970667358221220eb60c1a607acd916badadb9e53addd02cad714acc094b694f47d2a6accc8147e64736f6c63430008020033",
  "linkReferences": {},
  "deployedLinkReferences": {}
}