{
  "_format": "hh-sol-artifact-1",
  "contractName": "PLiquidator",
  "sourceName": "contracts/polygon/PLiquidator.sol",
  "abi": [
    {
      "inputs": [
        {
          "internalType": "address",
          "name": "_nexus",
          "type": "address"
        },
        {
          "internalType": "address",
          "name": "_quickswapRouter",
          "type": "address"
        },
        {
          "internalType": "address",
          "name": "_mUSD",
          "type": "address"
        }
      ],
      "stateMutability": "nonpayable",
      "type": "constructor"
    },
    {
      "anonymous": false,
      "inputs": [
        {
          "indexed": true,
          "internalType": "address",
          "name": "sellToken",
          "type": "address"
        },
        {
          "indexed": false,
          "internalType": "address",
          "name": "mUSD",
          "type": "address"
        },
        {
          "indexed": false,
          "internalType": "uint256",
          "name": "mUSDAmount",
          "type": "uint256"
        },
        {
          "indexed": false,
          "internalType": "address",
          "name": "buyToken",
          "type": "address"
        }
      ],
      "name": "Liquidated",
      "type": "event"
    },
    {
      "anonymous": false,
      "inputs": [
        {
          "indexed": true,
          "internalType": "address",
          "name": "integration",
          "type": "address"
        }
      ],
      "name": "LiquidationEnded",
      "type": "event"
    },
    {
      "anonymous": false,
      "inputs": [
        {
          "indexed": true,
          "internalType": "address",
          "name": "integration",
          "type": "address"
        }
      ],
      "name": "LiquidationModified",
      "type": "event"
    },
    {
      "inputs": [
        {
          "internalType": "address",
          "name": "_integration",
          "type": "address"
        },
        {
          "internalType": "address",
          "name": "_sellToken",
          "type": "address"
        },
        {
          "internalType": "address",
          "name": "_bAsset",
          "type": "address"
        },
        {
          "internalType": "address[]",
          "name": "_uniswapPath",
          "type": "address[]"
        },
        {
          "internalType": "uint256",
          "name": "_trancheAmount",
          "type": "uint256"
        },
        {
          "internalType": "uint256",
          "name": "_minReturn",
          "type": "uint256"
        }
      ],
      "name": "createLiquidation",
      "outputs": [],
      "stateMutability": "nonpayable",
      "type": "function"
    },
    {
      "inputs": [
        {
          "internalType": "address",
          "name": "_integration",
          "type": "address"
        }
      ],
      "name": "deleteLiquidation",
      "outputs": [],
      "stateMutability": "nonpayable",
      "type": "function"
    },
    {
      "inputs": [
        {
          "internalType": "address",
          "name": "",
          "type": "address"
        }
      ],
      "name": "liquidations",
      "outputs": [
        {
          "internalType": "address",
          "name": "sellToken",
          "type": "address"
        },
        {
          "internalType": "address",
          "name": "bAsset",
          "type": "address"
        },
        {
          "internalType": "uint256",
          "name": "lastTriggered",
          "type": "uint256"
        },
        {
          "internalType": "uint256",
          "name": "trancheAmount",
          "type": "uint256"
        }
      ],
      "stateMutability": "view",
      "type": "function"
    },
    {
      "inputs": [],
      "name": "mUSD",
      "outputs": [
        {
          "internalType": "address",
          "name": "",
          "type": "address"
        }
      ],
      "stateMutability": "view",
      "type": "function"
    },
    {
      "inputs": [
        {
          "internalType": "address",
          "name": "",
          "type": "address"
        }
      ],
      "name": "minReturn",
      "outputs": [
        {
          "internalType": "uint256",
          "name": "",
          "type": "uint256"
        }
      ],
      "stateMutability": "view",
      "type": "function"
    },
    {
      "inputs": [],
      "name": "nexus",
      "outputs": [
        {
          "internalType": "contract INexus",
          "name": "",
          "type": "address"
        }
      ],
      "stateMutability": "view",
      "type": "function"
    },
    {
      "inputs": [],
      "name": "quickSwap",
      "outputs": [
        {
          "internalType": "contract IUniswapV2Router02",
          "name": "",
          "type": "address"
        }
      ],
      "stateMutability": "view",
      "type": "function"
    },
    {
      "inputs": [
        {
          "internalType": "address",
          "name": "_integration",
          "type": "address"
        }
      ],
      "name": "triggerLiquidation",
      "outputs": [],
      "stateMutability": "nonpayable",
      "type": "function"
    },
    {
      "inputs": [
        {
          "internalType": "address",
          "name": "_integration",
          "type": "address"
        },
        {
          "internalType": "address",
          "name": "_bAsset",
          "type": "address"
        },
        {
          "internalType": "address[]",
          "name": "_uniswapPath",
          "type": "address[]"
        },
        {
          "internalType": "uint256",
          "name": "_trancheAmount",
          "type": "uint256"
        },
        {
          "internalType": "uint256",
          "name": "_minReturn",
          "type": "uint256"
        }
      ],
      "name": "updateBasset",
      "outputs": [],
      "stateMutability": "nonpayable",
      "type": "function"
    }
  ],
  "bytecode": "0x60e06040523480156200001157600080fd5b5060405162002264380380620022648339810160408190526200003491620000d4565b826001600160a01b038116620000905760405162461bcd60e51b815260206004820152601560248201527f4e657875732061646472657373206973207a65726f0000000000000000000000604482015260640160405180910390fd5b6001600160601b0319606091821b811660805292811b831660c0521b1660a052506200011d565b80516001600160a01b0381168114620000cf57600080fd5b919050565b600080600060608486031215620000e9578283fd5b620000f484620000b7565b92506200010460208501620000b7565b91506200011460408501620000b7565b90509250925092565b60805160601c60a05160601c60c05160601c6120bb620001a96000396000818160e501528181610d4801528181610e1a01528181610e4f0152610f820152600081816101f30152818161103601528181611075015281816110aa015281816110e801526111570152600081816101b9015281816111d6015281816112a2015261173b01526120bb6000f3fe608060405234801561001057600080fd5b50600436106100935760003560e01c80637e9fd222116100665780637e9fd22214610132578063937d4c4214610145578063a3f5c1d2146101b4578063b350df5d146101db578063f09a1d00146101ee57610093565b80630ac1ff80146100985780631f7eaaf2146100cb5780634086571e146100e05780636d70704f1461011f575b600080fd5b6100b86100a6366004611af3565b60026020526000908152604090205481565b6040519081526020015b60405180910390f35b6100de6100d9366004611bb4565b610215565b005b6101077f000000000000000000000000000000000000000000000000000000000000000081565b6040516001600160a01b0390911681526020016100c2565b6100de61012d366004611b2b565b61050c565b6100de610140366004611af3565b61080f565b610189610153366004611af3565b600160208190526000918252604090912080549181015460038201546004909201546001600160a01b0393841693909116919084565b604080516001600160a01b0395861681529490931660208501529183015260608201526080016100c2565b6101077f000000000000000000000000000000000000000000000000000000000000000081565b6100de6101e9366004611af3565b6109e3565b6101077f000000000000000000000000000000000000000000000000000000000000000081565b61021d6111d2565b6001600160a01b0316336001600160a01b03161480610254575061023f61126a565b6001600160a01b0316336001600160a01b0316145b6102795760405162461bcd60e51b815260040161027090611dd3565b60405180910390fd5b6001600160a01b038087166000908152600160208181526040808420815160a08101835281548716815293810154909516838301526002850180548251818502810185018452818152959694959286019383018282801561030357602002820191906000526020600020905b81546001600160a01b031681526001909101906020018083116102e5575b505050918352505060038201546020808301919091526004909201546040909101528101519091506001600160a01b0381166103515760405162461bcd60e51b815260040161027090611e0a565b600083116103a15760405162461bcd60e51b815260206004820152601b60248201527f4d7573742073657420736f6d65206d696e696d756d2076616c756500000000006044820152606401610270565b6001600160a01b0387166103e85760405162461bcd60e51b815260206004820152600e60248201526d125b9d985b1a590818905cdcd95d60921b6044820152606401610270565b61042a8260000151888888808060200260200160405190810160405280939291908181526020018383602002808284376000920191909152506112ed92505050565b61046d5760405162461bcd60e51b8152602060048201526014602482015273092dcecc2d8d2c840eadcd2e6eec2e040e0c2e8d60631b6044820152606401610270565b6001600160a01b03888116600090815260016020819052604090912090810180546001600160a01b031916928a16929092179091556104b09060020187876119bc565b506001600160a01b03881660008181526001602090815260408083206004018890556002909152808220869055517f52f63ab5789c9a266379c35974b035fb9f7079ec0effab1b31e7ad82fadb488a9190a25050505050505050565b6105146111d2565b6001600160a01b0316336001600160a01b0316148061054b575061053661126a565b6001600160a01b0316336001600160a01b0316145b6105675760405162461bcd60e51b815260040161027090611dd3565b6001600160a01b0387811660009081526001602052604090205416156105da5760405162461bcd60e51b815260206004820152602260248201527f4c69717569646174696f6e2065786973747320666f7220746869732062417373604482015261195d60f21b6064820152608401610270565b6001600160a01b038716158015906105fa57506001600160a01b03861615155b801561060e57506001600160a01b03851615155b801561061b575060028310155b80156106275750600081115b6106645760405162461bcd60e51b815260206004820152600e60248201526d496e76616c696420696e7075747360901b6044820152606401610270565b6106a286868686808060200260200160405190810160405280939291908181526020018383602002808284376000920191909152506112ed92505050565b6106e55760405162461bcd60e51b8152602060048201526014602482015273092dcecc2d8d2c840eadcd2e6eec2e040e0c2e8d60631b6044820152606401610270565b6040518060a00160405280876001600160a01b03168152602001866001600160a01b031681526020018585808060200260200160405190810160405280939291908181526020018383602002808284376000920182905250938552505050602080830182905260409283018690526001600160a01b03808c168352600180835292849020855181549083166001600160a01b031991821617825586840151948201805495909316941693909317905591830151805191926107ae92600285019290910190611a1f565b50606082015160038201556080909101516004909101556001600160a01b038716600081815260026020526040808220849055517f52f63ab5789c9a266379c35974b035fb9f7079ec0effab1b31e7ad82fadb488a9190a250505050505050565b6108176111d2565b6001600160a01b0316336001600160a01b0316148061084e575061083961126a565b6001600160a01b0316336001600160a01b0316145b61086a5760405162461bcd60e51b815260040161027090611dd3565b6001600160a01b038082166000908152600160208181526040808420815160a0810183528154871681529381015490951683830152600285018054825181850281018501845281815295969495928601938301828280156108f457602002820191906000526020600020905b81546001600160a01b031681526001909101906020018083116108d6575b5050505050815260200160038201548152602001600482015481525050905060006001600160a01b031681602001516001600160a01b0316141561094a5760405162461bcd60e51b815260040161027090611e0a565b6001600160a01b0382166000908152600160208190526040822080546001600160a01b0319908116825591810180549092169091559061098d6002830182611a74565b5060006003820181905560049091018190556001600160a01b038316808252600260205260408083208390555190917fe513b42585b0ceec0d56d56fe3a23861c15a2f74eb4c32c94334d63d68ff4dcf91a25050565b323314610a205760405162461bcd60e51b815260206004820152600b60248201526a4d75737420626520454f4160a81b6044820152606401610270565b6001600160a01b038082166000908152600160208181526040808420815160a081018352815487168152938101549095168383015260028501805482518185028101850184528181529596949592860193830182828015610aaa57602002820191906000526020600020905b81546001600160a01b03168152600190910190602001808311610a8c575b505050918352505060038201546020808301919091526004909201546040909101528101519091506001600160a01b038116610af85760405162461bcd60e51b815260040161027090611e0a565b6060820151610b0a9062013560611e96565b4211610b515760405162461bcd60e51b8152602060048201526016602482015275135d5cdd081dd85a5d08199bdc881a5b9d195c9d985b60521b6044820152606401610270565b6001600160a01b038381166000818152600160205260408082204260039091015585518682015191516370a0823160e01b81526004810194909452939092908416906370a082319060240160206040518083038186803b158015610bb457600080fd5b505afa158015610bc8573d6000803e3d6000fd5b505050506040513d601f19601f82011682018060405250810190610bec9190611d08565b90508015610c0957610c096001600160a01b038416873084611384565b6040516370a0823160e01b81523060048201526000906001600160a01b038516906370a082319060240160206040518083038186803b158015610c4b57600080fd5b505afa158015610c5f573d6000803e3d6000fd5b505050506040513d601f19601f82011682018060405250810190610c839190611d08565b905060008111610cd55760405162461bcd60e51b815260206004820152601b60248201527f4e6f2073656c6c20746f6b656e7320746f206c697175696461746500000000006044820152606401610270565b6000866080015111610d295760405162461bcd60e51b815260206004820152601b60248201527f4c69717569646174696f6e20686173206265656e2070617573656400000000006044820152606401610270565b60808601516040516307c0329d60e21b81526000916001600160a01b037f00000000000000000000000000000000000000000000000000000000000000001691631f00ca7491610d7d918890600401611e41565b60006040518083038186803b158015610d9557600080fd5b505afa158015610da9573d6000803e3d6000fd5b505050506040513d6000823e601f3d908101601f19168201604052610dd19190810190611c29565b9050600081600081518110610df657634e487b7160e01b600052603260045260246000fd5b6020026020010151905080831015610e0b5750815b610e406001600160a01b0387167f000000000000000000000000000000000000000000000000000000000000000060006113f5565b610e746001600160a01b0387167f0000000000000000000000000000000000000000000000000000000000000000836113f5565b6000866001600160a01b031663313ce5676040518163ffffffff1660e01b815260040160206040518083038186803b158015610eaf57600080fd5b505afa158015610ec3573d6000803e3d6000fd5b505050506040513d601f19601f82011682018060405250810190610ee79190611d20565b60ff1690506000610ef982600a611f14565b6001600160a01b038c16600090815260026020526040902054610f1c9085611fe2565b610f269190611eae565b905060008111610f785760405162461bcd60e51b815260206004820152601a60248201527f4d757374206861766520736f6d6520707269636520666c6f6f720000000000006044820152606401610270565b6001600160a01b037f0000000000000000000000000000000000000000000000000000000000000000166338ed173984838a30610fb742610708611e96565b6040518663ffffffff1660e01b8152600401610fd7959493929190611e5a565b600060405180830381600087803b158015610ff157600080fd5b505af1158015611005573d6000803e3d6000fd5b505050506040513d6000823e601f3d908101601f1916820160405261102d9190810190611c29565b50600061105a8a7f000000000000000000000000000000000000000000000000000000000000000061151e565b90506000611066611703565b905061109d6001600160a01b037f0000000000000000000000000000000000000000000000000000000000000000168260006113f5565b6110d16001600160a01b037f00000000000000000000000000000000000000000000000000000000000000001682846113f5565b6040516313e8da7160e21b81526001600160a01b037f00000000000000000000000000000000000000000000000000000000000000008116600483015260248201849052821690634fa369c490604401600060405180830381600087803b15801561113b57600080fd5b505af115801561114f573d6000803e3d6000fd5b5050604080517f00000000000000000000000000000000000000000000000000000000000000006001600160a01b039081168252602082018790528f8116828401529151918e1693507fbf8c93ffab42c7a8745e30d00eef080c6704962d26f0b42a0e9d9589b7417af1925081900360600190a250505050505050505050505050565b60007f00000000000000000000000000000000000000000000000000000000000000006001600160a01b0316630c340a246040518163ffffffff1660e01b815260040160206040518083038186803b15801561122d57600080fd5b505afa158015611241573d6000803e3d6000fd5b505050506040513d601f19601f820116820180604052508101906112659190611b0f565b905090565b6040516385acd64160e01b81527f9409903de1e6fd852dfc61c9dacb48196c48535b60e25abf92acc92dd689078d60048201526000907f00000000000000000000000000000000000000000000000000000000000000006001600160a01b0316906385acd641906024015b60206040518083038186803b15801561122d57600080fd5b805160009082828261130f57634e487b7160e01b600052603260045260246000fd5b60200260200101516001600160a01b0316856001600160a01b031614801561137957508261133e600183612001565b8151811061135c57634e487b7160e01b600052603260045260246000fd5b60200260200101516001600160a01b0316846001600160a01b0316145b9150505b9392505050565b6040516001600160a01b03808516602483015283166044820152606481018290526113ef9085906323b872dd60e01b906084015b60408051601f198184030181529190526020810180516001600160e01b03166001600160e01b031990931692909217909152611772565b50505050565b80158061147e5750604051636eb1769f60e11b81523060048201526001600160a01b03838116602483015284169063dd62ed3e9060440160206040518083038186803b15801561144457600080fd5b505afa158015611458573d6000803e3d6000fd5b505050506040513d601f19601f8201168201806040525081019061147c9190611d08565b155b6114e95760405162461bcd60e51b815260206004820152603660248201527f5361666545524332303a20617070726f76652066726f6d206e6f6e2d7a65726f60448201527520746f206e6f6e2d7a65726f20616c6c6f77616e636560501b6064820152608401610270565b6040516001600160a01b03831660248201526044810182905261151990849063095ea7b360e01b906064016113b8565b505050565b6040516370a0823160e01b815230600482015260009081906001600160a01b038516906370a082319060240160206040518083038186803b15801561156257600080fd5b505afa158015611576573d6000803e3d6000fd5b505050506040513d601f19601f8201168201806040525081019061159a9190611d08565b90506115b16001600160a01b0385168460006113f5565b6115c56001600160a01b03851684836113f5565b6000846001600160a01b031663313ce5676040518163ffffffff1660e01b815260040160206040518083038186803b15801561160057600080fd5b505afa158015611614573d6000803e3d6000fd5b505050506040513d601f19601f820116820180604052508101906116389190611d20565b60ff169050600061164a82600a611f14565b61165c84670c7d713b49da0000611fe2565b6116669190611eae565b604051637ba5ff4760e11b81526001600160a01b03888116600483015260248201869052604482018390523060648301529192509086169063f74bfe8e90608401602060405180830381600087803b1580156116c157600080fd5b505af11580156116d5573d6000803e3d6000fd5b505050506040513d601f19601f820116820180604052508101906116f99190611d08565b9695505050505050565b6040516385acd64160e01b81527f12fe936c77a1e196473c4314f3bed8eeac1d757b319abb85bdda70df35511bf160048201526000907f00000000000000000000000000000000000000000000000000000000000000006001600160a01b0316906385acd641906024016112d5565b60006117c7826040518060400160405280602081526020017f5361666545524332303a206c6f772d6c6576656c2063616c6c206661696c6564815250856001600160a01b03166118449092919063ffffffff16565b80519091501561151957808060200190518101906117e59190611ce8565b6115195760405162461bcd60e51b815260206004820152602a60248201527f5361666545524332303a204552433230206f7065726174696f6e20646964206e6044820152691bdd081cdd58d8d9595960b21b6064820152608401610270565b6060611853848460008561185b565b949350505050565b6060824710156118bc5760405162461bcd60e51b815260206004820152602660248201527f416464726573733a20696e73756666696369656e742062616c616e636520666f6044820152651c8818d85b1b60d21b6064820152608401610270565b843b61190a5760405162461bcd60e51b815260206004820152601d60248201527f416464726573733a2063616c6c20746f206e6f6e2d636f6e74726163740000006044820152606401610270565b600080866001600160a01b031685876040516119269190611d84565b60006040518083038185875af1925050503d8060008114611963576040519150601f19603f3d011682016040523d82523d6000602084013e611968565b606091505b5091509150611978828286611983565b979650505050505050565b6060831561199257508161137d565b8251156119a25782518084602001fd5b8160405162461bcd60e51b81526004016102709190611da0565b828054828255906000526020600020908101928215611a0f579160200282015b82811115611a0f5781546001600160a01b0319166001600160a01b038435161782556020909201916001909101906119dc565b50611a1b929150611a95565b5090565b828054828255906000526020600020908101928215611a0f579160200282015b82811115611a0f57825182546001600160a01b0319166001600160a01b03909116178255602090920191600190910190611a3f565b5080546000825590600052602060002090810190611a929190611a95565b50565b5b80821115611a1b5760008155600101611a96565b60008083601f840112611abb578081fd5b50813567ffffffffffffffff811115611ad2578182fd5b6020830191508360208083028501011115611aec57600080fd5b9250929050565b600060208284031215611b04578081fd5b813561137d81612070565b600060208284031215611b20578081fd5b815161137d81612070565b600080600080600080600060c0888a031215611b45578283fd5b8735611b5081612070565b96506020880135611b6081612070565b95506040880135611b7081612070565b9450606088013567ffffffffffffffff811115611b8b578384fd5b611b978a828b01611aaa565b989b979a50959895979660808701359660a0013595509350505050565b60008060008060008060a08789031215611bcc578182fd5b8635611bd781612070565b95506020870135611be781612070565b9450604087013567ffffffffffffffff811115611c02578283fd5b611c0e89828a01611aaa565b979a9699509760608101359660809091013595509350505050565b60006020808385031215611c3b578182fd5b825167ffffffffffffffff80821115611c52578384fd5b818501915085601f830112611c65578384fd5b815181811115611c7757611c7761205a565b838102604051601f19603f83011681018181108582111715611c9b57611c9b61205a565b604052828152858101935084860182860187018a1015611cb9578788fd5b8795505b83861015611cdb578051855260019590950194938601938601611cbd565b5098975050505050505050565b600060208284031215611cf9578081fd5b8151801515811461137d578182fd5b600060208284031215611d19578081fd5b5051919050565b600060208284031215611d31578081fd5b815160ff8116811461137d578182fd5b6000815180845260208085019450808401835b83811015611d795781516001600160a01b031687529582019590820190600101611d54565b509495945050505050565b60008251611d96818460208701612018565b9190910192915050565b6000602082528251806020840152611dbf816040850160208701612018565b601f01601f19169190910160400192915050565b6020808252601b908201527f4f6e6c7920676f7665726e616e63652063616e20657865637574650000000000604082015260600190565b6020808252601a908201527f4c69717569646174696f6e20646f6573206e6f74206578697374000000000000604082015260600190565b6000838252604060208301526118536040830184611d41565b600086825285602083015260a06040830152611e7960a0830186611d41565b6001600160a01b0394909416606083015250608001529392505050565b60008219821115611ea957611ea9612044565b500190565b600082611ec957634e487b7160e01b81526012600452602481fd5b500490565b80825b6001808611611ee05750611f0b565b818704821115611ef257611ef2612044565b80861615611eff57918102915b9490941c938002611ed1565b94509492505050565b600061137d6000198484600082611f2d5750600161137d565b81611f3a5750600061137d565b8160018114611f505760028114611f5a57611f87565b600191505061137d565b60ff841115611f6b57611f6b612044565b6001841b915084821115611f8157611f81612044565b5061137d565b5060208310610133831016604e8410600b8410161715611fba575081810a83811115611fb557611fb5612044565b61137d565b611fc78484846001611ece565b808604821115611fd957611fd9612044565b02949350505050565b6000816000190483118215151615611ffc57611ffc612044565b500290565b60008282101561201357612013612044565b500390565b60005b8381101561203357818101518382015260200161201b565b838111156113ef5750506000910152565b634e487b7160e01b600052601160045260246000fd5b634e487b7160e01b600052604160045260246000fd5b6001600160a01b0381168114611a9257600080fdfea2646970667358221220b436bd7d33fe675749d14073662b3d39b1b1f5df0f036fda6010eef3bae773f464736f6c63430008020033",
  "linkReferences": {},
  "deployedLinkReferences": {}
}