{
  "_format": "hh-sol-artifact-1",
  "contractName": "Liquidator",
  "sourceName": "contracts/masset/liquidator/Liquidator.sol",
  "abi": [
    {
      "inputs": [
        {
          "internalType": "address",
          "name": "_nexus",
          "type": "address"
        }
      ],
      "stateMutability": "nonpayable",
      "type": "constructor"
    },
    {
      "anonymous": false,
      "inputs": [
        {
          "indexed": true,
          "internalType": "address",
          "name": "sellToken",
          "type": "address"
        },
        {
          "indexed": false,
          "internalType": "address",
          "name": "mUSD",
          "type": "address"
        },
        {
          "indexed": false,
          "internalType": "uint256",
          "name": "mUSDAmount",
          "type": "uint256"
        },
        {
          "indexed": false,
          "internalType": "address",
          "name": "buyToken",
          "type": "address"
        }
      ],
      "name": "Liquidated",
      "type": "event"
    },
    {
      "anonymous": false,
      "inputs": [
        {
          "indexed": true,
          "internalType": "address",
          "name": "integration",
          "type": "address"
        }
      ],
      "name": "LiquidationEnded",
      "type": "event"
    },
    {
      "anonymous": false,
      "inputs": [
        {
          "indexed": true,
          "internalType": "address",
          "name": "integration",
          "type": "address"
        }
      ],
      "name": "LiquidationModified",
      "type": "event"
    },
    {
      "inputs": [
        {
          "internalType": "address",
          "name": "_integration",
          "type": "address"
        },
        {
          "internalType": "address",
          "name": "_sellToken",
          "type": "address"
        },
        {
          "internalType": "address",
          "name": "_bAsset",
          "type": "address"
        },
        {
          "internalType": "int128",
          "name": "_curvePosition",
          "type": "int128"
        },
        {
          "internalType": "address[]",
          "name": "_uniswapPath",
          "type": "address[]"
        },
        {
          "internalType": "uint256",
          "name": "_trancheAmount",
          "type": "uint256"
        },
        {
          "internalType": "uint256",
          "name": "_minReturn",
          "type": "uint256"
        }
      ],
      "name": "createLiquidation",
      "outputs": [],
      "stateMutability": "nonpayable",
      "type": "function"
    },
    {
      "inputs": [],
      "name": "curve",
      "outputs": [
        {
          "internalType": "contract ICurveMetaPool",
          "name": "",
          "type": "address"
        }
      ],
      "stateMutability": "view",
      "type": "function"
    },
    {
      "inputs": [
        {
          "internalType": "address",
          "name": "_integration",
          "type": "address"
        }
      ],
      "name": "deleteLiquidation",
      "outputs": [],
      "stateMutability": "nonpayable",
      "type": "function"
    },
    {
      "inputs": [
        {
          "internalType": "address",
          "name": "_uniswap",
          "type": "address"
        },
        {
          "internalType": "address",
          "name": "_curve",
          "type": "address"
        },
        {
          "internalType": "address",
          "name": "_mUSD",
          "type": "address"
        }
      ],
      "name": "initialize",
      "outputs": [],
      "stateMutability": "nonpayable",
      "type": "function"
    },
    {
      "inputs": [
        {
          "internalType": "address",
          "name": "",
          "type": "address"
        }
      ],
      "name": "liquidations",
      "outputs": [
        {
          "internalType": "address",
          "name": "sellToken",
          "type": "address"
        },
        {
          "internalType": "address",
          "name": "bAsset",
          "type": "address"
        },
        {
          "internalType": "int128",
          "name": "curvePosition",
          "type": "int128"
        },
        {
          "internalType": "uint256",
          "name": "lastTriggered",
          "type": "uint256"
        },
        {
          "internalType": "uint256",
          "name": "trancheAmount",
          "type": "uint256"
        }
      ],
      "stateMutability": "view",
      "type": "function"
    },
    {
      "inputs": [],
      "name": "mUSD",
      "outputs": [
        {
          "internalType": "address",
          "name": "",
          "type": "address"
        }
      ],
      "stateMutability": "view",
      "type": "function"
    },
    {
      "inputs": [
        {
          "internalType": "address",
          "name": "",
          "type": "address"
        }
      ],
      "name": "minReturn",
      "outputs": [
        {
          "internalType": "uint256",
          "name": "",
          "type": "uint256"
        }
      ],
      "stateMutability": "view",
      "type": "function"
    },
    {
      "inputs": [],
      "name": "nexus",
      "outputs": [
        {
          "internalType": "contract INexus",
          "name": "",
          "type": "address"
        }
      ],
      "stateMutability": "view",
      "type": "function"
    },
    {
      "inputs": [
        {
          "internalType": "address",
          "name": "_integration",
          "type": "address"
        }
      ],
      "name": "triggerLiquidation",
      "outputs": [],
      "stateMutability": "nonpayable",
      "type": "function"
    },
    {
      "inputs": [],
      "name": "uniswap",
      "outputs": [
        {
          "internalType": "contract IUniswapV2Router02",
          "name": "",
          "type": "address"
        }
      ],
      "stateMutability": "view",
      "type": "function"
    },
    {
      "inputs": [
        {
          "internalType": "address",
          "name": "_integration",
          "type": "address"
        },
        {
          "internalType": "address",
          "name": "_bAsset",
          "type": "address"
        },
        {
          "internalType": "int128",
          "name": "_curvePosition",
          "type": "int128"
        },
        {
          "internalType": "address[]",
          "name": "_uniswapPath",
          "type": "address[]"
        },
        {
          "internalType": "uint256",
          "name": "_trancheAmount",
          "type": "uint256"
        },
        {
          "internalType": "uint256",
          "name": "_minReturn",
          "type": "uint256"
        }
      ],
      "name": "updateBasset",
      "outputs": [],
      "stateMutability": "nonpayable",
      "type": "function"
    }
  ],
  "bytecode": "0x60a060405262093a806003553480156200001857600080fd5b5060405162002467380380620024678339810160408190526200003b91620000ae565b806001600160a01b038116620000975760405162461bcd60e51b815260206004820152601560248201527f4e657875732061646472657373206973207a65726f0000000000000000000000604482015260640160405180910390fd5b60601b6001600160601b03191660805250620000de565b600060208284031215620000c0578081fd5b81516001600160a01b0381168114620000d7578182fd5b9392505050565b60805160601c61235562000112600039600081816101d8015281816113d6015281816114a2015261194601526123556000f3fe608060405234801561001057600080fd5b50600436106100a95760003560e01c8063937d4c4211610071578063937d4c4214610147578063a3f5c1d2146101d3578063b350df5d146101fa578063c0c53b8b1461020d578063cad4f58814610220578063f09a1d0014610233576100a9565b80630ac1ff80146100ae5780632681f7e4146100e15780636495df271461010c5780637165485d146101215780637e9fd22214610134575b600080fd5b6100ce6100bc366004611d21565b60056020526000908152604090205481565b6040519081526020015b60405180910390f35b6002546100f4906001600160a01b031681565b6040516001600160a01b0390911681526020016100d8565b61011f61011a366004611e3c565b61024c565b005b6001546100f4906001600160a01b031681565b61011f610142366004611d21565b61057b565b610197610155366004611d21565b6004602081905260009182526040909120805460018201546002830154938301546005909301546001600160a01b03928316949190921692600f9190910b9185565b604080516001600160a01b039687168152959094166020860152600f9290920b928401929092526060830191909152608082015260a0016100d8565b6100f47f000000000000000000000000000000000000000000000000000000000000000081565b61011f610208366004611d21565b610777565b61011f61021b366004611d59565b610e97565b61011f61022e366004611da3565b611099565b6000546100f4906201000090046001600160a01b031681565b6102546113d2565b6001600160a01b0316336001600160a01b0316148061028b575061027661146a565b6001600160a01b0316336001600160a01b0316145b6102b05760405162461bcd60e51b81526004016102a79061206d565b60405180910390fd5b6001600160a01b038088166000908152600460209081526040808320815160c0810183528154861681526001820154909516858401526002810154600f90810b810b900b8583015260038101805483518186028101860190945280845294959491936060860193929083018282801561035257602002820191906000526020600020905b81546001600160a01b03168152600190910190602001808311610334575b505050918352505060048201546020808301919091526005909201546040909101528101519091506001600160a01b0381166103a05760405162461bcd60e51b81526004016102a7906120a4565b600083116103f05760405162461bcd60e51b815260206004820152601b60248201527f4d7573742073657420736f6d65206d696e696d756d2076616c7565000000000060448201526064016102a7565b6001600160a01b0388166104375760405162461bcd60e51b815260206004820152600e60248201526d125b9d985b1a590818905cdcd95d60921b60448201526064016102a7565b6104798260000151898888808060200260200160405190810160405280939291908181526020018383602002808284376000920191909152506114ed92505050565b6104bc5760405162461bcd60e51b8152602060048201526014602482015273092dcecc2d8d2c840eadcd2e6eec2e040e0c2e8d60631b60448201526064016102a7565b6001600160a01b0389811660009081526004602052604090206001810180546001600160a01b031916928b16929092179091556002810180546001600160801b0319166001600160801b03600f8b900b1617905561051e906003018787611bd8565b506001600160a01b03891660008181526004602090815260408083206005908101899055909152808220869055517f52f63ab5789c9a266379c35974b035fb9f7079ec0effab1b31e7ad82fadb488a9190a2505050505050505050565b6105836113d2565b6001600160a01b0316336001600160a01b031614806105ba57506105a561146a565b6001600160a01b0316336001600160a01b0316145b6105d65760405162461bcd60e51b81526004016102a79061206d565b6001600160a01b038082166000908152600460209081526040808320815160c0810183528154861681526001820154909516858401526002810154600f90810b810b900b8583015260038101805483518186028101860190945280845294959491936060860193929083018282801561067857602002820191906000526020600020905b81546001600160a01b0316815260019091019060200180831161065a575b5050505050815260200160048201548152602001600582015481525050905060006001600160a01b031681602001516001600160a01b031614156106ce5760405162461bcd60e51b81526004016102a7906120a4565b6001600160a01b038216600090815260046020526040812080546001600160a01b0319908116825560018201805490911690556002810180546001600160801b0319169055906107216003830182611c3b565b5060006004820181905560059182018190556001600160a01b0384168082526020929092526040808220829055517fe513b42585b0ceec0d56d56fe3a23861c15a2f74eb4c32c94334d63d68ff4dcf9190a25050565b3233146107b45760405162461bcd60e51b815260206004820152600b60248201526a4d75737420626520454f4160a81b60448201526064016102a7565b6001600160a01b038082166000908152600460209081526040808320815160c0810183528154861681526001820154909516858401526002810154600f90810b810b900b8583015260038101805483518186028101860190945280845294959491936060860193929083018282801561085657602002820191906000526020600020905b81546001600160a01b03168152600190910190602001808311610838575b505050918352505060048201546020808301919091526005909201546040909101528101519091506001600160a01b0381166108a45760405162461bcd60e51b81526004016102a7906120a4565b60808201516108b69062093a80612130565b42116108fd5760405162461bcd60e51b8152602060048201526016602482015275135d5cdd081dd85a5d08199bdc881a5b9d195c9d985b60521b60448201526064016102a7565b6001600160a01b03838116600081815260046020819052604080832042908301558651606088015191516370a0823160e01b81529283019490945292938416906370a082319060240160206040518083038186803b15801561095e57600080fd5b505afa158015610972573d6000803e3d6000fd5b505050506040513d601f19601f820116820180604052508101906109969190611fa2565b905080156109b3576109b36001600160a01b038416873084611584565b6040516370a0823160e01b81523060048201526000906001600160a01b038516906370a082319060240160206040518083038186803b1580156109f557600080fd5b505afa158015610a09573d6000803e3d6000fd5b505050506040513d601f19601f82011682018060405250810190610a2d9190611fa2565b905060008111610a7f5760405162461bcd60e51b815260206004820152601b60248201527f4e6f2073656c6c20746f6b656e7320746f206c6971756964617465000000000060448201526064016102a7565b60008660a0015111610ad35760405162461bcd60e51b815260206004820152601b60248201527f4c69717569646174696f6e20686173206265656e20706175736564000000000060448201526064016102a7565b60025460a08701516040516307c0329d60e21b81526000926001600160a01b031691631f00ca7491610b0a919088906004016120db565b60006040518083038186803b158015610b2257600080fd5b505afa158015610b36573d6000803e3d6000fd5b505050506040513d6000823e601f3d908101601f19168201604052610b5e9190810190611ec3565b9050600081600081518110610b8357634e487b7160e01b600052603260045260246000fd5b6020026020010151905080831015610b985750815b600254610bb3906001600160a01b03888116911660006115ef565b600254610bcd906001600160a01b038881169116836115ef565b6000866001600160a01b031663313ce5676040518163ffffffff1660e01b815260040160206040518083038186803b158015610c0857600080fd5b505afa158015610c1c573d6000803e3d6000fd5b505050506040513d601f19601f82011682018060405250810190610c409190611fba565b60ff1690506000610c5282600a6121ae565b6001600160a01b038c16600090815260056020526040902054610c75908561227c565b610c7f9190612148565b905060008111610cd15760405162461bcd60e51b815260206004820152601a60248201527f4d757374206861766520736f6d6520707269636520666c6f6f7200000000000060448201526064016102a7565b6002546001600160a01b03166338ed173984838a30610cf242610708612130565b6040518663ffffffff1660e01b8152600401610d129594939291906120f4565b600060405180830381600087803b158015610d2c57600080fd5b505af1158015610d40573d6000803e3d6000fd5b505050506040513d6000823e601f3d908101601f19168201604052610d689190810190611ec3565b506000610d798a8c60400151611718565b90506000610d8561190e565b60008054919250610da7916201000090046001600160a01b03169083906115ef565b600054610dc4906201000090046001600160a01b031682846115ef565b6000546040516313e8da7160e21b8152620100009091046001600160a01b03908116600483015260248201849052821690634fa369c490604401600060405180830381600087803b158015610e1857600080fd5b505af1158015610e2c573d6000803e3d6000fd5b5050600054604080516001600160a01b036201000090930483168152602081018790528f8316818301529051918e1693507fbf8c93ffab42c7a8745e30d00eef080c6704962d26f0b42a0e9d9589b7417af1925081900360600190a250505050505050505050505050565b600054610100900460ff1680610eb0575060005460ff16155b610f135760405162461bcd60e51b815260206004820152602e60248201527f496e697469616c697a61626c653a20636f6e747261637420697320616c72656160448201526d191e481a5b9a5d1a585b1a5e995960921b60648201526084016102a7565b600054610100900460ff16158015610f3e576000805460ff1961ff0019909116610100171660011790555b6001600160a01b038416610f945760405162461bcd60e51b815260206004820152601760248201527f496e76616c696420756e6973776170206164647265737300000000000000000060448201526064016102a7565b600280546001600160a01b0319166001600160a01b03868116919091179091558316610ffa5760405162461bcd60e51b8152602060048201526015602482015274496e76616c6964206375727665206164647265737360581b60448201526064016102a7565b600180546001600160a01b0319166001600160a01b0385811691909117909155821661105f5760405162461bcd60e51b8152602060048201526014602482015273496e76616c6964206d555344206164647265737360601b60448201526064016102a7565b6000805462010000600160b01b031916620100006001600160a01b038516021790558015611093576000805461ff00191690555b50505050565b6110a16113d2565b6001600160a01b0316336001600160a01b031614806110d857506110c361146a565b6001600160a01b0316336001600160a01b0316145b6110f45760405162461bcd60e51b81526004016102a79061206d565b6001600160a01b0388811660009081526004602052604090205416156111675760405162461bcd60e51b815260206004820152602260248201527f4c69717569646174696f6e2065786973747320666f7220746869732062417373604482015261195d60f21b60648201526084016102a7565b6001600160a01b0388161580159061118757506001600160a01b03871615155b801561119b57506001600160a01b03861615155b80156111a8575060028310155b80156111b45750600081115b6111f15760405162461bcd60e51b815260206004820152600e60248201526d496e76616c696420696e7075747360901b60448201526064016102a7565b61122f87878686808060200260200160405190810160405280939291908181526020018383602002808284376000920191909152506114ed92505050565b6112725760405162461bcd60e51b8152602060048201526014602482015273092dcecc2d8d2c840eadcd2e6eec2e040e0c2e8d60631b60448201526064016102a7565b6040518060c00160405280886001600160a01b03168152602001876001600160a01b0316815260200186600f0b81526020018585808060200260200160405190810160405280939291908181526020018383602002808284376000920182905250938552505050602080830182905260409283018690526001600160a01b03808d1683526004825291839020845181549084166001600160a01b0319918216178255858301516001830180549190951691161790925591830151600282018054600f9290920b6001600160801b03166001600160801b031990921691909117905560608301518051919261136e92600385019290910190611c5c565b506080820151600482015560a0909101516005918201556001600160a01b038916600081815260209290925260408083208490555190917f52f63ab5789c9a266379c35974b035fb9f7079ec0effab1b31e7ad82fadb488a91a25050505050505050565b60007f00000000000000000000000000000000000000000000000000000000000000006001600160a01b0316630c340a246040518163ffffffff1660e01b815260040160206040518083038186803b15801561142d57600080fd5b505afa158015611441573d6000803e3d6000fd5b505050506040513d601f19601f820116820180604052508101906114659190611d3d565b905090565b6040516385acd64160e01b81527f9409903de1e6fd852dfc61c9dacb48196c48535b60e25abf92acc92dd689078d60048201526000907f00000000000000000000000000000000000000000000000000000000000000006001600160a01b0316906385acd641906024015b60206040518083038186803b15801561142d57600080fd5b805160009082828261150f57634e487b7160e01b600052603260045260246000fd5b60200260200101516001600160a01b0316856001600160a01b031614801561157957508261153e60018361229b565b8151811061155c57634e487b7160e01b600052603260045260246000fd5b60200260200101516001600160a01b0316846001600160a01b0316145b9150505b9392505050565b6040516001600160a01b03808516602483015283166044820152606481018290526110939085906323b872dd60e01b906084015b60408051601f198184030181529190526020810180516001600160e01b03166001600160e01b03199093169290921790915261197d565b8015806116785750604051636eb1769f60e11b81523060048201526001600160a01b03838116602483015284169063dd62ed3e9060440160206040518083038186803b15801561163e57600080fd5b505afa158015611652573d6000803e3d6000fd5b505050506040513d601f19601f820116820180604052508101906116769190611fa2565b155b6116e35760405162461bcd60e51b815260206004820152603660248201527f5361666545524332303a20617070726f76652066726f6d206e6f6e2d7a65726f60448201527520746f206e6f6e2d7a65726f20616c6c6f77616e636560501b60648201526084016102a7565b6040516001600160a01b03831660248201526044810182905261171390849063095ea7b360e01b906064016115b8565b505050565b6040516370a0823160e01b815230600482015260009081906001600160a01b038516906370a082319060240160206040518083038186803b15801561175c57600080fd5b505afa158015611770573d6000803e3d6000fd5b505050506040513d601f19601f820116820180604052508101906117949190611fa2565b6001549091506117b2906001600160a01b03868116911660006115ef565b6001546117cc906001600160a01b038681169116836115ef565b6000846001600160a01b031663313ce5676040518163ffffffff1660e01b815260040160206040518083038186803b15801561180757600080fd5b505afa15801561181b573d6000803e3d6000fd5b505050506040513d601f19601f8201168201806040525081019061183f9190611fba565b60ff169050600061185182600a6121ae565b61186384670d2f13f7789f000061227c565b61186d9190612148565b600154604051635320bf6b60e11b8152600f88900b60048201526000602482015260448101869052606481018390529192506001600160a01b03169063a6417ed690608401602060405180830381600087803b1580156118cc57600080fd5b505af11580156118e0573d6000803e3d6000fd5b505050506040513d601f19601f820116820180604052508101906119049190611fa2565b9695505050505050565b6040516385acd64160e01b81527f12fe936c77a1e196473c4314f3bed8eeac1d757b319abb85bdda70df35511bf160048201526000907f00000000000000000000000000000000000000000000000000000000000000006001600160a01b0316906385acd641906024016114d5565b60006119d2826040518060400160405280602081526020017f5361666545524332303a206c6f772d6c6576656c2063616c6c206661696c6564815250856001600160a01b0316611a4f9092919063ffffffff16565b80519091501561171357808060200190518101906119f09190611f82565b6117135760405162461bcd60e51b815260206004820152602a60248201527f5361666545524332303a204552433230206f7065726174696f6e20646964206e6044820152691bdd081cdd58d8d9595960b21b60648201526084016102a7565b6060611a5e8484600085611a66565b949350505050565b606082471015611ac75760405162461bcd60e51b815260206004820152602660248201527f416464726573733a20696e73756666696369656e742062616c616e636520666f6044820152651c8818d85b1b60d21b60648201526084016102a7565b611ad085611b95565b611b1c5760405162461bcd60e51b815260206004820152601d60248201527f416464726573733a2063616c6c20746f206e6f6e2d636f6e747261637400000060448201526064016102a7565b600080866001600160a01b03168587604051611b38919061201e565b60006040518083038185875af1925050503d8060008114611b75576040519150601f19603f3d011682016040523d82523d6000602084013e611b7a565b606091505b5091509150611b8a828286611b9f565b979650505050505050565b803b15155b919050565b60608315611bae57508161157d565b825115611bbe5782518084602001fd5b8160405162461bcd60e51b81526004016102a7919061203a565b828054828255906000526020600020908101928215611c2b579160200282015b82811115611c2b5781546001600160a01b0319166001600160a01b03843516178255602090920191600190910190611bf8565b50611c37929150611cb1565b5090565b5080546000825590600052602060002090810190611c599190611cb1565b50565b828054828255906000526020600020908101928215611c2b579160200282015b82811115611c2b57825182546001600160a01b0319166001600160a01b03909116178255602090920191600190910190611c7c565b5b80821115611c375760008155600101611cb2565b60008083601f840112611cd7578081fd5b50813567ffffffffffffffff811115611cee578182fd5b6020830191508360208083028501011115611d0857600080fd5b9250929050565b8035600f81900b8114611b9a57600080fd5b600060208284031215611d32578081fd5b813561157d8161230a565b600060208284031215611d4e578081fd5b815161157d8161230a565b600080600060608486031215611d6d578182fd5b8335611d788161230a565b92506020840135611d888161230a565b91506040840135611d988161230a565b809150509250925092565b60008060008060008060008060e0898b031215611dbe578384fd5b8835611dc98161230a565b97506020890135611dd98161230a565b96506040890135611de98161230a565b9550611df760608a01611d0f565b9450608089013567ffffffffffffffff811115611e12578485fd5b611e1e8b828c01611cc6565b999c989b5096999598969760a08701359660c0013595509350505050565b600080600080600080600060c0888a031215611e56578283fd5b8735611e618161230a565b96506020880135611e718161230a565b9550611e7f60408901611d0f565b9450606088013567ffffffffffffffff811115611e9a578384fd5b611ea68a828b01611cc6565b989b979a50959895979660808701359660a0013595509350505050565b60006020808385031215611ed5578182fd5b825167ffffffffffffffff80821115611eec578384fd5b818501915085601f830112611eff578384fd5b815181811115611f1157611f116122f4565b838102604051601f19603f83011681018181108582111715611f3557611f356122f4565b604052828152858101935084860182860187018a1015611f53578788fd5b8795505b83861015611f75578051855260019590950194938601938601611f57565b5098975050505050505050565b600060208284031215611f93578081fd5b8151801515811461157d578182fd5b600060208284031215611fb3578081fd5b5051919050565b600060208284031215611fcb578081fd5b815160ff8116811461157d578182fd5b6000815180845260208085019450808401835b838110156120135781516001600160a01b031687529582019590820190600101611fee565b509495945050505050565b600082516120308184602087016122b2565b9190910192915050565b60006020825282518060208401526120598160408501602087016122b2565b601f01601f19169190910160400192915050565b6020808252601b908201527f4f6e6c7920676f7665726e616e63652063616e20657865637574650000000000604082015260600190565b6020808252601a908201527f4c69717569646174696f6e20646f6573206e6f74206578697374000000000000604082015260600190565b600083825260406020830152611a5e6040830184611fdb565b600086825285602083015260a0604083015261211360a0830186611fdb565b6001600160a01b0394909416606083015250608001529392505050565b60008219821115612143576121436122de565b500190565b60008261216357634e487b7160e01b81526012600452602481fd5b500490565b80825b600180861161217a57506121a5565b81870482111561218c5761218c6122de565b8086161561219957918102915b9490941c93800261216b565b94509492505050565b600061157d60001984846000826121c75750600161157d565b816121d45750600061157d565b81600181146121ea57600281146121f457612221565b600191505061157d565b60ff841115612205576122056122de565b6001841b91508482111561221b5761221b6122de565b5061157d565b5060208310610133831016604e8410600b8410161715612254575081810a8381111561224f5761224f6122de565b61157d565b6122618484846001612168565b808604821115612273576122736122de565b02949350505050565b6000816000190483118215151615612296576122966122de565b500290565b6000828210156122ad576122ad6122de565b500390565b60005b838110156122cd5781810151838201526020016122b5565b838111156110935750506000910152565b634e487b7160e01b600052601160045260246000fd5b634e487b7160e01b600052604160045260246000fd5b6001600160a01b0381168114611c5957600080fdfea264697066735822122006821f256907b732da96dba4c0e9faa473ed26587fd47afbd37f9ecb35f1ab3a64736f6c63430008020033",
  "linkReferences": {},
  "deployedLinkReferences": {}
}